{
	"ChaiToken.sol": {
		"ChaiToken": {
			"abi": [
				{
					"inputs": [
						{
							"internalType": "address",
							"name": "initialOwner",
							"type": "address"
						},
						{
							"internalType": "address",
							"name": "_taxAddress",
							"type": "address"
						}
					],
					"stateMutability": "nonpayable",
					"type": "constructor"
				},
				{
					"inputs": [
						{
							"internalType": "address",
							"name": "spender",
							"type": "address"
						},
						{
							"internalType": "uint256",
							"name": "allowance",
							"type": "uint256"
						},
						{
							"internalType": "uint256",
							"name": "needed",
							"type": "uint256"
						}
					],
					"name": "ERC20InsufficientAllowance",
					"type": "error"
				},
				{
					"inputs": [
						{
							"internalType": "address",
							"name": "sender",
							"type": "address"
						},
						{
							"internalType": "uint256",
							"name": "balance",
							"type": "uint256"
						},
						{
							"internalType": "uint256",
							"name": "needed",
							"type": "uint256"
						}
					],
					"name": "ERC20InsufficientBalance",
					"type": "error"
				},
				{
					"inputs": [
						{
							"internalType": "address",
							"name": "approver",
							"type": "address"
						}
					],
					"name": "ERC20InvalidApprover",
					"type": "error"
				},
				{
					"inputs": [
						{
							"internalType": "address",
							"name": "receiver",
							"type": "address"
						}
					],
					"name": "ERC20InvalidReceiver",
					"type": "error"
				},
				{
					"inputs": [
						{
							"internalType": "address",
							"name": "sender",
							"type": "address"
						}
					],
					"name": "ERC20InvalidSender",
					"type": "error"
				},
				{
					"inputs": [
						{
							"internalType": "address",
							"name": "spender",
							"type": "address"
						}
					],
					"name": "ERC20InvalidSpender",
					"type": "error"
				},
				{
					"inputs": [
						{
							"internalType": "address",
							"name": "owner",
							"type": "address"
						}
					],
					"name": "OwnableInvalidOwner",
					"type": "error"
				},
				{
					"inputs": [
						{
							"internalType": "address",
							"name": "account",
							"type": "address"
						}
					],
					"name": "OwnableUnauthorizedAccount",
					"type": "error"
				},
				{
					"anonymous": false,
					"inputs": [
						{
							"indexed": true,
							"internalType": "address",
							"name": "owner",
							"type": "address"
						},
						{
							"indexed": true,
							"internalType": "address",
							"name": "spender",
							"type": "address"
						},
						{
							"indexed": false,
							"internalType": "uint256",
							"name": "value",
							"type": "uint256"
						}
					],
					"name": "Approval",
					"type": "event"
				},
				{
					"anonymous": false,
					"inputs": [
						{
							"indexed": true,
							"internalType": "address",
							"name": "previousOwner",
							"type": "address"
						},
						{
							"indexed": true,
							"internalType": "address",
							"name": "newOwner",
							"type": "address"
						}
					],
					"name": "OwnershipTransferred",
					"type": "event"
				},
				{
					"anonymous": false,
					"inputs": [
						{
							"indexed": true,
							"internalType": "address",
							"name": "from",
							"type": "address"
						},
						{
							"indexed": true,
							"internalType": "address",
							"name": "to",
							"type": "address"
						},
						{
							"indexed": false,
							"internalType": "uint256",
							"name": "value",
							"type": "uint256"
						}
					],
					"name": "Transfer",
					"type": "event"
				},
				{
					"inputs": [],
					"name": "SlippageFees",
					"outputs": [
						{
							"internalType": "uint256",
							"name": "",
							"type": "uint256"
						}
					],
					"stateMutability": "view",
					"type": "function"
				},
				{
					"inputs": [
						{
							"internalType": "address",
							"name": "account",
							"type": "address"
						}
					],
					"name": "addToBlacklist",
					"outputs": [],
					"stateMutability": "nonpayable",
					"type": "function"
				},
				{
					"inputs": [
						{
							"internalType": "address",
							"name": "account",
							"type": "address"
						}
					],
					"name": "addToWhitelist",
					"outputs": [],
					"stateMutability": "nonpayable",
					"type": "function"
				},
				{
					"inputs": [
						{
							"internalType": "address",
							"name": "owner",
							"type": "address"
						},
						{
							"internalType": "address",
							"name": "spender",
							"type": "address"
						}
					],
					"name": "allowance",
					"outputs": [
						{
							"internalType": "uint256",
							"name": "",
							"type": "uint256"
						}
					],
					"stateMutability": "view",
					"type": "function"
				},
				{
					"inputs": [
						{
							"internalType": "address",
							"name": "spender",
							"type": "address"
						},
						{
							"internalType": "uint256",
							"name": "value",
							"type": "uint256"
						}
					],
					"name": "approve",
					"outputs": [
						{
							"internalType": "bool",
							"name": "",
							"type": "bool"
						}
					],
					"stateMutability": "nonpayable",
					"type": "function"
				},
				{
					"inputs": [
						{
							"internalType": "address",
							"name": "account",
							"type": "address"
						}
					],
					"name": "balanceOf",
					"outputs": [
						{
							"internalType": "uint256",
							"name": "",
							"type": "uint256"
						}
					],
					"stateMutability": "view",
					"type": "function"
				},
				{
					"inputs": [],
					"name": "cooldownTime",
					"outputs": [
						{
							"internalType": "uint256",
							"name": "",
							"type": "uint256"
						}
					],
					"stateMutability": "view",
					"type": "function"
				},
				{
					"inputs": [],
					"name": "decimals",
					"outputs": [
						{
							"internalType": "uint8",
							"name": "",
							"type": "uint8"
						}
					],
					"stateMutability": "view",
					"type": "function"
				},
				{
					"inputs": [],
					"name": "disableTax",
					"outputs": [],
					"stateMutability": "nonpayable",
					"type": "function"
				},
				{
					"inputs": [],
					"name": "disableWhiteListing",
					"outputs": [],
					"stateMutability": "nonpayable",
					"type": "function"
				},
				{
					"inputs": [],
					"name": "enableTax",
					"outputs": [],
					"stateMutability": "nonpayable",
					"type": "function"
				},
				{
					"inputs": [],
					"name": "enableWhiteListing",
					"outputs": [],
					"stateMutability": "nonpayable",
					"type": "function"
				},
				{
					"inputs": [],
					"name": "getContractDetails",
					"outputs": [
						{
							"internalType": "address",
							"name": "",
							"type": "address"
						},
						{
							"internalType": "uint256",
							"name": "",
							"type": "uint256"
						},
						{
							"internalType": "uint256",
							"name": "",
							"type": "uint256"
						},
						{
							"internalType": "uint256",
							"name": "",
							"type": "uint256"
						}
					],
					"stateMutability": "view",
					"type": "function"
				},
				{
					"inputs": [],
					"name": "getMaxTxAmount",
					"outputs": [
						{
							"internalType": "uint256",
							"name": "",
							"type": "uint256"
						}
					],
					"stateMutability": "view",
					"type": "function"
				},
				{
					"inputs": [
						{
							"internalType": "address",
							"name": "account",
							"type": "address"
						}
					],
					"name": "isBlacklisted",
					"outputs": [
						{
							"internalType": "bool",
							"name": "",
							"type": "bool"
						}
					],
					"stateMutability": "view",
					"type": "function"
				},
				{
					"inputs": [],
					"name": "isWhiteListingEnabled",
					"outputs": [
						{
							"internalType": "bool",
							"name": "",
							"type": "bool"
						}
					],
					"stateMutability": "view",
					"type": "function"
				},
				{
					"inputs": [
						{
							"internalType": "address",
							"name": "account",
							"type": "address"
						}
					],
					"name": "isWhitelisted",
					"outputs": [
						{
							"internalType": "bool",
							"name": "",
							"type": "bool"
						}
					],
					"stateMutability": "view",
					"type": "function"
				},
				{
					"inputs": [],
					"name": "maxTxAmount",
					"outputs": [
						{
							"internalType": "uint256",
							"name": "",
							"type": "uint256"
						}
					],
					"stateMutability": "view",
					"type": "function"
				},
				{
					"inputs": [],
					"name": "name",
					"outputs": [
						{
							"internalType": "string",
							"name": "",
							"type": "string"
						}
					],
					"stateMutability": "view",
					"type": "function"
				},
				{
					"inputs": [],
					"name": "owner",
					"outputs": [
						{
							"internalType": "address",
							"name": "",
							"type": "address"
						}
					],
					"stateMutability": "view",
					"type": "function"
				},
				{
					"inputs": [
						{
							"internalType": "address",
							"name": "account",
							"type": "address"
						}
					],
					"name": "removeFromBlacklist",
					"outputs": [],
					"stateMutability": "nonpayable",
					"type": "function"
				},
				{
					"inputs": [
						{
							"internalType": "address",
							"name": "account",
							"type": "address"
						}
					],
					"name": "removeFromWhitelist",
					"outputs": [],
					"stateMutability": "nonpayable",
					"type": "function"
				},
				{
					"inputs": [],
					"name": "renounceOwnership",
					"outputs": [],
					"stateMutability": "nonpayable",
					"type": "function"
				},
				{
					"inputs": [
						{
							"internalType": "uint256",
							"name": "newCoolDowntime",
							"type": "uint256"
						}
					],
					"name": "setCoolDownTime",
					"outputs": [],
					"stateMutability": "nonpayable",
					"type": "function"
				},
				{
					"inputs": [
						{
							"internalType": "uint256",
							"name": "newMaxTxAmount",
							"type": "uint256"
						}
					],
					"name": "setMaxTxAmount",
					"outputs": [],
					"stateMutability": "nonpayable",
					"type": "function"
				},
				{
					"inputs": [
						{
							"internalType": "uint256",
							"name": "newSlippageFees",
							"type": "uint256"
						}
					],
					"name": "setSlippageFees",
					"outputs": [],
					"stateMutability": "nonpayable",
					"type": "function"
				},
				{
					"inputs": [
						{
							"internalType": "uint256",
							"name": "newTaxFee",
							"type": "uint256"
						}
					],
					"name": "setTaxes",
					"outputs": [],
					"stateMutability": "nonpayable",
					"type": "function"
				},
				{
					"inputs": [],
					"name": "symbol",
					"outputs": [
						{
							"internalType": "string",
							"name": "",
							"type": "string"
						}
					],
					"stateMutability": "view",
					"type": "function"
				},
				{
					"inputs": [],
					"name": "taxAddress",
					"outputs": [
						{
							"internalType": "address",
							"name": "",
							"type": "address"
						}
					],
					"stateMutability": "view",
					"type": "function"
				},
				{
					"inputs": [],
					"name": "taxFees",
					"outputs": [
						{
							"internalType": "uint256",
							"name": "",
							"type": "uint256"
						}
					],
					"stateMutability": "view",
					"type": "function"
				},
				{
					"inputs": [],
					"name": "totalSupply",
					"outputs": [
						{
							"internalType": "uint256",
							"name": "",
							"type": "uint256"
						}
					],
					"stateMutability": "view",
					"type": "function"
				},
				{
					"inputs": [
						{
							"internalType": "address",
							"name": "to",
							"type": "address"
						},
						{
							"internalType": "uint256",
							"name": "value",
							"type": "uint256"
						}
					],
					"name": "transfer",
					"outputs": [
						{
							"internalType": "bool",
							"name": "",
							"type": "bool"
						}
					],
					"stateMutability": "nonpayable",
					"type": "function"
				},
				{
					"inputs": [
						{
							"internalType": "address",
							"name": "from",
							"type": "address"
						},
						{
							"internalType": "address",
							"name": "to",
							"type": "address"
						},
						{
							"internalType": "uint256",
							"name": "value",
							"type": "uint256"
						}
					],
					"name": "transferFrom",
					"outputs": [
						{
							"internalType": "bool",
							"name": "",
							"type": "bool"
						}
					],
					"stateMutability": "nonpayable",
					"type": "function"
				},
				{
					"inputs": [
						{
							"internalType": "address",
							"name": "newOwner",
							"type": "address"
						}
					],
					"name": "transferOwnership",
					"outputs": [],
					"stateMutability": "nonpayable",
					"type": "function"
				}
			],
			"devdoc": {
				"errors": {
					"ERC20InsufficientAllowance(address,uint256,uint256)": [
						{
							"details": "Indicates a failure with the `spender`’s `allowance`. Used in transfers.",
							"params": {
								"allowance": "Amount of tokens a `spender` is allowed to operate with.",
								"needed": "Minimum amount required to perform a transfer.",
								"spender": "Address that may be allowed to operate on tokens without being their owner."
							}
						}
					],
					"ERC20InsufficientBalance(address,uint256,uint256)": [
						{
							"details": "Indicates an error related to the current `balance` of a `sender`. Used in transfers.",
							"params": {
								"balance": "Current balance for the interacting account.",
								"needed": "Minimum amount required to perform a transfer.",
								"sender": "Address whose tokens are being transferred."
							}
						}
					],
					"ERC20InvalidApprover(address)": [
						{
							"details": "Indicates a failure with the `approver` of a token to be approved. Used in approvals.",
							"params": {
								"approver": "Address initiating an approval operation."
							}
						}
					],
					"ERC20InvalidReceiver(address)": [
						{
							"details": "Indicates a failure with the token `receiver`. Used in transfers.",
							"params": {
								"receiver": "Address to which tokens are being transferred."
							}
						}
					],
					"ERC20InvalidSender(address)": [
						{
							"details": "Indicates a failure with the token `sender`. Used in transfers.",
							"params": {
								"sender": "Address whose tokens are being transferred."
							}
						}
					],
					"ERC20InvalidSpender(address)": [
						{
							"details": "Indicates a failure with the `spender` to be approved. Used in approvals.",
							"params": {
								"spender": "Address that may be allowed to operate on tokens without being their owner."
							}
						}
					],
					"OwnableInvalidOwner(address)": [
						{
							"details": "The owner is not a valid owner account. (eg. `address(0)`)"
						}
					],
					"OwnableUnauthorizedAccount(address)": [
						{
							"details": "The caller account is not authorized to perform an operation."
						}
					]
				},
				"events": {
					"Approval(address,address,uint256)": {
						"details": "Emitted when the allowance of a `spender` for an `owner` is set by a call to {approve}. `value` is the new allowance."
					},
					"Transfer(address,address,uint256)": {
						"details": "Emitted when `value` tokens are moved from one account (`from`) to another (`to`). Note that `value` may be zero."
					}
				},
				"kind": "dev",
				"methods": {
					"allowance(address,address)": {
						"details": "See {IERC20-allowance}."
					},
					"approve(address,uint256)": {
						"details": "See {IERC20-approve}. NOTE: If `value` is the maximum `uint256`, the allowance is not updated on `transferFrom`. This is semantically equivalent to an infinite approval. Requirements: - `spender` cannot be the zero address."
					},
					"balanceOf(address)": {
						"details": "See {IERC20-balanceOf}."
					},
					"decimals()": {
						"details": "Returns the number of decimals used to get its user representation. For example, if `decimals` equals `2`, a balance of `505` tokens should be displayed to a user as `5.05` (`505 / 10 ** 2`). Tokens usually opt for a value of 18, imitating the relationship between Ether and Wei. This is the default value returned by this function, unless it's overridden. NOTE: This information is only used for _display_ purposes: it in no way affects any of the arithmetic of the contract, including {IERC20-balanceOf} and {IERC20-transfer}."
					},
					"name()": {
						"details": "Returns the name of the token."
					},
					"owner()": {
						"details": "Returns the address of the current owner."
					},
					"renounceOwnership()": {
						"details": "Leaves the contract without owner. It will not be possible to call `onlyOwner` functions. Can only be called by the current owner. NOTE: Renouncing ownership will leave the contract without an owner, thereby disabling any functionality that is only available to the owner."
					},
					"symbol()": {
						"details": "Returns the symbol of the token, usually a shorter version of the name."
					},
					"totalSupply()": {
						"details": "See {IERC20-totalSupply}."
					},
					"transfer(address,uint256)": {
						"details": "See {IERC20-transfer}. Requirements: - `to` cannot be the zero address. - the caller must have a balance of at least `value`."
					},
					"transferFrom(address,address,uint256)": {
						"details": "See {IERC20-transferFrom}. Emits an {Approval} event indicating the updated allowance. This is not required by the EIP. See the note at the beginning of {ERC20}. NOTE: Does not update the allowance if the current allowance is the maximum `uint256`. Requirements: - `from` and `to` cannot be the zero address. - `from` must have a balance of at least `value`. - the caller must have allowance for ``from``'s tokens of at least `value`."
					},
					"transferOwnership(address)": {
						"details": "Transfers ownership of the contract to a new account (`newOwner`). Can only be called by the current owner."
					}
				},
				"version": 1
			},
			"evm": {
				"assembly": "    /* \"ChaiToken.sol\":224:4510  contract ChaiToken is ERC20, Ownable {... */\n  mstore(0x40, 0x80)\n    /* \"ChaiToken.sol\":317:327  decimals() */\n  tag_1\n    /* \"ChaiToken.sol\":317:325  decimals */\n  shl(0x20, tag_2)\n    /* \"ChaiToken.sol\":317:327  decimals() */\n  0x20\n  shr\n  jump\t// in\ntag_1:\n    /* \"ChaiToken.sol\":313:315  10 */\n  0x0a\n    /* \"ChaiToken.sol\":313:327  10**decimals() */\n  tag_3\n  swap2\n  swap1\n  tag_4\n  jump\t// in\ntag_3:\n    /* \"ChaiToken.sol\":301:310  100000000 */\n  0x05f5e100\n    /* \"ChaiToken.sol\":301:327  100000000 * 10**decimals() */\n  tag_5\n  swap2\n  swap1\n  tag_6\n  jump\t// in\ntag_5:\n    /* \"ChaiToken.sol\":268:327  uint256 private _initialSupply = 100000000 * 10**decimals() */\n  0x06\n  sstore\n    /* \"ChaiToken.sol\":385:399  _initialSupply */\n  sload(0x06)\n    /* \"ChaiToken.sol\":356:399  uint256 public maxTxAmount = _initialSupply */\n  0x07\n  sstore\n    /* \"ChaiToken.sol\":436:445  1 minutes */\n  0x3c\n    /* \"ChaiToken.sol\":406:445  uint256 public cooldownTime = 1 minutes */\n  0x08\n  sstore\n    /* \"ChaiToken.sol\":477:478  5 */\n  0x05\n    /* \"ChaiToken.sol\":452:478  uint256 public taxFees = 5 */\n  0x09\n  sstore\n    /* \"ChaiToken.sol\":515:516  2 */\n  0x02\n    /* \"ChaiToken.sol\":485:516  uint256 public SlippageFees = 2 */\n  0x0a\n  sstore\n    /* \"ChaiToken.sol\":717:722  false */\n  0x00\n    /* \"ChaiToken.sol\":681:722  bool private _whiteListingEnabled = false */\n  0x0e\n  exp(0x0100, 0x00)\n  dup2\n  sload\n  dup2\n  0xff\n  mul\n  not\n  and\n  swap1\n  dup4\n  iszero\n  iszero\n  mul\n  or\n  swap1\n  sstore\n  pop\n    /* \"ChaiToken.sol\":756:761  false */\n  0x00\n    /* \"ChaiToken.sol\":729:761  bool private _TaxEnabled = false */\n  0x0e\n  exp(0x0100, 0x01)\n  dup2\n  sload\n  dup2\n  0xff\n  mul\n  not\n  and\n  swap1\n  dup4\n  iszero\n  iszero\n  mul\n  or\n  swap1\n  sstore\n  pop\n    /* \"ChaiToken.sol\":805:1107  constructor(address initialOwner, address _taxAddress)... */\n  callvalue\n  dup1\n  iszero\n  tag_7\n  jumpi\n  0x00\n  dup1\n  revert\ntag_7:\n  pop\n  mload(0x40)\n  sub(codesize, bytecodeSize)\n  dup1\n  bytecodeSize\n  dup4\n  codecopy\n  dup2\n  dup2\n  add\n  0x40\n  mstore\n  dup2\n  add\n  swap1\n  tag_8\n  swap2\n  swap1\n  tag_9\n  jump\t// in\ntag_8:\n    /* \"ChaiToken.sol\":913:925  initialOwner */\n  dup2\n    /* \"@openzeppelin/contracts/token/ERC20/ERC20.sol\":1896:2009  constructor(string memory name_, string memory symbol_) {... */\n  mload(0x40)\n  dup1\n  0x40\n  add\n  0x40\n  mstore\n  dup1\n  0x09\n  dup2\n  mstore\n  0x20\n  add\n  0x43686169546f6b656e0000000000000000000000000000000000000000000000\n  dup2\n  mstore\n  pop\n  mload(0x40)\n  dup1\n  0x40\n  add\n  0x40\n  mstore\n  dup1\n  0x04\n  dup2\n  mstore\n  0x20\n  add\n  0x4368616900000000000000000000000000000000000000000000000000000000\n  dup2\n  mstore\n  pop\n    /* \"@openzeppelin/contracts/token/ERC20/ERC20.sol\":1970:1975  name_ */\n  dup2\n    /* \"@openzeppelin/contracts/token/ERC20/ERC20.sol\":1962:1967  _name */\n  0x03\n    /* \"@openzeppelin/contracts/token/ERC20/ERC20.sol\":1962:1975  _name = name_ */\n  swap1\n  dup2\n  tag_14\n  swap2\n  swap1\n  tag_15\n  jump\t// in\ntag_14:\n  pop\n    /* \"@openzeppelin/contracts/token/ERC20/ERC20.sol\":1995:2002  symbol_ */\n  dup1\n    /* \"@openzeppelin/contracts/token/ERC20/ERC20.sol\":1985:1992  _symbol */\n  0x04\n    /* \"@openzeppelin/contracts/token/ERC20/ERC20.sol\":1985:2002  _symbol = symbol_ */\n  swap1\n  dup2\n  tag_16\n  swap2\n  swap1\n  tag_15\n  jump\t// in\ntag_16:\n  pop\n    /* \"@openzeppelin/contracts/token/ERC20/ERC20.sol\":1896:2009  constructor(string memory name_, string memory symbol_) {... */\n  pop\n  pop\n    /* \"@openzeppelin/contracts/access/Ownable.sol\":1297:1298  0 */\n  0x00\n    /* \"@openzeppelin/contracts/access/Ownable.sol\":1273:1299  initialOwner == address(0) */\n  0xffffffffffffffffffffffffffffffffffffffff\n  and\n    /* \"@openzeppelin/contracts/access/Ownable.sol\":1273:1285  initialOwner */\n  dup2\n    /* \"@openzeppelin/contracts/access/Ownable.sol\":1273:1299  initialOwner == address(0) */\n  0xffffffffffffffffffffffffffffffffffffffff\n  and\n  sub\n    /* \"@openzeppelin/contracts/access/Ownable.sol\":1269:1364  if (initialOwner == address(0)) {... */\n  tag_18\n  jumpi\n    /* \"@openzeppelin/contracts/access/Ownable.sol\":1350:1351  0 */\n  0x00\n    /* \"@openzeppelin/contracts/access/Ownable.sol\":1322:1353  OwnableInvalidOwner(address(0)) */\n  mload(0x40)\n  0x1e4fbdf700000000000000000000000000000000000000000000000000000000\n  dup2\n  mstore\n  0x04\n  add\n  tag_19\n  swap2\n  swap1\n  tag_20\n  jump\t// in\ntag_19:\n  mload(0x40)\n  dup1\n  swap2\n  sub\n  swap1\n  revert\n    /* \"@openzeppelin/contracts/access/Ownable.sol\":1269:1364  if (initialOwner == address(0)) {... */\ntag_18:\n    /* \"@openzeppelin/contracts/access/Ownable.sol\":1373:1405  _transferOwnership(initialOwner) */\n  tag_21\n    /* \"@openzeppelin/contracts/access/Ownable.sol\":1392:1404  initialOwner */\n  dup2\n    /* \"@openzeppelin/contracts/access/Ownable.sol\":1373:1391  _transferOwnership */\n  shl(0x20, tag_22)\n    /* \"@openzeppelin/contracts/access/Ownable.sol\":1373:1405  _transferOwnership(initialOwner) */\n  0x20\n  shr\n  jump\t// in\ntag_21:\n    /* \"@openzeppelin/contracts/access/Ownable.sol\":1225:1412  constructor(address initialOwner) {... */\n  pop\n    /* \"ChaiToken.sol\":943:978  _mint(initialOwner, _initialSupply) */\n  tag_24\n    /* \"ChaiToken.sol\":949:961  initialOwner */\n  dup3\n    /* \"ChaiToken.sol\":963:977  _initialSupply */\n  sload(0x06)\n    /* \"ChaiToken.sol\":943:948  _mint */\n  shl(0x20, tag_25)\n    /* \"ChaiToken.sol\":943:978  _mint(initialOwner, _initialSupply) */\n  0x20\n  shr\n  jump\t// in\ntag_24:\n    /* \"ChaiToken.sol\":1060:1064  true */\n  0x01\n    /* \"ChaiToken.sol\":1033:1043  _whitelist */\n  0x0c\n    /* \"ChaiToken.sol\":1033:1057  _whitelist[initialOwner] */\n  0x00\n    /* \"ChaiToken.sol\":1044:1056  initialOwner */\n  dup5\n    /* \"ChaiToken.sol\":1033:1057  _whitelist[initialOwner] */\n  0xffffffffffffffffffffffffffffffffffffffff\n  and\n  0xffffffffffffffffffffffffffffffffffffffff\n  and\n  dup2\n  mstore\n  0x20\n  add\n  swap1\n  dup2\n  mstore\n  0x20\n  add\n  0x00\n  keccak256\n  0x00\n    /* \"ChaiToken.sol\":1033:1064  _whitelist[initialOwner] = true */\n  0x0100\n  exp\n  dup2\n  sload\n  dup2\n  0xff\n  mul\n  not\n  and\n  swap1\n  dup4\n  iszero\n  iszero\n  mul\n  or\n  swap1\n  sstore\n  pop\n    /* \"ChaiToken.sol\":1088:1099  _taxAddress */\n  dup1\n    /* \"ChaiToken.sol\":1075:1085  taxAddress */\n  0x0e\n  0x02\n    /* \"ChaiToken.sol\":1075:1099  taxAddress = _taxAddress */\n  0x0100\n  exp\n  dup2\n  sload\n  dup2\n  0xffffffffffffffffffffffffffffffffffffffff\n  mul\n  not\n  and\n  swap1\n  dup4\n  0xffffffffffffffffffffffffffffffffffffffff\n  and\n  mul\n  or\n  swap1\n  sstore\n  pop\n    /* \"ChaiToken.sol\":805:1107  constructor(address initialOwner, address _taxAddress)... */\n  pop\n  pop\n    /* \"ChaiToken.sol\":224:4510  contract ChaiToken is ERC20, Ownable {... */\n  jump(tag_26)\n    /* \"@openzeppelin/contracts/token/ERC20/ERC20.sol\":3002:3084  function decimals() public view virtual returns (uint8) {... */\ntag_2:\n    /* \"@openzeppelin/contracts/token/ERC20/ERC20.sol\":3051:3056  uint8 */\n  0x00\n    /* \"@openzeppelin/contracts/token/ERC20/ERC20.sol\":3075:3077  18 */\n  0x12\n    /* \"@openzeppelin/contracts/token/ERC20/ERC20.sol\":3068:3077  return 18 */\n  swap1\n  pop\n    /* \"@openzeppelin/contracts/token/ERC20/ERC20.sol\":3002:3084  function decimals() public view virtual returns (uint8) {... */\n  swap1\n  jump\t// out\n    /* \"@openzeppelin/contracts/access/Ownable.sol\":2912:3099  function _transferOwnership(address newOwner) internal virtual {... */\ntag_22:\n    /* \"@openzeppelin/contracts/access/Ownable.sol\":2985:3001  address oldOwner */\n  0x00\n    /* \"@openzeppelin/contracts/access/Ownable.sol\":3004:3010  _owner */\n  0x05\n  0x00\n  swap1\n  sload\n  swap1\n  0x0100\n  exp\n  swap1\n  div\n  0xffffffffffffffffffffffffffffffffffffffff\n  and\n    /* \"@openzeppelin/contracts/access/Ownable.sol\":2985:3010  address oldOwner = _owner */\n  swap1\n  pop\n    /* \"@openzeppelin/contracts/access/Ownable.sol\":3029:3037  newOwner */\n  dup2\n    /* \"@openzeppelin/contracts/access/Ownable.sol\":3020:3026  _owner */\n  0x05\n  0x00\n    /* \"@openzeppelin/contracts/access/Ownable.sol\":3020:3037  _owner = newOwner */\n  0x0100\n  exp\n  dup2\n  sload\n  dup2\n  0xffffffffffffffffffffffffffffffffffffffff\n  mul\n  not\n  and\n  swap1\n  dup4\n  0xffffffffffffffffffffffffffffffffffffffff\n  and\n  mul\n  or\n  swap1\n  sstore\n  pop\n    /* \"@openzeppelin/contracts/access/Ownable.sol\":3083:3091  newOwner */\n  dup2\n    /* \"@openzeppelin/contracts/access/Ownable.sol\":3052:3092  OwnershipTransferred(oldOwner, newOwner) */\n  0xffffffffffffffffffffffffffffffffffffffff\n  and\n    /* \"@openzeppelin/contracts/access/Ownable.sol\":3073:3081  oldOwner */\n  dup2\n    /* \"@openzeppelin/contracts/access/Ownable.sol\":3052:3092  OwnershipTransferred(oldOwner, newOwner) */\n  0xffffffffffffffffffffffffffffffffffffffff\n  and\n  0x8be0079c531659141344cd1fd0a4f28419497f9722a3daafe3b4186f6b6457e0\n  mload(0x40)\n  mload(0x40)\n  dup1\n  swap2\n  sub\n  swap1\n  log3\n    /* \"@openzeppelin/contracts/access/Ownable.sol\":2975:3099  {... */\n  pop\n    /* \"@openzeppelin/contracts/access/Ownable.sol\":2912:3099  function _transferOwnership(address newOwner) internal virtual {... */\n  pop\n  jump\t// out\n    /* \"@openzeppelin/contracts/token/ERC20/ERC20.sol\":7721:7929  function _mint(address account, uint256 value) internal {... */\ntag_25:\n    /* \"@openzeppelin/contracts/token/ERC20/ERC20.sol\":7810:7811  0 */\n  0x00\n    /* \"@openzeppelin/contracts/token/ERC20/ERC20.sol\":7791:7812  account == address(0) */\n  0xffffffffffffffffffffffffffffffffffffffff\n  and\n    /* \"@openzeppelin/contracts/token/ERC20/ERC20.sol\":7791:7798  account */\n  dup3\n    /* \"@openzeppelin/contracts/token/ERC20/ERC20.sol\":7791:7812  account == address(0) */\n  0xffffffffffffffffffffffffffffffffffffffff\n  and\n  sub\n    /* \"@openzeppelin/contracts/token/ERC20/ERC20.sol\":7787:7878  if (account == address(0)) {... */\n  tag_30\n  jumpi\n    /* \"@openzeppelin/contracts/token/ERC20/ERC20.sol\":7864:7865  0 */\n  0x00\n    /* \"@openzeppelin/contracts/token/ERC20/ERC20.sol\":7835:7867  ERC20InvalidReceiver(address(0)) */\n  mload(0x40)\n  0xec442f0500000000000000000000000000000000000000000000000000000000\n  dup2\n  mstore\n  0x04\n  add\n  tag_31\n  swap2\n  swap1\n  tag_20\n  jump\t// in\ntag_31:\n  mload(0x40)\n  dup1\n  swap2\n  sub\n  swap1\n  revert\n    /* \"@openzeppelin/contracts/token/ERC20/ERC20.sol\":7787:7878  if (account == address(0)) {... */\ntag_30:\n    /* \"@openzeppelin/contracts/token/ERC20/ERC20.sol\":7887:7922  _update(address(0), account, value) */\n  tag_32\n    /* \"@openzeppelin/contracts/token/ERC20/ERC20.sol\":7903:7904  0 */\n  0x00\n    /* \"@openzeppelin/contracts/token/ERC20/ERC20.sol\":7907:7914  account */\n  dup4\n    /* \"@openzeppelin/contracts/token/ERC20/ERC20.sol\":7916:7921  value */\n  dup4\n    /* \"@openzeppelin/contracts/token/ERC20/ERC20.sol\":7887:7894  _update */\n  shl(0x20, tag_33)\n    /* \"@openzeppelin/contracts/token/ERC20/ERC20.sol\":7887:7922  _update(address(0), account, value) */\n  0x20\n  shr\n  jump\t// in\ntag_32:\n    /* \"@openzeppelin/contracts/token/ERC20/ERC20.sol\":7721:7929  function _mint(address account, uint256 value) internal {... */\n  pop\n  pop\n  jump\t// out\n    /* \"ChaiToken.sol\":3528:4505  function _update(address from, address to, uint256 value) internal override ... */\ntag_33:\n    /* \"ChaiToken.sol\":3630:3640  _blacklist */\n  0x0b\n    /* \"ChaiToken.sol\":3630:3646  _blacklist[from] */\n  0x00\n    /* \"ChaiToken.sol\":3641:3645  from */\n  dup5\n    /* \"ChaiToken.sol\":3630:3646  _blacklist[from] */\n  0xffffffffffffffffffffffffffffffffffffffff\n  and\n  0xffffffffffffffffffffffffffffffffffffffff\n  and\n  dup2\n  mstore\n  0x20\n  add\n  swap1\n  dup2\n  mstore\n  0x20\n  add\n  0x00\n  keccak256\n  0x00\n  swap1\n  sload\n  swap1\n  0x0100\n  exp\n  swap1\n  div\n  0xff\n  and\n    /* \"ChaiToken.sol\":3629:3646  !_blacklist[from] */\n  iszero\n    /* \"ChaiToken.sol\":3629:3665  !_blacklist[from] && !_blacklist[to] */\n  dup1\n  iszero\n  tag_35\n  jumpi\n  pop\n    /* \"ChaiToken.sol\":3651:3661  _blacklist */\n  0x0b\n    /* \"ChaiToken.sol\":3651:3665  _blacklist[to] */\n  0x00\n    /* \"ChaiToken.sol\":3662:3664  to */\n  dup4\n    /* \"ChaiToken.sol\":3651:3665  _blacklist[to] */\n  0xffffffffffffffffffffffffffffffffffffffff\n  and\n  0xffffffffffffffffffffffffffffffffffffffff\n  and\n  dup2\n  mstore\n  0x20\n  add\n  swap1\n  dup2\n  mstore\n  0x20\n  add\n  0x00\n  keccak256\n  0x00\n  swap1\n  sload\n  swap1\n  0x0100\n  exp\n  swap1\n  div\n  0xff\n  and\n    /* \"ChaiToken.sol\":3650:3665  !_blacklist[to] */\n  iszero\n    /* \"ChaiToken.sol\":3629:3665  !_blacklist[from] && !_blacklist[to] */\ntag_35:\n    /* \"ChaiToken.sol\":3621:3692  require(!_blacklist[from] && !_blacklist[to] , \"Blacklisted Addresses\") */\n  tag_36\n  jumpi\n  mload(0x40)\n  0x08c379a000000000000000000000000000000000000000000000000000000000\n  dup2\n  mstore\n  0x04\n  add\n  tag_37\n  swap1\n  tag_38\n  jump\t// in\ntag_37:\n  mload(0x40)\n  dup1\n  swap2\n  sub\n  swap1\n  revert\ntag_36:\n    /* \"ChaiToken.sol\":3706:3726  _whiteListingEnabled */\n  0x0e\n  0x00\n  swap1\n  sload\n  swap1\n  0x0100\n  exp\n  swap1\n  div\n  0xff\n  and\n    /* \"ChaiToken.sol\":3703:3846  if(_whiteListingEnabled)... */\n  iszero\n  tag_39\n  jumpi\n    /* \"ChaiToken.sol\":3760:3770  _whitelist */\n  0x0c\n    /* \"ChaiToken.sol\":3760:3776  _whitelist[from] */\n  0x00\n    /* \"ChaiToken.sol\":3771:3775  from */\n  dup5\n    /* \"ChaiToken.sol\":3760:3776  _whitelist[from] */\n  0xffffffffffffffffffffffffffffffffffffffff\n  and\n  0xffffffffffffffffffffffffffffffffffffffff\n  and\n  dup2\n  mstore\n  0x20\n  add\n  swap1\n  dup2\n  mstore\n  0x20\n  add\n  0x00\n  keccak256\n  0x00\n  swap1\n  sload\n  swap1\n  0x0100\n  exp\n  swap1\n  div\n  0xff\n  and\n    /* \"ChaiToken.sol\":3760:3794  _whitelist[from] && _whitelist[to] */\n  dup1\n  iszero\n  tag_40\n  jumpi\n  pop\n    /* \"ChaiToken.sol\":3780:3790  _whitelist */\n  0x0c\n    /* \"ChaiToken.sol\":3780:3794  _whitelist[to] */\n  0x00\n    /* \"ChaiToken.sol\":3791:3793  to */\n  dup4\n    /* \"ChaiToken.sol\":3780:3794  _whitelist[to] */\n  0xffffffffffffffffffffffffffffffffffffffff\n  and\n  0xffffffffffffffffffffffffffffffffffffffff\n  and\n  dup2\n  mstore\n  0x20\n  add\n  swap1\n  dup2\n  mstore\n  0x20\n  add\n  0x00\n  keccak256\n  0x00\n  swap1\n  sload\n  swap1\n  0x0100\n  exp\n  swap1\n  div\n  0xff\n  and\n    /* \"ChaiToken.sol\":3760:3794  _whitelist[from] && _whitelist[to] */\ntag_40:\n    /* \"ChaiToken.sol\":3752:3834  require(_whitelist[from] && _whitelist[to] , \"Both addresses must be whitelisted\") */\n  tag_41\n  jumpi\n  mload(0x40)\n  0x08c379a000000000000000000000000000000000000000000000000000000000\n  dup2\n  mstore\n  0x04\n  add\n  tag_42\n  swap1\n  tag_43\n  jump\t// in\ntag_42:\n  mload(0x40)\n  dup1\n  swap2\n  sub\n  swap1\n  revert\ntag_41:\n    /* \"ChaiToken.sol\":3703:3846  if(_whiteListingEnabled)... */\ntag_39:\n    /* \"ChaiToken.sol\":3873:3884  maxTxAmount */\n  sload(0x07)\n    /* \"ChaiToken.sol\":3864:3869  value */\n  dup2\n    /* \"ChaiToken.sol\":3864:3884  value <= maxTxAmount */\n  gt\n  iszero\n    /* \"ChaiToken.sol\":3856:3919  require(value <= maxTxAmount , \"Token Transfer Limit Exceeded\") */\n  tag_44\n  jumpi\n  mload(0x40)\n  0x08c379a000000000000000000000000000000000000000000000000000000000\n  dup2\n  mstore\n  0x04\n  add\n  tag_45\n  swap1\n  tag_46\n  jump\t// in\ntag_45:\n  mload(0x40)\n  dup1\n  swap2\n  sub\n  swap1\n  revert\ntag_44:\n    /* \"ChaiToken.sol\":3975:3987  cooldownTime */\n  sload(0x08)\n    /* \"ChaiToken.sol\":3957:3968  _lastTxTime */\n  0x0d\n    /* \"ChaiToken.sol\":3957:3974  _lastTxTime[from] */\n  0x00\n    /* \"ChaiToken.sol\":3969:3973  from */\n  dup6\n    /* \"ChaiToken.sol\":3957:3974  _lastTxTime[from] */\n  0xffffffffffffffffffffffffffffffffffffffff\n  and\n  0xffffffffffffffffffffffffffffffffffffffff\n  and\n  dup2\n  mstore\n  0x20\n  add\n  swap1\n  dup2\n  mstore\n  0x20\n  add\n  0x00\n  keccak256\n  sload\n    /* \"ChaiToken.sol\":3957:3987  _lastTxTime[from]+cooldownTime */\n  tag_47\n  swap2\n  swap1\n  tag_48\n  jump\t// in\ntag_47:\n    /* \"ChaiToken.sol\":3938:3953  block.timestamp */\n  timestamp\n    /* \"ChaiToken.sol\":3938:3987  block.timestamp >= _lastTxTime[from]+cooldownTime */\n  lt\n  iszero\n    /* \"ChaiToken.sol\":3930:4019  require(block.timestamp >= _lastTxTime[from]+cooldownTime , \"Token Transfer in cooldown\") */\n  tag_49\n  jumpi\n  mload(0x40)\n  0x08c379a000000000000000000000000000000000000000000000000000000000\n  dup2\n  mstore\n  0x04\n  add\n  tag_50\n  swap1\n  tag_51\n  jump\t// in\ntag_50:\n  mload(0x40)\n  dup1\n  swap2\n  sub\n  swap1\n  revert\ntag_49:\n    /* \"ChaiToken.sol\":4040:4062  uint256 transferAmount */\n  0x00\n    /* \"ChaiToken.sol\":4065:4070  value */\n  dup2\n    /* \"ChaiToken.sol\":4040:4070  uint256 transferAmount = value */\n  swap1\n  pop\n    /* \"ChaiToken.sol\":4084:4095  _TaxEnabled */\n  0x0e\n  0x01\n  swap1\n  sload\n  swap1\n  0x0100\n  exp\n  swap1\n  div\n  0xff\n  and\n    /* \"ChaiToken.sol\":4081:4354  if(_TaxEnabled)... */\n  iszero\n  tag_52\n  jumpi\n    /* \"ChaiToken.sol\":4121:4138  uint256 totalFees */\n  0x00\n    /* \"ChaiToken.sol\":4151:4163  SlippageFees */\n  sload(0x0a)\n    /* \"ChaiToken.sol\":4141:4148  taxFees */\n  sload(0x09)\n    /* \"ChaiToken.sol\":4141:4163  taxFees + SlippageFees */\n  tag_53\n  swap2\n  swap1\n  tag_48\n  jump\t// in\ntag_53:\n    /* \"ChaiToken.sol\":4121:4163  uint256 totalFees = taxFees + SlippageFees */\n  swap1\n  pop\n    /* \"ChaiToken.sol\":4192:4209  uint256 feeAmount */\n  0x00\n    /* \"ChaiToken.sol\":4232:4235  100 */\n  0x64\n    /* \"ChaiToken.sol\":4221:4230  totalFees */\n  dup3\n    /* \"ChaiToken.sol\":4213:4218  value */\n  dup6\n    /* \"ChaiToken.sol\":4213:4230  value * totalFees */\n  tag_54\n  swap2\n  swap1\n  tag_6\n  jump\t// in\ntag_54:\n    /* \"ChaiToken.sol\":4212:4235  (value * totalFees)/100 */\n  tag_55\n  swap2\n  swap1\n  tag_56\n  jump\t// in\ntag_55:\n    /* \"ChaiToken.sol\":4192:4235  uint256 feeAmount = (value * totalFees)/100 */\n  swap1\n  pop\n    /* \"ChaiToken.sol\":4275:4284  feeAmount */\n  dup1\n    /* \"ChaiToken.sol\":4267:4272  value */\n  dup5\n    /* \"ChaiToken.sol\":4267:4284  value - feeAmount */\n  tag_57\n  swap2\n  swap1\n  tag_58\n  jump\t// in\ntag_57:\n    /* \"ChaiToken.sol\":4250:4284  transferAmount = value - feeAmount */\n  swap3\n  pop\n    /* \"ChaiToken.sol\":4299:4342  super._update(from, taxAddress , feeAmount) */\n  tag_59\n    /* \"ChaiToken.sol\":4313:4317  from */\n  dup7\n    /* \"ChaiToken.sol\":4319:4329  taxAddress */\n  0x0e\n  0x02\n  swap1\n  sload\n  swap1\n  0x0100\n  exp\n  swap1\n  div\n  0xffffffffffffffffffffffffffffffffffffffff\n  and\n    /* \"ChaiToken.sol\":4332:4341  feeAmount */\n  dup4\n    /* \"ChaiToken.sol\":4299:4312  super._update */\n  shl(0x20, tag_60)\n    /* \"ChaiToken.sol\":4299:4342  super._update(from, taxAddress , feeAmount) */\n  0x20\n  shr\n  jump\t// in\ntag_59:\n    /* \"ChaiToken.sol\":4106:4354  {... */\n  pop\n  pop\n    /* \"ChaiToken.sol\":4081:4354  if(_TaxEnabled)... */\ntag_52:\n    /* \"ChaiToken.sol\":4394:4409  block.timestamp */\n  timestamp\n    /* \"ChaiToken.sol\":4374:4385  _lastTxTime */\n  0x0d\n    /* \"ChaiToken.sol\":4374:4391  _lastTxTime[from] */\n  0x00\n    /* \"ChaiToken.sol\":4386:4390  from */\n  dup7\n    /* \"ChaiToken.sol\":4374:4391  _lastTxTime[from] */\n  0xffffffffffffffffffffffffffffffffffffffff\n  and\n  0xffffffffffffffffffffffffffffffffffffffff\n  and\n  dup2\n  mstore\n  0x20\n  add\n  swap1\n  dup2\n  mstore\n  0x20\n  add\n  0x00\n  keccak256\n    /* \"ChaiToken.sol\":4374:4409  _lastTxTime[from] = block.timestamp */\n  dup2\n  swap1\n  sstore\n  pop\n    /* \"ChaiToken.sol\":4420:4459  super._update(from, to, transferAmount) */\n  tag_61\n    /* \"ChaiToken.sol\":4434:4438  from */\n  dup5\n    /* \"ChaiToken.sol\":4440:4442  to */\n  dup5\n    /* \"ChaiToken.sol\":4444:4458  transferAmount */\n  dup4\n    /* \"ChaiToken.sol\":4420:4433  super._update */\n  shl(0x20, tag_60)\n    /* \"ChaiToken.sol\":4420:4459  super._update(from, to, transferAmount) */\n  0x20\n  shr\n  jump\t// in\ntag_61:\n    /* \"ChaiToken.sol\":3610:4505  {... */\n  pop\n    /* \"ChaiToken.sol\":3528:4505  function _update(address from, address to, uint256 value) internal override ... */\n  pop\n  pop\n  pop\n  jump\t// out\n    /* \"@openzeppelin/contracts/token/ERC20/ERC20.sol\":6271:7378  function _update(address from, address to, uint256 value) internal virtual {... */\ntag_60:\n    /* \"@openzeppelin/contracts/token/ERC20/ERC20.sol\":6376:6377  0 */\n  0x00\n    /* \"@openzeppelin/contracts/token/ERC20/ERC20.sol\":6360:6378  from == address(0) */\n  0xffffffffffffffffffffffffffffffffffffffff\n  and\n    /* \"@openzeppelin/contracts/token/ERC20/ERC20.sol\":6360:6364  from */\n  dup4\n    /* \"@openzeppelin/contracts/token/ERC20/ERC20.sol\":6360:6378  from == address(0) */\n  0xffffffffffffffffffffffffffffffffffffffff\n  and\n  sub\n    /* \"@openzeppelin/contracts/token/ERC20/ERC20.sol\":6356:6896  if (from == address(0)) {... */\n  tag_63\n  jumpi\n    /* \"@openzeppelin/contracts/token/ERC20/ERC20.sol\":6512:6517  value */\n  dup1\n    /* \"@openzeppelin/contracts/token/ERC20/ERC20.sol\":6496:6508  _totalSupply */\n  0x02\n  0x00\n    /* \"@openzeppelin/contracts/token/ERC20/ERC20.sol\":6496:6517  _totalSupply += value */\n  dup3\n  dup3\n  sload\n  tag_64\n  swap2\n  swap1\n  tag_48\n  jump\t// in\ntag_64:\n  swap3\n  pop\n  pop\n  dup2\n  swap1\n  sstore\n  pop\n    /* \"@openzeppelin/contracts/token/ERC20/ERC20.sol\":6356:6896  if (from == address(0)) {... */\n  jump(tag_65)\ntag_63:\n    /* \"@openzeppelin/contracts/token/ERC20/ERC20.sol\":6548:6567  uint256 fromBalance */\n  0x00\n    /* \"@openzeppelin/contracts/token/ERC20/ERC20.sol\":6570:6579  _balances */\n  dup1\n    /* \"@openzeppelin/contracts/token/ERC20/ERC20.sol\":6570:6585  _balances[from] */\n  0x00\n    /* \"@openzeppelin/contracts/token/ERC20/ERC20.sol\":6580:6584  from */\n  dup6\n    /* \"@openzeppelin/contracts/token/ERC20/ERC20.sol\":6570:6585  _balances[from] */\n  0xffffffffffffffffffffffffffffffffffffffff\n  and\n  0xffffffffffffffffffffffffffffffffffffffff\n  and\n  dup2\n  mstore\n  0x20\n  add\n  swap1\n  dup2\n  mstore\n  0x20\n  add\n  0x00\n  keccak256\n  sload\n    /* \"@openzeppelin/contracts/token/ERC20/ERC20.sol\":6548:6585  uint256 fromBalance = _balances[from] */\n  swap1\n  pop\n    /* \"@openzeppelin/contracts/token/ERC20/ERC20.sol\":6617:6622  value */\n  dup2\n    /* \"@openzeppelin/contracts/token/ERC20/ERC20.sol\":6603:6614  fromBalance */\n  dup2\n    /* \"@openzeppelin/contracts/token/ERC20/ERC20.sol\":6603:6622  fromBalance < value */\n  lt\n    /* \"@openzeppelin/contracts/token/ERC20/ERC20.sol\":6599:6714  if (fromBalance < value) {... */\n  iszero\n  tag_66\n  jumpi\n    /* \"@openzeppelin/contracts/token/ERC20/ERC20.sol\":6674:6678  from */\n  dup4\n    /* \"@openzeppelin/contracts/token/ERC20/ERC20.sol\":6680:6691  fromBalance */\n  dup2\n    /* \"@openzeppelin/contracts/token/ERC20/ERC20.sol\":6693:6698  value */\n  dup4\n    /* \"@openzeppelin/contracts/token/ERC20/ERC20.sol\":6649:6699  ERC20InsufficientBalance(from, fromBalance, value) */\n  mload(0x40)\n  0xe450d38c00000000000000000000000000000000000000000000000000000000\n  dup2\n  mstore\n  0x04\n  add\n  tag_67\n  swap4\n  swap3\n  swap2\n  swap1\n  tag_68\n  jump\t// in\ntag_67:\n  mload(0x40)\n  dup1\n  swap2\n  sub\n  swap1\n  revert\n    /* \"@openzeppelin/contracts/token/ERC20/ERC20.sol\":6599:6714  if (fromBalance < value) {... */\ntag_66:\n    /* \"@openzeppelin/contracts/token/ERC20/ERC20.sol\":6866:6871  value */\n  dup2\n    /* \"@openzeppelin/contracts/token/ERC20/ERC20.sol\":6852:6863  fromBalance */\n  dup2\n    /* \"@openzeppelin/contracts/token/ERC20/ERC20.sol\":6852:6871  fromBalance - value */\n  sub\n    /* \"@openzeppelin/contracts/token/ERC20/ERC20.sol\":6834:6843  _balances */\n  0x00\n    /* \"@openzeppelin/contracts/token/ERC20/ERC20.sol\":6834:6849  _balances[from] */\n  dup1\n    /* \"@openzeppelin/contracts/token/ERC20/ERC20.sol\":6844:6848  from */\n  dup7\n    /* \"@openzeppelin/contracts/token/ERC20/ERC20.sol\":6834:6849  _balances[from] */\n  0xffffffffffffffffffffffffffffffffffffffff\n  and\n  0xffffffffffffffffffffffffffffffffffffffff\n  and\n  dup2\n  mstore\n  0x20\n  add\n  swap1\n  dup2\n  mstore\n  0x20\n  add\n  0x00\n  keccak256\n    /* \"@openzeppelin/contracts/token/ERC20/ERC20.sol\":6834:6871  _balances[from] = fromBalance - value */\n  dup2\n  swap1\n  sstore\n  pop\n    /* \"@openzeppelin/contracts/token/ERC20/ERC20.sol\":6534:6896  {... */\n  pop\n    /* \"@openzeppelin/contracts/token/ERC20/ERC20.sol\":6356:6896  if (from == address(0)) {... */\ntag_65:\n    /* \"@openzeppelin/contracts/token/ERC20/ERC20.sol\":6924:6925  0 */\n  0x00\n    /* \"@openzeppelin/contracts/token/ERC20/ERC20.sol\":6910:6926  to == address(0) */\n  0xffffffffffffffffffffffffffffffffffffffff\n  and\n    /* \"@openzeppelin/contracts/token/ERC20/ERC20.sol\":6910:6912  to */\n  dup3\n    /* \"@openzeppelin/contracts/token/ERC20/ERC20.sol\":6910:6926  to == address(0) */\n  0xffffffffffffffffffffffffffffffffffffffff\n  and\n  sub\n    /* \"@openzeppelin/contracts/token/ERC20/ERC20.sol\":6906:7331  if (to == address(0)) {... */\n  tag_69\n  jumpi\n    /* \"@openzeppelin/contracts/token/ERC20/ERC20.sol\":7089:7094  value */\n  dup1\n    /* \"@openzeppelin/contracts/token/ERC20/ERC20.sol\":7073:7085  _totalSupply */\n  0x02\n  0x00\n    /* \"@openzeppelin/contracts/token/ERC20/ERC20.sol\":7073:7094  _totalSupply -= value */\n  dup3\n  dup3\n  sload\n  sub\n  swap3\n  pop\n  pop\n  dup2\n  swap1\n  sstore\n  pop\n    /* \"@openzeppelin/contracts/token/ERC20/ERC20.sol\":6906:7331  if (to == address(0)) {... */\n  jump(tag_70)\ntag_69:\n    /* \"@openzeppelin/contracts/token/ERC20/ERC20.sol\":7301:7306  value */\n  dup1\n    /* \"@openzeppelin/contracts/token/ERC20/ERC20.sol\":7284:7293  _balances */\n  0x00\n    /* \"@openzeppelin/contracts/token/ERC20/ERC20.sol\":7284:7297  _balances[to] */\n  dup1\n    /* \"@openzeppelin/contracts/token/ERC20/ERC20.sol\":7294:7296  to */\n  dup5\n    /* \"@openzeppelin/contracts/token/ERC20/ERC20.sol\":7284:7297  _balances[to] */\n  0xffffffffffffffffffffffffffffffffffffffff\n  and\n  0xffffffffffffffffffffffffffffffffffffffff\n  and\n  dup2\n  mstore\n  0x20\n  add\n  swap1\n  dup2\n  mstore\n  0x20\n  add\n  0x00\n  keccak256\n  0x00\n    /* \"@openzeppelin/contracts/token/ERC20/ERC20.sol\":7284:7306  _balances[to] += value */\n  dup3\n  dup3\n  sload\n  add\n  swap3\n  pop\n  pop\n  dup2\n  swap1\n  sstore\n  pop\n    /* \"@openzeppelin/contracts/token/ERC20/ERC20.sol\":6906:7331  if (to == address(0)) {... */\ntag_70:\n    /* \"@openzeppelin/contracts/token/ERC20/ERC20.sol\":7361:7363  to */\n  dup2\n    /* \"@openzeppelin/contracts/token/ERC20/ERC20.sol\":7346:7371  Transfer(from, to, value) */\n  0xffffffffffffffffffffffffffffffffffffffff\n  and\n    /* \"@openzeppelin/contracts/token/ERC20/ERC20.sol\":7355:7359  from */\n  dup4\n    /* \"@openzeppelin/contracts/token/ERC20/ERC20.sol\":7346:7371  Transfer(from, to, value) */\n  0xffffffffffffffffffffffffffffffffffffffff\n  and\n  0xddf252ad1be2c89b69c2b068fc378daa952ba7f163c4a11628f55a4df523b3ef\n    /* \"@openzeppelin/contracts/token/ERC20/ERC20.sol\":7365:7370  value */\n  dup4\n    /* \"@openzeppelin/contracts/token/ERC20/ERC20.sol\":7346:7371  Transfer(from, to, value) */\n  mload(0x40)\n  tag_71\n  swap2\n  swap1\n  tag_72\n  jump\t// in\ntag_71:\n  mload(0x40)\n  dup1\n  swap2\n  sub\n  swap1\n  log3\n    /* \"@openzeppelin/contracts/token/ERC20/ERC20.sol\":6271:7378  function _update(address from, address to, uint256 value) internal virtual {... */\n  pop\n  pop\n  pop\n  jump\t// out\n    /* \"#utility.yul\":7:187   */\ntag_73:\n    /* \"#utility.yul\":55:132   */\n  0x4e487b7100000000000000000000000000000000000000000000000000000000\n    /* \"#utility.yul\":52:53   */\n  0x00\n    /* \"#utility.yul\":45:133   */\n  mstore\n    /* \"#utility.yul\":152:156   */\n  0x11\n    /* \"#utility.yul\":149:150   */\n  0x04\n    /* \"#utility.yul\":142:157   */\n  mstore\n    /* \"#utility.yul\":176:180   */\n  0x24\n    /* \"#utility.yul\":173:174   */\n  0x00\n    /* \"#utility.yul\":166:181   */\n  revert\n    /* \"#utility.yul\":193:295   */\ntag_74:\n    /* \"#utility.yul\":235:243   */\n  0x00\n    /* \"#utility.yul\":282:287   */\n  dup2\n    /* \"#utility.yul\":279:280   */\n  0x01\n    /* \"#utility.yul\":275:288   */\n  shr\n    /* \"#utility.yul\":254:288   */\n  swap1\n  pop\n    /* \"#utility.yul\":193:295   */\n  swap2\n  swap1\n  pop\n  jump\t// out\n    /* \"#utility.yul\":301:1149   */\ntag_75:\n    /* \"#utility.yul\":362:367   */\n  0x00\n    /* \"#utility.yul\":369:373   */\n  dup1\n    /* \"#utility.yul\":393:399   */\n  dup3\n    /* \"#utility.yul\":384:399   */\n  swap2\n  pop\n    /* \"#utility.yul\":417:422   */\n  dup4\n    /* \"#utility.yul\":408:422   */\n  swap1\n  pop\n    /* \"#utility.yul\":431:1143   */\ntag_121:\n    /* \"#utility.yul\":452:453   */\n  0x01\n    /* \"#utility.yul\":442:450   */\n  dup6\n    /* \"#utility.yul\":439:454   */\n  gt\n    /* \"#utility.yul\":431:1143   */\n  iszero\n  tag_123\n  jumpi\n    /* \"#utility.yul\":547:551   */\n  dup1\n    /* \"#utility.yul\":542:545   */\n  dup7\n    /* \"#utility.yul\":538:552   */\n  div\n    /* \"#utility.yul\":532:536   */\n  dup2\n    /* \"#utility.yul\":529:553   */\n  gt\n    /* \"#utility.yul\":526:576   */\n  iszero\n  tag_124\n  jumpi\n    /* \"#utility.yul\":556:574   */\n  tag_125\n  tag_73\n  jump\t// in\ntag_125:\n    /* \"#utility.yul\":526:576   */\ntag_124:\n    /* \"#utility.yul\":606:607   */\n  0x01\n    /* \"#utility.yul\":596:604   */\n  dup6\n    /* \"#utility.yul\":592:608   */\n  and\n    /* \"#utility.yul\":589:1040   */\n  iszero\n  tag_126\n  jumpi\n    /* \"#utility.yul\":1021:1025   */\n  dup1\n    /* \"#utility.yul\":1014:1019   */\n  dup3\n    /* \"#utility.yul\":1010:1026   */\n  mul\n    /* \"#utility.yul\":1001:1026   */\n  swap2\n  pop\n    /* \"#utility.yul\":589:1040   */\ntag_126:\n    /* \"#utility.yul\":1071:1075   */\n  dup1\n    /* \"#utility.yul\":1065:1069   */\n  dup2\n    /* \"#utility.yul\":1061:1076   */\n  mul\n    /* \"#utility.yul\":1053:1076   */\n  swap1\n  pop\n    /* \"#utility.yul\":1101:1133   */\n  tag_127\n    /* \"#utility.yul\":1124:1132   */\n  dup6\n    /* \"#utility.yul\":1101:1133   */\n  tag_74\n  jump\t// in\ntag_127:\n    /* \"#utility.yul\":1089:1133   */\n  swap5\n  pop\n    /* \"#utility.yul\":431:1143   */\n  jump(tag_121)\ntag_123:\n    /* \"#utility.yul\":301:1149   */\n  swap5\n  pop\n  swap5\n  swap3\n  pop\n  pop\n  pop\n  jump\t// out\n    /* \"#utility.yul\":1155:2228   */\ntag_76:\n    /* \"#utility.yul\":1209:1214   */\n  0x00\n    /* \"#utility.yul\":1400:1408   */\n  dup3\n    /* \"#utility.yul\":1390:1430   */\n  tag_129\n  jumpi\n    /* \"#utility.yul\":1421:1422   */\n  0x01\n    /* \"#utility.yul\":1412:1422   */\n  swap1\n  pop\n    /* \"#utility.yul\":1423:1428   */\n  jump(tag_128)\n    /* \"#utility.yul\":1390:1430   */\ntag_129:\n    /* \"#utility.yul\":1449:1453   */\n  dup2\n    /* \"#utility.yul\":1439:1475   */\n  tag_130\n  jumpi\n    /* \"#utility.yul\":1466:1467   */\n  0x00\n    /* \"#utility.yul\":1457:1467   */\n  swap1\n  pop\n    /* \"#utility.yul\":1468:1473   */\n  jump(tag_128)\n    /* \"#utility.yul\":1439:1475   */\ntag_130:\n    /* \"#utility.yul\":1535:1539   */\n  dup2\n    /* \"#utility.yul\":1583:1584   */\n  0x01\n    /* \"#utility.yul\":1578:1605   */\n  dup2\n  eq\n  tag_132\n  jumpi\n    /* \"#utility.yul\":1619:1620   */\n  0x02\n    /* \"#utility.yul\":1614:1805   */\n  dup2\n  eq\n  tag_133\n  jumpi\n    /* \"#utility.yul\":1528:1805   */\n  jump(tag_131)\n    /* \"#utility.yul\":1578:1605   */\ntag_132:\n    /* \"#utility.yul\":1596:1597   */\n  0x01\n    /* \"#utility.yul\":1587:1597   */\n  swap2\n  pop\n    /* \"#utility.yul\":1598:1603   */\n  pop\n  jump(tag_128)\n    /* \"#utility.yul\":1614:1805   */\ntag_133:\n    /* \"#utility.yul\":1659:1662   */\n  0xff\n    /* \"#utility.yul\":1649:1657   */\n  dup5\n    /* \"#utility.yul\":1646:1663   */\n  gt\n    /* \"#utility.yul\":1643:1686   */\n  iszero\n  tag_134\n  jumpi\n    /* \"#utility.yul\":1666:1684   */\n  tag_135\n  tag_73\n  jump\t// in\ntag_135:\n    /* \"#utility.yul\":1643:1686   */\ntag_134:\n    /* \"#utility.yul\":1715:1723   */\n  dup4\n    /* \"#utility.yul\":1712:1713   */\n  0x02\n    /* \"#utility.yul\":1708:1724   */\n  exp\n    /* \"#utility.yul\":1699:1724   */\n  swap2\n  pop\n    /* \"#utility.yul\":1750:1753   */\n  dup5\n    /* \"#utility.yul\":1743:1748   */\n  dup3\n    /* \"#utility.yul\":1740:1754   */\n  gt\n    /* \"#utility.yul\":1737:1777   */\n  iszero\n  tag_136\n  jumpi\n    /* \"#utility.yul\":1757:1775   */\n  tag_137\n  tag_73\n  jump\t// in\ntag_137:\n    /* \"#utility.yul\":1737:1777   */\ntag_136:\n    /* \"#utility.yul\":1790:1795   */\n  pop\n  jump(tag_128)\n    /* \"#utility.yul\":1528:1805   */\ntag_131:\n  pop\n    /* \"#utility.yul\":1914:1916   */\n  0x20\n    /* \"#utility.yul\":1904:1912   */\n  dup4\n    /* \"#utility.yul\":1901:1917   */\n  lt\n    /* \"#utility.yul\":1895:1898   */\n  0x0133\n    /* \"#utility.yul\":1889:1893   */\n  dup4\n    /* \"#utility.yul\":1886:1899   */\n  lt\n    /* \"#utility.yul\":1882:1918   */\n  and\n    /* \"#utility.yul\":1864:1866   */\n  0x4e\n    /* \"#utility.yul\":1854:1862   */\n  dup5\n    /* \"#utility.yul\":1851:1867   */\n  lt\n    /* \"#utility.yul\":1846:1848   */\n  0x0b\n    /* \"#utility.yul\":1840:1844   */\n  dup5\n    /* \"#utility.yul\":1837:1849   */\n  lt\n    /* \"#utility.yul\":1833:1868   */\n  and\n    /* \"#utility.yul\":1817:1928   */\n  or\n    /* \"#utility.yul\":1814:2060   */\n  iszero\n  tag_138\n  jumpi\n    /* \"#utility.yul\":1970:1978   */\n  dup3\n    /* \"#utility.yul\":1964:1968   */\n  dup3\n    /* \"#utility.yul\":1960:1979   */\n  exp\n    /* \"#utility.yul\":1951:1979   */\n  swap1\n  pop\n    /* \"#utility.yul\":2005:2008   */\n  dup4\n    /* \"#utility.yul\":1998:2003   */\n  dup2\n    /* \"#utility.yul\":1995:2009   */\n  gt\n    /* \"#utility.yul\":1992:2032   */\n  iszero\n  tag_139\n  jumpi\n    /* \"#utility.yul\":2012:2030   */\n  tag_140\n  tag_73\n  jump\t// in\ntag_140:\n    /* \"#utility.yul\":1992:2032   */\ntag_139:\n    /* \"#utility.yul\":2045:2050   */\n  jump(tag_128)\n    /* \"#utility.yul\":1814:2060   */\ntag_138:\n    /* \"#utility.yul\":2085:2127   */\n  tag_141\n    /* \"#utility.yul\":2123:2126   */\n  dup5\n    /* \"#utility.yul\":2113:2121   */\n  dup5\n    /* \"#utility.yul\":2107:2111   */\n  dup5\n    /* \"#utility.yul\":2104:2105   */\n  0x01\n    /* \"#utility.yul\":2085:2127   */\n  tag_75\n  jump\t// in\ntag_141:\n    /* \"#utility.yul\":2070:2127   */\n  swap3\n  pop\n  swap1\n  pop\n    /* \"#utility.yul\":2159:2163   */\n  dup2\n    /* \"#utility.yul\":2154:2157   */\n  dup5\n    /* \"#utility.yul\":2150:2164   */\n  div\n    /* \"#utility.yul\":2143:2148   */\n  dup2\n    /* \"#utility.yul\":2140:2165   */\n  gt\n    /* \"#utility.yul\":2137:2188   */\n  iszero\n  tag_142\n  jumpi\n    /* \"#utility.yul\":2168:2186   */\n  tag_143\n  tag_73\n  jump\t// in\ntag_143:\n    /* \"#utility.yul\":2137:2188   */\ntag_142:\n    /* \"#utility.yul\":2217:2221   */\n  dup2\n    /* \"#utility.yul\":2210:2215   */\n  dup2\n    /* \"#utility.yul\":2206:2222   */\n  mul\n    /* \"#utility.yul\":2197:2222   */\n  swap1\n  pop\n    /* \"#utility.yul\":1155:2228   */\ntag_128:\n  swap4\n  swap3\n  pop\n  pop\n  pop\n  jump\t// out\n    /* \"#utility.yul\":2234:2311   */\ntag_77:\n    /* \"#utility.yul\":2271:2278   */\n  0x00\n    /* \"#utility.yul\":2300:2305   */\n  dup2\n    /* \"#utility.yul\":2289:2305   */\n  swap1\n  pop\n    /* \"#utility.yul\":2234:2311   */\n  swap2\n  swap1\n  pop\n  jump\t// out\n    /* \"#utility.yul\":2317:2403   */\ntag_78:\n    /* \"#utility.yul\":2352:2359   */\n  0x00\n    /* \"#utility.yul\":2392:2396   */\n  0xff\n    /* \"#utility.yul\":2385:2390   */\n  dup3\n    /* \"#utility.yul\":2381:2397   */\n  and\n    /* \"#utility.yul\":2370:2397   */\n  swap1\n  pop\n    /* \"#utility.yul\":2317:2403   */\n  swap2\n  swap1\n  pop\n  jump\t// out\n    /* \"#utility.yul\":2409:2690   */\ntag_4:\n    /* \"#utility.yul\":2467:2472   */\n  0x00\n    /* \"#utility.yul\":2491:2514   */\n  tag_147\n    /* \"#utility.yul\":2509:2513   */\n  dup3\n    /* \"#utility.yul\":2491:2514   */\n  tag_77\n  jump\t// in\ntag_147:\n    /* \"#utility.yul\":2483:2514   */\n  swap2\n  pop\n    /* \"#utility.yul\":2535:2560   */\n  tag_148\n    /* \"#utility.yul\":2551:2559   */\n  dup4\n    /* \"#utility.yul\":2535:2560   */\n  tag_78\n  jump\t// in\ntag_148:\n    /* \"#utility.yul\":2523:2560   */\n  swap3\n  pop\n    /* \"#utility.yul\":2579:2683   */\n  tag_149\n    /* \"#utility.yul\":2616:2682   */\n  0xffffffffffffffffffffffffffffffffffffffffffffffffffffffffffffffff\n    /* \"#utility.yul\":2606:2614   */\n  dup5\n    /* \"#utility.yul\":2600:2604   */\n  dup5\n    /* \"#utility.yul\":2579:2683   */\n  tag_76\n  jump\t// in\ntag_149:\n    /* \"#utility.yul\":2570:2683   */\n  swap1\n  pop\n    /* \"#utility.yul\":2409:2690   */\n  swap3\n  swap2\n  pop\n  pop\n  jump\t// out\n    /* \"#utility.yul\":2696:3106   */\ntag_6:\n    /* \"#utility.yul\":2736:2743   */\n  0x00\n    /* \"#utility.yul\":2759:2779   */\n  tag_151\n    /* \"#utility.yul\":2777:2778   */\n  dup3\n    /* \"#utility.yul\":2759:2779   */\n  tag_77\n  jump\t// in\ntag_151:\n    /* \"#utility.yul\":2754:2779   */\n  swap2\n  pop\n    /* \"#utility.yul\":2793:2813   */\n  tag_152\n    /* \"#utility.yul\":2811:2812   */\n  dup4\n    /* \"#utility.yul\":2793:2813   */\n  tag_77\n  jump\t// in\ntag_152:\n    /* \"#utility.yul\":2788:2813   */\n  swap3\n  pop\n    /* \"#utility.yul\":2848:2849   */\n  dup3\n    /* \"#utility.yul\":2845:2846   */\n  dup3\n    /* \"#utility.yul\":2841:2850   */\n  mul\n    /* \"#utility.yul\":2870:2900   */\n  tag_153\n    /* \"#utility.yul\":2888:2899   */\n  dup2\n    /* \"#utility.yul\":2870:2900   */\n  tag_77\n  jump\t// in\ntag_153:\n    /* \"#utility.yul\":2859:2900   */\n  swap2\n  pop\n    /* \"#utility.yul\":3049:3050   */\n  dup3\n    /* \"#utility.yul\":3040:3047   */\n  dup3\n    /* \"#utility.yul\":3036:3051   */\n  div\n    /* \"#utility.yul\":3033:3034   */\n  dup5\n    /* \"#utility.yul\":3030:3052   */\n  eq\n    /* \"#utility.yul\":3010:3011   */\n  dup4\n    /* \"#utility.yul\":3003:3012   */\n  iszero\n    /* \"#utility.yul\":2983:3066   */\n  or\n    /* \"#utility.yul\":2960:3099   */\n  tag_154\n  jumpi\n    /* \"#utility.yul\":3079:3097   */\n  tag_155\n  tag_73\n  jump\t// in\ntag_155:\n    /* \"#utility.yul\":2960:3099   */\ntag_154:\n    /* \"#utility.yul\":2744:3106   */\n  pop\n    /* \"#utility.yul\":2696:3106   */\n  swap3\n  swap2\n  pop\n  pop\n  jump\t// out\n    /* \"#utility.yul\":3193:3310   */\ntag_80:\n    /* \"#utility.yul\":3302:3303   */\n  0x00\n    /* \"#utility.yul\":3299:3300   */\n  dup1\n    /* \"#utility.yul\":3292:3304   */\n  revert\n    /* \"#utility.yul\":3439:3565   */\ntag_82:\n    /* \"#utility.yul\":3476:3483   */\n  0x00\n    /* \"#utility.yul\":3516:3558   */\n  0xffffffffffffffffffffffffffffffffffffffff\n    /* \"#utility.yul\":3509:3514   */\n  dup3\n    /* \"#utility.yul\":3505:3559   */\n  and\n    /* \"#utility.yul\":3494:3559   */\n  swap1\n  pop\n    /* \"#utility.yul\":3439:3565   */\n  swap2\n  swap1\n  pop\n  jump\t// out\n    /* \"#utility.yul\":3571:3667   */\ntag_83:\n    /* \"#utility.yul\":3608:3615   */\n  0x00\n    /* \"#utility.yul\":3637:3661   */\n  tag_161\n    /* \"#utility.yul\":3655:3660   */\n  dup3\n    /* \"#utility.yul\":3637:3661   */\n  tag_82\n  jump\t// in\ntag_161:\n    /* \"#utility.yul\":3626:3661   */\n  swap1\n  pop\n    /* \"#utility.yul\":3571:3667   */\n  swap2\n  swap1\n  pop\n  jump\t// out\n    /* \"#utility.yul\":3673:3795   */\ntag_84:\n    /* \"#utility.yul\":3746:3770   */\n  tag_163\n    /* \"#utility.yul\":3764:3769   */\n  dup2\n    /* \"#utility.yul\":3746:3770   */\n  tag_83\n  jump\t// in\ntag_163:\n    /* \"#utility.yul\":3739:3744   */\n  dup2\n    /* \"#utility.yul\":3736:3771   */\n  eq\n    /* \"#utility.yul\":3726:3789   */\n  tag_164\n  jumpi\n    /* \"#utility.yul\":3785:3786   */\n  0x00\n    /* \"#utility.yul\":3782:3783   */\n  dup1\n    /* \"#utility.yul\":3775:3787   */\n  revert\n    /* \"#utility.yul\":3726:3789   */\ntag_164:\n    /* \"#utility.yul\":3673:3795   */\n  pop\n  jump\t// out\n    /* \"#utility.yul\":3801:3944   */\ntag_85:\n    /* \"#utility.yul\":3858:3863   */\n  0x00\n    /* \"#utility.yul\":3889:3895   */\n  dup2\n    /* \"#utility.yul\":3883:3896   */\n  mload\n    /* \"#utility.yul\":3874:3896   */\n  swap1\n  pop\n    /* \"#utility.yul\":3905:3938   */\n  tag_166\n    /* \"#utility.yul\":3932:3937   */\n  dup2\n    /* \"#utility.yul\":3905:3938   */\n  tag_84\n  jump\t// in\ntag_166:\n    /* \"#utility.yul\":3801:3944   */\n  swap3\n  swap2\n  pop\n  pop\n  jump\t// out\n    /* \"#utility.yul\":3950:4457   */\ntag_9:\n    /* \"#utility.yul\":4029:4035   */\n  0x00\n    /* \"#utility.yul\":4037:4043   */\n  dup1\n    /* \"#utility.yul\":4086:4088   */\n  0x40\n    /* \"#utility.yul\":4074:4083   */\n  dup4\n    /* \"#utility.yul\":4065:4072   */\n  dup6\n    /* \"#utility.yul\":4061:4084   */\n  sub\n    /* \"#utility.yul\":4057:4089   */\n  slt\n    /* \"#utility.yul\":4054:4173   */\n  iszero\n  tag_168\n  jumpi\n    /* \"#utility.yul\":4092:4171   */\n  tag_169\n  tag_80\n  jump\t// in\ntag_169:\n    /* \"#utility.yul\":4054:4173   */\ntag_168:\n    /* \"#utility.yul\":4212:4213   */\n  0x00\n    /* \"#utility.yul\":4237:4301   */\n  tag_170\n    /* \"#utility.yul\":4293:4300   */\n  dup6\n    /* \"#utility.yul\":4284:4290   */\n  dup3\n    /* \"#utility.yul\":4273:4282   */\n  dup7\n    /* \"#utility.yul\":4269:4291   */\n  add\n    /* \"#utility.yul\":4237:4301   */\n  tag_85\n  jump\t// in\ntag_170:\n    /* \"#utility.yul\":4227:4301   */\n  swap3\n  pop\n    /* \"#utility.yul\":4183:4311   */\n  pop\n    /* \"#utility.yul\":4350:4352   */\n  0x20\n    /* \"#utility.yul\":4376:4440   */\n  tag_171\n    /* \"#utility.yul\":4432:4439   */\n  dup6\n    /* \"#utility.yul\":4423:4429   */\n  dup3\n    /* \"#utility.yul\":4412:4421   */\n  dup7\n    /* \"#utility.yul\":4408:4430   */\n  add\n    /* \"#utility.yul\":4376:4440   */\n  tag_85\n  jump\t// in\ntag_171:\n    /* \"#utility.yul\":4366:4440   */\n  swap2\n  pop\n    /* \"#utility.yul\":4321:4450   */\n  pop\n    /* \"#utility.yul\":3950:4457   */\n  swap3\n  pop\n  swap3\n  swap1\n  pop\n  jump\t// out\n    /* \"#utility.yul\":4463:4562   */\ntag_86:\n    /* \"#utility.yul\":4515:4521   */\n  0x00\n    /* \"#utility.yul\":4549:4554   */\n  dup2\n    /* \"#utility.yul\":4543:4555   */\n  mload\n    /* \"#utility.yul\":4533:4555   */\n  swap1\n  pop\n    /* \"#utility.yul\":4463:4562   */\n  swap2\n  swap1\n  pop\n  jump\t// out\n    /* \"#utility.yul\":4568:4748   */\ntag_87:\n    /* \"#utility.yul\":4616:4693   */\n  0x4e487b7100000000000000000000000000000000000000000000000000000000\n    /* \"#utility.yul\":4613:4614   */\n  0x00\n    /* \"#utility.yul\":4606:4694   */\n  mstore\n    /* \"#utility.yul\":4713:4717   */\n  0x41\n    /* \"#utility.yul\":4710:4711   */\n  0x04\n    /* \"#utility.yul\":4703:4718   */\n  mstore\n    /* \"#utility.yul\":4737:4741   */\n  0x24\n    /* \"#utility.yul\":4734:4735   */\n  0x00\n    /* \"#utility.yul\":4727:4742   */\n  revert\n    /* \"#utility.yul\":4754:4934   */\ntag_88:\n    /* \"#utility.yul\":4802:4879   */\n  0x4e487b7100000000000000000000000000000000000000000000000000000000\n    /* \"#utility.yul\":4799:4800   */\n  0x00\n    /* \"#utility.yul\":4792:4880   */\n  mstore\n    /* \"#utility.yul\":4899:4903   */\n  0x22\n    /* \"#utility.yul\":4896:4897   */\n  0x04\n    /* \"#utility.yul\":4889:4904   */\n  mstore\n    /* \"#utility.yul\":4923:4927   */\n  0x24\n    /* \"#utility.yul\":4920:4921   */\n  0x00\n    /* \"#utility.yul\":4913:4928   */\n  revert\n    /* \"#utility.yul\":4940:5260   */\ntag_89:\n    /* \"#utility.yul\":4984:4990   */\n  0x00\n    /* \"#utility.yul\":5021:5022   */\n  0x02\n    /* \"#utility.yul\":5015:5019   */\n  dup3\n    /* \"#utility.yul\":5011:5023   */\n  div\n    /* \"#utility.yul\":5001:5023   */\n  swap1\n  pop\n    /* \"#utility.yul\":5068:5069   */\n  0x01\n    /* \"#utility.yul\":5062:5066   */\n  dup3\n    /* \"#utility.yul\":5058:5070   */\n  and\n    /* \"#utility.yul\":5089:5107   */\n  dup1\n    /* \"#utility.yul\":5079:5160   */\n  tag_176\n  jumpi\n    /* \"#utility.yul\":5145:5149   */\n  0x7f\n    /* \"#utility.yul\":5137:5143   */\n  dup3\n    /* \"#utility.yul\":5133:5150   */\n  and\n    /* \"#utility.yul\":5123:5150   */\n  swap2\n  pop\n    /* \"#utility.yul\":5079:5160   */\ntag_176:\n    /* \"#utility.yul\":5207:5209   */\n  0x20\n    /* \"#utility.yul\":5199:5205   */\n  dup3\n    /* \"#utility.yul\":5196:5210   */\n  lt\n    /* \"#utility.yul\":5176:5194   */\n  dup2\n    /* \"#utility.yul\":5173:5211   */\n  sub\n    /* \"#utility.yul\":5170:5254   */\n  tag_177\n  jumpi\n    /* \"#utility.yul\":5226:5244   */\n  tag_178\n  tag_88\n  jump\t// in\ntag_178:\n    /* \"#utility.yul\":5170:5254   */\ntag_177:\n    /* \"#utility.yul\":4991:5260   */\n  pop\n    /* \"#utility.yul\":4940:5260   */\n  swap2\n  swap1\n  pop\n  jump\t// out\n    /* \"#utility.yul\":5266:5407   */\ntag_90:\n    /* \"#utility.yul\":5315:5319   */\n  0x00\n    /* \"#utility.yul\":5338:5341   */\n  dup2\n    /* \"#utility.yul\":5330:5341   */\n  swap1\n  pop\n    /* \"#utility.yul\":5361:5364   */\n  dup2\n    /* \"#utility.yul\":5358:5359   */\n  0x00\n    /* \"#utility.yul\":5351:5365   */\n  mstore\n    /* \"#utility.yul\":5395:5399   */\n  0x20\n    /* \"#utility.yul\":5392:5393   */\n  0x00\n    /* \"#utility.yul\":5382:5400   */\n  keccak256\n    /* \"#utility.yul\":5374:5400   */\n  swap1\n  pop\n    /* \"#utility.yul\":5266:5407   */\n  swap2\n  swap1\n  pop\n  jump\t// out\n    /* \"#utility.yul\":5413:5506   */\ntag_91:\n    /* \"#utility.yul\":5450:5456   */\n  0x00\n    /* \"#utility.yul\":5497:5499   */\n  0x20\n    /* \"#utility.yul\":5492:5494   */\n  0x1f\n    /* \"#utility.yul\":5485:5490   */\n  dup4\n    /* \"#utility.yul\":5481:5495   */\n  add\n    /* \"#utility.yul\":5477:5500   */\n  div\n    /* \"#utility.yul\":5467:5500   */\n  swap1\n  pop\n    /* \"#utility.yul\":5413:5506   */\n  swap2\n  swap1\n  pop\n  jump\t// out\n    /* \"#utility.yul\":5512:5619   */\ntag_92:\n    /* \"#utility.yul\":5556:5564   */\n  0x00\n    /* \"#utility.yul\":5606:5611   */\n  dup3\n    /* \"#utility.yul\":5600:5604   */\n  dup3\n    /* \"#utility.yul\":5596:5612   */\n  shl\n    /* \"#utility.yul\":5575:5612   */\n  swap1\n  pop\n    /* \"#utility.yul\":5512:5619   */\n  swap3\n  swap2\n  pop\n  pop\n  jump\t// out\n    /* \"#utility.yul\":5625:6018   */\ntag_93:\n    /* \"#utility.yul\":5694:5700   */\n  0x00\n    /* \"#utility.yul\":5744:5745   */\n  0x08\n    /* \"#utility.yul\":5732:5742   */\n  dup4\n    /* \"#utility.yul\":5728:5746   */\n  mul\n    /* \"#utility.yul\":5767:5864   */\n  tag_183\n    /* \"#utility.yul\":5797:5863   */\n  0xffffffffffffffffffffffffffffffffffffffffffffffffffffffffffffffff\n    /* \"#utility.yul\":5786:5795   */\n  dup3\n    /* \"#utility.yul\":5767:5864   */\n  tag_92\n  jump\t// in\ntag_183:\n    /* \"#utility.yul\":5885:5924   */\n  tag_184\n    /* \"#utility.yul\":5915:5923   */\n  dup7\n    /* \"#utility.yul\":5904:5913   */\n  dup4\n    /* \"#utility.yul\":5885:5924   */\n  tag_92\n  jump\t// in\ntag_184:\n    /* \"#utility.yul\":5873:5924   */\n  swap6\n  pop\n    /* \"#utility.yul\":5957:5961   */\n  dup1\n    /* \"#utility.yul\":5953:5962   */\n  not\n    /* \"#utility.yul\":5946:5951   */\n  dup5\n    /* \"#utility.yul\":5942:5963   */\n  and\n    /* \"#utility.yul\":5933:5963   */\n  swap4\n  pop\n    /* \"#utility.yul\":6006:6010   */\n  dup1\n    /* \"#utility.yul\":5996:6004   */\n  dup7\n    /* \"#utility.yul\":5992:6011   */\n  and\n    /* \"#utility.yul\":5985:5990   */\n  dup5\n    /* \"#utility.yul\":5982:6012   */\n  or\n    /* \"#utility.yul\":5972:6012   */\n  swap3\n  pop\n    /* \"#utility.yul\":5701:6018   */\n  pop\n  pop\n    /* \"#utility.yul\":5625:6018   */\n  swap4\n  swap3\n  pop\n  pop\n  pop\n  jump\t// out\n    /* \"#utility.yul\":6024:6084   */\ntag_94:\n    /* \"#utility.yul\":6052:6055   */\n  0x00\n    /* \"#utility.yul\":6073:6078   */\n  dup2\n    /* \"#utility.yul\":6066:6078   */\n  swap1\n  pop\n    /* \"#utility.yul\":6024:6084   */\n  swap2\n  swap1\n  pop\n  jump\t// out\n    /* \"#utility.yul\":6090:6232   */\ntag_95:\n    /* \"#utility.yul\":6140:6149   */\n  0x00\n    /* \"#utility.yul\":6173:6226   */\n  tag_187\n    /* \"#utility.yul\":6191:6225   */\n  tag_188\n    /* \"#utility.yul\":6200:6224   */\n  tag_189\n    /* \"#utility.yul\":6218:6223   */\n  dup5\n    /* \"#utility.yul\":6200:6224   */\n  tag_77\n  jump\t// in\ntag_189:\n    /* \"#utility.yul\":6191:6225   */\n  tag_94\n  jump\t// in\ntag_188:\n    /* \"#utility.yul\":6173:6226   */\n  tag_77\n  jump\t// in\ntag_187:\n    /* \"#utility.yul\":6160:6226   */\n  swap1\n  pop\n    /* \"#utility.yul\":6090:6232   */\n  swap2\n  swap1\n  pop\n  jump\t// out\n    /* \"#utility.yul\":6238:6313   */\ntag_96:\n    /* \"#utility.yul\":6281:6284   */\n  0x00\n    /* \"#utility.yul\":6302:6307   */\n  dup2\n    /* \"#utility.yul\":6295:6307   */\n  swap1\n  pop\n    /* \"#utility.yul\":6238:6313   */\n  swap2\n  swap1\n  pop\n  jump\t// out\n    /* \"#utility.yul\":6319:6588   */\ntag_97:\n    /* \"#utility.yul\":6429:6468   */\n  tag_192\n    /* \"#utility.yul\":6460:6467   */\n  dup4\n    /* \"#utility.yul\":6429:6468   */\n  tag_95\n  jump\t// in\ntag_192:\n    /* \"#utility.yul\":6490:6581   */\n  tag_193\n    /* \"#utility.yul\":6539:6580   */\n  tag_194\n    /* \"#utility.yul\":6563:6579   */\n  dup3\n    /* \"#utility.yul\":6539:6580   */\n  tag_96\n  jump\t// in\ntag_194:\n    /* \"#utility.yul\":6531:6537   */\n  dup5\n    /* \"#utility.yul\":6524:6528   */\n  dup5\n    /* \"#utility.yul\":6518:6529   */\n  sload\n    /* \"#utility.yul\":6490:6581   */\n  tag_93\n  jump\t// in\ntag_193:\n    /* \"#utility.yul\":6484:6488   */\n  dup3\n    /* \"#utility.yul\":6477:6582   */\n  sstore\n    /* \"#utility.yul\":6395:6588   */\n  pop\n    /* \"#utility.yul\":6319:6588   */\n  pop\n  pop\n  pop\n  jump\t// out\n    /* \"#utility.yul\":6594:6667   */\ntag_98:\n    /* \"#utility.yul\":6639:6642   */\n  0x00\n    /* \"#utility.yul\":6594:6667   */\n  swap1\n  jump\t// out\n    /* \"#utility.yul\":6673:6862   */\ntag_99:\n    /* \"#utility.yul\":6750:6782   */\n  tag_197\n  tag_98\n  jump\t// in\ntag_197:\n    /* \"#utility.yul\":6791:6856   */\n  tag_198\n    /* \"#utility.yul\":6849:6855   */\n  dup2\n    /* \"#utility.yul\":6841:6847   */\n  dup5\n    /* \"#utility.yul\":6835:6839   */\n  dup5\n    /* \"#utility.yul\":6791:6856   */\n  tag_97\n  jump\t// in\ntag_198:\n    /* \"#utility.yul\":6726:6862   */\n  pop\n    /* \"#utility.yul\":6673:6862   */\n  pop\n  pop\n  jump\t// out\n    /* \"#utility.yul\":6868:7054   */\ntag_100:\n    /* \"#utility.yul\":6928:7048   */\ntag_200:\n    /* \"#utility.yul\":6945:6948   */\n  dup2\n    /* \"#utility.yul\":6938:6943   */\n  dup2\n    /* \"#utility.yul\":6935:6949   */\n  lt\n    /* \"#utility.yul\":6928:7048   */\n  iszero\n  tag_202\n  jumpi\n    /* \"#utility.yul\":6999:7038   */\n  tag_203\n    /* \"#utility.yul\":7036:7037   */\n  0x00\n    /* \"#utility.yul\":7029:7034   */\n  dup3\n    /* \"#utility.yul\":6999:7038   */\n  tag_99\n  jump\t// in\ntag_203:\n    /* \"#utility.yul\":6972:6973   */\n  0x01\n    /* \"#utility.yul\":6965:6970   */\n  dup2\n    /* \"#utility.yul\":6961:6974   */\n  add\n    /* \"#utility.yul\":6952:6974   */\n  swap1\n  pop\n    /* \"#utility.yul\":6928:7048   */\n  jump(tag_200)\ntag_202:\n    /* \"#utility.yul\":6868:7054   */\n  pop\n  pop\n  jump\t// out\n    /* \"#utility.yul\":7060:7603   */\ntag_101:\n    /* \"#utility.yul\":7161:7163   */\n  0x1f\n    /* \"#utility.yul\":7156:7159   */\n  dup3\n    /* \"#utility.yul\":7153:7164   */\n  gt\n    /* \"#utility.yul\":7150:7596   */\n  iszero\n  tag_205\n  jumpi\n    /* \"#utility.yul\":7195:7233   */\n  tag_206\n    /* \"#utility.yul\":7227:7232   */\n  dup2\n    /* \"#utility.yul\":7195:7233   */\n  tag_90\n  jump\t// in\ntag_206:\n    /* \"#utility.yul\":7279:7308   */\n  tag_207\n    /* \"#utility.yul\":7297:7307   */\n  dup5\n    /* \"#utility.yul\":7279:7308   */\n  tag_91\n  jump\t// in\ntag_207:\n    /* \"#utility.yul\":7269:7277   */\n  dup2\n    /* \"#utility.yul\":7265:7309   */\n  add\n    /* \"#utility.yul\":7462:7464   */\n  0x20\n    /* \"#utility.yul\":7450:7460   */\n  dup6\n    /* \"#utility.yul\":7447:7465   */\n  lt\n    /* \"#utility.yul\":7444:7493   */\n  iszero\n  tag_208\n  jumpi\n    /* \"#utility.yul\":7483:7491   */\n  dup2\n    /* \"#utility.yul\":7468:7491   */\n  swap1\n  pop\n    /* \"#utility.yul\":7444:7493   */\ntag_208:\n    /* \"#utility.yul\":7506:7586   */\n  tag_209\n    /* \"#utility.yul\":7562:7584   */\n  tag_210\n    /* \"#utility.yul\":7580:7583   */\n  dup6\n    /* \"#utility.yul\":7562:7584   */\n  tag_91\n  jump\t// in\ntag_210:\n    /* \"#utility.yul\":7552:7560   */\n  dup4\n    /* \"#utility.yul\":7548:7585   */\n  add\n    /* \"#utility.yul\":7535:7546   */\n  dup3\n    /* \"#utility.yul\":7506:7586   */\n  tag_100\n  jump\t// in\ntag_209:\n    /* \"#utility.yul\":7165:7596   */\n  pop\n  pop\n    /* \"#utility.yul\":7150:7596   */\ntag_205:\n    /* \"#utility.yul\":7060:7603   */\n  pop\n  pop\n  pop\n  jump\t// out\n    /* \"#utility.yul\":7609:7726   */\ntag_102:\n    /* \"#utility.yul\":7663:7671   */\n  0x00\n    /* \"#utility.yul\":7713:7718   */\n  dup3\n    /* \"#utility.yul\":7707:7711   */\n  dup3\n    /* \"#utility.yul\":7703:7719   */\n  shr\n    /* \"#utility.yul\":7682:7719   */\n  swap1\n  pop\n    /* \"#utility.yul\":7609:7726   */\n  swap3\n  swap2\n  pop\n  pop\n  jump\t// out\n    /* \"#utility.yul\":7732:7901   */\ntag_103:\n    /* \"#utility.yul\":7776:7782   */\n  0x00\n    /* \"#utility.yul\":7809:7860   */\n  tag_213\n    /* \"#utility.yul\":7857:7858   */\n  0x00\n    /* \"#utility.yul\":7853:7859   */\n  not\n    /* \"#utility.yul\":7845:7850   */\n  dup5\n    /* \"#utility.yul\":7842:7843   */\n  0x08\n    /* \"#utility.yul\":7838:7851   */\n  mul\n    /* \"#utility.yul\":7809:7860   */\n  tag_102\n  jump\t// in\ntag_213:\n    /* \"#utility.yul\":7805:7861   */\n  not\n    /* \"#utility.yul\":7890:7894   */\n  dup1\n    /* \"#utility.yul\":7884:7888   */\n  dup4\n    /* \"#utility.yul\":7880:7895   */\n  and\n    /* \"#utility.yul\":7870:7895   */\n  swap2\n  pop\n    /* \"#utility.yul\":7783:7901   */\n  pop\n    /* \"#utility.yul\":7732:7901   */\n  swap3\n  swap2\n  pop\n  pop\n  jump\t// out\n    /* \"#utility.yul\":7906:8201   */\ntag_104:\n    /* \"#utility.yul\":7982:7986   */\n  0x00\n    /* \"#utility.yul\":8128:8157   */\n  tag_215\n    /* \"#utility.yul\":8153:8156   */\n  dup4\n    /* \"#utility.yul\":8147:8151   */\n  dup4\n    /* \"#utility.yul\":8128:8157   */\n  tag_103\n  jump\t// in\ntag_215:\n    /* \"#utility.yul\":8120:8157   */\n  swap2\n  pop\n    /* \"#utility.yul\":8190:8193   */\n  dup3\n    /* \"#utility.yul\":8187:8188   */\n  0x02\n    /* \"#utility.yul\":8183:8194   */\n  mul\n    /* \"#utility.yul\":8177:8181   */\n  dup3\n    /* \"#utility.yul\":8174:8195   */\n  or\n    /* \"#utility.yul\":8166:8195   */\n  swap1\n  pop\n    /* \"#utility.yul\":7906:8201   */\n  swap3\n  swap2\n  pop\n  pop\n  jump\t// out\n    /* \"#utility.yul\":8206:9601   */\ntag_15:\n    /* \"#utility.yul\":8323:8360   */\n  tag_217\n    /* \"#utility.yul\":8356:8359   */\n  dup3\n    /* \"#utility.yul\":8323:8360   */\n  tag_86\n  jump\t// in\ntag_217:\n    /* \"#utility.yul\":8425:8443   */\n  0xffffffffffffffff\n    /* \"#utility.yul\":8417:8423   */\n  dup2\n    /* \"#utility.yul\":8414:8444   */\n  gt\n    /* \"#utility.yul\":8411:8467   */\n  iszero\n  tag_218\n  jumpi\n    /* \"#utility.yul\":8447:8465   */\n  tag_219\n  tag_87\n  jump\t// in\ntag_219:\n    /* \"#utility.yul\":8411:8467   */\ntag_218:\n    /* \"#utility.yul\":8491:8529   */\n  tag_220\n    /* \"#utility.yul\":8523:8527   */\n  dup3\n    /* \"#utility.yul\":8517:8528   */\n  sload\n    /* \"#utility.yul\":8491:8529   */\n  tag_89\n  jump\t// in\ntag_220:\n    /* \"#utility.yul\":8576:8643   */\n  tag_221\n    /* \"#utility.yul\":8636:8642   */\n  dup3\n    /* \"#utility.yul\":8628:8634   */\n  dup3\n    /* \"#utility.yul\":8622:8626   */\n  dup6\n    /* \"#utility.yul\":8576:8643   */\n  tag_101\n  jump\t// in\ntag_221:\n    /* \"#utility.yul\":8670:8671   */\n  0x00\n    /* \"#utility.yul\":8694:8698   */\n  0x20\n    /* \"#utility.yul\":8681:8698   */\n  swap1\n  pop\n    /* \"#utility.yul\":8726:8728   */\n  0x1f\n    /* \"#utility.yul\":8718:8724   */\n  dup4\n    /* \"#utility.yul\":8715:8729   */\n  gt\n    /* \"#utility.yul\":8743:8744   */\n  0x01\n    /* \"#utility.yul\":8738:9356   */\n  dup2\n  eq\n  tag_223\n  jumpi\n    /* \"#utility.yul\":9400:9401   */\n  0x00\n    /* \"#utility.yul\":9417:9423   */\n  dup5\n    /* \"#utility.yul\":9414:9491   */\n  iszero\n  tag_224\n  jumpi\n    /* \"#utility.yul\":9466:9475   */\n  dup3\n    /* \"#utility.yul\":9461:9464   */\n  dup8\n    /* \"#utility.yul\":9457:9476   */\n  add\n    /* \"#utility.yul\":9451:9477   */\n  mload\n    /* \"#utility.yul\":9442:9477   */\n  swap1\n  pop\n    /* \"#utility.yul\":9414:9491   */\ntag_224:\n    /* \"#utility.yul\":9517:9584   */\n  tag_225\n    /* \"#utility.yul\":9577:9583   */\n  dup6\n    /* \"#utility.yul\":9570:9575   */\n  dup3\n    /* \"#utility.yul\":9517:9584   */\n  tag_104\n  jump\t// in\ntag_225:\n    /* \"#utility.yul\":9511:9515   */\n  dup7\n    /* \"#utility.yul\":9504:9585   */\n  sstore\n    /* \"#utility.yul\":9373:9595   */\n  pop\n    /* \"#utility.yul\":8708:9595   */\n  jump(tag_222)\n    /* \"#utility.yul\":8738:9356   */\ntag_223:\n    /* \"#utility.yul\":8790:8794   */\n  0x1f\n    /* \"#utility.yul\":8786:8795   */\n  not\n    /* \"#utility.yul\":8778:8784   */\n  dup5\n    /* \"#utility.yul\":8774:8796   */\n  and\n    /* \"#utility.yul\":8824:8861   */\n  tag_226\n    /* \"#utility.yul\":8856:8860   */\n  dup7\n    /* \"#utility.yul\":8824:8861   */\n  tag_90\n  jump\t// in\ntag_226:\n    /* \"#utility.yul\":8883:8884   */\n  0x00\n    /* \"#utility.yul\":8897:9105   */\ntag_227:\n    /* \"#utility.yul\":8911:8918   */\n  dup3\n    /* \"#utility.yul\":8908:8909   */\n  dup2\n    /* \"#utility.yul\":8905:8919   */\n  lt\n    /* \"#utility.yul\":8897:9105   */\n  iszero\n  tag_229\n  jumpi\n    /* \"#utility.yul\":8990:8999   */\n  dup5\n    /* \"#utility.yul\":8985:8988   */\n  dup10\n    /* \"#utility.yul\":8981:9000   */\n  add\n    /* \"#utility.yul\":8975:9001   */\n  mload\n    /* \"#utility.yul\":8967:8973   */\n  dup3\n    /* \"#utility.yul\":8960:9002   */\n  sstore\n    /* \"#utility.yul\":9041:9042   */\n  0x01\n    /* \"#utility.yul\":9033:9039   */\n  dup3\n    /* \"#utility.yul\":9029:9043   */\n  add\n    /* \"#utility.yul\":9019:9043   */\n  swap2\n  pop\n    /* \"#utility.yul\":9088:9090   */\n  0x20\n    /* \"#utility.yul\":9077:9086   */\n  dup6\n    /* \"#utility.yul\":9073:9091   */\n  add\n    /* \"#utility.yul\":9060:9091   */\n  swap5\n  pop\n    /* \"#utility.yul\":8934:8938   */\n  0x20\n    /* \"#utility.yul\":8931:8932   */\n  dup2\n    /* \"#utility.yul\":8927:8939   */\n  add\n    /* \"#utility.yul\":8922:8939   */\n  swap1\n  pop\n    /* \"#utility.yul\":8897:9105   */\n  jump(tag_227)\ntag_229:\n    /* \"#utility.yul\":9133:9139   */\n  dup7\n    /* \"#utility.yul\":9124:9131   */\n  dup4\n    /* \"#utility.yul\":9121:9140   */\n  lt\n    /* \"#utility.yul\":9118:9297   */\n  iszero\n  tag_230\n  jumpi\n    /* \"#utility.yul\":9191:9200   */\n  dup5\n    /* \"#utility.yul\":9186:9189   */\n  dup10\n    /* \"#utility.yul\":9182:9201   */\n  add\n    /* \"#utility.yul\":9176:9202   */\n  mload\n    /* \"#utility.yul\":9234:9282   */\n  tag_231\n    /* \"#utility.yul\":9276:9280   */\n  0x1f\n    /* \"#utility.yul\":9268:9274   */\n  dup10\n    /* \"#utility.yul\":9264:9281   */\n  and\n    /* \"#utility.yul\":9253:9262   */\n  dup3\n    /* \"#utility.yul\":9234:9282   */\n  tag_103\n  jump\t// in\ntag_231:\n    /* \"#utility.yul\":9226:9232   */\n  dup4\n    /* \"#utility.yul\":9219:9283   */\n  sstore\n    /* \"#utility.yul\":9141:9297   */\n  pop\n    /* \"#utility.yul\":9118:9297   */\ntag_230:\n    /* \"#utility.yul\":9343:9344   */\n  0x01\n    /* \"#utility.yul\":9339:9340   */\n  0x02\n    /* \"#utility.yul\":9331:9337   */\n  dup9\n    /* \"#utility.yul\":9327:9341   */\n  mul\n    /* \"#utility.yul\":9323:9345   */\n  add\n    /* \"#utility.yul\":9317:9321   */\n  dup9\n    /* \"#utility.yul\":9310:9346   */\n  sstore\n    /* \"#utility.yul\":8745:9356   */\n  pop\n  pop\n  pop\n    /* \"#utility.yul\":8708:9595   */\ntag_222:\n  pop\n    /* \"#utility.yul\":8298:9601   */\n  pop\n  pop\n  pop\n    /* \"#utility.yul\":8206:9601   */\n  pop\n  pop\n  jump\t// out\n    /* \"#utility.yul\":9607:9725   */\ntag_105:\n    /* \"#utility.yul\":9694:9718   */\n  tag_233\n    /* \"#utility.yul\":9712:9717   */\n  dup2\n    /* \"#utility.yul\":9694:9718   */\n  tag_83\n  jump\t// in\ntag_233:\n    /* \"#utility.yul\":9689:9692   */\n  dup3\n    /* \"#utility.yul\":9682:9719   */\n  mstore\n    /* \"#utility.yul\":9607:9725   */\n  pop\n  pop\n  jump\t// out\n    /* \"#utility.yul\":9731:9953   */\ntag_20:\n    /* \"#utility.yul\":9824:9828   */\n  0x00\n    /* \"#utility.yul\":9862:9864   */\n  0x20\n    /* \"#utility.yul\":9851:9860   */\n  dup3\n    /* \"#utility.yul\":9847:9865   */\n  add\n    /* \"#utility.yul\":9839:9865   */\n  swap1\n  pop\n    /* \"#utility.yul\":9875:9946   */\n  tag_235\n    /* \"#utility.yul\":9943:9944   */\n  0x00\n    /* \"#utility.yul\":9932:9941   */\n  dup4\n    /* \"#utility.yul\":9928:9945   */\n  add\n    /* \"#utility.yul\":9919:9925   */\n  dup5\n    /* \"#utility.yul\":9875:9946   */\n  tag_105\n  jump\t// in\ntag_235:\n    /* \"#utility.yul\":9731:9953   */\n  swap3\n  swap2\n  pop\n  pop\n  jump\t// out\n    /* \"#utility.yul\":9959:10128   */\ntag_106:\n    /* \"#utility.yul\":10043:10054   */\n  0x00\n    /* \"#utility.yul\":10077:10083   */\n  dup3\n    /* \"#utility.yul\":10072:10075   */\n  dup3\n    /* \"#utility.yul\":10065:10084   */\n  mstore\n    /* \"#utility.yul\":10117:10121   */\n  0x20\n    /* \"#utility.yul\":10112:10115   */\n  dup3\n    /* \"#utility.yul\":10108:10122   */\n  add\n    /* \"#utility.yul\":10093:10122   */\n  swap1\n  pop\n    /* \"#utility.yul\":9959:10128   */\n  swap3\n  swap2\n  pop\n  pop\n  jump\t// out\n    /* \"#utility.yul\":10134:10305   */\ntag_107:\n    /* \"#utility.yul\":10274:10297   */\n  0x426c61636b6c6973746564204164647265737365730000000000000000000000\n    /* \"#utility.yul\":10270:10271   */\n  0x00\n    /* \"#utility.yul\":10262:10268   */\n  dup3\n    /* \"#utility.yul\":10258:10272   */\n  add\n    /* \"#utility.yul\":10251:10298   */\n  mstore\n    /* \"#utility.yul\":10134:10305   */\n  pop\n  jump\t// out\n    /* \"#utility.yul\":10311:10677   */\ntag_108:\n    /* \"#utility.yul\":10453:10456   */\n  0x00\n    /* \"#utility.yul\":10474:10541   */\n  tag_239\n    /* \"#utility.yul\":10538:10540   */\n  0x15\n    /* \"#utility.yul\":10533:10536   */\n  dup4\n    /* \"#utility.yul\":10474:10541   */\n  tag_106\n  jump\t// in\ntag_239:\n    /* \"#utility.yul\":10467:10541   */\n  swap2\n  pop\n    /* \"#utility.yul\":10550:10643   */\n  tag_240\n    /* \"#utility.yul\":10639:10642   */\n  dup3\n    /* \"#utility.yul\":10550:10643   */\n  tag_107\n  jump\t// in\ntag_240:\n    /* \"#utility.yul\":10668:10670   */\n  0x20\n    /* \"#utility.yul\":10663:10666   */\n  dup3\n    /* \"#utility.yul\":10659:10671   */\n  add\n    /* \"#utility.yul\":10652:10671   */\n  swap1\n  pop\n    /* \"#utility.yul\":10311:10677   */\n  swap2\n  swap1\n  pop\n  jump\t// out\n    /* \"#utility.yul\":10683:11102   */\ntag_38:\n    /* \"#utility.yul\":10849:10853   */\n  0x00\n    /* \"#utility.yul\":10887:10889   */\n  0x20\n    /* \"#utility.yul\":10876:10885   */\n  dup3\n    /* \"#utility.yul\":10872:10890   */\n  add\n    /* \"#utility.yul\":10864:10890   */\n  swap1\n  pop\n    /* \"#utility.yul\":10936:10945   */\n  dup2\n    /* \"#utility.yul\":10930:10934   */\n  dup2\n    /* \"#utility.yul\":10926:10946   */\n  sub\n    /* \"#utility.yul\":10922:10923   */\n  0x00\n    /* \"#utility.yul\":10911:10920   */\n  dup4\n    /* \"#utility.yul\":10907:10924   */\n  add\n    /* \"#utility.yul\":10900:10947   */\n  mstore\n    /* \"#utility.yul\":10964:11095   */\n  tag_242\n    /* \"#utility.yul\":11090:11094   */\n  dup2\n    /* \"#utility.yul\":10964:11095   */\n  tag_108\n  jump\t// in\ntag_242:\n    /* \"#utility.yul\":10956:11095   */\n  swap1\n  pop\n    /* \"#utility.yul\":10683:11102   */\n  swap2\n  swap1\n  pop\n  jump\t// out\n    /* \"#utility.yul\":11108:11329   */\ntag_109:\n    /* \"#utility.yul\":11248:11282   */\n  0x426f746820616464726573736573206d7573742062652077686974656c697374\n    /* \"#utility.yul\":11244:11245   */\n  0x00\n    /* \"#utility.yul\":11236:11242   */\n  dup3\n    /* \"#utility.yul\":11232:11246   */\n  add\n    /* \"#utility.yul\":11225:11283   */\n  mstore\n    /* \"#utility.yul\":11317:11321   */\n  0x6564000000000000000000000000000000000000000000000000000000000000\n    /* \"#utility.yul\":11312:11314   */\n  0x20\n    /* \"#utility.yul\":11304:11310   */\n  dup3\n    /* \"#utility.yul\":11300:11315   */\n  add\n    /* \"#utility.yul\":11293:11322   */\n  mstore\n    /* \"#utility.yul\":11108:11329   */\n  pop\n  jump\t// out\n    /* \"#utility.yul\":11335:11701   */\ntag_110:\n    /* \"#utility.yul\":11477:11480   */\n  0x00\n    /* \"#utility.yul\":11498:11565   */\n  tag_245\n    /* \"#utility.yul\":11562:11564   */\n  0x22\n    /* \"#utility.yul\":11557:11560   */\n  dup4\n    /* \"#utility.yul\":11498:11565   */\n  tag_106\n  jump\t// in\ntag_245:\n    /* \"#utility.yul\":11491:11565   */\n  swap2\n  pop\n    /* \"#utility.yul\":11574:11667   */\n  tag_246\n    /* \"#utility.yul\":11663:11666   */\n  dup3\n    /* \"#utility.yul\":11574:11667   */\n  tag_109\n  jump\t// in\ntag_246:\n    /* \"#utility.yul\":11692:11694   */\n  0x40\n    /* \"#utility.yul\":11687:11690   */\n  dup3\n    /* \"#utility.yul\":11683:11695   */\n  add\n    /* \"#utility.yul\":11676:11695   */\n  swap1\n  pop\n    /* \"#utility.yul\":11335:11701   */\n  swap2\n  swap1\n  pop\n  jump\t// out\n    /* \"#utility.yul\":11707:12126   */\ntag_43:\n    /* \"#utility.yul\":11873:11877   */\n  0x00\n    /* \"#utility.yul\":11911:11913   */\n  0x20\n    /* \"#utility.yul\":11900:11909   */\n  dup3\n    /* \"#utility.yul\":11896:11914   */\n  add\n    /* \"#utility.yul\":11888:11914   */\n  swap1\n  pop\n    /* \"#utility.yul\":11960:11969   */\n  dup2\n    /* \"#utility.yul\":11954:11958   */\n  dup2\n    /* \"#utility.yul\":11950:11970   */\n  sub\n    /* \"#utility.yul\":11946:11947   */\n  0x00\n    /* \"#utility.yul\":11935:11944   */\n  dup4\n    /* \"#utility.yul\":11931:11948   */\n  add\n    /* \"#utility.yul\":11924:11971   */\n  mstore\n    /* \"#utility.yul\":11988:12119   */\n  tag_248\n    /* \"#utility.yul\":12114:12118   */\n  dup2\n    /* \"#utility.yul\":11988:12119   */\n  tag_110\n  jump\t// in\ntag_248:\n    /* \"#utility.yul\":11980:12119   */\n  swap1\n  pop\n    /* \"#utility.yul\":11707:12126   */\n  swap2\n  swap1\n  pop\n  jump\t// out\n    /* \"#utility.yul\":12132:12311   */\ntag_111:\n    /* \"#utility.yul\":12272:12303   */\n  0x546f6b656e205472616e73666572204c696d6974204578636565646564000000\n    /* \"#utility.yul\":12268:12269   */\n  0x00\n    /* \"#utility.yul\":12260:12266   */\n  dup3\n    /* \"#utility.yul\":12256:12270   */\n  add\n    /* \"#utility.yul\":12249:12304   */\n  mstore\n    /* \"#utility.yul\":12132:12311   */\n  pop\n  jump\t// out\n    /* \"#utility.yul\":12317:12683   */\ntag_112:\n    /* \"#utility.yul\":12459:12462   */\n  0x00\n    /* \"#utility.yul\":12480:12547   */\n  tag_251\n    /* \"#utility.yul\":12544:12546   */\n  0x1d\n    /* \"#utility.yul\":12539:12542   */\n  dup4\n    /* \"#utility.yul\":12480:12547   */\n  tag_106\n  jump\t// in\ntag_251:\n    /* \"#utility.yul\":12473:12547   */\n  swap2\n  pop\n    /* \"#utility.yul\":12556:12649   */\n  tag_252\n    /* \"#utility.yul\":12645:12648   */\n  dup3\n    /* \"#utility.yul\":12556:12649   */\n  tag_111\n  jump\t// in\ntag_252:\n    /* \"#utility.yul\":12674:12676   */\n  0x20\n    /* \"#utility.yul\":12669:12672   */\n  dup3\n    /* \"#utility.yul\":12665:12677   */\n  add\n    /* \"#utility.yul\":12658:12677   */\n  swap1\n  pop\n    /* \"#utility.yul\":12317:12683   */\n  swap2\n  swap1\n  pop\n  jump\t// out\n    /* \"#utility.yul\":12689:13108   */\ntag_46:\n    /* \"#utility.yul\":12855:12859   */\n  0x00\n    /* \"#utility.yul\":12893:12895   */\n  0x20\n    /* \"#utility.yul\":12882:12891   */\n  dup3\n    /* \"#utility.yul\":12878:12896   */\n  add\n    /* \"#utility.yul\":12870:12896   */\n  swap1\n  pop\n    /* \"#utility.yul\":12942:12951   */\n  dup2\n    /* \"#utility.yul\":12936:12940   */\n  dup2\n    /* \"#utility.yul\":12932:12952   */\n  sub\n    /* \"#utility.yul\":12928:12929   */\n  0x00\n    /* \"#utility.yul\":12917:12926   */\n  dup4\n    /* \"#utility.yul\":12913:12930   */\n  add\n    /* \"#utility.yul\":12906:12953   */\n  mstore\n    /* \"#utility.yul\":12970:13101   */\n  tag_254\n    /* \"#utility.yul\":13096:13100   */\n  dup2\n    /* \"#utility.yul\":12970:13101   */\n  tag_112\n  jump\t// in\ntag_254:\n    /* \"#utility.yul\":12962:13101   */\n  swap1\n  pop\n    /* \"#utility.yul\":12689:13108   */\n  swap2\n  swap1\n  pop\n  jump\t// out\n    /* \"#utility.yul\":13114:13305   */\ntag_48:\n    /* \"#utility.yul\":13154:13157   */\n  0x00\n    /* \"#utility.yul\":13173:13193   */\n  tag_256\n    /* \"#utility.yul\":13191:13192   */\n  dup3\n    /* \"#utility.yul\":13173:13193   */\n  tag_77\n  jump\t// in\ntag_256:\n    /* \"#utility.yul\":13168:13193   */\n  swap2\n  pop\n    /* \"#utility.yul\":13207:13227   */\n  tag_257\n    /* \"#utility.yul\":13225:13226   */\n  dup4\n    /* \"#utility.yul\":13207:13227   */\n  tag_77\n  jump\t// in\ntag_257:\n    /* \"#utility.yul\":13202:13227   */\n  swap3\n  pop\n    /* \"#utility.yul\":13250:13251   */\n  dup3\n    /* \"#utility.yul\":13247:13248   */\n  dup3\n    /* \"#utility.yul\":13243:13252   */\n  add\n    /* \"#utility.yul\":13236:13252   */\n  swap1\n  pop\n    /* \"#utility.yul\":13271:13274   */\n  dup1\n    /* \"#utility.yul\":13268:13269   */\n  dup3\n    /* \"#utility.yul\":13265:13275   */\n  gt\n    /* \"#utility.yul\":13262:13298   */\n  iszero\n  tag_258\n  jumpi\n    /* \"#utility.yul\":13278:13296   */\n  tag_259\n  tag_73\n  jump\t// in\ntag_259:\n    /* \"#utility.yul\":13262:13298   */\ntag_258:\n    /* \"#utility.yul\":13114:13305   */\n  swap3\n  swap2\n  pop\n  pop\n  jump\t// out\n    /* \"#utility.yul\":13311:13487   */\ntag_113:\n    /* \"#utility.yul\":13451:13479   */\n  0x546f6b656e205472616e7366657220696e20636f6f6c646f776e000000000000\n    /* \"#utility.yul\":13447:13448   */\n  0x00\n    /* \"#utility.yul\":13439:13445   */\n  dup3\n    /* \"#utility.yul\":13435:13449   */\n  add\n    /* \"#utility.yul\":13428:13480   */\n  mstore\n    /* \"#utility.yul\":13311:13487   */\n  pop\n  jump\t// out\n    /* \"#utility.yul\":13493:13859   */\ntag_114:\n    /* \"#utility.yul\":13635:13638   */\n  0x00\n    /* \"#utility.yul\":13656:13723   */\n  tag_262\n    /* \"#utility.yul\":13720:13722   */\n  0x1a\n    /* \"#utility.yul\":13715:13718   */\n  dup4\n    /* \"#utility.yul\":13656:13723   */\n  tag_106\n  jump\t// in\ntag_262:\n    /* \"#utility.yul\":13649:13723   */\n  swap2\n  pop\n    /* \"#utility.yul\":13732:13825   */\n  tag_263\n    /* \"#utility.yul\":13821:13824   */\n  dup3\n    /* \"#utility.yul\":13732:13825   */\n  tag_113\n  jump\t// in\ntag_263:\n    /* \"#utility.yul\":13850:13852   */\n  0x20\n    /* \"#utility.yul\":13845:13848   */\n  dup3\n    /* \"#utility.yul\":13841:13853   */\n  add\n    /* \"#utility.yul\":13834:13853   */\n  swap1\n  pop\n    /* \"#utility.yul\":13493:13859   */\n  swap2\n  swap1\n  pop\n  jump\t// out\n    /* \"#utility.yul\":13865:14284   */\ntag_51:\n    /* \"#utility.yul\":14031:14035   */\n  0x00\n    /* \"#utility.yul\":14069:14071   */\n  0x20\n    /* \"#utility.yul\":14058:14067   */\n  dup3\n    /* \"#utility.yul\":14054:14072   */\n  add\n    /* \"#utility.yul\":14046:14072   */\n  swap1\n  pop\n    /* \"#utility.yul\":14118:14127   */\n  dup2\n    /* \"#utility.yul\":14112:14116   */\n  dup2\n    /* \"#utility.yul\":14108:14128   */\n  sub\n    /* \"#utility.yul\":14104:14105   */\n  0x00\n    /* \"#utility.yul\":14093:14102   */\n  dup4\n    /* \"#utility.yul\":14089:14106   */\n  add\n    /* \"#utility.yul\":14082:14129   */\n  mstore\n    /* \"#utility.yul\":14146:14277   */\n  tag_265\n    /* \"#utility.yul\":14272:14276   */\n  dup2\n    /* \"#utility.yul\":14146:14277   */\n  tag_114\n  jump\t// in\ntag_265:\n    /* \"#utility.yul\":14138:14277   */\n  swap1\n  pop\n    /* \"#utility.yul\":13865:14284   */\n  swap2\n  swap1\n  pop\n  jump\t// out\n    /* \"#utility.yul\":14290:14470   */\ntag_115:\n    /* \"#utility.yul\":14338:14415   */\n  0x4e487b7100000000000000000000000000000000000000000000000000000000\n    /* \"#utility.yul\":14335:14336   */\n  0x00\n    /* \"#utility.yul\":14328:14416   */\n  mstore\n    /* \"#utility.yul\":14435:14439   */\n  0x12\n    /* \"#utility.yul\":14432:14433   */\n  0x04\n    /* \"#utility.yul\":14425:14440   */\n  mstore\n    /* \"#utility.yul\":14459:14463   */\n  0x24\n    /* \"#utility.yul\":14456:14457   */\n  0x00\n    /* \"#utility.yul\":14449:14464   */\n  revert\n    /* \"#utility.yul\":14476:14661   */\ntag_56:\n    /* \"#utility.yul\":14516:14517   */\n  0x00\n    /* \"#utility.yul\":14533:14553   */\n  tag_268\n    /* \"#utility.yul\":14551:14552   */\n  dup3\n    /* \"#utility.yul\":14533:14553   */\n  tag_77\n  jump\t// in\ntag_268:\n    /* \"#utility.yul\":14528:14553   */\n  swap2\n  pop\n    /* \"#utility.yul\":14567:14587   */\n  tag_269\n    /* \"#utility.yul\":14585:14586   */\n  dup4\n    /* \"#utility.yul\":14567:14587   */\n  tag_77\n  jump\t// in\ntag_269:\n    /* \"#utility.yul\":14562:14587   */\n  swap3\n  pop\n    /* \"#utility.yul\":14606:14607   */\n  dup3\n    /* \"#utility.yul\":14596:14631   */\n  tag_270\n  jumpi\n    /* \"#utility.yul\":14611:14629   */\n  tag_271\n  tag_115\n  jump\t// in\ntag_271:\n    /* \"#utility.yul\":14596:14631   */\ntag_270:\n    /* \"#utility.yul\":14653:14654   */\n  dup3\n    /* \"#utility.yul\":14650:14651   */\n  dup3\n    /* \"#utility.yul\":14646:14655   */\n  div\n    /* \"#utility.yul\":14641:14655   */\n  swap1\n  pop\n    /* \"#utility.yul\":14476:14661   */\n  swap3\n  swap2\n  pop\n  pop\n  jump\t// out\n    /* \"#utility.yul\":14667:14861   */\ntag_58:\n    /* \"#utility.yul\":14707:14711   */\n  0x00\n    /* \"#utility.yul\":14727:14747   */\n  tag_273\n    /* \"#utility.yul\":14745:14746   */\n  dup3\n    /* \"#utility.yul\":14727:14747   */\n  tag_77\n  jump\t// in\ntag_273:\n    /* \"#utility.yul\":14722:14747   */\n  swap2\n  pop\n    /* \"#utility.yul\":14761:14781   */\n  tag_274\n    /* \"#utility.yul\":14779:14780   */\n  dup4\n    /* \"#utility.yul\":14761:14781   */\n  tag_77\n  jump\t// in\ntag_274:\n    /* \"#utility.yul\":14756:14781   */\n  swap3\n  pop\n    /* \"#utility.yul\":14805:14806   */\n  dup3\n    /* \"#utility.yul\":14802:14803   */\n  dup3\n    /* \"#utility.yul\":14798:14807   */\n  sub\n    /* \"#utility.yul\":14790:14807   */\n  swap1\n  pop\n    /* \"#utility.yul\":14829:14830   */\n  dup2\n    /* \"#utility.yul\":14823:14827   */\n  dup2\n    /* \"#utility.yul\":14820:14831   */\n  gt\n    /* \"#utility.yul\":14817:14854   */\n  iszero\n  tag_275\n  jumpi\n    /* \"#utility.yul\":14834:14852   */\n  tag_276\n  tag_73\n  jump\t// in\ntag_276:\n    /* \"#utility.yul\":14817:14854   */\ntag_275:\n    /* \"#utility.yul\":14667:14861   */\n  swap3\n  swap2\n  pop\n  pop\n  jump\t// out\n    /* \"#utility.yul\":14867:14985   */\ntag_116:\n    /* \"#utility.yul\":14954:14978   */\n  tag_278\n    /* \"#utility.yul\":14972:14977   */\n  dup2\n    /* \"#utility.yul\":14954:14978   */\n  tag_77\n  jump\t// in\ntag_278:\n    /* \"#utility.yul\":14949:14952   */\n  dup3\n    /* \"#utility.yul\":14942:14979   */\n  mstore\n    /* \"#utility.yul\":14867:14985   */\n  pop\n  pop\n  jump\t// out\n    /* \"#utility.yul\":14991:15433   */\ntag_68:\n    /* \"#utility.yul\":15140:15144   */\n  0x00\n    /* \"#utility.yul\":15178:15180   */\n  0x60\n    /* \"#utility.yul\":15167:15176   */\n  dup3\n    /* \"#utility.yul\":15163:15181   */\n  add\n    /* \"#utility.yul\":15155:15181   */\n  swap1\n  pop\n    /* \"#utility.yul\":15191:15262   */\n  tag_280\n    /* \"#utility.yul\":15259:15260   */\n  0x00\n    /* \"#utility.yul\":15248:15257   */\n  dup4\n    /* \"#utility.yul\":15244:15261   */\n  add\n    /* \"#utility.yul\":15235:15241   */\n  dup7\n    /* \"#utility.yul\":15191:15262   */\n  tag_105\n  jump\t// in\ntag_280:\n    /* \"#utility.yul\":15272:15344   */\n  tag_281\n    /* \"#utility.yul\":15340:15342   */\n  0x20\n    /* \"#utility.yul\":15329:15338   */\n  dup4\n    /* \"#utility.yul\":15325:15343   */\n  add\n    /* \"#utility.yul\":15316:15322   */\n  dup6\n    /* \"#utility.yul\":15272:15344   */\n  tag_116\n  jump\t// in\ntag_281:\n    /* \"#utility.yul\":15354:15426   */\n  tag_282\n    /* \"#utility.yul\":15422:15424   */\n  0x40\n    /* \"#utility.yul\":15411:15420   */\n  dup4\n    /* \"#utility.yul\":15407:15425   */\n  add\n    /* \"#utility.yul\":15398:15404   */\n  dup5\n    /* \"#utility.yul\":15354:15426   */\n  tag_116\n  jump\t// in\ntag_282:\n    /* \"#utility.yul\":14991:15433   */\n  swap5\n  swap4\n  pop\n  pop\n  pop\n  pop\n  jump\t// out\n    /* \"#utility.yul\":15439:15661   */\ntag_72:\n    /* \"#utility.yul\":15532:15536   */\n  0x00\n    /* \"#utility.yul\":15570:15572   */\n  0x20\n    /* \"#utility.yul\":15559:15568   */\n  dup3\n    /* \"#utility.yul\":15555:15573   */\n  add\n    /* \"#utility.yul\":15547:15573   */\n  swap1\n  pop\n    /* \"#utility.yul\":15583:15654   */\n  tag_284\n    /* \"#utility.yul\":15651:15652   */\n  0x00\n    /* \"#utility.yul\":15640:15649   */\n  dup4\n    /* \"#utility.yul\":15636:15653   */\n  add\n    /* \"#utility.yul\":15627:15633   */\n  dup5\n    /* \"#utility.yul\":15583:15654   */\n  tag_116\n  jump\t// in\ntag_284:\n    /* \"#utility.yul\":15439:15661   */\n  swap3\n  swap2\n  pop\n  pop\n  jump\t// out\n    /* \"ChaiToken.sol\":224:4510  contract ChaiToken is ERC20, Ownable {... */\ntag_26:\n  dataSize(sub_0)\n  dup1\n  dataOffset(sub_0)\n  0x00\n  codecopy\n  0x00\n  return\nstop\n\nsub_0: assembly {\n        /* \"ChaiToken.sol\":224:4510  contract ChaiToken is ERC20, Ownable {... */\n      mstore(0x40, 0x80)\n      callvalue\n      dup1\n      iszero\n      tag_1\n      jumpi\n      0x00\n      dup1\n      revert\n    tag_1:\n      pop\n      jumpi(tag_2, lt(calldatasize, 0x04))\n      shr(0xe0, calldataload(0x00))\n      dup1\n      0x70a08231\n      gt\n      tag_37\n      jumpi\n      dup1\n      0xb319c6b7\n      gt\n      tag_38\n      jumpi\n      dup1\n      0xdd62ed3e\n      gt\n      tag_39\n      jumpi\n      dup1\n      0xdd62ed3e\n      eq\n      tag_32\n      jumpi\n      dup1\n      0xe43252d7\n      eq\n      tag_33\n      jumpi\n      dup1\n      0xec28438a\n      eq\n      tag_34\n      jumpi\n      dup1\n      0xf2fde38b\n      eq\n      tag_35\n      jumpi\n      dup1\n      0xfe575a87\n      eq\n      tag_36\n      jumpi\n      jump(tag_2)\n    tag_39:\n      dup1\n      0xb319c6b7\n      eq\n      tag_28\n      jumpi\n      dup1\n      0xb7bda68f\n      eq\n      tag_29\n      jumpi\n      dup1\n      0xcc7a736d\n      eq\n      tag_30\n      jumpi\n      dup1\n      0xced695a4\n      eq\n      tag_31\n      jumpi\n      jump(tag_2)\n    tag_38:\n      dup1\n      0x8da5cb5b\n      gt\n      tag_40\n      jumpi\n      dup1\n      0x8da5cb5b\n      eq\n      tag_24\n      jumpi\n      dup1\n      0x95d89b41\n      eq\n      tag_25\n      jumpi\n      dup1\n      0x9dfc9117\n      eq\n      tag_26\n      jumpi\n      dup1\n      0xa9059cbb\n      eq\n      tag_27\n      jumpi\n      jump(tag_2)\n    tag_40:\n      dup1\n      0x70a08231\n      eq\n      tag_20\n      jumpi\n      dup1\n      0x715018a6\n      eq\n      tag_21\n      jumpi\n      dup1\n      0x8ab1d681\n      eq\n      tag_22\n      jumpi\n      dup1\n      0x8c0b5e22\n      eq\n      tag_23\n      jumpi\n      jump(tag_2)\n    tag_37:\n      dup1\n      0x3af32abf\n      gt\n      tag_41\n      jumpi\n      dup1\n      0x537df3b6\n      gt\n      tag_42\n      jumpi\n      dup1\n      0x537df3b6\n      eq\n      tag_15\n      jumpi\n      dup1\n      0x53eb3bcf\n      eq\n      tag_16\n      jumpi\n      dup1\n      0x688188e8\n      eq\n      tag_17\n      jumpi\n      dup1\n      0x6d8b0527\n      eq\n      tag_18\n      jumpi\n      dup1\n      0x6e16de11\n      eq\n      tag_19\n      jumpi\n      jump(tag_2)\n    tag_42:\n      dup1\n      0x3af32abf\n      eq\n      tag_11\n      jumpi\n      dup1\n      0x44337ea1\n      eq\n      tag_12\n      jumpi\n      dup1\n      0x49192418\n      eq\n      tag_13\n      jumpi\n      dup1\n      0x4ebc552d\n      eq\n      tag_14\n      jumpi\n      jump(tag_2)\n    tag_41:\n      dup1\n      0x1c0aecfa\n      gt\n      tag_43\n      jumpi\n      dup1\n      0x1c0aecfa\n      eq\n      tag_7\n      jumpi\n      dup1\n      0x23b872dd\n      eq\n      tag_8\n      jumpi\n      dup1\n      0x2958ad7f\n      eq\n      tag_9\n      jumpi\n      dup1\n      0x313ce567\n      eq\n      tag_10\n      jumpi\n      jump(tag_2)\n    tag_43:\n      dup1\n      0x06fdde03\n      eq\n      tag_3\n      jumpi\n      dup1\n      0x095ea7b3\n      eq\n      tag_4\n      jumpi\n      dup1\n      0x0ddc0976\n      eq\n      tag_5\n      jumpi\n      dup1\n      0x18160ddd\n      eq\n      tag_6\n      jumpi\n    tag_2:\n      0x00\n      dup1\n      revert\n        /* \"@openzeppelin/contracts/token/ERC20/ERC20.sol\":2074:2163  function name() public view virtual returns (string memory) {... */\n    tag_3:\n      tag_44\n      tag_45\n      jump\t// in\n    tag_44:\n      mload(0x40)\n      tag_46\n      swap2\n      swap1\n      tag_47\n      jump\t// in\n    tag_46:\n      mload(0x40)\n      dup1\n      swap2\n      sub\n      swap1\n      return\n        /* \"@openzeppelin/contracts/token/ERC20/ERC20.sol\":4293:4479  function approve(address spender, uint256 value) public virtual returns (bool) {... */\n    tag_4:\n      tag_48\n      0x04\n      dup1\n      calldatasize\n      sub\n      dup2\n      add\n      swap1\n      tag_49\n      swap2\n      swap1\n      tag_50\n      jump\t// in\n    tag_49:\n      tag_51\n      jump\t// in\n    tag_48:\n      mload(0x40)\n      tag_52\n      swap2\n      swap1\n      tag_53\n      jump\t// in\n    tag_52:\n      mload(0x40)\n      dup1\n      swap2\n      sub\n      swap1\n      return\n        /* \"ChaiToken.sol\":452:478  uint256 public taxFees = 5 */\n    tag_5:\n      tag_54\n      tag_55\n      jump\t// in\n    tag_54:\n      mload(0x40)\n      tag_56\n      swap2\n      swap1\n      tag_57\n      jump\t// in\n    tag_56:\n      mload(0x40)\n      dup1\n      swap2\n      sub\n      swap1\n      return\n        /* \"@openzeppelin/contracts/token/ERC20/ERC20.sol\":3144:3241  function totalSupply() public view virtual returns (uint256) {... */\n    tag_6:\n      tag_58\n      tag_59\n      jump\t// in\n    tag_58:\n      mload(0x40)\n      tag_60\n      swap2\n      swap1\n      tag_57\n      jump\t// in\n    tag_60:\n      mload(0x40)\n      dup1\n      swap2\n      sub\n      swap1\n      return\n        /* \"ChaiToken.sol\":2295:2407  function isWhiteListingEnabled() external view returns(bool)... */\n    tag_7:\n      tag_61\n      tag_62\n      jump\t// in\n    tag_61:\n      mload(0x40)\n      tag_63\n      swap2\n      swap1\n      tag_53\n      jump\t// in\n    tag_63:\n      mload(0x40)\n      dup1\n      swap2\n      sub\n      swap1\n      return\n        /* \"@openzeppelin/contracts/token/ERC20/ERC20.sol\":5039:5283  function transferFrom(address from, address to, uint256 value) public virtual returns (bool) {... */\n    tag_8:\n      tag_64\n      0x04\n      dup1\n      calldatasize\n      sub\n      dup2\n      add\n      swap1\n      tag_65\n      swap2\n      swap1\n      tag_66\n      jump\t// in\n    tag_65:\n      tag_67\n      jump\t// in\n    tag_64:\n      mload(0x40)\n      tag_68\n      swap2\n      swap1\n      tag_53\n      jump\t// in\n    tag_68:\n      mload(0x40)\n      dup1\n      swap2\n      sub\n      swap1\n      return\n        /* \"ChaiToken.sol\":1626:1726  function enableWhiteListing() external onlyOwner... */\n    tag_9:\n      tag_69\n      tag_70\n      jump\t// in\n    tag_69:\n      stop\n        /* \"@openzeppelin/contracts/token/ERC20/ERC20.sol\":3002:3084  function decimals() public view virtual returns (uint8) {... */\n    tag_10:\n      tag_71\n      tag_72\n      jump\t// in\n    tag_71:\n      mload(0x40)\n      tag_73\n      swap2\n      swap1\n      tag_74\n      jump\t// in\n    tag_73:\n      mload(0x40)\n      dup1\n      swap2\n      sub\n      swap1\n      return\n        /* \"ChaiToken.sol\":2167:2287  function isWhitelisted(address account) external view returns(bool)  ... */\n    tag_11:\n      tag_75\n      0x04\n      dup1\n      calldatasize\n      sub\n      dup2\n      add\n      swap1\n      tag_76\n      swap2\n      swap1\n      tag_77\n      jump\t// in\n    tag_76:\n      tag_78\n      jump\t// in\n    tag_75:\n      mload(0x40)\n      tag_79\n      swap2\n      swap1\n      tag_53\n      jump\t// in\n    tag_79:\n      mload(0x40)\n      dup1\n      swap2\n      sub\n      swap1\n      return\n        /* \"ChaiToken.sol\":1222:1370  function addToBlacklist(address account) external onlyOwner... */\n    tag_12:\n      tag_80\n      0x04\n      dup1\n      calldatasize\n      sub\n      dup2\n      add\n      swap1\n      tag_81\n      swap2\n      swap1\n      tag_77\n      jump\t// in\n    tag_81:\n      tag_82\n      jump\t// in\n    tag_80:\n      stop\n        /* \"ChaiToken.sol\":3136:3338  function setSlippageFees(uint256 newSlippageFees) external onlyOwner... */\n    tag_13:\n      tag_83\n      0x04\n      dup1\n      calldatasize\n      sub\n      dup2\n      add\n      swap1\n      tag_84\n      swap2\n      swap1\n      tag_85\n      jump\t// in\n    tag_84:\n      tag_86\n      jump\t// in\n    tag_83:\n      stop\n        /* \"ChaiToken.sol\":2960:3128  function setTaxes(uint256 newTaxFee) external onlyOwner... */\n    tag_14:\n      tag_87\n      0x04\n      dup1\n      calldatasize\n      sub\n      dup2\n      add\n      swap1\n      tag_88\n      swap2\n      swap1\n      tag_85\n      jump\t// in\n    tag_88:\n      tag_89\n      jump\t// in\n    tag_87:\n      stop\n        /* \"ChaiToken.sol\":1376:1492  function removeFromBlacklist(address account) external onlyOwner... */\n    tag_15:\n      tag_90\n      0x04\n      dup1\n      calldatasize\n      sub\n      dup2\n      add\n      swap1\n      tag_91\n      swap2\n      swap1\n      tag_77\n      jump\t// in\n    tag_91:\n      tag_92\n      jump\t// in\n    tag_90:\n      stop\n        /* \"ChaiToken.sol\":3346:3428  function enableTax() external onlyOwner... */\n    tag_16:\n      tag_93\n      tag_94\n      jump\t// in\n    tag_93:\n      stop\n        /* \"ChaiToken.sol\":1734:1836  function disableWhiteListing() external onlyOwner... */\n    tag_17:\n      tag_95\n      tag_96\n      jump\t// in\n    tag_95:\n      stop\n        /* \"ChaiToken.sol\":2543:2642  function getMaxTxAmount() external view returns(uint256)... */\n    tag_18:\n      tag_97\n      tag_98\n      jump\t// in\n    tag_97:\n      mload(0x40)\n      tag_99\n      swap2\n      swap1\n      tag_57\n      jump\t// in\n    tag_99:\n      mload(0x40)\n      dup1\n      swap2\n      sub\n      swap1\n      return\n        /* \"ChaiToken.sol\":2650:2773  function setCoolDownTime(uint256 newCoolDowntime) external onlyOwner... */\n    tag_19:\n      tag_100\n      0x04\n      dup1\n      calldatasize\n      sub\n      dup2\n      add\n      swap1\n      tag_101\n      swap2\n      swap1\n      tag_85\n      jump\t// in\n    tag_101:\n      tag_102\n      jump\t// in\n    tag_100:\n      stop\n        /* \"@openzeppelin/contracts/token/ERC20/ERC20.sol\":3299:3415  function balanceOf(address account) public view virtual returns (uint256) {... */\n    tag_20:\n      tag_103\n      0x04\n      dup1\n      calldatasize\n      sub\n      dup2\n      add\n      swap1\n      tag_104\n      swap2\n      swap1\n      tag_77\n      jump\t// in\n    tag_104:\n      tag_105\n      jump\t// in\n    tag_103:\n      mload(0x40)\n      tag_106\n      swap2\n      swap1\n      tag_57\n      jump\t// in\n    tag_106:\n      mload(0x40)\n      dup1\n      swap2\n      sub\n      swap1\n      return\n        /* \"ChaiToken.sol\":1115:1214  function renounceOwnership() public override onlyOwner {... */\n    tag_21:\n      tag_107\n      tag_108\n      jump\t// in\n    tag_107:\n      stop\n        /* \"ChaiToken.sol\":2045:2161  function removeFromWhitelist(address account) external onlyOwner... */\n    tag_22:\n      tag_109\n      0x04\n      dup1\n      calldatasize\n      sub\n      dup2\n      add\n      swap1\n      tag_110\n      swap2\n      swap1\n      tag_77\n      jump\t// in\n    tag_110:\n      tag_111\n      jump\t// in\n    tag_109:\n      stop\n        /* \"ChaiToken.sol\":356:399  uint256 public maxTxAmount = _initialSupply */\n    tag_23:\n      tag_112\n      tag_113\n      jump\t// in\n    tag_112:\n      mload(0x40)\n      tag_114\n      swap2\n      swap1\n      tag_57\n      jump\t// in\n    tag_114:\n      mload(0x40)\n      dup1\n      swap2\n      sub\n      swap1\n      return\n        /* \"@openzeppelin/contracts/access/Ownable.sol\":1638:1723  function owner() public view virtual returns (address) {... */\n    tag_24:\n      tag_115\n      tag_116\n      jump\t// in\n    tag_115:\n      mload(0x40)\n      tag_117\n      swap2\n      swap1\n      tag_118\n      jump\t// in\n    tag_117:\n      mload(0x40)\n      dup1\n      swap2\n      sub\n      swap1\n      return\n        /* \"@openzeppelin/contracts/token/ERC20/ERC20.sol\":2276:2369  function symbol() public view virtual returns (string memory) {... */\n    tag_25:\n      tag_119\n      tag_120\n      jump\t// in\n    tag_119:\n      mload(0x40)\n      tag_121\n      swap2\n      swap1\n      tag_47\n      jump\t// in\n    tag_121:\n      mload(0x40)\n      dup1\n      swap2\n      sub\n      swap1\n      return\n        /* \"ChaiToken.sol\":2781:2952  function getContractDetails() external view returns (address, uint256, uint256,uint256)... */\n    tag_26:\n      tag_122\n      tag_123\n      jump\t// in\n    tag_122:\n      mload(0x40)\n      tag_124\n      swap5\n      swap4\n      swap3\n      swap2\n      swap1\n      tag_125\n      jump\t// in\n    tag_124:\n      mload(0x40)\n      dup1\n      swap2\n      sub\n      swap1\n      return\n        /* \"@openzeppelin/contracts/token/ERC20/ERC20.sol\":3610:3788  function transfer(address to, uint256 value) public virtual returns (bool) {... */\n    tag_27:\n      tag_126\n      0x04\n      dup1\n      calldatasize\n      sub\n      dup2\n      add\n      swap1\n      tag_127\n      swap2\n      swap1\n      tag_50\n      jump\t// in\n    tag_127:\n      tag_128\n      jump\t// in\n    tag_126:\n      mload(0x40)\n      tag_129\n      swap2\n      swap1\n      tag_53\n      jump\t// in\n    tag_129:\n      mload(0x40)\n      dup1\n      swap2\n      sub\n      swap1\n      return\n        /* \"ChaiToken.sol\":406:445  uint256 public cooldownTime = 1 minutes */\n    tag_28:\n      tag_130\n      tag_131\n      jump\t// in\n    tag_130:\n      mload(0x40)\n      tag_132\n      swap2\n      swap1\n      tag_57\n      jump\t// in\n    tag_132:\n      mload(0x40)\n      dup1\n      swap2\n      sub\n      swap1\n      return\n        /* \"ChaiToken.sol\":770:795  address public taxAddress */\n    tag_29:\n      tag_133\n      tag_134\n      jump\t// in\n    tag_133:\n      mload(0x40)\n      tag_135\n      swap2\n      swap1\n      tag_118\n      jump\t// in\n    tag_135:\n      mload(0x40)\n      dup1\n      swap2\n      sub\n      swap1\n      return\n        /* \"ChaiToken.sol\":485:516  uint256 public SlippageFees = 2 */\n    tag_30:\n      tag_136\n      tag_137\n      jump\t// in\n    tag_136:\n      mload(0x40)\n      tag_138\n      swap2\n      swap1\n      tag_57\n      jump\t// in\n    tag_138:\n      mload(0x40)\n      dup1\n      swap2\n      sub\n      swap1\n      return\n        /* \"ChaiToken.sol\":3436:3520  function disableTax() external onlyOwner... */\n    tag_31:\n      tag_139\n      tag_140\n      jump\t// in\n    tag_139:\n      stop\n        /* \"@openzeppelin/contracts/token/ERC20/ERC20.sol\":3846:3986  function allowance(address owner, address spender) public view virtual returns (uint256) {... */\n    tag_32:\n      tag_141\n      0x04\n      dup1\n      calldatasize\n      sub\n      dup2\n      add\n      swap1\n      tag_142\n      swap2\n      swap1\n      tag_143\n      jump\t// in\n    tag_142:\n      tag_144\n      jump\t// in\n    tag_141:\n      mload(0x40)\n      tag_145\n      swap2\n      swap1\n      tag_57\n      jump\t// in\n    tag_145:\n      mload(0x40)\n      dup1\n      swap2\n      sub\n      swap1\n      return\n        /* \"ChaiToken.sol\":1844:2039  function addToWhitelist(address account) external onlyOwner... */\n    tag_33:\n      tag_146\n      0x04\n      dup1\n      calldatasize\n      sub\n      dup2\n      add\n      swap1\n      tag_147\n      swap2\n      swap1\n      tag_77\n      jump\t// in\n    tag_147:\n      tag_148\n      jump\t// in\n    tag_146:\n      stop\n        /* \"ChaiToken.sol\":2415:2535  function setMaxTxAmount(uint256 newMaxTxAmount) external onlyOwner... */\n    tag_34:\n      tag_149\n      0x04\n      dup1\n      calldatasize\n      sub\n      dup2\n      add\n      swap1\n      tag_150\n      swap2\n      swap1\n      tag_85\n      jump\t// in\n    tag_150:\n      tag_151\n      jump\t// in\n    tag_149:\n      stop\n        /* \"@openzeppelin/contracts/access/Ownable.sol\":2543:2758  function transferOwnership(address newOwner) public virtual onlyOwner {... */\n    tag_35:\n      tag_152\n      0x04\n      dup1\n      calldatasize\n      sub\n      dup2\n      add\n      swap1\n      tag_153\n      swap2\n      swap1\n      tag_77\n      jump\t// in\n    tag_153:\n      tag_154\n      jump\t// in\n    tag_152:\n      stop\n        /* \"ChaiToken.sol\":1498:1618  function isBlacklisted(address account) external view returns(bool)  ... */\n    tag_36:\n      tag_155\n      0x04\n      dup1\n      calldatasize\n      sub\n      dup2\n      add\n      swap1\n      tag_156\n      swap2\n      swap1\n      tag_77\n      jump\t// in\n    tag_156:\n      tag_157\n      jump\t// in\n    tag_155:\n      mload(0x40)\n      tag_158\n      swap2\n      swap1\n      tag_53\n      jump\t// in\n    tag_158:\n      mload(0x40)\n      dup1\n      swap2\n      sub\n      swap1\n      return\n        /* \"@openzeppelin/contracts/token/ERC20/ERC20.sol\":2074:2163  function name() public view virtual returns (string memory) {... */\n    tag_45:\n        /* \"@openzeppelin/contracts/token/ERC20/ERC20.sol\":2119:2132  string memory */\n      0x60\n        /* \"@openzeppelin/contracts/token/ERC20/ERC20.sol\":2151:2156  _name */\n      0x03\n        /* \"@openzeppelin/contracts/token/ERC20/ERC20.sol\":2144:2156  return _name */\n      dup1\n      sload\n      tag_160\n      swap1\n      tag_161\n      jump\t// in\n    tag_160:\n      dup1\n      0x1f\n      add\n      0x20\n      dup1\n      swap2\n      div\n      mul\n      0x20\n      add\n      mload(0x40)\n      swap1\n      dup2\n      add\n      0x40\n      mstore\n      dup1\n      swap3\n      swap2\n      swap1\n      dup2\n      dup2\n      mstore\n      0x20\n      add\n      dup3\n      dup1\n      sload\n      tag_162\n      swap1\n      tag_161\n      jump\t// in\n    tag_162:\n      dup1\n      iszero\n      tag_163\n      jumpi\n      dup1\n      0x1f\n      lt\n      tag_164\n      jumpi\n      0x0100\n      dup1\n      dup4\n      sload\n      div\n      mul\n      dup4\n      mstore\n      swap2\n      0x20\n      add\n      swap2\n      jump(tag_163)\n    tag_164:\n      dup3\n      add\n      swap2\n      swap1\n      0x00\n      mstore\n      keccak256(0x00, 0x20)\n      swap1\n    tag_165:\n      dup2\n      sload\n      dup2\n      mstore\n      swap1\n      0x01\n      add\n      swap1\n      0x20\n      add\n      dup1\n      dup4\n      gt\n      tag_165\n      jumpi\n      dup3\n      swap1\n      sub\n      0x1f\n      and\n      dup3\n      add\n      swap2\n    tag_163:\n      pop\n      pop\n      pop\n      pop\n      pop\n      swap1\n      pop\n        /* \"@openzeppelin/contracts/token/ERC20/ERC20.sol\":2074:2163  function name() public view virtual returns (string memory) {... */\n      swap1\n      jump\t// out\n        /* \"@openzeppelin/contracts/token/ERC20/ERC20.sol\":4293:4479  function approve(address spender, uint256 value) public virtual returns (bool) {... */\n    tag_51:\n        /* \"@openzeppelin/contracts/token/ERC20/ERC20.sol\":4366:4370  bool */\n      0x00\n        /* \"@openzeppelin/contracts/token/ERC20/ERC20.sol\":4382:4395  address owner */\n      dup1\n        /* \"@openzeppelin/contracts/token/ERC20/ERC20.sol\":4398:4410  _msgSender() */\n      tag_167\n        /* \"@openzeppelin/contracts/token/ERC20/ERC20.sol\":4398:4408  _msgSender */\n      tag_168\n        /* \"@openzeppelin/contracts/token/ERC20/ERC20.sol\":4398:4410  _msgSender() */\n      jump\t// in\n    tag_167:\n        /* \"@openzeppelin/contracts/token/ERC20/ERC20.sol\":4382:4410  address owner = _msgSender() */\n      swap1\n      pop\n        /* \"@openzeppelin/contracts/token/ERC20/ERC20.sol\":4420:4451  _approve(owner, spender, value) */\n      tag_169\n        /* \"@openzeppelin/contracts/token/ERC20/ERC20.sol\":4429:4434  owner */\n      dup2\n        /* \"@openzeppelin/contracts/token/ERC20/ERC20.sol\":4436:4443  spender */\n      dup6\n        /* \"@openzeppelin/contracts/token/ERC20/ERC20.sol\":4445:4450  value */\n      dup6\n        /* \"@openzeppelin/contracts/token/ERC20/ERC20.sol\":4420:4428  _approve */\n      tag_170\n        /* \"@openzeppelin/contracts/token/ERC20/ERC20.sol\":4420:4451  _approve(owner, spender, value) */\n      jump\t// in\n    tag_169:\n        /* \"@openzeppelin/contracts/token/ERC20/ERC20.sol\":4468:4472  true */\n      0x01\n        /* \"@openzeppelin/contracts/token/ERC20/ERC20.sol\":4461:4472  return true */\n      swap2\n      pop\n      pop\n        /* \"@openzeppelin/contracts/token/ERC20/ERC20.sol\":4293:4479  function approve(address spender, uint256 value) public virtual returns (bool) {... */\n      swap3\n      swap2\n      pop\n      pop\n      jump\t// out\n        /* \"ChaiToken.sol\":452:478  uint256 public taxFees = 5 */\n    tag_55:\n      sload(0x09)\n      dup2\n      jump\t// out\n        /* \"@openzeppelin/contracts/token/ERC20/ERC20.sol\":3144:3241  function totalSupply() public view virtual returns (uint256) {... */\n    tag_59:\n        /* \"@openzeppelin/contracts/token/ERC20/ERC20.sol\":3196:3203  uint256 */\n      0x00\n        /* \"@openzeppelin/contracts/token/ERC20/ERC20.sol\":3222:3234  _totalSupply */\n      sload(0x02)\n        /* \"@openzeppelin/contracts/token/ERC20/ERC20.sol\":3215:3234  return _totalSupply */\n      swap1\n      pop\n        /* \"@openzeppelin/contracts/token/ERC20/ERC20.sol\":3144:3241  function totalSupply() public view virtual returns (uint256) {... */\n      swap1\n      jump\t// out\n        /* \"ChaiToken.sol\":2295:2407  function isWhiteListingEnabled() external view returns(bool)... */\n    tag_62:\n        /* \"ChaiToken.sol\":2350:2354  bool */\n      0x00\n        /* \"ChaiToken.sol\":2379:2399  _whiteListingEnabled */\n      0x0e\n      0x00\n      swap1\n      sload\n      swap1\n      0x0100\n      exp\n      swap1\n      div\n      0xff\n      and\n        /* \"ChaiToken.sol\":2372:2399  return _whiteListingEnabled */\n      swap1\n      pop\n        /* \"ChaiToken.sol\":2295:2407  function isWhiteListingEnabled() external view returns(bool)... */\n      swap1\n      jump\t// out\n        /* \"@openzeppelin/contracts/token/ERC20/ERC20.sol\":5039:5283  function transferFrom(address from, address to, uint256 value) public virtual returns (bool) {... */\n    tag_67:\n        /* \"@openzeppelin/contracts/token/ERC20/ERC20.sol\":5126:5130  bool */\n      0x00\n        /* \"@openzeppelin/contracts/token/ERC20/ERC20.sol\":5142:5157  address spender */\n      dup1\n        /* \"@openzeppelin/contracts/token/ERC20/ERC20.sol\":5160:5172  _msgSender() */\n      tag_174\n        /* \"@openzeppelin/contracts/token/ERC20/ERC20.sol\":5160:5170  _msgSender */\n      tag_168\n        /* \"@openzeppelin/contracts/token/ERC20/ERC20.sol\":5160:5172  _msgSender() */\n      jump\t// in\n    tag_174:\n        /* \"@openzeppelin/contracts/token/ERC20/ERC20.sol\":5142:5172  address spender = _msgSender() */\n      swap1\n      pop\n        /* \"@openzeppelin/contracts/token/ERC20/ERC20.sol\":5182:5219  _spendAllowance(from, spender, value) */\n      tag_175\n        /* \"@openzeppelin/contracts/token/ERC20/ERC20.sol\":5198:5202  from */\n      dup6\n        /* \"@openzeppelin/contracts/token/ERC20/ERC20.sol\":5204:5211  spender */\n      dup3\n        /* \"@openzeppelin/contracts/token/ERC20/ERC20.sol\":5213:5218  value */\n      dup6\n        /* \"@openzeppelin/contracts/token/ERC20/ERC20.sol\":5182:5197  _spendAllowance */\n      tag_176\n        /* \"@openzeppelin/contracts/token/ERC20/ERC20.sol\":5182:5219  _spendAllowance(from, spender, value) */\n      jump\t// in\n    tag_175:\n        /* \"@openzeppelin/contracts/token/ERC20/ERC20.sol\":5229:5255  _transfer(from, to, value) */\n      tag_177\n        /* \"@openzeppelin/contracts/token/ERC20/ERC20.sol\":5239:5243  from */\n      dup6\n        /* \"@openzeppelin/contracts/token/ERC20/ERC20.sol\":5245:5247  to */\n      dup6\n        /* \"@openzeppelin/contracts/token/ERC20/ERC20.sol\":5249:5254  value */\n      dup6\n        /* \"@openzeppelin/contracts/token/ERC20/ERC20.sol\":5229:5238  _transfer */\n      tag_178\n        /* \"@openzeppelin/contracts/token/ERC20/ERC20.sol\":5229:5255  _transfer(from, to, value) */\n      jump\t// in\n    tag_177:\n        /* \"@openzeppelin/contracts/token/ERC20/ERC20.sol\":5272:5276  true */\n      0x01\n        /* \"@openzeppelin/contracts/token/ERC20/ERC20.sol\":5265:5276  return true */\n      swap2\n      pop\n      pop\n        /* \"@openzeppelin/contracts/token/ERC20/ERC20.sol\":5039:5283  function transferFrom(address from, address to, uint256 value) public virtual returns (bool) {... */\n      swap4\n      swap3\n      pop\n      pop\n      pop\n      jump\t// out\n        /* \"ChaiToken.sol\":1626:1726  function enableWhiteListing() external onlyOwner... */\n    tag_70:\n        /* \"@openzeppelin/contracts/access/Ownable.sol\":1531:1544  _checkOwner() */\n      tag_180\n        /* \"@openzeppelin/contracts/access/Ownable.sol\":1531:1542  _checkOwner */\n      tag_181\n        /* \"@openzeppelin/contracts/access/Ownable.sol\":1531:1544  _checkOwner() */\n      jump\t// in\n    tag_180:\n        /* \"ChaiToken.sol\":1714:1718  true */\n      0x01\n        /* \"ChaiToken.sol\":1691:1711  _whiteListingEnabled */\n      0x0e\n      0x00\n        /* \"ChaiToken.sol\":1691:1718  _whiteListingEnabled = true */\n      0x0100\n      exp\n      dup2\n      sload\n      dup2\n      0xff\n      mul\n      not\n      and\n      swap1\n      dup4\n      iszero\n      iszero\n      mul\n      or\n      swap1\n      sstore\n      pop\n        /* \"ChaiToken.sol\":1626:1726  function enableWhiteListing() external onlyOwner... */\n      jump\t// out\n        /* \"@openzeppelin/contracts/token/ERC20/ERC20.sol\":3002:3084  function decimals() public view virtual returns (uint8) {... */\n    tag_72:\n        /* \"@openzeppelin/contracts/token/ERC20/ERC20.sol\":3051:3056  uint8 */\n      0x00\n        /* \"@openzeppelin/contracts/token/ERC20/ERC20.sol\":3075:3077  18 */\n      0x12\n        /* \"@openzeppelin/contracts/token/ERC20/ERC20.sol\":3068:3077  return 18 */\n      swap1\n      pop\n        /* \"@openzeppelin/contracts/token/ERC20/ERC20.sol\":3002:3084  function decimals() public view virtual returns (uint8) {... */\n      swap1\n      jump\t// out\n        /* \"ChaiToken.sol\":2167:2287  function isWhitelisted(address account) external view returns(bool)  ... */\n    tag_78:\n        /* \"ChaiToken.sol\":2229:2233  bool */\n      0x00\n        /* \"ChaiToken.sol\":2260:2270  _whitelist */\n      0x0c\n        /* \"ChaiToken.sol\":2260:2279  _whitelist[account] */\n      0x00\n        /* \"ChaiToken.sol\":2271:2278  account */\n      dup4\n        /* \"ChaiToken.sol\":2260:2279  _whitelist[account] */\n      0xffffffffffffffffffffffffffffffffffffffff\n      and\n      0xffffffffffffffffffffffffffffffffffffffff\n      and\n      dup2\n      mstore\n      0x20\n      add\n      swap1\n      dup2\n      mstore\n      0x20\n      add\n      0x00\n      keccak256\n      0x00\n      swap1\n      sload\n      swap1\n      0x0100\n      exp\n      swap1\n      div\n      0xff\n      and\n        /* \"ChaiToken.sol\":2253:2279  return _whitelist[account] */\n      swap1\n      pop\n        /* \"ChaiToken.sol\":2167:2287  function isWhitelisted(address account) external view returns(bool)  ... */\n      swap2\n      swap1\n      pop\n      jump\t// out\n        /* \"ChaiToken.sol\":1222:1370  function addToBlacklist(address account) external onlyOwner... */\n    tag_82:\n        /* \"@openzeppelin/contracts/access/Ownable.sol\":1531:1544  _checkOwner() */\n      tag_186\n        /* \"@openzeppelin/contracts/access/Ownable.sol\":1531:1542  _checkOwner */\n      tag_181\n        /* \"@openzeppelin/contracts/access/Ownable.sol\":1531:1544  _checkOwner() */\n      jump\t// in\n    tag_186:\n        /* \"ChaiToken.sol\":1320:1324  true */\n      0x01\n        /* \"ChaiToken.sol\":1298:1308  _blacklist */\n      0x0b\n        /* \"ChaiToken.sol\":1298:1317  _blacklist[account] */\n      0x00\n        /* \"ChaiToken.sol\":1309:1316  account */\n      dup4\n        /* \"ChaiToken.sol\":1298:1317  _blacklist[account] */\n      0xffffffffffffffffffffffffffffffffffffffff\n      and\n      0xffffffffffffffffffffffffffffffffffffffff\n      and\n      dup2\n      mstore\n      0x20\n      add\n      swap1\n      dup2\n      mstore\n      0x20\n      add\n      0x00\n      keccak256\n      0x00\n        /* \"ChaiToken.sol\":1298:1324  _blacklist[account] = true */\n      0x0100\n      exp\n      dup2\n      sload\n      dup2\n      0xff\n      mul\n      not\n      and\n      swap1\n      dup4\n      iszero\n      iszero\n      mul\n      or\n      swap1\n      sstore\n      pop\n        /* \"ChaiToken.sol\":1357:1362  false */\n      0x00\n        /* \"ChaiToken.sol\":1335:1345  _whitelist */\n      0x0c\n        /* \"ChaiToken.sol\":1335:1354  _whitelist[account] */\n      0x00\n        /* \"ChaiToken.sol\":1346:1353  account */\n      dup4\n        /* \"ChaiToken.sol\":1335:1354  _whitelist[account] */\n      0xffffffffffffffffffffffffffffffffffffffff\n      and\n      0xffffffffffffffffffffffffffffffffffffffff\n      and\n      dup2\n      mstore\n      0x20\n      add\n      swap1\n      dup2\n      mstore\n      0x20\n      add\n      0x00\n      keccak256\n      0x00\n        /* \"ChaiToken.sol\":1335:1362  _whitelist[account] = false */\n      0x0100\n      exp\n      dup2\n      sload\n      dup2\n      0xff\n      mul\n      not\n      and\n      swap1\n      dup4\n      iszero\n      iszero\n      mul\n      or\n      swap1\n      sstore\n      pop\n        /* \"ChaiToken.sol\":1222:1370  function addToBlacklist(address account) external onlyOwner... */\n      pop\n      jump\t// out\n        /* \"ChaiToken.sol\":3136:3338  function setSlippageFees(uint256 newSlippageFees) external onlyOwner... */\n    tag_86:\n        /* \"@openzeppelin/contracts/access/Ownable.sol\":1531:1544  _checkOwner() */\n      tag_189\n        /* \"@openzeppelin/contracts/access/Ownable.sol\":1531:1542  _checkOwner */\n      tag_181\n        /* \"@openzeppelin/contracts/access/Ownable.sol\":1531:1544  _checkOwner() */\n      jump\t// in\n    tag_189:\n        /* \"ChaiToken.sol\":3248:3249  5 */\n      0x05\n        /* \"ChaiToken.sol\":3229:3244  newSlippageFees */\n      dup2\n        /* \"ChaiToken.sol\":3229:3249  newSlippageFees <= 5 */\n      gt\n      iszero\n        /* \"ChaiToken.sol\":3221:3289  require(newSlippageFees <= 5 , \"Slippage fees must be less than 5%\") */\n      tag_191\n      jumpi\n      mload(0x40)\n      0x08c379a000000000000000000000000000000000000000000000000000000000\n      dup2\n      mstore\n      0x04\n      add\n      tag_192\n      swap1\n      tag_193\n      jump\t// in\n    tag_192:\n      mload(0x40)\n      dup1\n      swap2\n      sub\n      swap1\n      revert\n    tag_191:\n        /* \"ChaiToken.sol\":3315:3330  newSlippageFees */\n      dup1\n        /* \"ChaiToken.sol\":3300:3312  SlippageFees */\n      0x0a\n        /* \"ChaiToken.sol\":3300:3330  SlippageFees = newSlippageFees */\n      dup2\n      swap1\n      sstore\n      pop\n        /* \"ChaiToken.sol\":3136:3338  function setSlippageFees(uint256 newSlippageFees) external onlyOwner... */\n      pop\n      jump\t// out\n        /* \"ChaiToken.sol\":2960:3128  function setTaxes(uint256 newTaxFee) external onlyOwner... */\n    tag_89:\n        /* \"@openzeppelin/contracts/access/Ownable.sol\":1531:1544  _checkOwner() */\n      tag_195\n        /* \"@openzeppelin/contracts/access/Ownable.sol\":1531:1542  _checkOwner */\n      tag_181\n        /* \"@openzeppelin/contracts/access/Ownable.sol\":1531:1544  _checkOwner() */\n      jump\t// in\n    tag_195:\n        /* \"ChaiToken.sol\":3053:3055  10 */\n      0x0a\n        /* \"ChaiToken.sol\":3040:3049  newTaxFee */\n      dup2\n        /* \"ChaiToken.sol\":3040:3055  newTaxFee <= 10 */\n      gt\n      iszero\n        /* \"ChaiToken.sol\":3032:3090  require(newTaxFee <= 10 , \"Tax fee must be less than 10%\") */\n      tag_197\n      jumpi\n      mload(0x40)\n      0x08c379a000000000000000000000000000000000000000000000000000000000\n      dup2\n      mstore\n      0x04\n      add\n      tag_198\n      swap1\n      tag_199\n      jump\t// in\n    tag_198:\n      mload(0x40)\n      dup1\n      swap2\n      sub\n      swap1\n      revert\n    tag_197:\n        /* \"ChaiToken.sol\":3111:3120  newTaxFee */\n      dup1\n        /* \"ChaiToken.sol\":3101:3108  taxFees */\n      0x09\n        /* \"ChaiToken.sol\":3101:3120  taxFees = newTaxFee */\n      dup2\n      swap1\n      sstore\n      pop\n        /* \"ChaiToken.sol\":2960:3128  function setTaxes(uint256 newTaxFee) external onlyOwner... */\n      pop\n      jump\t// out\n        /* \"ChaiToken.sol\":1376:1492  function removeFromBlacklist(address account) external onlyOwner... */\n    tag_92:\n        /* \"@openzeppelin/contracts/access/Ownable.sol\":1531:1544  _checkOwner() */\n      tag_201\n        /* \"@openzeppelin/contracts/access/Ownable.sol\":1531:1542  _checkOwner */\n      tag_181\n        /* \"@openzeppelin/contracts/access/Ownable.sol\":1531:1544  _checkOwner() */\n      jump\t// in\n    tag_201:\n        /* \"ChaiToken.sol\":1479:1484  false */\n      0x00\n        /* \"ChaiToken.sol\":1457:1467  _blacklist */\n      0x0b\n        /* \"ChaiToken.sol\":1457:1476  _blacklist[account] */\n      0x00\n        /* \"ChaiToken.sol\":1468:1475  account */\n      dup4\n        /* \"ChaiToken.sol\":1457:1476  _blacklist[account] */\n      0xffffffffffffffffffffffffffffffffffffffff\n      and\n      0xffffffffffffffffffffffffffffffffffffffff\n      and\n      dup2\n      mstore\n      0x20\n      add\n      swap1\n      dup2\n      mstore\n      0x20\n      add\n      0x00\n      keccak256\n      0x00\n        /* \"ChaiToken.sol\":1457:1484  _blacklist[account] = false */\n      0x0100\n      exp\n      dup2\n      sload\n      dup2\n      0xff\n      mul\n      not\n      and\n      swap1\n      dup4\n      iszero\n      iszero\n      mul\n      or\n      swap1\n      sstore\n      pop\n        /* \"ChaiToken.sol\":1376:1492  function removeFromBlacklist(address account) external onlyOwner... */\n      pop\n      jump\t// out\n        /* \"ChaiToken.sol\":3346:3428  function enableTax() external onlyOwner... */\n    tag_94:\n        /* \"@openzeppelin/contracts/access/Ownable.sol\":1531:1544  _checkOwner() */\n      tag_204\n        /* \"@openzeppelin/contracts/access/Ownable.sol\":1531:1542  _checkOwner */\n      tag_181\n        /* \"@openzeppelin/contracts/access/Ownable.sol\":1531:1544  _checkOwner() */\n      jump\t// in\n    tag_204:\n        /* \"ChaiToken.sol\":3416:3420  true */\n      0x01\n        /* \"ChaiToken.sol\":3402:3413  _TaxEnabled */\n      0x0e\n      0x01\n        /* \"ChaiToken.sol\":3402:3420  _TaxEnabled = true */\n      0x0100\n      exp\n      dup2\n      sload\n      dup2\n      0xff\n      mul\n      not\n      and\n      swap1\n      dup4\n      iszero\n      iszero\n      mul\n      or\n      swap1\n      sstore\n      pop\n        /* \"ChaiToken.sol\":3346:3428  function enableTax() external onlyOwner... */\n      jump\t// out\n        /* \"ChaiToken.sol\":1734:1836  function disableWhiteListing() external onlyOwner... */\n    tag_96:\n        /* \"@openzeppelin/contracts/access/Ownable.sol\":1531:1544  _checkOwner() */\n      tag_207\n        /* \"@openzeppelin/contracts/access/Ownable.sol\":1531:1542  _checkOwner */\n      tag_181\n        /* \"@openzeppelin/contracts/access/Ownable.sol\":1531:1544  _checkOwner() */\n      jump\t// in\n    tag_207:\n        /* \"ChaiToken.sol\":1823:1828  false */\n      0x00\n        /* \"ChaiToken.sol\":1800:1820  _whiteListingEnabled */\n      0x0e\n      0x00\n        /* \"ChaiToken.sol\":1800:1828  _whiteListingEnabled = false */\n      0x0100\n      exp\n      dup2\n      sload\n      dup2\n      0xff\n      mul\n      not\n      and\n      swap1\n      dup4\n      iszero\n      iszero\n      mul\n      or\n      swap1\n      sstore\n      pop\n        /* \"ChaiToken.sol\":1734:1836  function disableWhiteListing() external onlyOwner... */\n      jump\t// out\n        /* \"ChaiToken.sol\":2543:2642  function getMaxTxAmount() external view returns(uint256)... */\n    tag_98:\n        /* \"ChaiToken.sol\":2591:2598  uint256 */\n      0x00\n        /* \"ChaiToken.sol\":2623:2634  maxTxAmount */\n      sload(0x07)\n        /* \"ChaiToken.sol\":2616:2634  return maxTxAmount */\n      swap1\n      pop\n        /* \"ChaiToken.sol\":2543:2642  function getMaxTxAmount() external view returns(uint256)... */\n      swap1\n      jump\t// out\n        /* \"ChaiToken.sol\":2650:2773  function setCoolDownTime(uint256 newCoolDowntime) external onlyOwner... */\n    tag_102:\n        /* \"@openzeppelin/contracts/access/Ownable.sol\":1531:1544  _checkOwner() */\n      tag_211\n        /* \"@openzeppelin/contracts/access/Ownable.sol\":1531:1542  _checkOwner */\n      tag_181\n        /* \"@openzeppelin/contracts/access/Ownable.sol\":1531:1544  _checkOwner() */\n      jump\t// in\n    tag_211:\n        /* \"ChaiToken.sol\":2750:2765  newCoolDowntime */\n      dup1\n        /* \"ChaiToken.sol\":2735:2747  cooldownTime */\n      0x08\n        /* \"ChaiToken.sol\":2735:2765  cooldownTime = newCoolDowntime */\n      dup2\n      swap1\n      sstore\n      pop\n        /* \"ChaiToken.sol\":2650:2773  function setCoolDownTime(uint256 newCoolDowntime) external onlyOwner... */\n      pop\n      jump\t// out\n        /* \"@openzeppelin/contracts/token/ERC20/ERC20.sol\":3299:3415  function balanceOf(address account) public view virtual returns (uint256) {... */\n    tag_105:\n        /* \"@openzeppelin/contracts/token/ERC20/ERC20.sol\":3364:3371  uint256 */\n      0x00\n        /* \"@openzeppelin/contracts/token/ERC20/ERC20.sol\":3390:3399  _balances */\n      dup1\n        /* \"@openzeppelin/contracts/token/ERC20/ERC20.sol\":3390:3408  _balances[account] */\n      0x00\n        /* \"@openzeppelin/contracts/token/ERC20/ERC20.sol\":3400:3407  account */\n      dup4\n        /* \"@openzeppelin/contracts/token/ERC20/ERC20.sol\":3390:3408  _balances[account] */\n      0xffffffffffffffffffffffffffffffffffffffff\n      and\n      0xffffffffffffffffffffffffffffffffffffffff\n      and\n      dup2\n      mstore\n      0x20\n      add\n      swap1\n      dup2\n      mstore\n      0x20\n      add\n      0x00\n      keccak256\n      sload\n        /* \"@openzeppelin/contracts/token/ERC20/ERC20.sol\":3383:3408  return _balances[account] */\n      swap1\n      pop\n        /* \"@openzeppelin/contracts/token/ERC20/ERC20.sol\":3299:3415  function balanceOf(address account) public view virtual returns (uint256) {... */\n      swap2\n      swap1\n      pop\n      jump\t// out\n        /* \"ChaiToken.sol\":1115:1214  function renounceOwnership() public override onlyOwner {... */\n    tag_108:\n        /* \"@openzeppelin/contracts/access/Ownable.sol\":1531:1544  _checkOwner() */\n      tag_215\n        /* \"@openzeppelin/contracts/access/Ownable.sol\":1531:1542  _checkOwner */\n      tag_181\n        /* \"@openzeppelin/contracts/access/Ownable.sol\":1531:1544  _checkOwner() */\n      jump\t// in\n    tag_215:\n        /* \"ChaiToken.sol\":1181:1206  super.renounceOwnership() */\n      tag_217\n        /* \"ChaiToken.sol\":1181:1204  super.renounceOwnership */\n      tag_218\n        /* \"ChaiToken.sol\":1181:1206  super.renounceOwnership() */\n      jump\t// in\n    tag_217:\n        /* \"ChaiToken.sol\":1115:1214  function renounceOwnership() public override onlyOwner {... */\n      jump\t// out\n        /* \"ChaiToken.sol\":2045:2161  function removeFromWhitelist(address account) external onlyOwner... */\n    tag_111:\n        /* \"@openzeppelin/contracts/access/Ownable.sol\":1531:1544  _checkOwner() */\n      tag_220\n        /* \"@openzeppelin/contracts/access/Ownable.sol\":1531:1542  _checkOwner */\n      tag_181\n        /* \"@openzeppelin/contracts/access/Ownable.sol\":1531:1544  _checkOwner() */\n      jump\t// in\n    tag_220:\n        /* \"ChaiToken.sol\":2148:2153  false */\n      0x00\n        /* \"ChaiToken.sol\":2126:2136  _whitelist */\n      0x0c\n        /* \"ChaiToken.sol\":2126:2145  _whitelist[account] */\n      0x00\n        /* \"ChaiToken.sol\":2137:2144  account */\n      dup4\n        /* \"ChaiToken.sol\":2126:2145  _whitelist[account] */\n      0xffffffffffffffffffffffffffffffffffffffff\n      and\n      0xffffffffffffffffffffffffffffffffffffffff\n      and\n      dup2\n      mstore\n      0x20\n      add\n      swap1\n      dup2\n      mstore\n      0x20\n      add\n      0x00\n      keccak256\n      0x00\n        /* \"ChaiToken.sol\":2126:2153  _whitelist[account] = false */\n      0x0100\n      exp\n      dup2\n      sload\n      dup2\n      0xff\n      mul\n      not\n      and\n      swap1\n      dup4\n      iszero\n      iszero\n      mul\n      or\n      swap1\n      sstore\n      pop\n        /* \"ChaiToken.sol\":2045:2161  function removeFromWhitelist(address account) external onlyOwner... */\n      pop\n      jump\t// out\n        /* \"ChaiToken.sol\":356:399  uint256 public maxTxAmount = _initialSupply */\n    tag_113:\n      sload(0x07)\n      dup2\n      jump\t// out\n        /* \"@openzeppelin/contracts/access/Ownable.sol\":1638:1723  function owner() public view virtual returns (address) {... */\n    tag_116:\n        /* \"@openzeppelin/contracts/access/Ownable.sol\":1684:1691  address */\n      0x00\n        /* \"@openzeppelin/contracts/access/Ownable.sol\":1710:1716  _owner */\n      0x05\n      0x00\n      swap1\n      sload\n      swap1\n      0x0100\n      exp\n      swap1\n      div\n      0xffffffffffffffffffffffffffffffffffffffff\n      and\n        /* \"@openzeppelin/contracts/access/Ownable.sol\":1703:1716  return _owner */\n      swap1\n      pop\n        /* \"@openzeppelin/contracts/access/Ownable.sol\":1638:1723  function owner() public view virtual returns (address) {... */\n      swap1\n      jump\t// out\n        /* \"@openzeppelin/contracts/token/ERC20/ERC20.sol\":2276:2369  function symbol() public view virtual returns (string memory) {... */\n    tag_120:\n        /* \"@openzeppelin/contracts/token/ERC20/ERC20.sol\":2323:2336  string memory */\n      0x60\n        /* \"@openzeppelin/contracts/token/ERC20/ERC20.sol\":2355:2362  _symbol */\n      0x04\n        /* \"@openzeppelin/contracts/token/ERC20/ERC20.sol\":2348:2362  return _symbol */\n      dup1\n      sload\n      tag_224\n      swap1\n      tag_161\n      jump\t// in\n    tag_224:\n      dup1\n      0x1f\n      add\n      0x20\n      dup1\n      swap2\n      div\n      mul\n      0x20\n      add\n      mload(0x40)\n      swap1\n      dup2\n      add\n      0x40\n      mstore\n      dup1\n      swap3\n      swap2\n      swap1\n      dup2\n      dup2\n      mstore\n      0x20\n      add\n      dup3\n      dup1\n      sload\n      tag_225\n      swap1\n      tag_161\n      jump\t// in\n    tag_225:\n      dup1\n      iszero\n      tag_226\n      jumpi\n      dup1\n      0x1f\n      lt\n      tag_227\n      jumpi\n      0x0100\n      dup1\n      dup4\n      sload\n      div\n      mul\n      dup4\n      mstore\n      swap2\n      0x20\n      add\n      swap2\n      jump(tag_226)\n    tag_227:\n      dup3\n      add\n      swap2\n      swap1\n      0x00\n      mstore\n      keccak256(0x00, 0x20)\n      swap1\n    tag_228:\n      dup2\n      sload\n      dup2\n      mstore\n      swap1\n      0x01\n      add\n      swap1\n      0x20\n      add\n      dup1\n      dup4\n      gt\n      tag_228\n      jumpi\n      dup3\n      swap1\n      sub\n      0x1f\n      and\n      dup3\n      add\n      swap2\n    tag_226:\n      pop\n      pop\n      pop\n      pop\n      pop\n      swap1\n      pop\n        /* \"@openzeppelin/contracts/token/ERC20/ERC20.sol\":2276:2369  function symbol() public view virtual returns (string memory) {... */\n      swap1\n      jump\t// out\n        /* \"ChaiToken.sol\":2781:2952  function getContractDetails() external view returns (address, uint256, uint256,uint256)... */\n    tag_123:\n        /* \"ChaiToken.sol\":2834:2841  address */\n      0x00\n        /* \"ChaiToken.sol\":2843:2850  uint256 */\n      dup1\n        /* \"ChaiToken.sol\":2852:2859  uint256 */\n      0x00\n        /* \"ChaiToken.sol\":2860:2867  uint256 */\n      dup1\n        /* \"ChaiToken.sol\":2893:2900  owner() */\n      tag_230\n        /* \"ChaiToken.sol\":2893:2898  owner */\n      tag_116\n        /* \"ChaiToken.sol\":2893:2900  owner() */\n      jump\t// in\n    tag_230:\n        /* \"ChaiToken.sol\":2902:2913  maxTxAmount */\n      sload(0x07)\n        /* \"ChaiToken.sol\":2915:2927  cooldownTime */\n      sload(0x08)\n        /* \"ChaiToken.sol\":2929:2943  _initialSupply */\n      sload(0x06)\n        /* \"ChaiToken.sol\":2885:2944  return (owner(), maxTxAmount, cooldownTime, _initialSupply) */\n      swap4\n      pop\n      swap4\n      pop\n      swap4\n      pop\n      swap4\n      pop\n        /* \"ChaiToken.sol\":2781:2952  function getContractDetails() external view returns (address, uint256, uint256,uint256)... */\n      swap1\n      swap2\n      swap3\n      swap4\n      jump\t// out\n        /* \"@openzeppelin/contracts/token/ERC20/ERC20.sol\":3610:3788  function transfer(address to, uint256 value) public virtual returns (bool) {... */\n    tag_128:\n        /* \"@openzeppelin/contracts/token/ERC20/ERC20.sol\":3679:3683  bool */\n      0x00\n        /* \"@openzeppelin/contracts/token/ERC20/ERC20.sol\":3695:3708  address owner */\n      dup1\n        /* \"@openzeppelin/contracts/token/ERC20/ERC20.sol\":3711:3723  _msgSender() */\n      tag_232\n        /* \"@openzeppelin/contracts/token/ERC20/ERC20.sol\":3711:3721  _msgSender */\n      tag_168\n        /* \"@openzeppelin/contracts/token/ERC20/ERC20.sol\":3711:3723  _msgSender() */\n      jump\t// in\n    tag_232:\n        /* \"@openzeppelin/contracts/token/ERC20/ERC20.sol\":3695:3723  address owner = _msgSender() */\n      swap1\n      pop\n        /* \"@openzeppelin/contracts/token/ERC20/ERC20.sol\":3733:3760  _transfer(owner, to, value) */\n      tag_233\n        /* \"@openzeppelin/contracts/token/ERC20/ERC20.sol\":3743:3748  owner */\n      dup2\n        /* \"@openzeppelin/contracts/token/ERC20/ERC20.sol\":3750:3752  to */\n      dup6\n        /* \"@openzeppelin/contracts/token/ERC20/ERC20.sol\":3754:3759  value */\n      dup6\n        /* \"@openzeppelin/contracts/token/ERC20/ERC20.sol\":3733:3742  _transfer */\n      tag_178\n        /* \"@openzeppelin/contracts/token/ERC20/ERC20.sol\":3733:3760  _transfer(owner, to, value) */\n      jump\t// in\n    tag_233:\n        /* \"@openzeppelin/contracts/token/ERC20/ERC20.sol\":3777:3781  true */\n      0x01\n        /* \"@openzeppelin/contracts/token/ERC20/ERC20.sol\":3770:3781  return true */\n      swap2\n      pop\n      pop\n        /* \"@openzeppelin/contracts/token/ERC20/ERC20.sol\":3610:3788  function transfer(address to, uint256 value) public virtual returns (bool) {... */\n      swap3\n      swap2\n      pop\n      pop\n      jump\t// out\n        /* \"ChaiToken.sol\":406:445  uint256 public cooldownTime = 1 minutes */\n    tag_131:\n      sload(0x08)\n      dup2\n      jump\t// out\n        /* \"ChaiToken.sol\":770:795  address public taxAddress */\n    tag_134:\n      0x0e\n      0x02\n      swap1\n      sload\n      swap1\n      0x0100\n      exp\n      swap1\n      div\n      0xffffffffffffffffffffffffffffffffffffffff\n      and\n      dup2\n      jump\t// out\n        /* \"ChaiToken.sol\":485:516  uint256 public SlippageFees = 2 */\n    tag_137:\n      sload(0x0a)\n      dup2\n      jump\t// out\n        /* \"ChaiToken.sol\":3436:3520  function disableTax() external onlyOwner... */\n    tag_140:\n        /* \"@openzeppelin/contracts/access/Ownable.sol\":1531:1544  _checkOwner() */\n      tag_235\n        /* \"@openzeppelin/contracts/access/Ownable.sol\":1531:1542  _checkOwner */\n      tag_181\n        /* \"@openzeppelin/contracts/access/Ownable.sol\":1531:1544  _checkOwner() */\n      jump\t// in\n    tag_235:\n        /* \"ChaiToken.sol\":3507:3512  false */\n      0x00\n        /* \"ChaiToken.sol\":3493:3504  _TaxEnabled */\n      0x0e\n      0x01\n        /* \"ChaiToken.sol\":3493:3512  _TaxEnabled = false */\n      0x0100\n      exp\n      dup2\n      sload\n      dup2\n      0xff\n      mul\n      not\n      and\n      swap1\n      dup4\n      iszero\n      iszero\n      mul\n      or\n      swap1\n      sstore\n      pop\n        /* \"ChaiToken.sol\":3436:3520  function disableTax() external onlyOwner... */\n      jump\t// out\n        /* \"@openzeppelin/contracts/token/ERC20/ERC20.sol\":3846:3986  function allowance(address owner, address spender) public view virtual returns (uint256) {... */\n    tag_144:\n        /* \"@openzeppelin/contracts/token/ERC20/ERC20.sol\":3926:3933  uint256 */\n      0x00\n        /* \"@openzeppelin/contracts/token/ERC20/ERC20.sol\":3952:3963  _allowances */\n      0x01\n        /* \"@openzeppelin/contracts/token/ERC20/ERC20.sol\":3952:3970  _allowances[owner] */\n      0x00\n        /* \"@openzeppelin/contracts/token/ERC20/ERC20.sol\":3964:3969  owner */\n      dup5\n        /* \"@openzeppelin/contracts/token/ERC20/ERC20.sol\":3952:3970  _allowances[owner] */\n      0xffffffffffffffffffffffffffffffffffffffff\n      and\n      0xffffffffffffffffffffffffffffffffffffffff\n      and\n      dup2\n      mstore\n      0x20\n      add\n      swap1\n      dup2\n      mstore\n      0x20\n      add\n      0x00\n      keccak256\n        /* \"@openzeppelin/contracts/token/ERC20/ERC20.sol\":3952:3979  _allowances[owner][spender] */\n      0x00\n        /* \"@openzeppelin/contracts/token/ERC20/ERC20.sol\":3971:3978  spender */\n      dup4\n        /* \"@openzeppelin/contracts/token/ERC20/ERC20.sol\":3952:3979  _allowances[owner][spender] */\n      0xffffffffffffffffffffffffffffffffffffffff\n      and\n      0xffffffffffffffffffffffffffffffffffffffff\n      and\n      dup2\n      mstore\n      0x20\n      add\n      swap1\n      dup2\n      mstore\n      0x20\n      add\n      0x00\n      keccak256\n      sload\n        /* \"@openzeppelin/contracts/token/ERC20/ERC20.sol\":3945:3979  return _allowances[owner][spender] */\n      swap1\n      pop\n        /* \"@openzeppelin/contracts/token/ERC20/ERC20.sol\":3846:3986  function allowance(address owner, address spender) public view virtual returns (uint256) {... */\n      swap3\n      swap2\n      pop\n      pop\n      jump\t// out\n        /* \"ChaiToken.sol\":1844:2039  function addToWhitelist(address account) external onlyOwner... */\n    tag_148:\n        /* \"@openzeppelin/contracts/access/Ownable.sol\":1531:1544  _checkOwner() */\n      tag_239\n        /* \"@openzeppelin/contracts/access/Ownable.sol\":1531:1542  _checkOwner */\n      tag_181\n        /* \"@openzeppelin/contracts/access/Ownable.sol\":1531:1544  _checkOwner() */\n      jump\t// in\n    tag_239:\n        /* \"ChaiToken.sol\":1929:1939  _blacklist */\n      0x0b\n        /* \"ChaiToken.sol\":1929:1948  _blacklist[account] */\n      0x00\n        /* \"ChaiToken.sol\":1940:1947  account */\n      dup3\n        /* \"ChaiToken.sol\":1929:1948  _blacklist[account] */\n      0xffffffffffffffffffffffffffffffffffffffff\n      and\n      0xffffffffffffffffffffffffffffffffffffffff\n      and\n      dup2\n      mstore\n      0x20\n      add\n      swap1\n      dup2\n      mstore\n      0x20\n      add\n      0x00\n      keccak256\n      0x00\n      swap1\n      sload\n      swap1\n      0x0100\n      exp\n      swap1\n      div\n      0xff\n      and\n        /* \"ChaiToken.sol\":1928:1948  !_blacklist[account] */\n      iszero\n        /* \"ChaiToken.sol\":1920:1994  require(!_blacklist[account], \"Blacklisted address cannot be whitelisted\") */\n      tag_241\n      jumpi\n      mload(0x40)\n      0x08c379a000000000000000000000000000000000000000000000000000000000\n      dup2\n      mstore\n      0x04\n      add\n      tag_242\n      swap1\n      tag_243\n      jump\t// in\n    tag_242:\n      mload(0x40)\n      dup1\n      swap2\n      sub\n      swap1\n      revert\n    tag_241:\n        /* \"ChaiToken.sol\":2027:2031  true */\n      0x01\n        /* \"ChaiToken.sol\":2005:2015  _whitelist */\n      0x0c\n        /* \"ChaiToken.sol\":2005:2024  _whitelist[account] */\n      0x00\n        /* \"ChaiToken.sol\":2016:2023  account */\n      dup4\n        /* \"ChaiToken.sol\":2005:2024  _whitelist[account] */\n      0xffffffffffffffffffffffffffffffffffffffff\n      and\n      0xffffffffffffffffffffffffffffffffffffffff\n      and\n      dup2\n      mstore\n      0x20\n      add\n      swap1\n      dup2\n      mstore\n      0x20\n      add\n      0x00\n      keccak256\n      0x00\n        /* \"ChaiToken.sol\":2005:2031  _whitelist[account] = true */\n      0x0100\n      exp\n      dup2\n      sload\n      dup2\n      0xff\n      mul\n      not\n      and\n      swap1\n      dup4\n      iszero\n      iszero\n      mul\n      or\n      swap1\n      sstore\n      pop\n        /* \"ChaiToken.sol\":1844:2039  function addToWhitelist(address account) external onlyOwner... */\n      pop\n      jump\t// out\n        /* \"ChaiToken.sol\":2415:2535  function setMaxTxAmount(uint256 newMaxTxAmount) external onlyOwner... */\n    tag_151:\n        /* \"@openzeppelin/contracts/access/Ownable.sol\":1531:1544  _checkOwner() */\n      tag_245\n        /* \"@openzeppelin/contracts/access/Ownable.sol\":1531:1542  _checkOwner */\n      tag_181\n        /* \"@openzeppelin/contracts/access/Ownable.sol\":1531:1544  _checkOwner() */\n      jump\t// in\n    tag_245:\n        /* \"ChaiToken.sol\":2512:2526  newMaxTxAmount */\n      dup1\n        /* \"ChaiToken.sol\":2498:2509  maxTxAmount */\n      0x07\n        /* \"ChaiToken.sol\":2498:2526  maxTxAmount = newMaxTxAmount */\n      dup2\n      swap1\n      sstore\n      pop\n        /* \"ChaiToken.sol\":2415:2535  function setMaxTxAmount(uint256 newMaxTxAmount) external onlyOwner... */\n      pop\n      jump\t// out\n        /* \"@openzeppelin/contracts/access/Ownable.sol\":2543:2758  function transferOwnership(address newOwner) public virtual onlyOwner {... */\n    tag_154:\n        /* \"@openzeppelin/contracts/access/Ownable.sol\":1531:1544  _checkOwner() */\n      tag_248\n        /* \"@openzeppelin/contracts/access/Ownable.sol\":1531:1542  _checkOwner */\n      tag_181\n        /* \"@openzeppelin/contracts/access/Ownable.sol\":1531:1544  _checkOwner() */\n      jump\t// in\n    tag_248:\n        /* \"@openzeppelin/contracts/access/Ownable.sol\":2647:2648  0 */\n      0x00\n        /* \"@openzeppelin/contracts/access/Ownable.sol\":2627:2649  newOwner == address(0) */\n      0xffffffffffffffffffffffffffffffffffffffff\n      and\n        /* \"@openzeppelin/contracts/access/Ownable.sol\":2627:2635  newOwner */\n      dup2\n        /* \"@openzeppelin/contracts/access/Ownable.sol\":2627:2649  newOwner == address(0) */\n      0xffffffffffffffffffffffffffffffffffffffff\n      and\n      sub\n        /* \"@openzeppelin/contracts/access/Ownable.sol\":2623:2714  if (newOwner == address(0)) {... */\n      tag_250\n      jumpi\n        /* \"@openzeppelin/contracts/access/Ownable.sol\":2700:2701  0 */\n      0x00\n        /* \"@openzeppelin/contracts/access/Ownable.sol\":2672:2703  OwnableInvalidOwner(address(0)) */\n      mload(0x40)\n      0x1e4fbdf700000000000000000000000000000000000000000000000000000000\n      dup2\n      mstore\n      0x04\n      add\n      tag_251\n      swap2\n      swap1\n      tag_118\n      jump\t// in\n    tag_251:\n      mload(0x40)\n      dup1\n      swap2\n      sub\n      swap1\n      revert\n        /* \"@openzeppelin/contracts/access/Ownable.sol\":2623:2714  if (newOwner == address(0)) {... */\n    tag_250:\n        /* \"@openzeppelin/contracts/access/Ownable.sol\":2723:2751  _transferOwnership(newOwner) */\n      tag_252\n        /* \"@openzeppelin/contracts/access/Ownable.sol\":2742:2750  newOwner */\n      dup2\n        /* \"@openzeppelin/contracts/access/Ownable.sol\":2723:2741  _transferOwnership */\n      tag_253\n        /* \"@openzeppelin/contracts/access/Ownable.sol\":2723:2751  _transferOwnership(newOwner) */\n      jump\t// in\n    tag_252:\n        /* \"@openzeppelin/contracts/access/Ownable.sol\":2543:2758  function transferOwnership(address newOwner) public virtual onlyOwner {... */\n      pop\n      jump\t// out\n        /* \"ChaiToken.sol\":1498:1618  function isBlacklisted(address account) external view returns(bool)  ... */\n    tag_157:\n        /* \"ChaiToken.sol\":1560:1564  bool */\n      0x00\n        /* \"ChaiToken.sol\":1591:1601  _blacklist */\n      0x0b\n        /* \"ChaiToken.sol\":1591:1610  _blacklist[account] */\n      0x00\n        /* \"ChaiToken.sol\":1602:1609  account */\n      dup4\n        /* \"ChaiToken.sol\":1591:1610  _blacklist[account] */\n      0xffffffffffffffffffffffffffffffffffffffff\n      and\n      0xffffffffffffffffffffffffffffffffffffffff\n      and\n      dup2\n      mstore\n      0x20\n      add\n      swap1\n      dup2\n      mstore\n      0x20\n      add\n      0x00\n      keccak256\n      0x00\n      swap1\n      sload\n      swap1\n      0x0100\n      exp\n      swap1\n      div\n      0xff\n      and\n        /* \"ChaiToken.sol\":1584:1610  return _blacklist[account] */\n      swap1\n      pop\n        /* \"ChaiToken.sol\":1498:1618  function isBlacklisted(address account) external view returns(bool)  ... */\n      swap2\n      swap1\n      pop\n      jump\t// out\n        /* \"@openzeppelin/contracts/utils/Context.sol\":656:752  function _msgSender() internal view virtual returns (address) {... */\n    tag_168:\n        /* \"@openzeppelin/contracts/utils/Context.sol\":709:716  address */\n      0x00\n        /* \"@openzeppelin/contracts/utils/Context.sol\":735:745  msg.sender */\n      caller\n        /* \"@openzeppelin/contracts/utils/Context.sol\":728:745  return msg.sender */\n      swap1\n      pop\n        /* \"@openzeppelin/contracts/utils/Context.sol\":656:752  function _msgSender() internal view virtual returns (address) {... */\n      swap1\n      jump\t// out\n        /* \"@openzeppelin/contracts/token/ERC20/ERC20.sol\":8989:9117  function _approve(address owner, address spender, uint256 value) internal {... */\n    tag_170:\n        /* \"@openzeppelin/contracts/token/ERC20/ERC20.sol\":9073:9110  _approve(owner, spender, value, true) */\n      tag_257\n        /* \"@openzeppelin/contracts/token/ERC20/ERC20.sol\":9082:9087  owner */\n      dup4\n        /* \"@openzeppelin/contracts/token/ERC20/ERC20.sol\":9089:9096  spender */\n      dup4\n        /* \"@openzeppelin/contracts/token/ERC20/ERC20.sol\":9098:9103  value */\n      dup4\n        /* \"@openzeppelin/contracts/token/ERC20/ERC20.sol\":9105:9109  true */\n      0x01\n        /* \"@openzeppelin/contracts/token/ERC20/ERC20.sol\":9073:9081  _approve */\n      tag_258\n        /* \"@openzeppelin/contracts/token/ERC20/ERC20.sol\":9073:9110  _approve(owner, spender, value, true) */\n      jump\t// in\n    tag_257:\n        /* \"@openzeppelin/contracts/token/ERC20/ERC20.sol\":8989:9117  function _approve(address owner, address spender, uint256 value) internal {... */\n      pop\n      pop\n      pop\n      jump\t// out\n        /* \"@openzeppelin/contracts/token/ERC20/ERC20.sol\":10663:11140  function _spendAllowance(address owner, address spender, uint256 value) internal virtual {... */\n    tag_176:\n        /* \"@openzeppelin/contracts/token/ERC20/ERC20.sol\":10762:10786  uint256 currentAllowance */\n      0x00\n        /* \"@openzeppelin/contracts/token/ERC20/ERC20.sol\":10789:10814  allowance(owner, spender) */\n      tag_260\n        /* \"@openzeppelin/contracts/token/ERC20/ERC20.sol\":10799:10804  owner */\n      dup5\n        /* \"@openzeppelin/contracts/token/ERC20/ERC20.sol\":10806:10813  spender */\n      dup5\n        /* \"@openzeppelin/contracts/token/ERC20/ERC20.sol\":10789:10798  allowance */\n      tag_144\n        /* \"@openzeppelin/contracts/token/ERC20/ERC20.sol\":10789:10814  allowance(owner, spender) */\n      jump\t// in\n    tag_260:\n        /* \"@openzeppelin/contracts/token/ERC20/ERC20.sol\":10762:10814  uint256 currentAllowance = allowance(owner, spender) */\n      swap1\n      pop\n        /* \"@openzeppelin/contracts/token/ERC20/ERC20.sol\":10848:10865  type(uint256).max */\n      0xffffffffffffffffffffffffffffffffffffffffffffffffffffffffffffffff\n        /* \"@openzeppelin/contracts/token/ERC20/ERC20.sol\":10828:10844  currentAllowance */\n      dup2\n        /* \"@openzeppelin/contracts/token/ERC20/ERC20.sol\":10828:10865  currentAllowance != type(uint256).max */\n      eq\n        /* \"@openzeppelin/contracts/token/ERC20/ERC20.sol\":10824:11134  if (currentAllowance != type(uint256).max) {... */\n      tag_261\n      jumpi\n        /* \"@openzeppelin/contracts/token/ERC20/ERC20.sol\":10904:10909  value */\n      dup2\n        /* \"@openzeppelin/contracts/token/ERC20/ERC20.sol\":10885:10901  currentAllowance */\n      dup2\n        /* \"@openzeppelin/contracts/token/ERC20/ERC20.sol\":10885:10909  currentAllowance < value */\n      lt\n        /* \"@openzeppelin/contracts/token/ERC20/ERC20.sol\":10881:11011  if (currentAllowance < value) {... */\n      iszero\n      tag_262\n      jumpi\n        /* \"@openzeppelin/contracts/token/ERC20/ERC20.sol\":10963:10970  spender */\n      dup3\n        /* \"@openzeppelin/contracts/token/ERC20/ERC20.sol\":10972:10988  currentAllowance */\n      dup2\n        /* \"@openzeppelin/contracts/token/ERC20/ERC20.sol\":10990:10995  value */\n      dup4\n        /* \"@openzeppelin/contracts/token/ERC20/ERC20.sol\":10936:10996  ERC20InsufficientAllowance(spender, currentAllowance, value) */\n      mload(0x40)\n      0xfb8f41b200000000000000000000000000000000000000000000000000000000\n      dup2\n      mstore\n      0x04\n      add\n      tag_263\n      swap4\n      swap3\n      swap2\n      swap1\n      tag_264\n      jump\t// in\n    tag_263:\n      mload(0x40)\n      dup1\n      swap2\n      sub\n      swap1\n      revert\n        /* \"@openzeppelin/contracts/token/ERC20/ERC20.sol\":10881:11011  if (currentAllowance < value) {... */\n    tag_262:\n        /* \"@openzeppelin/contracts/token/ERC20/ERC20.sol\":11052:11109  _approve(owner, spender, currentAllowance - value, false) */\n      tag_265\n        /* \"@openzeppelin/contracts/token/ERC20/ERC20.sol\":11061:11066  owner */\n      dup5\n        /* \"@openzeppelin/contracts/token/ERC20/ERC20.sol\":11068:11075  spender */\n      dup5\n        /* \"@openzeppelin/contracts/token/ERC20/ERC20.sol\":11096:11101  value */\n      dup5\n        /* \"@openzeppelin/contracts/token/ERC20/ERC20.sol\":11077:11093  currentAllowance */\n      dup5\n        /* \"@openzeppelin/contracts/token/ERC20/ERC20.sol\":11077:11101  currentAllowance - value */\n      sub\n        /* \"@openzeppelin/contracts/token/ERC20/ERC20.sol\":11103:11108  false */\n      0x00\n        /* \"@openzeppelin/contracts/token/ERC20/ERC20.sol\":11052:11060  _approve */\n      tag_258\n        /* \"@openzeppelin/contracts/token/ERC20/ERC20.sol\":11052:11109  _approve(owner, spender, currentAllowance - value, false) */\n      jump\t// in\n    tag_265:\n        /* \"@openzeppelin/contracts/token/ERC20/ERC20.sol\":10824:11134  if (currentAllowance != type(uint256).max) {... */\n    tag_261:\n        /* \"@openzeppelin/contracts/token/ERC20/ERC20.sol\":10752:11140  {... */\n      pop\n        /* \"@openzeppelin/contracts/token/ERC20/ERC20.sol\":10663:11140  function _spendAllowance(address owner, address spender, uint256 value) internal virtual {... */\n      pop\n      pop\n      pop\n      jump\t// out\n        /* \"@openzeppelin/contracts/token/ERC20/ERC20.sol\":5656:5956  function _transfer(address from, address to, uint256 value) internal {... */\n    tag_178:\n        /* \"@openzeppelin/contracts/token/ERC20/ERC20.sol\":5755:5756  0 */\n      0x00\n        /* \"@openzeppelin/contracts/token/ERC20/ERC20.sol\":5739:5757  from == address(0) */\n      0xffffffffffffffffffffffffffffffffffffffff\n      and\n        /* \"@openzeppelin/contracts/token/ERC20/ERC20.sol\":5739:5743  from */\n      dup4\n        /* \"@openzeppelin/contracts/token/ERC20/ERC20.sol\":5739:5757  from == address(0) */\n      0xffffffffffffffffffffffffffffffffffffffff\n      and\n      sub\n        /* \"@openzeppelin/contracts/token/ERC20/ERC20.sol\":5735:5821  if (from == address(0)) {... */\n      tag_267\n      jumpi\n        /* \"@openzeppelin/contracts/token/ERC20/ERC20.sol\":5807:5808  0 */\n      0x00\n        /* \"@openzeppelin/contracts/token/ERC20/ERC20.sol\":5780:5810  ERC20InvalidSender(address(0)) */\n      mload(0x40)\n      0x96c6fd1e00000000000000000000000000000000000000000000000000000000\n      dup2\n      mstore\n      0x04\n      add\n      tag_268\n      swap2\n      swap1\n      tag_118\n      jump\t// in\n    tag_268:\n      mload(0x40)\n      dup1\n      swap2\n      sub\n      swap1\n      revert\n        /* \"@openzeppelin/contracts/token/ERC20/ERC20.sol\":5735:5821  if (from == address(0)) {... */\n    tag_267:\n        /* \"@openzeppelin/contracts/token/ERC20/ERC20.sol\":5848:5849  0 */\n      0x00\n        /* \"@openzeppelin/contracts/token/ERC20/ERC20.sol\":5834:5850  to == address(0) */\n      0xffffffffffffffffffffffffffffffffffffffff\n      and\n        /* \"@openzeppelin/contracts/token/ERC20/ERC20.sol\":5834:5836  to */\n      dup3\n        /* \"@openzeppelin/contracts/token/ERC20/ERC20.sol\":5834:5850  to == address(0) */\n      0xffffffffffffffffffffffffffffffffffffffff\n      and\n      sub\n        /* \"@openzeppelin/contracts/token/ERC20/ERC20.sol\":5830:5916  if (to == address(0)) {... */\n      tag_269\n      jumpi\n        /* \"@openzeppelin/contracts/token/ERC20/ERC20.sol\":5902:5903  0 */\n      0x00\n        /* \"@openzeppelin/contracts/token/ERC20/ERC20.sol\":5873:5905  ERC20InvalidReceiver(address(0)) */\n      mload(0x40)\n      0xec442f0500000000000000000000000000000000000000000000000000000000\n      dup2\n      mstore\n      0x04\n      add\n      tag_270\n      swap2\n      swap1\n      tag_118\n      jump\t// in\n    tag_270:\n      mload(0x40)\n      dup1\n      swap2\n      sub\n      swap1\n      revert\n        /* \"@openzeppelin/contracts/token/ERC20/ERC20.sol\":5830:5916  if (to == address(0)) {... */\n    tag_269:\n        /* \"@openzeppelin/contracts/token/ERC20/ERC20.sol\":5925:5949  _update(from, to, value) */\n      tag_271\n        /* \"@openzeppelin/contracts/token/ERC20/ERC20.sol\":5933:5937  from */\n      dup4\n        /* \"@openzeppelin/contracts/token/ERC20/ERC20.sol\":5939:5941  to */\n      dup4\n        /* \"@openzeppelin/contracts/token/ERC20/ERC20.sol\":5943:5948  value */\n      dup4\n        /* \"@openzeppelin/contracts/token/ERC20/ERC20.sol\":5925:5932  _update */\n      tag_272\n        /* \"@openzeppelin/contracts/token/ERC20/ERC20.sol\":5925:5949  _update(from, to, value) */\n      jump\t// in\n    tag_271:\n        /* \"@openzeppelin/contracts/token/ERC20/ERC20.sol\":5656:5956  function _transfer(address from, address to, uint256 value) internal {... */\n      pop\n      pop\n      pop\n      jump\t// out\n        /* \"@openzeppelin/contracts/access/Ownable.sol\":1796:1958  function _checkOwner() internal view virtual {... */\n    tag_181:\n        /* \"@openzeppelin/contracts/access/Ownable.sol\":1866:1878  _msgSender() */\n      tag_274\n        /* \"@openzeppelin/contracts/access/Ownable.sol\":1866:1876  _msgSender */\n      tag_168\n        /* \"@openzeppelin/contracts/access/Ownable.sol\":1866:1878  _msgSender() */\n      jump\t// in\n    tag_274:\n        /* \"@openzeppelin/contracts/access/Ownable.sol\":1855:1878  owner() != _msgSender() */\n      0xffffffffffffffffffffffffffffffffffffffff\n      and\n        /* \"@openzeppelin/contracts/access/Ownable.sol\":1855:1862  owner() */\n      tag_275\n        /* \"@openzeppelin/contracts/access/Ownable.sol\":1855:1860  owner */\n      tag_116\n        /* \"@openzeppelin/contracts/access/Ownable.sol\":1855:1862  owner() */\n      jump\t// in\n    tag_275:\n        /* \"@openzeppelin/contracts/access/Ownable.sol\":1855:1878  owner() != _msgSender() */\n      0xffffffffffffffffffffffffffffffffffffffff\n      and\n      eq\n        /* \"@openzeppelin/contracts/access/Ownable.sol\":1851:1952  if (owner() != _msgSender()) {... */\n      tag_276\n      jumpi\n        /* \"@openzeppelin/contracts/access/Ownable.sol\":1928:1940  _msgSender() */\n      tag_277\n        /* \"@openzeppelin/contracts/access/Ownable.sol\":1928:1938  _msgSender */\n      tag_168\n        /* \"@openzeppelin/contracts/access/Ownable.sol\":1928:1940  _msgSender() */\n      jump\t// in\n    tag_277:\n        /* \"@openzeppelin/contracts/access/Ownable.sol\":1901:1941  OwnableUnauthorizedAccount(_msgSender()) */\n      mload(0x40)\n      0x118cdaa700000000000000000000000000000000000000000000000000000000\n      dup2\n      mstore\n      0x04\n      add\n      tag_278\n      swap2\n      swap1\n      tag_118\n      jump\t// in\n    tag_278:\n      mload(0x40)\n      dup1\n      swap2\n      sub\n      swap1\n      revert\n        /* \"@openzeppelin/contracts/access/Ownable.sol\":1851:1952  if (owner() != _msgSender()) {... */\n    tag_276:\n        /* \"@openzeppelin/contracts/access/Ownable.sol\":1796:1958  function _checkOwner() internal view virtual {... */\n      jump\t// out\n        /* \"@openzeppelin/contracts/access/Ownable.sol\":2293:2394  function renounceOwnership() public virtual onlyOwner {... */\n    tag_218:\n        /* \"@openzeppelin/contracts/access/Ownable.sol\":1531:1544  _checkOwner() */\n      tag_280\n        /* \"@openzeppelin/contracts/access/Ownable.sol\":1531:1542  _checkOwner */\n      tag_181\n        /* \"@openzeppelin/contracts/access/Ownable.sol\":1531:1544  _checkOwner() */\n      jump\t// in\n    tag_280:\n        /* \"@openzeppelin/contracts/access/Ownable.sol\":2357:2387  _transferOwnership(address(0)) */\n      tag_282\n        /* \"@openzeppelin/contracts/access/Ownable.sol\":2384:2385  0 */\n      0x00\n        /* \"@openzeppelin/contracts/access/Ownable.sol\":2357:2375  _transferOwnership */\n      tag_253\n        /* \"@openzeppelin/contracts/access/Ownable.sol\":2357:2387  _transferOwnership(address(0)) */\n      jump\t// in\n    tag_282:\n        /* \"@openzeppelin/contracts/access/Ownable.sol\":2293:2394  function renounceOwnership() public virtual onlyOwner {... */\n      jump\t// out\n        /* \"@openzeppelin/contracts/access/Ownable.sol\":2912:3099  function _transferOwnership(address newOwner) internal virtual {... */\n    tag_253:\n        /* \"@openzeppelin/contracts/access/Ownable.sol\":2985:3001  address oldOwner */\n      0x00\n        /* \"@openzeppelin/contracts/access/Ownable.sol\":3004:3010  _owner */\n      0x05\n      0x00\n      swap1\n      sload\n      swap1\n      0x0100\n      exp\n      swap1\n      div\n      0xffffffffffffffffffffffffffffffffffffffff\n      and\n        /* \"@openzeppelin/contracts/access/Ownable.sol\":2985:3010  address oldOwner = _owner */\n      swap1\n      pop\n        /* \"@openzeppelin/contracts/access/Ownable.sol\":3029:3037  newOwner */\n      dup2\n        /* \"@openzeppelin/contracts/access/Ownable.sol\":3020:3026  _owner */\n      0x05\n      0x00\n        /* \"@openzeppelin/contracts/access/Ownable.sol\":3020:3037  _owner = newOwner */\n      0x0100\n      exp\n      dup2\n      sload\n      dup2\n      0xffffffffffffffffffffffffffffffffffffffff\n      mul\n      not\n      and\n      swap1\n      dup4\n      0xffffffffffffffffffffffffffffffffffffffff\n      and\n      mul\n      or\n      swap1\n      sstore\n      pop\n        /* \"@openzeppelin/contracts/access/Ownable.sol\":3083:3091  newOwner */\n      dup2\n        /* \"@openzeppelin/contracts/access/Ownable.sol\":3052:3092  OwnershipTransferred(oldOwner, newOwner) */\n      0xffffffffffffffffffffffffffffffffffffffff\n      and\n        /* \"@openzeppelin/contracts/access/Ownable.sol\":3073:3081  oldOwner */\n      dup2\n        /* \"@openzeppelin/contracts/access/Ownable.sol\":3052:3092  OwnershipTransferred(oldOwner, newOwner) */\n      0xffffffffffffffffffffffffffffffffffffffff\n      and\n      0x8be0079c531659141344cd1fd0a4f28419497f9722a3daafe3b4186f6b6457e0\n      mload(0x40)\n      mload(0x40)\n      dup1\n      swap2\n      sub\n      swap1\n      log3\n        /* \"@openzeppelin/contracts/access/Ownable.sol\":2975:3099  {... */\n      pop\n        /* \"@openzeppelin/contracts/access/Ownable.sol\":2912:3099  function _transferOwnership(address newOwner) internal virtual {... */\n      pop\n      jump\t// out\n        /* \"@openzeppelin/contracts/token/ERC20/ERC20.sol\":9949:10381  function _approve(address owner, address spender, uint256 value, bool emitEvent) internal virtual {... */\n    tag_258:\n        /* \"@openzeppelin/contracts/token/ERC20/ERC20.sol\":10078:10079  0 */\n      0x00\n        /* \"@openzeppelin/contracts/token/ERC20/ERC20.sol\":10061:10080  owner == address(0) */\n      0xffffffffffffffffffffffffffffffffffffffff\n      and\n        /* \"@openzeppelin/contracts/token/ERC20/ERC20.sol\":10061:10066  owner */\n      dup5\n        /* \"@openzeppelin/contracts/token/ERC20/ERC20.sol\":10061:10080  owner == address(0) */\n      0xffffffffffffffffffffffffffffffffffffffff\n      and\n      sub\n        /* \"@openzeppelin/contracts/token/ERC20/ERC20.sol\":10057:10146  if (owner == address(0)) {... */\n      tag_285\n      jumpi\n        /* \"@openzeppelin/contracts/token/ERC20/ERC20.sol\":10132:10133  0 */\n      0x00\n        /* \"@openzeppelin/contracts/token/ERC20/ERC20.sol\":10103:10135  ERC20InvalidApprover(address(0)) */\n      mload(0x40)\n      0xe602df0500000000000000000000000000000000000000000000000000000000\n      dup2\n      mstore\n      0x04\n      add\n      tag_286\n      swap2\n      swap1\n      tag_118\n      jump\t// in\n    tag_286:\n      mload(0x40)\n      dup1\n      swap2\n      sub\n      swap1\n      revert\n        /* \"@openzeppelin/contracts/token/ERC20/ERC20.sol\":10057:10146  if (owner == address(0)) {... */\n    tag_285:\n        /* \"@openzeppelin/contracts/token/ERC20/ERC20.sol\":10178:10179  0 */\n      0x00\n        /* \"@openzeppelin/contracts/token/ERC20/ERC20.sol\":10159:10180  spender == address(0) */\n      0xffffffffffffffffffffffffffffffffffffffff\n      and\n        /* \"@openzeppelin/contracts/token/ERC20/ERC20.sol\":10159:10166  spender */\n      dup4\n        /* \"@openzeppelin/contracts/token/ERC20/ERC20.sol\":10159:10180  spender == address(0) */\n      0xffffffffffffffffffffffffffffffffffffffff\n      and\n      sub\n        /* \"@openzeppelin/contracts/token/ERC20/ERC20.sol\":10155:10245  if (spender == address(0)) {... */\n      tag_287\n      jumpi\n        /* \"@openzeppelin/contracts/token/ERC20/ERC20.sol\":10231:10232  0 */\n      0x00\n        /* \"@openzeppelin/contracts/token/ERC20/ERC20.sol\":10203:10234  ERC20InvalidSpender(address(0)) */\n      mload(0x40)\n      0x94280d6200000000000000000000000000000000000000000000000000000000\n      dup2\n      mstore\n      0x04\n      add\n      tag_288\n      swap2\n      swap1\n      tag_118\n      jump\t// in\n    tag_288:\n      mload(0x40)\n      dup1\n      swap2\n      sub\n      swap1\n      revert\n        /* \"@openzeppelin/contracts/token/ERC20/ERC20.sol\":10155:10245  if (spender == address(0)) {... */\n    tag_287:\n        /* \"@openzeppelin/contracts/token/ERC20/ERC20.sol\":10284:10289  value */\n      dup2\n        /* \"@openzeppelin/contracts/token/ERC20/ERC20.sol\":10254:10265  _allowances */\n      0x01\n        /* \"@openzeppelin/contracts/token/ERC20/ERC20.sol\":10254:10272  _allowances[owner] */\n      0x00\n        /* \"@openzeppelin/contracts/token/ERC20/ERC20.sol\":10266:10271  owner */\n      dup7\n        /* \"@openzeppelin/contracts/token/ERC20/ERC20.sol\":10254:10272  _allowances[owner] */\n      0xffffffffffffffffffffffffffffffffffffffff\n      and\n      0xffffffffffffffffffffffffffffffffffffffff\n      and\n      dup2\n      mstore\n      0x20\n      add\n      swap1\n      dup2\n      mstore\n      0x20\n      add\n      0x00\n      keccak256\n        /* \"@openzeppelin/contracts/token/ERC20/ERC20.sol\":10254:10281  _allowances[owner][spender] */\n      0x00\n        /* \"@openzeppelin/contracts/token/ERC20/ERC20.sol\":10273:10280  spender */\n      dup6\n        /* \"@openzeppelin/contracts/token/ERC20/ERC20.sol\":10254:10281  _allowances[owner][spender] */\n      0xffffffffffffffffffffffffffffffffffffffff\n      and\n      0xffffffffffffffffffffffffffffffffffffffff\n      and\n      dup2\n      mstore\n      0x20\n      add\n      swap1\n      dup2\n      mstore\n      0x20\n      add\n      0x00\n      keccak256\n        /* \"@openzeppelin/contracts/token/ERC20/ERC20.sol\":10254:10289  _allowances[owner][spender] = value */\n      dup2\n      swap1\n      sstore\n      pop\n        /* \"@openzeppelin/contracts/token/ERC20/ERC20.sol\":10303:10312  emitEvent */\n      dup1\n        /* \"@openzeppelin/contracts/token/ERC20/ERC20.sol\":10299:10375  if (emitEvent) {... */\n      iszero\n      tag_289\n      jumpi\n        /* \"@openzeppelin/contracts/token/ERC20/ERC20.sol\":10349:10356  spender */\n      dup3\n        /* \"@openzeppelin/contracts/token/ERC20/ERC20.sol\":10333:10364  Approval(owner, spender, value) */\n      0xffffffffffffffffffffffffffffffffffffffff\n      and\n        /* \"@openzeppelin/contracts/token/ERC20/ERC20.sol\":10342:10347  owner */\n      dup5\n        /* \"@openzeppelin/contracts/token/ERC20/ERC20.sol\":10333:10364  Approval(owner, spender, value) */\n      0xffffffffffffffffffffffffffffffffffffffff\n      and\n      0x8c5be1e5ebec7d5bd14f71427d1e84f3dd0314c0f7b2291e5b200ac8c7c3b925\n        /* \"@openzeppelin/contracts/token/ERC20/ERC20.sol\":10358:10363  value */\n      dup5\n        /* \"@openzeppelin/contracts/token/ERC20/ERC20.sol\":10333:10364  Approval(owner, spender, value) */\n      mload(0x40)\n      tag_290\n      swap2\n      swap1\n      tag_57\n      jump\t// in\n    tag_290:\n      mload(0x40)\n      dup1\n      swap2\n      sub\n      swap1\n      log3\n        /* \"@openzeppelin/contracts/token/ERC20/ERC20.sol\":10299:10375  if (emitEvent) {... */\n    tag_289:\n        /* \"@openzeppelin/contracts/token/ERC20/ERC20.sol\":9949:10381  function _approve(address owner, address spender, uint256 value, bool emitEvent) internal virtual {... */\n      pop\n      pop\n      pop\n      pop\n      jump\t// out\n        /* \"ChaiToken.sol\":3528:4505  function _update(address from, address to, uint256 value) internal override ... */\n    tag_272:\n        /* \"ChaiToken.sol\":3630:3640  _blacklist */\n      0x0b\n        /* \"ChaiToken.sol\":3630:3646  _blacklist[from] */\n      0x00\n        /* \"ChaiToken.sol\":3641:3645  from */\n      dup5\n        /* \"ChaiToken.sol\":3630:3646  _blacklist[from] */\n      0xffffffffffffffffffffffffffffffffffffffff\n      and\n      0xffffffffffffffffffffffffffffffffffffffff\n      and\n      dup2\n      mstore\n      0x20\n      add\n      swap1\n      dup2\n      mstore\n      0x20\n      add\n      0x00\n      keccak256\n      0x00\n      swap1\n      sload\n      swap1\n      0x0100\n      exp\n      swap1\n      div\n      0xff\n      and\n        /* \"ChaiToken.sol\":3629:3646  !_blacklist[from] */\n      iszero\n        /* \"ChaiToken.sol\":3629:3665  !_blacklist[from] && !_blacklist[to] */\n      dup1\n      iszero\n      tag_292\n      jumpi\n      pop\n        /* \"ChaiToken.sol\":3651:3661  _blacklist */\n      0x0b\n        /* \"ChaiToken.sol\":3651:3665  _blacklist[to] */\n      0x00\n        /* \"ChaiToken.sol\":3662:3664  to */\n      dup4\n        /* \"ChaiToken.sol\":3651:3665  _blacklist[to] */\n      0xffffffffffffffffffffffffffffffffffffffff\n      and\n      0xffffffffffffffffffffffffffffffffffffffff\n      and\n      dup2\n      mstore\n      0x20\n      add\n      swap1\n      dup2\n      mstore\n      0x20\n      add\n      0x00\n      keccak256\n      0x00\n      swap1\n      sload\n      swap1\n      0x0100\n      exp\n      swap1\n      div\n      0xff\n      and\n        /* \"ChaiToken.sol\":3650:3665  !_blacklist[to] */\n      iszero\n        /* \"ChaiToken.sol\":3629:3665  !_blacklist[from] && !_blacklist[to] */\n    tag_292:\n        /* \"ChaiToken.sol\":3621:3692  require(!_blacklist[from] && !_blacklist[to] , \"Blacklisted Addresses\") */\n      tag_293\n      jumpi\n      mload(0x40)\n      0x08c379a000000000000000000000000000000000000000000000000000000000\n      dup2\n      mstore\n      0x04\n      add\n      tag_294\n      swap1\n      tag_295\n      jump\t// in\n    tag_294:\n      mload(0x40)\n      dup1\n      swap2\n      sub\n      swap1\n      revert\n    tag_293:\n        /* \"ChaiToken.sol\":3706:3726  _whiteListingEnabled */\n      0x0e\n      0x00\n      swap1\n      sload\n      swap1\n      0x0100\n      exp\n      swap1\n      div\n      0xff\n      and\n        /* \"ChaiToken.sol\":3703:3846  if(_whiteListingEnabled)... */\n      iszero\n      tag_296\n      jumpi\n        /* \"ChaiToken.sol\":3760:3770  _whitelist */\n      0x0c\n        /* \"ChaiToken.sol\":3760:3776  _whitelist[from] */\n      0x00\n        /* \"ChaiToken.sol\":3771:3775  from */\n      dup5\n        /* \"ChaiToken.sol\":3760:3776  _whitelist[from] */\n      0xffffffffffffffffffffffffffffffffffffffff\n      and\n      0xffffffffffffffffffffffffffffffffffffffff\n      and\n      dup2\n      mstore\n      0x20\n      add\n      swap1\n      dup2\n      mstore\n      0x20\n      add\n      0x00\n      keccak256\n      0x00\n      swap1\n      sload\n      swap1\n      0x0100\n      exp\n      swap1\n      div\n      0xff\n      and\n        /* \"ChaiToken.sol\":3760:3794  _whitelist[from] && _whitelist[to] */\n      dup1\n      iszero\n      tag_297\n      jumpi\n      pop\n        /* \"ChaiToken.sol\":3780:3790  _whitelist */\n      0x0c\n        /* \"ChaiToken.sol\":3780:3794  _whitelist[to] */\n      0x00\n        /* \"ChaiToken.sol\":3791:3793  to */\n      dup4\n        /* \"ChaiToken.sol\":3780:3794  _whitelist[to] */\n      0xffffffffffffffffffffffffffffffffffffffff\n      and\n      0xffffffffffffffffffffffffffffffffffffffff\n      and\n      dup2\n      mstore\n      0x20\n      add\n      swap1\n      dup2\n      mstore\n      0x20\n      add\n      0x00\n      keccak256\n      0x00\n      swap1\n      sload\n      swap1\n      0x0100\n      exp\n      swap1\n      div\n      0xff\n      and\n        /* \"ChaiToken.sol\":3760:3794  _whitelist[from] && _whitelist[to] */\n    tag_297:\n        /* \"ChaiToken.sol\":3752:3834  require(_whitelist[from] && _whitelist[to] , \"Both addresses must be whitelisted\") */\n      tag_298\n      jumpi\n      mload(0x40)\n      0x08c379a000000000000000000000000000000000000000000000000000000000\n      dup2\n      mstore\n      0x04\n      add\n      tag_299\n      swap1\n      tag_300\n      jump\t// in\n    tag_299:\n      mload(0x40)\n      dup1\n      swap2\n      sub\n      swap1\n      revert\n    tag_298:\n        /* \"ChaiToken.sol\":3703:3846  if(_whiteListingEnabled)... */\n    tag_296:\n        /* \"ChaiToken.sol\":3873:3884  maxTxAmount */\n      sload(0x07)\n        /* \"ChaiToken.sol\":3864:3869  value */\n      dup2\n        /* \"ChaiToken.sol\":3864:3884  value <= maxTxAmount */\n      gt\n      iszero\n        /* \"ChaiToken.sol\":3856:3919  require(value <= maxTxAmount , \"Token Transfer Limit Exceeded\") */\n      tag_301\n      jumpi\n      mload(0x40)\n      0x08c379a000000000000000000000000000000000000000000000000000000000\n      dup2\n      mstore\n      0x04\n      add\n      tag_302\n      swap1\n      tag_303\n      jump\t// in\n    tag_302:\n      mload(0x40)\n      dup1\n      swap2\n      sub\n      swap1\n      revert\n    tag_301:\n        /* \"ChaiToken.sol\":3975:3987  cooldownTime */\n      sload(0x08)\n        /* \"ChaiToken.sol\":3957:3968  _lastTxTime */\n      0x0d\n        /* \"ChaiToken.sol\":3957:3974  _lastTxTime[from] */\n      0x00\n        /* \"ChaiToken.sol\":3969:3973  from */\n      dup6\n        /* \"ChaiToken.sol\":3957:3974  _lastTxTime[from] */\n      0xffffffffffffffffffffffffffffffffffffffff\n      and\n      0xffffffffffffffffffffffffffffffffffffffff\n      and\n      dup2\n      mstore\n      0x20\n      add\n      swap1\n      dup2\n      mstore\n      0x20\n      add\n      0x00\n      keccak256\n      sload\n        /* \"ChaiToken.sol\":3957:3987  _lastTxTime[from]+cooldownTime */\n      tag_304\n      swap2\n      swap1\n      tag_305\n      jump\t// in\n    tag_304:\n        /* \"ChaiToken.sol\":3938:3953  block.timestamp */\n      timestamp\n        /* \"ChaiToken.sol\":3938:3987  block.timestamp >= _lastTxTime[from]+cooldownTime */\n      lt\n      iszero\n        /* \"ChaiToken.sol\":3930:4019  require(block.timestamp >= _lastTxTime[from]+cooldownTime , \"Token Transfer in cooldown\") */\n      tag_306\n      jumpi\n      mload(0x40)\n      0x08c379a000000000000000000000000000000000000000000000000000000000\n      dup2\n      mstore\n      0x04\n      add\n      tag_307\n      swap1\n      tag_308\n      jump\t// in\n    tag_307:\n      mload(0x40)\n      dup1\n      swap2\n      sub\n      swap1\n      revert\n    tag_306:\n        /* \"ChaiToken.sol\":4040:4062  uint256 transferAmount */\n      0x00\n        /* \"ChaiToken.sol\":4065:4070  value */\n      dup2\n        /* \"ChaiToken.sol\":4040:4070  uint256 transferAmount = value */\n      swap1\n      pop\n        /* \"ChaiToken.sol\":4084:4095  _TaxEnabled */\n      0x0e\n      0x01\n      swap1\n      sload\n      swap1\n      0x0100\n      exp\n      swap1\n      div\n      0xff\n      and\n        /* \"ChaiToken.sol\":4081:4354  if(_TaxEnabled)... */\n      iszero\n      tag_309\n      jumpi\n        /* \"ChaiToken.sol\":4121:4138  uint256 totalFees */\n      0x00\n        /* \"ChaiToken.sol\":4151:4163  SlippageFees */\n      sload(0x0a)\n        /* \"ChaiToken.sol\":4141:4148  taxFees */\n      sload(0x09)\n        /* \"ChaiToken.sol\":4141:4163  taxFees + SlippageFees */\n      tag_310\n      swap2\n      swap1\n      tag_305\n      jump\t// in\n    tag_310:\n        /* \"ChaiToken.sol\":4121:4163  uint256 totalFees = taxFees + SlippageFees */\n      swap1\n      pop\n        /* \"ChaiToken.sol\":4192:4209  uint256 feeAmount */\n      0x00\n        /* \"ChaiToken.sol\":4232:4235  100 */\n      0x64\n        /* \"ChaiToken.sol\":4221:4230  totalFees */\n      dup3\n        /* \"ChaiToken.sol\":4213:4218  value */\n      dup6\n        /* \"ChaiToken.sol\":4213:4230  value * totalFees */\n      tag_311\n      swap2\n      swap1\n      tag_312\n      jump\t// in\n    tag_311:\n        /* \"ChaiToken.sol\":4212:4235  (value * totalFees)/100 */\n      tag_313\n      swap2\n      swap1\n      tag_314\n      jump\t// in\n    tag_313:\n        /* \"ChaiToken.sol\":4192:4235  uint256 feeAmount = (value * totalFees)/100 */\n      swap1\n      pop\n        /* \"ChaiToken.sol\":4275:4284  feeAmount */\n      dup1\n        /* \"ChaiToken.sol\":4267:4272  value */\n      dup5\n        /* \"ChaiToken.sol\":4267:4284  value - feeAmount */\n      tag_315\n      swap2\n      swap1\n      tag_316\n      jump\t// in\n    tag_315:\n        /* \"ChaiToken.sol\":4250:4284  transferAmount = value - feeAmount */\n      swap3\n      pop\n        /* \"ChaiToken.sol\":4299:4342  super._update(from, taxAddress , feeAmount) */\n      tag_317\n        /* \"ChaiToken.sol\":4313:4317  from */\n      dup7\n        /* \"ChaiToken.sol\":4319:4329  taxAddress */\n      0x0e\n      0x02\n      swap1\n      sload\n      swap1\n      0x0100\n      exp\n      swap1\n      div\n      0xffffffffffffffffffffffffffffffffffffffff\n      and\n        /* \"ChaiToken.sol\":4332:4341  feeAmount */\n      dup4\n        /* \"ChaiToken.sol\":4299:4312  super._update */\n      tag_318\n        /* \"ChaiToken.sol\":4299:4342  super._update(from, taxAddress , feeAmount) */\n      jump\t// in\n    tag_317:\n        /* \"ChaiToken.sol\":4106:4354  {... */\n      pop\n      pop\n        /* \"ChaiToken.sol\":4081:4354  if(_TaxEnabled)... */\n    tag_309:\n        /* \"ChaiToken.sol\":4394:4409  block.timestamp */\n      timestamp\n        /* \"ChaiToken.sol\":4374:4385  _lastTxTime */\n      0x0d\n        /* \"ChaiToken.sol\":4374:4391  _lastTxTime[from] */\n      0x00\n        /* \"ChaiToken.sol\":4386:4390  from */\n      dup7\n        /* \"ChaiToken.sol\":4374:4391  _lastTxTime[from] */\n      0xffffffffffffffffffffffffffffffffffffffff\n      and\n      0xffffffffffffffffffffffffffffffffffffffff\n      and\n      dup2\n      mstore\n      0x20\n      add\n      swap1\n      dup2\n      mstore\n      0x20\n      add\n      0x00\n      keccak256\n        /* \"ChaiToken.sol\":4374:4409  _lastTxTime[from] = block.timestamp */\n      dup2\n      swap1\n      sstore\n      pop\n        /* \"ChaiToken.sol\":4420:4459  super._update(from, to, transferAmount) */\n      tag_319\n        /* \"ChaiToken.sol\":4434:4438  from */\n      dup5\n        /* \"ChaiToken.sol\":4440:4442  to */\n      dup5\n        /* \"ChaiToken.sol\":4444:4458  transferAmount */\n      dup4\n        /* \"ChaiToken.sol\":4420:4433  super._update */\n      tag_318\n        /* \"ChaiToken.sol\":4420:4459  super._update(from, to, transferAmount) */\n      jump\t// in\n    tag_319:\n        /* \"ChaiToken.sol\":3610:4505  {... */\n      pop\n        /* \"ChaiToken.sol\":3528:4505  function _update(address from, address to, uint256 value) internal override ... */\n      pop\n      pop\n      pop\n      jump\t// out\n        /* \"@openzeppelin/contracts/token/ERC20/ERC20.sol\":6271:7378  function _update(address from, address to, uint256 value) internal virtual {... */\n    tag_318:\n        /* \"@openzeppelin/contracts/token/ERC20/ERC20.sol\":6376:6377  0 */\n      0x00\n        /* \"@openzeppelin/contracts/token/ERC20/ERC20.sol\":6360:6378  from == address(0) */\n      0xffffffffffffffffffffffffffffffffffffffff\n      and\n        /* \"@openzeppelin/contracts/token/ERC20/ERC20.sol\":6360:6364  from */\n      dup4\n        /* \"@openzeppelin/contracts/token/ERC20/ERC20.sol\":6360:6378  from == address(0) */\n      0xffffffffffffffffffffffffffffffffffffffff\n      and\n      sub\n        /* \"@openzeppelin/contracts/token/ERC20/ERC20.sol\":6356:6896  if (from == address(0)) {... */\n      tag_321\n      jumpi\n        /* \"@openzeppelin/contracts/token/ERC20/ERC20.sol\":6512:6517  value */\n      dup1\n        /* \"@openzeppelin/contracts/token/ERC20/ERC20.sol\":6496:6508  _totalSupply */\n      0x02\n      0x00\n        /* \"@openzeppelin/contracts/token/ERC20/ERC20.sol\":6496:6517  _totalSupply += value */\n      dup3\n      dup3\n      sload\n      tag_322\n      swap2\n      swap1\n      tag_305\n      jump\t// in\n    tag_322:\n      swap3\n      pop\n      pop\n      dup2\n      swap1\n      sstore\n      pop\n        /* \"@openzeppelin/contracts/token/ERC20/ERC20.sol\":6356:6896  if (from == address(0)) {... */\n      jump(tag_323)\n    tag_321:\n        /* \"@openzeppelin/contracts/token/ERC20/ERC20.sol\":6548:6567  uint256 fromBalance */\n      0x00\n        /* \"@openzeppelin/contracts/token/ERC20/ERC20.sol\":6570:6579  _balances */\n      dup1\n        /* \"@openzeppelin/contracts/token/ERC20/ERC20.sol\":6570:6585  _balances[from] */\n      0x00\n        /* \"@openzeppelin/contracts/token/ERC20/ERC20.sol\":6580:6584  from */\n      dup6\n        /* \"@openzeppelin/contracts/token/ERC20/ERC20.sol\":6570:6585  _balances[from] */\n      0xffffffffffffffffffffffffffffffffffffffff\n      and\n      0xffffffffffffffffffffffffffffffffffffffff\n      and\n      dup2\n      mstore\n      0x20\n      add\n      swap1\n      dup2\n      mstore\n      0x20\n      add\n      0x00\n      keccak256\n      sload\n        /* \"@openzeppelin/contracts/token/ERC20/ERC20.sol\":6548:6585  uint256 fromBalance = _balances[from] */\n      swap1\n      pop\n        /* \"@openzeppelin/contracts/token/ERC20/ERC20.sol\":6617:6622  value */\n      dup2\n        /* \"@openzeppelin/contracts/token/ERC20/ERC20.sol\":6603:6614  fromBalance */\n      dup2\n        /* \"@openzeppelin/contracts/token/ERC20/ERC20.sol\":6603:6622  fromBalance < value */\n      lt\n        /* \"@openzeppelin/contracts/token/ERC20/ERC20.sol\":6599:6714  if (fromBalance < value) {... */\n      iszero\n      tag_324\n      jumpi\n        /* \"@openzeppelin/contracts/token/ERC20/ERC20.sol\":6674:6678  from */\n      dup4\n        /* \"@openzeppelin/contracts/token/ERC20/ERC20.sol\":6680:6691  fromBalance */\n      dup2\n        /* \"@openzeppelin/contracts/token/ERC20/ERC20.sol\":6693:6698  value */\n      dup4\n        /* \"@openzeppelin/contracts/token/ERC20/ERC20.sol\":6649:6699  ERC20InsufficientBalance(from, fromBalance, value) */\n      mload(0x40)\n      0xe450d38c00000000000000000000000000000000000000000000000000000000\n      dup2\n      mstore\n      0x04\n      add\n      tag_325\n      swap4\n      swap3\n      swap2\n      swap1\n      tag_264\n      jump\t// in\n    tag_325:\n      mload(0x40)\n      dup1\n      swap2\n      sub\n      swap1\n      revert\n        /* \"@openzeppelin/contracts/token/ERC20/ERC20.sol\":6599:6714  if (fromBalance < value) {... */\n    tag_324:\n        /* \"@openzeppelin/contracts/token/ERC20/ERC20.sol\":6866:6871  value */\n      dup2\n        /* \"@openzeppelin/contracts/token/ERC20/ERC20.sol\":6852:6863  fromBalance */\n      dup2\n        /* \"@openzeppelin/contracts/token/ERC20/ERC20.sol\":6852:6871  fromBalance - value */\n      sub\n        /* \"@openzeppelin/contracts/token/ERC20/ERC20.sol\":6834:6843  _balances */\n      0x00\n        /* \"@openzeppelin/contracts/token/ERC20/ERC20.sol\":6834:6849  _balances[from] */\n      dup1\n        /* \"@openzeppelin/contracts/token/ERC20/ERC20.sol\":6844:6848  from */\n      dup7\n        /* \"@openzeppelin/contracts/token/ERC20/ERC20.sol\":6834:6849  _balances[from] */\n      0xffffffffffffffffffffffffffffffffffffffff\n      and\n      0xffffffffffffffffffffffffffffffffffffffff\n      and\n      dup2\n      mstore\n      0x20\n      add\n      swap1\n      dup2\n      mstore\n      0x20\n      add\n      0x00\n      keccak256\n        /* \"@openzeppelin/contracts/token/ERC20/ERC20.sol\":6834:6871  _balances[from] = fromBalance - value */\n      dup2\n      swap1\n      sstore\n      pop\n        /* \"@openzeppelin/contracts/token/ERC20/ERC20.sol\":6534:6896  {... */\n      pop\n        /* \"@openzeppelin/contracts/token/ERC20/ERC20.sol\":6356:6896  if (from == address(0)) {... */\n    tag_323:\n        /* \"@openzeppelin/contracts/token/ERC20/ERC20.sol\":6924:6925  0 */\n      0x00\n        /* \"@openzeppelin/contracts/token/ERC20/ERC20.sol\":6910:6926  to == address(0) */\n      0xffffffffffffffffffffffffffffffffffffffff\n      and\n        /* \"@openzeppelin/contracts/token/ERC20/ERC20.sol\":6910:6912  to */\n      dup3\n        /* \"@openzeppelin/contracts/token/ERC20/ERC20.sol\":6910:6926  to == address(0) */\n      0xffffffffffffffffffffffffffffffffffffffff\n      and\n      sub\n        /* \"@openzeppelin/contracts/token/ERC20/ERC20.sol\":6906:7331  if (to == address(0)) {... */\n      tag_326\n      jumpi\n        /* \"@openzeppelin/contracts/token/ERC20/ERC20.sol\":7089:7094  value */\n      dup1\n        /* \"@openzeppelin/contracts/token/ERC20/ERC20.sol\":7073:7085  _totalSupply */\n      0x02\n      0x00\n        /* \"@openzeppelin/contracts/token/ERC20/ERC20.sol\":7073:7094  _totalSupply -= value */\n      dup3\n      dup3\n      sload\n      sub\n      swap3\n      pop\n      pop\n      dup2\n      swap1\n      sstore\n      pop\n        /* \"@openzeppelin/contracts/token/ERC20/ERC20.sol\":6906:7331  if (to == address(0)) {... */\n      jump(tag_327)\n    tag_326:\n        /* \"@openzeppelin/contracts/token/ERC20/ERC20.sol\":7301:7306  value */\n      dup1\n        /* \"@openzeppelin/contracts/token/ERC20/ERC20.sol\":7284:7293  _balances */\n      0x00\n        /* \"@openzeppelin/contracts/token/ERC20/ERC20.sol\":7284:7297  _balances[to] */\n      dup1\n        /* \"@openzeppelin/contracts/token/ERC20/ERC20.sol\":7294:7296  to */\n      dup5\n        /* \"@openzeppelin/contracts/token/ERC20/ERC20.sol\":7284:7297  _balances[to] */\n      0xffffffffffffffffffffffffffffffffffffffff\n      and\n      0xffffffffffffffffffffffffffffffffffffffff\n      and\n      dup2\n      mstore\n      0x20\n      add\n      swap1\n      dup2\n      mstore\n      0x20\n      add\n      0x00\n      keccak256\n      0x00\n        /* \"@openzeppelin/contracts/token/ERC20/ERC20.sol\":7284:7306  _balances[to] += value */\n      dup3\n      dup3\n      sload\n      add\n      swap3\n      pop\n      pop\n      dup2\n      swap1\n      sstore\n      pop\n        /* \"@openzeppelin/contracts/token/ERC20/ERC20.sol\":6906:7331  if (to == address(0)) {... */\n    tag_327:\n        /* \"@openzeppelin/contracts/token/ERC20/ERC20.sol\":7361:7363  to */\n      dup2\n        /* \"@openzeppelin/contracts/token/ERC20/ERC20.sol\":7346:7371  Transfer(from, to, value) */\n      0xffffffffffffffffffffffffffffffffffffffff\n      and\n        /* \"@openzeppelin/contracts/token/ERC20/ERC20.sol\":7355:7359  from */\n      dup4\n        /* \"@openzeppelin/contracts/token/ERC20/ERC20.sol\":7346:7371  Transfer(from, to, value) */\n      0xffffffffffffffffffffffffffffffffffffffff\n      and\n      0xddf252ad1be2c89b69c2b068fc378daa952ba7f163c4a11628f55a4df523b3ef\n        /* \"@openzeppelin/contracts/token/ERC20/ERC20.sol\":7365:7370  value */\n      dup4\n        /* \"@openzeppelin/contracts/token/ERC20/ERC20.sol\":7346:7371  Transfer(from, to, value) */\n      mload(0x40)\n      tag_328\n      swap2\n      swap1\n      tag_57\n      jump\t// in\n    tag_328:\n      mload(0x40)\n      dup1\n      swap2\n      sub\n      swap1\n      log3\n        /* \"@openzeppelin/contracts/token/ERC20/ERC20.sol\":6271:7378  function _update(address from, address to, uint256 value) internal virtual {... */\n      pop\n      pop\n      pop\n      jump\t// out\n        /* \"#utility.yul\":7:106   */\n    tag_329:\n        /* \"#utility.yul\":59:65   */\n      0x00\n        /* \"#utility.yul\":93:98   */\n      dup2\n        /* \"#utility.yul\":87:99   */\n      mload\n        /* \"#utility.yul\":77:99   */\n      swap1\n      pop\n        /* \"#utility.yul\":7:106   */\n      swap2\n      swap1\n      pop\n      jump\t// out\n        /* \"#utility.yul\":112:281   */\n    tag_330:\n        /* \"#utility.yul\":196:207   */\n      0x00\n        /* \"#utility.yul\":230:236   */\n      dup3\n        /* \"#utility.yul\":225:228   */\n      dup3\n        /* \"#utility.yul\":218:237   */\n      mstore\n        /* \"#utility.yul\":270:274   */\n      0x20\n        /* \"#utility.yul\":265:268   */\n      dup3\n        /* \"#utility.yul\":261:275   */\n      add\n        /* \"#utility.yul\":246:275   */\n      swap1\n      pop\n        /* \"#utility.yul\":112:281   */\n      swap3\n      swap2\n      pop\n      pop\n      jump\t// out\n        /* \"#utility.yul\":287:426   */\n    tag_331:\n        /* \"#utility.yul\":376:382   */\n      dup3\n        /* \"#utility.yul\":371:374   */\n      dup2\n        /* \"#utility.yul\":366:369   */\n      dup4\n        /* \"#utility.yul\":360:383   */\n      mcopy\n        /* \"#utility.yul\":417:418   */\n      0x00\n        /* \"#utility.yul\":408:414   */\n      dup4\n        /* \"#utility.yul\":403:406   */\n      dup4\n        /* \"#utility.yul\":399:415   */\n      add\n        /* \"#utility.yul\":392:419   */\n      mstore\n        /* \"#utility.yul\":287:426   */\n      pop\n      pop\n      pop\n      jump\t// out\n        /* \"#utility.yul\":432:534   */\n    tag_332:\n        /* \"#utility.yul\":473:479   */\n      0x00\n        /* \"#utility.yul\":524:526   */\n      0x1f\n        /* \"#utility.yul\":520:527   */\n      not\n        /* \"#utility.yul\":515:517   */\n      0x1f\n        /* \"#utility.yul\":508:513   */\n      dup4\n        /* \"#utility.yul\":504:518   */\n      add\n        /* \"#utility.yul\":500:528   */\n      and\n        /* \"#utility.yul\":490:528   */\n      swap1\n      pop\n        /* \"#utility.yul\":432:534   */\n      swap2\n      swap1\n      pop\n      jump\t// out\n        /* \"#utility.yul\":540:917   */\n    tag_333:\n        /* \"#utility.yul\":628:631   */\n      0x00\n        /* \"#utility.yul\":656:695   */\n      tag_373\n        /* \"#utility.yul\":689:694   */\n      dup3\n        /* \"#utility.yul\":656:695   */\n      tag_329\n      jump\t// in\n    tag_373:\n        /* \"#utility.yul\":711:782   */\n      tag_374\n        /* \"#utility.yul\":775:781   */\n      dup2\n        /* \"#utility.yul\":770:773   */\n      dup6\n        /* \"#utility.yul\":711:782   */\n      tag_330\n      jump\t// in\n    tag_374:\n        /* \"#utility.yul\":704:782   */\n      swap4\n      pop\n        /* \"#utility.yul\":791:856   */\n      tag_375\n        /* \"#utility.yul\":849:855   */\n      dup2\n        /* \"#utility.yul\":844:847   */\n      dup6\n        /* \"#utility.yul\":837:841   */\n      0x20\n        /* \"#utility.yul\":830:835   */\n      dup7\n        /* \"#utility.yul\":826:842   */\n      add\n        /* \"#utility.yul\":791:856   */\n      tag_331\n      jump\t// in\n    tag_375:\n        /* \"#utility.yul\":881:910   */\n      tag_376\n        /* \"#utility.yul\":903:909   */\n      dup2\n        /* \"#utility.yul\":881:910   */\n      tag_332\n      jump\t// in\n    tag_376:\n        /* \"#utility.yul\":876:879   */\n      dup5\n        /* \"#utility.yul\":872:911   */\n      add\n        /* \"#utility.yul\":865:911   */\n      swap2\n      pop\n        /* \"#utility.yul\":632:917   */\n      pop\n        /* \"#utility.yul\":540:917   */\n      swap3\n      swap2\n      pop\n      pop\n      jump\t// out\n        /* \"#utility.yul\":923:1236   */\n    tag_47:\n        /* \"#utility.yul\":1036:1040   */\n      0x00\n        /* \"#utility.yul\":1074:1076   */\n      0x20\n        /* \"#utility.yul\":1063:1072   */\n      dup3\n        /* \"#utility.yul\":1059:1077   */\n      add\n        /* \"#utility.yul\":1051:1077   */\n      swap1\n      pop\n        /* \"#utility.yul\":1123:1132   */\n      dup2\n        /* \"#utility.yul\":1117:1121   */\n      dup2\n        /* \"#utility.yul\":1113:1133   */\n      sub\n        /* \"#utility.yul\":1109:1110   */\n      0x00\n        /* \"#utility.yul\":1098:1107   */\n      dup4\n        /* \"#utility.yul\":1094:1111   */\n      add\n        /* \"#utility.yul\":1087:1134   */\n      mstore\n        /* \"#utility.yul\":1151:1229   */\n      tag_378\n        /* \"#utility.yul\":1224:1228   */\n      dup2\n        /* \"#utility.yul\":1215:1221   */\n      dup5\n        /* \"#utility.yul\":1151:1229   */\n      tag_333\n      jump\t// in\n    tag_378:\n        /* \"#utility.yul\":1143:1229   */\n      swap1\n      pop\n        /* \"#utility.yul\":923:1236   */\n      swap3\n      swap2\n      pop\n      pop\n      jump\t// out\n        /* \"#utility.yul\":1323:1440   */\n    tag_335:\n        /* \"#utility.yul\":1432:1433   */\n      0x00\n        /* \"#utility.yul\":1429:1430   */\n      dup1\n        /* \"#utility.yul\":1422:1434   */\n      revert\n        /* \"#utility.yul\":1569:1695   */\n    tag_337:\n        /* \"#utility.yul\":1606:1613   */\n      0x00\n        /* \"#utility.yul\":1646:1688   */\n      0xffffffffffffffffffffffffffffffffffffffff\n        /* \"#utility.yul\":1639:1644   */\n      dup3\n        /* \"#utility.yul\":1635:1689   */\n      and\n        /* \"#utility.yul\":1624:1689   */\n      swap1\n      pop\n        /* \"#utility.yul\":1569:1695   */\n      swap2\n      swap1\n      pop\n      jump\t// out\n        /* \"#utility.yul\":1701:1797   */\n    tag_338:\n        /* \"#utility.yul\":1738:1745   */\n      0x00\n        /* \"#utility.yul\":1767:1791   */\n      tag_384\n        /* \"#utility.yul\":1785:1790   */\n      dup3\n        /* \"#utility.yul\":1767:1791   */\n      tag_337\n      jump\t// in\n    tag_384:\n        /* \"#utility.yul\":1756:1791   */\n      swap1\n      pop\n        /* \"#utility.yul\":1701:1797   */\n      swap2\n      swap1\n      pop\n      jump\t// out\n        /* \"#utility.yul\":1803:1925   */\n    tag_339:\n        /* \"#utility.yul\":1876:1900   */\n      tag_386\n        /* \"#utility.yul\":1894:1899   */\n      dup2\n        /* \"#utility.yul\":1876:1900   */\n      tag_338\n      jump\t// in\n    tag_386:\n        /* \"#utility.yul\":1869:1874   */\n      dup2\n        /* \"#utility.yul\":1866:1901   */\n      eq\n        /* \"#utility.yul\":1856:1919   */\n      tag_387\n      jumpi\n        /* \"#utility.yul\":1915:1916   */\n      0x00\n        /* \"#utility.yul\":1912:1913   */\n      dup1\n        /* \"#utility.yul\":1905:1917   */\n      revert\n        /* \"#utility.yul\":1856:1919   */\n    tag_387:\n        /* \"#utility.yul\":1803:1925   */\n      pop\n      jump\t// out\n        /* \"#utility.yul\":1931:2070   */\n    tag_340:\n        /* \"#utility.yul\":1977:1982   */\n      0x00\n        /* \"#utility.yul\":2015:2021   */\n      dup2\n        /* \"#utility.yul\":2002:2022   */\n      calldataload\n        /* \"#utility.yul\":1993:2022   */\n      swap1\n      pop\n        /* \"#utility.yul\":2031:2064   */\n      tag_389\n        /* \"#utility.yul\":2058:2063   */\n      dup2\n        /* \"#utility.yul\":2031:2064   */\n      tag_339\n      jump\t// in\n    tag_389:\n        /* \"#utility.yul\":1931:2070   */\n      swap3\n      swap2\n      pop\n      pop\n      jump\t// out\n        /* \"#utility.yul\":2076:2153   */\n    tag_341:\n        /* \"#utility.yul\":2113:2120   */\n      0x00\n        /* \"#utility.yul\":2142:2147   */\n      dup2\n        /* \"#utility.yul\":2131:2147   */\n      swap1\n      pop\n        /* \"#utility.yul\":2076:2153   */\n      swap2\n      swap1\n      pop\n      jump\t// out\n        /* \"#utility.yul\":2159:2281   */\n    tag_342:\n        /* \"#utility.yul\":2232:2256   */\n      tag_392\n        /* \"#utility.yul\":2250:2255   */\n      dup2\n        /* \"#utility.yul\":2232:2256   */\n      tag_341\n      jump\t// in\n    tag_392:\n        /* \"#utility.yul\":2225:2230   */\n      dup2\n        /* \"#utility.yul\":2222:2257   */\n      eq\n        /* \"#utility.yul\":2212:2275   */\n      tag_393\n      jumpi\n        /* \"#utility.yul\":2271:2272   */\n      0x00\n        /* \"#utility.yul\":2268:2269   */\n      dup1\n        /* \"#utility.yul\":2261:2273   */\n      revert\n        /* \"#utility.yul\":2212:2275   */\n    tag_393:\n        /* \"#utility.yul\":2159:2281   */\n      pop\n      jump\t// out\n        /* \"#utility.yul\":2287:2426   */\n    tag_343:\n        /* \"#utility.yul\":2333:2338   */\n      0x00\n        /* \"#utility.yul\":2371:2377   */\n      dup2\n        /* \"#utility.yul\":2358:2378   */\n      calldataload\n        /* \"#utility.yul\":2349:2378   */\n      swap1\n      pop\n        /* \"#utility.yul\":2387:2420   */\n      tag_395\n        /* \"#utility.yul\":2414:2419   */\n      dup2\n        /* \"#utility.yul\":2387:2420   */\n      tag_342\n      jump\t// in\n    tag_395:\n        /* \"#utility.yul\":2287:2426   */\n      swap3\n      swap2\n      pop\n      pop\n      jump\t// out\n        /* \"#utility.yul\":2432:2906   */\n    tag_50:\n        /* \"#utility.yul\":2500:2506   */\n      0x00\n        /* \"#utility.yul\":2508:2514   */\n      dup1\n        /* \"#utility.yul\":2557:2559   */\n      0x40\n        /* \"#utility.yul\":2545:2554   */\n      dup4\n        /* \"#utility.yul\":2536:2543   */\n      dup6\n        /* \"#utility.yul\":2532:2555   */\n      sub\n        /* \"#utility.yul\":2528:2560   */\n      slt\n        /* \"#utility.yul\":2525:2644   */\n      iszero\n      tag_397\n      jumpi\n        /* \"#utility.yul\":2563:2642   */\n      tag_398\n      tag_335\n      jump\t// in\n    tag_398:\n        /* \"#utility.yul\":2525:2644   */\n    tag_397:\n        /* \"#utility.yul\":2683:2684   */\n      0x00\n        /* \"#utility.yul\":2708:2761   */\n      tag_399\n        /* \"#utility.yul\":2753:2760   */\n      dup6\n        /* \"#utility.yul\":2744:2750   */\n      dup3\n        /* \"#utility.yul\":2733:2742   */\n      dup7\n        /* \"#utility.yul\":2729:2751   */\n      add\n        /* \"#utility.yul\":2708:2761   */\n      tag_340\n      jump\t// in\n    tag_399:\n        /* \"#utility.yul\":2698:2761   */\n      swap3\n      pop\n        /* \"#utility.yul\":2654:2771   */\n      pop\n        /* \"#utility.yul\":2810:2812   */\n      0x20\n        /* \"#utility.yul\":2836:2889   */\n      tag_400\n        /* \"#utility.yul\":2881:2888   */\n      dup6\n        /* \"#utility.yul\":2872:2878   */\n      dup3\n        /* \"#utility.yul\":2861:2870   */\n      dup7\n        /* \"#utility.yul\":2857:2879   */\n      add\n        /* \"#utility.yul\":2836:2889   */\n      tag_343\n      jump\t// in\n    tag_400:\n        /* \"#utility.yul\":2826:2889   */\n      swap2\n      pop\n        /* \"#utility.yul\":2781:2899   */\n      pop\n        /* \"#utility.yul\":2432:2906   */\n      swap3\n      pop\n      swap3\n      swap1\n      pop\n      jump\t// out\n        /* \"#utility.yul\":2912:3002   */\n    tag_344:\n        /* \"#utility.yul\":2946:2953   */\n      0x00\n        /* \"#utility.yul\":2989:2994   */\n      dup2\n        /* \"#utility.yul\":2982:2995   */\n      iszero\n        /* \"#utility.yul\":2975:2996   */\n      iszero\n        /* \"#utility.yul\":2964:2996   */\n      swap1\n      pop\n        /* \"#utility.yul\":2912:3002   */\n      swap2\n      swap1\n      pop\n      jump\t// out\n        /* \"#utility.yul\":3008:3117   */\n    tag_345:\n        /* \"#utility.yul\":3089:3110   */\n      tag_403\n        /* \"#utility.yul\":3104:3109   */\n      dup2\n        /* \"#utility.yul\":3089:3110   */\n      tag_344\n      jump\t// in\n    tag_403:\n        /* \"#utility.yul\":3084:3087   */\n      dup3\n        /* \"#utility.yul\":3077:3111   */\n      mstore\n        /* \"#utility.yul\":3008:3117   */\n      pop\n      pop\n      jump\t// out\n        /* \"#utility.yul\":3123:3333   */\n    tag_53:\n        /* \"#utility.yul\":3210:3214   */\n      0x00\n        /* \"#utility.yul\":3248:3250   */\n      0x20\n        /* \"#utility.yul\":3237:3246   */\n      dup3\n        /* \"#utility.yul\":3233:3251   */\n      add\n        /* \"#utility.yul\":3225:3251   */\n      swap1\n      pop\n        /* \"#utility.yul\":3261:3326   */\n      tag_405\n        /* \"#utility.yul\":3323:3324   */\n      0x00\n        /* \"#utility.yul\":3312:3321   */\n      dup4\n        /* \"#utility.yul\":3308:3325   */\n      add\n        /* \"#utility.yul\":3299:3305   */\n      dup5\n        /* \"#utility.yul\":3261:3326   */\n      tag_345\n      jump\t// in\n    tag_405:\n        /* \"#utility.yul\":3123:3333   */\n      swap3\n      swap2\n      pop\n      pop\n      jump\t// out\n        /* \"#utility.yul\":3339:3457   */\n    tag_346:\n        /* \"#utility.yul\":3426:3450   */\n      tag_407\n        /* \"#utility.yul\":3444:3449   */\n      dup2\n        /* \"#utility.yul\":3426:3450   */\n      tag_341\n      jump\t// in\n    tag_407:\n        /* \"#utility.yul\":3421:3424   */\n      dup3\n        /* \"#utility.yul\":3414:3451   */\n      mstore\n        /* \"#utility.yul\":3339:3457   */\n      pop\n      pop\n      jump\t// out\n        /* \"#utility.yul\":3463:3685   */\n    tag_57:\n        /* \"#utility.yul\":3556:3560   */\n      0x00\n        /* \"#utility.yul\":3594:3596   */\n      0x20\n        /* \"#utility.yul\":3583:3592   */\n      dup3\n        /* \"#utility.yul\":3579:3597   */\n      add\n        /* \"#utility.yul\":3571:3597   */\n      swap1\n      pop\n        /* \"#utility.yul\":3607:3678   */\n      tag_409\n        /* \"#utility.yul\":3675:3676   */\n      0x00\n        /* \"#utility.yul\":3664:3673   */\n      dup4\n        /* \"#utility.yul\":3660:3677   */\n      add\n        /* \"#utility.yul\":3651:3657   */\n      dup5\n        /* \"#utility.yul\":3607:3678   */\n      tag_346\n      jump\t// in\n    tag_409:\n        /* \"#utility.yul\":3463:3685   */\n      swap3\n      swap2\n      pop\n      pop\n      jump\t// out\n        /* \"#utility.yul\":3691:4310   */\n    tag_66:\n        /* \"#utility.yul\":3768:3774   */\n      0x00\n        /* \"#utility.yul\":3776:3782   */\n      dup1\n        /* \"#utility.yul\":3784:3790   */\n      0x00\n        /* \"#utility.yul\":3833:3835   */\n      0x60\n        /* \"#utility.yul\":3821:3830   */\n      dup5\n        /* \"#utility.yul\":3812:3819   */\n      dup7\n        /* \"#utility.yul\":3808:3831   */\n      sub\n        /* \"#utility.yul\":3804:3836   */\n      slt\n        /* \"#utility.yul\":3801:3920   */\n      iszero\n      tag_411\n      jumpi\n        /* \"#utility.yul\":3839:3918   */\n      tag_412\n      tag_335\n      jump\t// in\n    tag_412:\n        /* \"#utility.yul\":3801:3920   */\n    tag_411:\n        /* \"#utility.yul\":3959:3960   */\n      0x00\n        /* \"#utility.yul\":3984:4037   */\n      tag_413\n        /* \"#utility.yul\":4029:4036   */\n      dup7\n        /* \"#utility.yul\":4020:4026   */\n      dup3\n        /* \"#utility.yul\":4009:4018   */\n      dup8\n        /* \"#utility.yul\":4005:4027   */\n      add\n        /* \"#utility.yul\":3984:4037   */\n      tag_340\n      jump\t// in\n    tag_413:\n        /* \"#utility.yul\":3974:4037   */\n      swap4\n      pop\n        /* \"#utility.yul\":3930:4047   */\n      pop\n        /* \"#utility.yul\":4086:4088   */\n      0x20\n        /* \"#utility.yul\":4112:4165   */\n      tag_414\n        /* \"#utility.yul\":4157:4164   */\n      dup7\n        /* \"#utility.yul\":4148:4154   */\n      dup3\n        /* \"#utility.yul\":4137:4146   */\n      dup8\n        /* \"#utility.yul\":4133:4155   */\n      add\n        /* \"#utility.yul\":4112:4165   */\n      tag_340\n      jump\t// in\n    tag_414:\n        /* \"#utility.yul\":4102:4165   */\n      swap3\n      pop\n        /* \"#utility.yul\":4057:4175   */\n      pop\n        /* \"#utility.yul\":4214:4216   */\n      0x40\n        /* \"#utility.yul\":4240:4293   */\n      tag_415\n        /* \"#utility.yul\":4285:4292   */\n      dup7\n        /* \"#utility.yul\":4276:4282   */\n      dup3\n        /* \"#utility.yul\":4265:4274   */\n      dup8\n        /* \"#utility.yul\":4261:4283   */\n      add\n        /* \"#utility.yul\":4240:4293   */\n      tag_343\n      jump\t// in\n    tag_415:\n        /* \"#utility.yul\":4230:4293   */\n      swap2\n      pop\n        /* \"#utility.yul\":4185:4303   */\n      pop\n        /* \"#utility.yul\":3691:4310   */\n      swap3\n      pop\n      swap3\n      pop\n      swap3\n      jump\t// out\n        /* \"#utility.yul\":4316:4402   */\n    tag_347:\n        /* \"#utility.yul\":4351:4358   */\n      0x00\n        /* \"#utility.yul\":4391:4395   */\n      0xff\n        /* \"#utility.yul\":4384:4389   */\n      dup3\n        /* \"#utility.yul\":4380:4396   */\n      and\n        /* \"#utility.yul\":4369:4396   */\n      swap1\n      pop\n        /* \"#utility.yul\":4316:4402   */\n      swap2\n      swap1\n      pop\n      jump\t// out\n        /* \"#utility.yul\":4408:4520   */\n    tag_348:\n        /* \"#utility.yul\":4491:4513   */\n      tag_418\n        /* \"#utility.yul\":4507:4512   */\n      dup2\n        /* \"#utility.yul\":4491:4513   */\n      tag_347\n      jump\t// in\n    tag_418:\n        /* \"#utility.yul\":4486:4489   */\n      dup3\n        /* \"#utility.yul\":4479:4514   */\n      mstore\n        /* \"#utility.yul\":4408:4520   */\n      pop\n      pop\n      jump\t// out\n        /* \"#utility.yul\":4526:4740   */\n    tag_74:\n        /* \"#utility.yul\":4615:4619   */\n      0x00\n        /* \"#utility.yul\":4653:4655   */\n      0x20\n        /* \"#utility.yul\":4642:4651   */\n      dup3\n        /* \"#utility.yul\":4638:4656   */\n      add\n        /* \"#utility.yul\":4630:4656   */\n      swap1\n      pop\n        /* \"#utility.yul\":4666:4733   */\n      tag_420\n        /* \"#utility.yul\":4730:4731   */\n      0x00\n        /* \"#utility.yul\":4719:4728   */\n      dup4\n        /* \"#utility.yul\":4715:4732   */\n      add\n        /* \"#utility.yul\":4706:4712   */\n      dup5\n        /* \"#utility.yul\":4666:4733   */\n      tag_348\n      jump\t// in\n    tag_420:\n        /* \"#utility.yul\":4526:4740   */\n      swap3\n      swap2\n      pop\n      pop\n      jump\t// out\n        /* \"#utility.yul\":4746:5075   */\n    tag_77:\n        /* \"#utility.yul\":4805:4811   */\n      0x00\n        /* \"#utility.yul\":4854:4856   */\n      0x20\n        /* \"#utility.yul\":4842:4851   */\n      dup3\n        /* \"#utility.yul\":4833:4840   */\n      dup5\n        /* \"#utility.yul\":4829:4852   */\n      sub\n        /* \"#utility.yul\":4825:4857   */\n      slt\n        /* \"#utility.yul\":4822:4941   */\n      iszero\n      tag_422\n      jumpi\n        /* \"#utility.yul\":4860:4939   */\n      tag_423\n      tag_335\n      jump\t// in\n    tag_423:\n        /* \"#utility.yul\":4822:4941   */\n    tag_422:\n        /* \"#utility.yul\":4980:4981   */\n      0x00\n        /* \"#utility.yul\":5005:5058   */\n      tag_424\n        /* \"#utility.yul\":5050:5057   */\n      dup5\n        /* \"#utility.yul\":5041:5047   */\n      dup3\n        /* \"#utility.yul\":5030:5039   */\n      dup6\n        /* \"#utility.yul\":5026:5048   */\n      add\n        /* \"#utility.yul\":5005:5058   */\n      tag_340\n      jump\t// in\n    tag_424:\n        /* \"#utility.yul\":4995:5058   */\n      swap2\n      pop\n        /* \"#utility.yul\":4951:5068   */\n      pop\n        /* \"#utility.yul\":4746:5075   */\n      swap3\n      swap2\n      pop\n      pop\n      jump\t// out\n        /* \"#utility.yul\":5081:5410   */\n    tag_85:\n        /* \"#utility.yul\":5140:5146   */\n      0x00\n        /* \"#utility.yul\":5189:5191   */\n      0x20\n        /* \"#utility.yul\":5177:5186   */\n      dup3\n        /* \"#utility.yul\":5168:5175   */\n      dup5\n        /* \"#utility.yul\":5164:5187   */\n      sub\n        /* \"#utility.yul\":5160:5192   */\n      slt\n        /* \"#utility.yul\":5157:5276   */\n      iszero\n      tag_426\n      jumpi\n        /* \"#utility.yul\":5195:5274   */\n      tag_427\n      tag_335\n      jump\t// in\n    tag_427:\n        /* \"#utility.yul\":5157:5276   */\n    tag_426:\n        /* \"#utility.yul\":5315:5316   */\n      0x00\n        /* \"#utility.yul\":5340:5393   */\n      tag_428\n        /* \"#utility.yul\":5385:5392   */\n      dup5\n        /* \"#utility.yul\":5376:5382   */\n      dup3\n        /* \"#utility.yul\":5365:5374   */\n      dup6\n        /* \"#utility.yul\":5361:5383   */\n      add\n        /* \"#utility.yul\":5340:5393   */\n      tag_343\n      jump\t// in\n    tag_428:\n        /* \"#utility.yul\":5330:5393   */\n      swap2\n      pop\n        /* \"#utility.yul\":5286:5403   */\n      pop\n        /* \"#utility.yul\":5081:5410   */\n      swap3\n      swap2\n      pop\n      pop\n      jump\t// out\n        /* \"#utility.yul\":5416:5534   */\n    tag_349:\n        /* \"#utility.yul\":5503:5527   */\n      tag_430\n        /* \"#utility.yul\":5521:5526   */\n      dup2\n        /* \"#utility.yul\":5503:5527   */\n      tag_338\n      jump\t// in\n    tag_430:\n        /* \"#utility.yul\":5498:5501   */\n      dup3\n        /* \"#utility.yul\":5491:5528   */\n      mstore\n        /* \"#utility.yul\":5416:5534   */\n      pop\n      pop\n      jump\t// out\n        /* \"#utility.yul\":5540:5762   */\n    tag_118:\n        /* \"#utility.yul\":5633:5637   */\n      0x00\n        /* \"#utility.yul\":5671:5673   */\n      0x20\n        /* \"#utility.yul\":5660:5669   */\n      dup3\n        /* \"#utility.yul\":5656:5674   */\n      add\n        /* \"#utility.yul\":5648:5674   */\n      swap1\n      pop\n        /* \"#utility.yul\":5684:5755   */\n      tag_432\n        /* \"#utility.yul\":5752:5753   */\n      0x00\n        /* \"#utility.yul\":5741:5750   */\n      dup4\n        /* \"#utility.yul\":5737:5754   */\n      add\n        /* \"#utility.yul\":5728:5734   */\n      dup5\n        /* \"#utility.yul\":5684:5755   */\n      tag_349\n      jump\t// in\n    tag_432:\n        /* \"#utility.yul\":5540:5762   */\n      swap3\n      swap2\n      pop\n      pop\n      jump\t// out\n        /* \"#utility.yul\":5768:6321   */\n    tag_125:\n        /* \"#utility.yul\":5945:5949   */\n      0x00\n        /* \"#utility.yul\":5983:5986   */\n      0x80\n        /* \"#utility.yul\":5972:5981   */\n      dup3\n        /* \"#utility.yul\":5968:5987   */\n      add\n        /* \"#utility.yul\":5960:5987   */\n      swap1\n      pop\n        /* \"#utility.yul\":5997:6068   */\n      tag_434\n        /* \"#utility.yul\":6065:6066   */\n      0x00\n        /* \"#utility.yul\":6054:6063   */\n      dup4\n        /* \"#utility.yul\":6050:6067   */\n      add\n        /* \"#utility.yul\":6041:6047   */\n      dup8\n        /* \"#utility.yul\":5997:6068   */\n      tag_349\n      jump\t// in\n    tag_434:\n        /* \"#utility.yul\":6078:6150   */\n      tag_435\n        /* \"#utility.yul\":6146:6148   */\n      0x20\n        /* \"#utility.yul\":6135:6144   */\n      dup4\n        /* \"#utility.yul\":6131:6149   */\n      add\n        /* \"#utility.yul\":6122:6128   */\n      dup7\n        /* \"#utility.yul\":6078:6150   */\n      tag_346\n      jump\t// in\n    tag_435:\n        /* \"#utility.yul\":6160:6232   */\n      tag_436\n        /* \"#utility.yul\":6228:6230   */\n      0x40\n        /* \"#utility.yul\":6217:6226   */\n      dup4\n        /* \"#utility.yul\":6213:6231   */\n      add\n        /* \"#utility.yul\":6204:6210   */\n      dup6\n        /* \"#utility.yul\":6160:6232   */\n      tag_346\n      jump\t// in\n    tag_436:\n        /* \"#utility.yul\":6242:6314   */\n      tag_437\n        /* \"#utility.yul\":6310:6312   */\n      0x60\n        /* \"#utility.yul\":6299:6308   */\n      dup4\n        /* \"#utility.yul\":6295:6313   */\n      add\n        /* \"#utility.yul\":6286:6292   */\n      dup5\n        /* \"#utility.yul\":6242:6314   */\n      tag_346\n      jump\t// in\n    tag_437:\n        /* \"#utility.yul\":5768:6321   */\n      swap6\n      swap5\n      pop\n      pop\n      pop\n      pop\n      pop\n      jump\t// out\n        /* \"#utility.yul\":6327:6801   */\n    tag_143:\n        /* \"#utility.yul\":6395:6401   */\n      0x00\n        /* \"#utility.yul\":6403:6409   */\n      dup1\n        /* \"#utility.yul\":6452:6454   */\n      0x40\n        /* \"#utility.yul\":6440:6449   */\n      dup4\n        /* \"#utility.yul\":6431:6438   */\n      dup6\n        /* \"#utility.yul\":6427:6450   */\n      sub\n        /* \"#utility.yul\":6423:6455   */\n      slt\n        /* \"#utility.yul\":6420:6539   */\n      iszero\n      tag_439\n      jumpi\n        /* \"#utility.yul\":6458:6537   */\n      tag_440\n      tag_335\n      jump\t// in\n    tag_440:\n        /* \"#utility.yul\":6420:6539   */\n    tag_439:\n        /* \"#utility.yul\":6578:6579   */\n      0x00\n        /* \"#utility.yul\":6603:6656   */\n      tag_441\n        /* \"#utility.yul\":6648:6655   */\n      dup6\n        /* \"#utility.yul\":6639:6645   */\n      dup3\n        /* \"#utility.yul\":6628:6637   */\n      dup7\n        /* \"#utility.yul\":6624:6646   */\n      add\n        /* \"#utility.yul\":6603:6656   */\n      tag_340\n      jump\t// in\n    tag_441:\n        /* \"#utility.yul\":6593:6656   */\n      swap3\n      pop\n        /* \"#utility.yul\":6549:6666   */\n      pop\n        /* \"#utility.yul\":6705:6707   */\n      0x20\n        /* \"#utility.yul\":6731:6784   */\n      tag_442\n        /* \"#utility.yul\":6776:6783   */\n      dup6\n        /* \"#utility.yul\":6767:6773   */\n      dup3\n        /* \"#utility.yul\":6756:6765   */\n      dup7\n        /* \"#utility.yul\":6752:6774   */\n      add\n        /* \"#utility.yul\":6731:6784   */\n      tag_340\n      jump\t// in\n    tag_442:\n        /* \"#utility.yul\":6721:6784   */\n      swap2\n      pop\n        /* \"#utility.yul\":6676:6794   */\n      pop\n        /* \"#utility.yul\":6327:6801   */\n      swap3\n      pop\n      swap3\n      swap1\n      pop\n      jump\t// out\n        /* \"#utility.yul\":6807:6987   */\n    tag_350:\n        /* \"#utility.yul\":6855:6932   */\n      0x4e487b7100000000000000000000000000000000000000000000000000000000\n        /* \"#utility.yul\":6852:6853   */\n      0x00\n        /* \"#utility.yul\":6845:6933   */\n      mstore\n        /* \"#utility.yul\":6952:6956   */\n      0x22\n        /* \"#utility.yul\":6949:6950   */\n      0x04\n        /* \"#utility.yul\":6942:6957   */\n      mstore\n        /* \"#utility.yul\":6976:6980   */\n      0x24\n        /* \"#utility.yul\":6973:6974   */\n      0x00\n        /* \"#utility.yul\":6966:6981   */\n      revert\n        /* \"#utility.yul\":6993:7313   */\n    tag_161:\n        /* \"#utility.yul\":7037:7043   */\n      0x00\n        /* \"#utility.yul\":7074:7075   */\n      0x02\n        /* \"#utility.yul\":7068:7072   */\n      dup3\n        /* \"#utility.yul\":7064:7076   */\n      div\n        /* \"#utility.yul\":7054:7076   */\n      swap1\n      pop\n        /* \"#utility.yul\":7121:7122   */\n      0x01\n        /* \"#utility.yul\":7115:7119   */\n      dup3\n        /* \"#utility.yul\":7111:7123   */\n      and\n        /* \"#utility.yul\":7142:7160   */\n      dup1\n        /* \"#utility.yul\":7132:7213   */\n      tag_445\n      jumpi\n        /* \"#utility.yul\":7198:7202   */\n      0x7f\n        /* \"#utility.yul\":7190:7196   */\n      dup3\n        /* \"#utility.yul\":7186:7203   */\n      and\n        /* \"#utility.yul\":7176:7203   */\n      swap2\n      pop\n        /* \"#utility.yul\":7132:7213   */\n    tag_445:\n        /* \"#utility.yul\":7260:7262   */\n      0x20\n        /* \"#utility.yul\":7252:7258   */\n      dup3\n        /* \"#utility.yul\":7249:7263   */\n      lt\n        /* \"#utility.yul\":7229:7247   */\n      dup2\n        /* \"#utility.yul\":7226:7264   */\n      sub\n        /* \"#utility.yul\":7223:7307   */\n      tag_446\n      jumpi\n        /* \"#utility.yul\":7279:7297   */\n      tag_447\n      tag_350\n      jump\t// in\n    tag_447:\n        /* \"#utility.yul\":7223:7307   */\n    tag_446:\n        /* \"#utility.yul\":7044:7313   */\n      pop\n        /* \"#utility.yul\":6993:7313   */\n      swap2\n      swap1\n      pop\n      jump\t// out\n        /* \"#utility.yul\":7319:7540   */\n    tag_351:\n        /* \"#utility.yul\":7459:7493   */\n      0x536c6970706167652066656573206d757374206265206c657373207468616e20\n        /* \"#utility.yul\":7455:7456   */\n      0x00\n        /* \"#utility.yul\":7447:7453   */\n      dup3\n        /* \"#utility.yul\":7443:7457   */\n      add\n        /* \"#utility.yul\":7436:7494   */\n      mstore\n        /* \"#utility.yul\":7528:7532   */\n      0x3525000000000000000000000000000000000000000000000000000000000000\n        /* \"#utility.yul\":7523:7525   */\n      0x20\n        /* \"#utility.yul\":7515:7521   */\n      dup3\n        /* \"#utility.yul\":7511:7526   */\n      add\n        /* \"#utility.yul\":7504:7533   */\n      mstore\n        /* \"#utility.yul\":7319:7540   */\n      pop\n      jump\t// out\n        /* \"#utility.yul\":7546:7912   */\n    tag_352:\n        /* \"#utility.yul\":7688:7691   */\n      0x00\n        /* \"#utility.yul\":7709:7776   */\n      tag_450\n        /* \"#utility.yul\":7773:7775   */\n      0x22\n        /* \"#utility.yul\":7768:7771   */\n      dup4\n        /* \"#utility.yul\":7709:7776   */\n      tag_330\n      jump\t// in\n    tag_450:\n        /* \"#utility.yul\":7702:7776   */\n      swap2\n      pop\n        /* \"#utility.yul\":7785:7878   */\n      tag_451\n        /* \"#utility.yul\":7874:7877   */\n      dup3\n        /* \"#utility.yul\":7785:7878   */\n      tag_351\n      jump\t// in\n    tag_451:\n        /* \"#utility.yul\":7903:7905   */\n      0x40\n        /* \"#utility.yul\":7898:7901   */\n      dup3\n        /* \"#utility.yul\":7894:7906   */\n      add\n        /* \"#utility.yul\":7887:7906   */\n      swap1\n      pop\n        /* \"#utility.yul\":7546:7912   */\n      swap2\n      swap1\n      pop\n      jump\t// out\n        /* \"#utility.yul\":7918:8337   */\n    tag_193:\n        /* \"#utility.yul\":8084:8088   */\n      0x00\n        /* \"#utility.yul\":8122:8124   */\n      0x20\n        /* \"#utility.yul\":8111:8120   */\n      dup3\n        /* \"#utility.yul\":8107:8125   */\n      add\n        /* \"#utility.yul\":8099:8125   */\n      swap1\n      pop\n        /* \"#utility.yul\":8171:8180   */\n      dup2\n        /* \"#utility.yul\":8165:8169   */\n      dup2\n        /* \"#utility.yul\":8161:8181   */\n      sub\n        /* \"#utility.yul\":8157:8158   */\n      0x00\n        /* \"#utility.yul\":8146:8155   */\n      dup4\n        /* \"#utility.yul\":8142:8159   */\n      add\n        /* \"#utility.yul\":8135:8182   */\n      mstore\n        /* \"#utility.yul\":8199:8330   */\n      tag_453\n        /* \"#utility.yul\":8325:8329   */\n      dup2\n        /* \"#utility.yul\":8199:8330   */\n      tag_352\n      jump\t// in\n    tag_453:\n        /* \"#utility.yul\":8191:8330   */\n      swap1\n      pop\n        /* \"#utility.yul\":7918:8337   */\n      swap2\n      swap1\n      pop\n      jump\t// out\n        /* \"#utility.yul\":8343:8522   */\n    tag_353:\n        /* \"#utility.yul\":8483:8514   */\n      0x54617820666565206d757374206265206c657373207468616e20313025000000\n        /* \"#utility.yul\":8479:8480   */\n      0x00\n        /* \"#utility.yul\":8471:8477   */\n      dup3\n        /* \"#utility.yul\":8467:8481   */\n      add\n        /* \"#utility.yul\":8460:8515   */\n      mstore\n        /* \"#utility.yul\":8343:8522   */\n      pop\n      jump\t// out\n        /* \"#utility.yul\":8528:8894   */\n    tag_354:\n        /* \"#utility.yul\":8670:8673   */\n      0x00\n        /* \"#utility.yul\":8691:8758   */\n      tag_456\n        /* \"#utility.yul\":8755:8757   */\n      0x1d\n        /* \"#utility.yul\":8750:8753   */\n      dup4\n        /* \"#utility.yul\":8691:8758   */\n      tag_330\n      jump\t// in\n    tag_456:\n        /* \"#utility.yul\":8684:8758   */\n      swap2\n      pop\n        /* \"#utility.yul\":8767:8860   */\n      tag_457\n        /* \"#utility.yul\":8856:8859   */\n      dup3\n        /* \"#utility.yul\":8767:8860   */\n      tag_353\n      jump\t// in\n    tag_457:\n        /* \"#utility.yul\":8885:8887   */\n      0x20\n        /* \"#utility.yul\":8880:8883   */\n      dup3\n        /* \"#utility.yul\":8876:8888   */\n      add\n        /* \"#utility.yul\":8869:8888   */\n      swap1\n      pop\n        /* \"#utility.yul\":8528:8894   */\n      swap2\n      swap1\n      pop\n      jump\t// out\n        /* \"#utility.yul\":8900:9319   */\n    tag_199:\n        /* \"#utility.yul\":9066:9070   */\n      0x00\n        /* \"#utility.yul\":9104:9106   */\n      0x20\n        /* \"#utility.yul\":9093:9102   */\n      dup3\n        /* \"#utility.yul\":9089:9107   */\n      add\n        /* \"#utility.yul\":9081:9107   */\n      swap1\n      pop\n        /* \"#utility.yul\":9153:9162   */\n      dup2\n        /* \"#utility.yul\":9147:9151   */\n      dup2\n        /* \"#utility.yul\":9143:9163   */\n      sub\n        /* \"#utility.yul\":9139:9140   */\n      0x00\n        /* \"#utility.yul\":9128:9137   */\n      dup4\n        /* \"#utility.yul\":9124:9141   */\n      add\n        /* \"#utility.yul\":9117:9164   */\n      mstore\n        /* \"#utility.yul\":9181:9312   */\n      tag_459\n        /* \"#utility.yul\":9307:9311   */\n      dup2\n        /* \"#utility.yul\":9181:9312   */\n      tag_354\n      jump\t// in\n    tag_459:\n        /* \"#utility.yul\":9173:9312   */\n      swap1\n      pop\n        /* \"#utility.yul\":8900:9319   */\n      swap2\n      swap1\n      pop\n      jump\t// out\n        /* \"#utility.yul\":9325:9553   */\n    tag_355:\n        /* \"#utility.yul\":9465:9499   */\n      0x426c61636b6c697374656420616464726573732063616e6e6f74206265207768\n        /* \"#utility.yul\":9461:9462   */\n      0x00\n        /* \"#utility.yul\":9453:9459   */\n      dup3\n        /* \"#utility.yul\":9449:9463   */\n      add\n        /* \"#utility.yul\":9442:9500   */\n      mstore\n        /* \"#utility.yul\":9534:9545   */\n      0x6974656c69737465640000000000000000000000000000000000000000000000\n        /* \"#utility.yul\":9529:9531   */\n      0x20\n        /* \"#utility.yul\":9521:9527   */\n      dup3\n        /* \"#utility.yul\":9517:9532   */\n      add\n        /* \"#utility.yul\":9510:9546   */\n      mstore\n        /* \"#utility.yul\":9325:9553   */\n      pop\n      jump\t// out\n        /* \"#utility.yul\":9559:9925   */\n    tag_356:\n        /* \"#utility.yul\":9701:9704   */\n      0x00\n        /* \"#utility.yul\":9722:9789   */\n      tag_462\n        /* \"#utility.yul\":9786:9788   */\n      0x29\n        /* \"#utility.yul\":9781:9784   */\n      dup4\n        /* \"#utility.yul\":9722:9789   */\n      tag_330\n      jump\t// in\n    tag_462:\n        /* \"#utility.yul\":9715:9789   */\n      swap2\n      pop\n        /* \"#utility.yul\":9798:9891   */\n      tag_463\n        /* \"#utility.yul\":9887:9890   */\n      dup3\n        /* \"#utility.yul\":9798:9891   */\n      tag_355\n      jump\t// in\n    tag_463:\n        /* \"#utility.yul\":9916:9918   */\n      0x40\n        /* \"#utility.yul\":9911:9914   */\n      dup3\n        /* \"#utility.yul\":9907:9919   */\n      add\n        /* \"#utility.yul\":9900:9919   */\n      swap1\n      pop\n        /* \"#utility.yul\":9559:9925   */\n      swap2\n      swap1\n      pop\n      jump\t// out\n        /* \"#utility.yul\":9931:10350   */\n    tag_243:\n        /* \"#utility.yul\":10097:10101   */\n      0x00\n        /* \"#utility.yul\":10135:10137   */\n      0x20\n        /* \"#utility.yul\":10124:10133   */\n      dup3\n        /* \"#utility.yul\":10120:10138   */\n      add\n        /* \"#utility.yul\":10112:10138   */\n      swap1\n      pop\n        /* \"#utility.yul\":10184:10193   */\n      dup2\n        /* \"#utility.yul\":10178:10182   */\n      dup2\n        /* \"#utility.yul\":10174:10194   */\n      sub\n        /* \"#utility.yul\":10170:10171   */\n      0x00\n        /* \"#utility.yul\":10159:10168   */\n      dup4\n        /* \"#utility.yul\":10155:10172   */\n      add\n        /* \"#utility.yul\":10148:10195   */\n      mstore\n        /* \"#utility.yul\":10212:10343   */\n      tag_465\n        /* \"#utility.yul\":10338:10342   */\n      dup2\n        /* \"#utility.yul\":10212:10343   */\n      tag_356\n      jump\t// in\n    tag_465:\n        /* \"#utility.yul\":10204:10343   */\n      swap1\n      pop\n        /* \"#utility.yul\":9931:10350   */\n      swap2\n      swap1\n      pop\n      jump\t// out\n        /* \"#utility.yul\":10356:10798   */\n    tag_264:\n        /* \"#utility.yul\":10505:10509   */\n      0x00\n        /* \"#utility.yul\":10543:10545   */\n      0x60\n        /* \"#utility.yul\":10532:10541   */\n      dup3\n        /* \"#utility.yul\":10528:10546   */\n      add\n        /* \"#utility.yul\":10520:10546   */\n      swap1\n      pop\n        /* \"#utility.yul\":10556:10627   */\n      tag_467\n        /* \"#utility.yul\":10624:10625   */\n      0x00\n        /* \"#utility.yul\":10613:10622   */\n      dup4\n        /* \"#utility.yul\":10609:10626   */\n      add\n        /* \"#utility.yul\":10600:10606   */\n      dup7\n        /* \"#utility.yul\":10556:10627   */\n      tag_349\n      jump\t// in\n    tag_467:\n        /* \"#utility.yul\":10637:10709   */\n      tag_468\n        /* \"#utility.yul\":10705:10707   */\n      0x20\n        /* \"#utility.yul\":10694:10703   */\n      dup4\n        /* \"#utility.yul\":10690:10708   */\n      add\n        /* \"#utility.yul\":10681:10687   */\n      dup6\n        /* \"#utility.yul\":10637:10709   */\n      tag_346\n      jump\t// in\n    tag_468:\n        /* \"#utility.yul\":10719:10791   */\n      tag_469\n        /* \"#utility.yul\":10787:10789   */\n      0x40\n        /* \"#utility.yul\":10776:10785   */\n      dup4\n        /* \"#utility.yul\":10772:10790   */\n      add\n        /* \"#utility.yul\":10763:10769   */\n      dup5\n        /* \"#utility.yul\":10719:10791   */\n      tag_346\n      jump\t// in\n    tag_469:\n        /* \"#utility.yul\":10356:10798   */\n      swap5\n      swap4\n      pop\n      pop\n      pop\n      pop\n      jump\t// out\n        /* \"#utility.yul\":10804:10975   */\n    tag_357:\n        /* \"#utility.yul\":10944:10967   */\n      0x426c61636b6c6973746564204164647265737365730000000000000000000000\n        /* \"#utility.yul\":10940:10941   */\n      0x00\n        /* \"#utility.yul\":10932:10938   */\n      dup3\n        /* \"#utility.yul\":10928:10942   */\n      add\n        /* \"#utility.yul\":10921:10968   */\n      mstore\n        /* \"#utility.yul\":10804:10975   */\n      pop\n      jump\t// out\n        /* \"#utility.yul\":10981:11347   */\n    tag_358:\n        /* \"#utility.yul\":11123:11126   */\n      0x00\n        /* \"#utility.yul\":11144:11211   */\n      tag_472\n        /* \"#utility.yul\":11208:11210   */\n      0x15\n        /* \"#utility.yul\":11203:11206   */\n      dup4\n        /* \"#utility.yul\":11144:11211   */\n      tag_330\n      jump\t// in\n    tag_472:\n        /* \"#utility.yul\":11137:11211   */\n      swap2\n      pop\n        /* \"#utility.yul\":11220:11313   */\n      tag_473\n        /* \"#utility.yul\":11309:11312   */\n      dup3\n        /* \"#utility.yul\":11220:11313   */\n      tag_357\n      jump\t// in\n    tag_473:\n        /* \"#utility.yul\":11338:11340   */\n      0x20\n        /* \"#utility.yul\":11333:11336   */\n      dup3\n        /* \"#utility.yul\":11329:11341   */\n      add\n        /* \"#utility.yul\":11322:11341   */\n      swap1\n      pop\n        /* \"#utility.yul\":10981:11347   */\n      swap2\n      swap1\n      pop\n      jump\t// out\n        /* \"#utility.yul\":11353:11772   */\n    tag_295:\n        /* \"#utility.yul\":11519:11523   */\n      0x00\n        /* \"#utility.yul\":11557:11559   */\n      0x20\n        /* \"#utility.yul\":11546:11555   */\n      dup3\n        /* \"#utility.yul\":11542:11560   */\n      add\n        /* \"#utility.yul\":11534:11560   */\n      swap1\n      pop\n        /* \"#utility.yul\":11606:11615   */\n      dup2\n        /* \"#utility.yul\":11600:11604   */\n      dup2\n        /* \"#utility.yul\":11596:11616   */\n      sub\n        /* \"#utility.yul\":11592:11593   */\n      0x00\n        /* \"#utility.yul\":11581:11590   */\n      dup4\n        /* \"#utility.yul\":11577:11594   */\n      add\n        /* \"#utility.yul\":11570:11617   */\n      mstore\n        /* \"#utility.yul\":11634:11765   */\n      tag_475\n        /* \"#utility.yul\":11760:11764   */\n      dup2\n        /* \"#utility.yul\":11634:11765   */\n      tag_358\n      jump\t// in\n    tag_475:\n        /* \"#utility.yul\":11626:11765   */\n      swap1\n      pop\n        /* \"#utility.yul\":11353:11772   */\n      swap2\n      swap1\n      pop\n      jump\t// out\n        /* \"#utility.yul\":11778:11999   */\n    tag_359:\n        /* \"#utility.yul\":11918:11952   */\n      0x426f746820616464726573736573206d7573742062652077686974656c697374\n        /* \"#utility.yul\":11914:11915   */\n      0x00\n        /* \"#utility.yul\":11906:11912   */\n      dup3\n        /* \"#utility.yul\":11902:11916   */\n      add\n        /* \"#utility.yul\":11895:11953   */\n      mstore\n        /* \"#utility.yul\":11987:11991   */\n      0x6564000000000000000000000000000000000000000000000000000000000000\n        /* \"#utility.yul\":11982:11984   */\n      0x20\n        /* \"#utility.yul\":11974:11980   */\n      dup3\n        /* \"#utility.yul\":11970:11985   */\n      add\n        /* \"#utility.yul\":11963:11992   */\n      mstore\n        /* \"#utility.yul\":11778:11999   */\n      pop\n      jump\t// out\n        /* \"#utility.yul\":12005:12371   */\n    tag_360:\n        /* \"#utility.yul\":12147:12150   */\n      0x00\n        /* \"#utility.yul\":12168:12235   */\n      tag_478\n        /* \"#utility.yul\":12232:12234   */\n      0x22\n        /* \"#utility.yul\":12227:12230   */\n      dup4\n        /* \"#utility.yul\":12168:12235   */\n      tag_330\n      jump\t// in\n    tag_478:\n        /* \"#utility.yul\":12161:12235   */\n      swap2\n      pop\n        /* \"#utility.yul\":12244:12337   */\n      tag_479\n        /* \"#utility.yul\":12333:12336   */\n      dup3\n        /* \"#utility.yul\":12244:12337   */\n      tag_359\n      jump\t// in\n    tag_479:\n        /* \"#utility.yul\":12362:12364   */\n      0x40\n        /* \"#utility.yul\":12357:12360   */\n      dup3\n        /* \"#utility.yul\":12353:12365   */\n      add\n        /* \"#utility.yul\":12346:12365   */\n      swap1\n      pop\n        /* \"#utility.yul\":12005:12371   */\n      swap2\n      swap1\n      pop\n      jump\t// out\n        /* \"#utility.yul\":12377:12796   */\n    tag_300:\n        /* \"#utility.yul\":12543:12547   */\n      0x00\n        /* \"#utility.yul\":12581:12583   */\n      0x20\n        /* \"#utility.yul\":12570:12579   */\n      dup3\n        /* \"#utility.yul\":12566:12584   */\n      add\n        /* \"#utility.yul\":12558:12584   */\n      swap1\n      pop\n        /* \"#utility.yul\":12630:12639   */\n      dup2\n        /* \"#utility.yul\":12624:12628   */\n      dup2\n        /* \"#utility.yul\":12620:12640   */\n      sub\n        /* \"#utility.yul\":12616:12617   */\n      0x00\n        /* \"#utility.yul\":12605:12614   */\n      dup4\n        /* \"#utility.yul\":12601:12618   */\n      add\n        /* \"#utility.yul\":12594:12641   */\n      mstore\n        /* \"#utility.yul\":12658:12789   */\n      tag_481\n        /* \"#utility.yul\":12784:12788   */\n      dup2\n        /* \"#utility.yul\":12658:12789   */\n      tag_360\n      jump\t// in\n    tag_481:\n        /* \"#utility.yul\":12650:12789   */\n      swap1\n      pop\n        /* \"#utility.yul\":12377:12796   */\n      swap2\n      swap1\n      pop\n      jump\t// out\n        /* \"#utility.yul\":12802:12981   */\n    tag_361:\n        /* \"#utility.yul\":12942:12973   */\n      0x546f6b656e205472616e73666572204c696d6974204578636565646564000000\n        /* \"#utility.yul\":12938:12939   */\n      0x00\n        /* \"#utility.yul\":12930:12936   */\n      dup3\n        /* \"#utility.yul\":12926:12940   */\n      add\n        /* \"#utility.yul\":12919:12974   */\n      mstore\n        /* \"#utility.yul\":12802:12981   */\n      pop\n      jump\t// out\n        /* \"#utility.yul\":12987:13353   */\n    tag_362:\n        /* \"#utility.yul\":13129:13132   */\n      0x00\n        /* \"#utility.yul\":13150:13217   */\n      tag_484\n        /* \"#utility.yul\":13214:13216   */\n      0x1d\n        /* \"#utility.yul\":13209:13212   */\n      dup4\n        /* \"#utility.yul\":13150:13217   */\n      tag_330\n      jump\t// in\n    tag_484:\n        /* \"#utility.yul\":13143:13217   */\n      swap2\n      pop\n        /* \"#utility.yul\":13226:13319   */\n      tag_485\n        /* \"#utility.yul\":13315:13318   */\n      dup3\n        /* \"#utility.yul\":13226:13319   */\n      tag_361\n      jump\t// in\n    tag_485:\n        /* \"#utility.yul\":13344:13346   */\n      0x20\n        /* \"#utility.yul\":13339:13342   */\n      dup3\n        /* \"#utility.yul\":13335:13347   */\n      add\n        /* \"#utility.yul\":13328:13347   */\n      swap1\n      pop\n        /* \"#utility.yul\":12987:13353   */\n      swap2\n      swap1\n      pop\n      jump\t// out\n        /* \"#utility.yul\":13359:13778   */\n    tag_303:\n        /* \"#utility.yul\":13525:13529   */\n      0x00\n        /* \"#utility.yul\":13563:13565   */\n      0x20\n        /* \"#utility.yul\":13552:13561   */\n      dup3\n        /* \"#utility.yul\":13548:13566   */\n      add\n        /* \"#utility.yul\":13540:13566   */\n      swap1\n      pop\n        /* \"#utility.yul\":13612:13621   */\n      dup2\n        /* \"#utility.yul\":13606:13610   */\n      dup2\n        /* \"#utility.yul\":13602:13622   */\n      sub\n        /* \"#utility.yul\":13598:13599   */\n      0x00\n        /* \"#utility.yul\":13587:13596   */\n      dup4\n        /* \"#utility.yul\":13583:13600   */\n      add\n        /* \"#utility.yul\":13576:13623   */\n      mstore\n        /* \"#utility.yul\":13640:13771   */\n      tag_487\n        /* \"#utility.yul\":13766:13770   */\n      dup2\n        /* \"#utility.yul\":13640:13771   */\n      tag_362\n      jump\t// in\n    tag_487:\n        /* \"#utility.yul\":13632:13771   */\n      swap1\n      pop\n        /* \"#utility.yul\":13359:13778   */\n      swap2\n      swap1\n      pop\n      jump\t// out\n        /* \"#utility.yul\":13784:13964   */\n    tag_363:\n        /* \"#utility.yul\":13832:13909   */\n      0x4e487b7100000000000000000000000000000000000000000000000000000000\n        /* \"#utility.yul\":13829:13830   */\n      0x00\n        /* \"#utility.yul\":13822:13910   */\n      mstore\n        /* \"#utility.yul\":13929:13933   */\n      0x11\n        /* \"#utility.yul\":13926:13927   */\n      0x04\n        /* \"#utility.yul\":13919:13934   */\n      mstore\n        /* \"#utility.yul\":13953:13957   */\n      0x24\n        /* \"#utility.yul\":13950:13951   */\n      0x00\n        /* \"#utility.yul\":13943:13958   */\n      revert\n        /* \"#utility.yul\":13970:14161   */\n    tag_305:\n        /* \"#utility.yul\":14010:14013   */\n      0x00\n        /* \"#utility.yul\":14029:14049   */\n      tag_490\n        /* \"#utility.yul\":14047:14048   */\n      dup3\n        /* \"#utility.yul\":14029:14049   */\n      tag_341\n      jump\t// in\n    tag_490:\n        /* \"#utility.yul\":14024:14049   */\n      swap2\n      pop\n        /* \"#utility.yul\":14063:14083   */\n      tag_491\n        /* \"#utility.yul\":14081:14082   */\n      dup4\n        /* \"#utility.yul\":14063:14083   */\n      tag_341\n      jump\t// in\n    tag_491:\n        /* \"#utility.yul\":14058:14083   */\n      swap3\n      pop\n        /* \"#utility.yul\":14106:14107   */\n      dup3\n        /* \"#utility.yul\":14103:14104   */\n      dup3\n        /* \"#utility.yul\":14099:14108   */\n      add\n        /* \"#utility.yul\":14092:14108   */\n      swap1\n      pop\n        /* \"#utility.yul\":14127:14130   */\n      dup1\n        /* \"#utility.yul\":14124:14125   */\n      dup3\n        /* \"#utility.yul\":14121:14131   */\n      gt\n        /* \"#utility.yul\":14118:14154   */\n      iszero\n      tag_492\n      jumpi\n        /* \"#utility.yul\":14134:14152   */\n      tag_493\n      tag_363\n      jump\t// in\n    tag_493:\n        /* \"#utility.yul\":14118:14154   */\n    tag_492:\n        /* \"#utility.yul\":13970:14161   */\n      swap3\n      swap2\n      pop\n      pop\n      jump\t// out\n        /* \"#utility.yul\":14167:14343   */\n    tag_364:\n        /* \"#utility.yul\":14307:14335   */\n      0x546f6b656e205472616e7366657220696e20636f6f6c646f776e000000000000\n        /* \"#utility.yul\":14303:14304   */\n      0x00\n        /* \"#utility.yul\":14295:14301   */\n      dup3\n        /* \"#utility.yul\":14291:14305   */\n      add\n        /* \"#utility.yul\":14284:14336   */\n      mstore\n        /* \"#utility.yul\":14167:14343   */\n      pop\n      jump\t// out\n        /* \"#utility.yul\":14349:14715   */\n    tag_365:\n        /* \"#utility.yul\":14491:14494   */\n      0x00\n        /* \"#utility.yul\":14512:14579   */\n      tag_496\n        /* \"#utility.yul\":14576:14578   */\n      0x1a\n        /* \"#utility.yul\":14571:14574   */\n      dup4\n        /* \"#utility.yul\":14512:14579   */\n      tag_330\n      jump\t// in\n    tag_496:\n        /* \"#utility.yul\":14505:14579   */\n      swap2\n      pop\n        /* \"#utility.yul\":14588:14681   */\n      tag_497\n        /* \"#utility.yul\":14677:14680   */\n      dup3\n        /* \"#utility.yul\":14588:14681   */\n      tag_364\n      jump\t// in\n    tag_497:\n        /* \"#utility.yul\":14706:14708   */\n      0x20\n        /* \"#utility.yul\":14701:14704   */\n      dup3\n        /* \"#utility.yul\":14697:14709   */\n      add\n        /* \"#utility.yul\":14690:14709   */\n      swap1\n      pop\n        /* \"#utility.yul\":14349:14715   */\n      swap2\n      swap1\n      pop\n      jump\t// out\n        /* \"#utility.yul\":14721:15140   */\n    tag_308:\n        /* \"#utility.yul\":14887:14891   */\n      0x00\n        /* \"#utility.yul\":14925:14927   */\n      0x20\n        /* \"#utility.yul\":14914:14923   */\n      dup3\n        /* \"#utility.yul\":14910:14928   */\n      add\n        /* \"#utility.yul\":14902:14928   */\n      swap1\n      pop\n        /* \"#utility.yul\":14974:14983   */\n      dup2\n        /* \"#utility.yul\":14968:14972   */\n      dup2\n        /* \"#utility.yul\":14964:14984   */\n      sub\n        /* \"#utility.yul\":14960:14961   */\n      0x00\n        /* \"#utility.yul\":14949:14958   */\n      dup4\n        /* \"#utility.yul\":14945:14962   */\n      add\n        /* \"#utility.yul\":14938:14985   */\n      mstore\n        /* \"#utility.yul\":15002:15133   */\n      tag_499\n        /* \"#utility.yul\":15128:15132   */\n      dup2\n        /* \"#utility.yul\":15002:15133   */\n      tag_365\n      jump\t// in\n    tag_499:\n        /* \"#utility.yul\":14994:15133   */\n      swap1\n      pop\n        /* \"#utility.yul\":14721:15140   */\n      swap2\n      swap1\n      pop\n      jump\t// out\n        /* \"#utility.yul\":15146:15556   */\n    tag_312:\n        /* \"#utility.yul\":15186:15193   */\n      0x00\n        /* \"#utility.yul\":15209:15229   */\n      tag_501\n        /* \"#utility.yul\":15227:15228   */\n      dup3\n        /* \"#utility.yul\":15209:15229   */\n      tag_341\n      jump\t// in\n    tag_501:\n        /* \"#utility.yul\":15204:15229   */\n      swap2\n      pop\n        /* \"#utility.yul\":15243:15263   */\n      tag_502\n        /* \"#utility.yul\":15261:15262   */\n      dup4\n        /* \"#utility.yul\":15243:15263   */\n      tag_341\n      jump\t// in\n    tag_502:\n        /* \"#utility.yul\":15238:15263   */\n      swap3\n      pop\n        /* \"#utility.yul\":15298:15299   */\n      dup3\n        /* \"#utility.yul\":15295:15296   */\n      dup3\n        /* \"#utility.yul\":15291:15300   */\n      mul\n        /* \"#utility.yul\":15320:15350   */\n      tag_503\n        /* \"#utility.yul\":15338:15349   */\n      dup2\n        /* \"#utility.yul\":15320:15350   */\n      tag_341\n      jump\t// in\n    tag_503:\n        /* \"#utility.yul\":15309:15350   */\n      swap2\n      pop\n        /* \"#utility.yul\":15499:15500   */\n      dup3\n        /* \"#utility.yul\":15490:15497   */\n      dup3\n        /* \"#utility.yul\":15486:15501   */\n      div\n        /* \"#utility.yul\":15483:15484   */\n      dup5\n        /* \"#utility.yul\":15480:15502   */\n      eq\n        /* \"#utility.yul\":15460:15461   */\n      dup4\n        /* \"#utility.yul\":15453:15462   */\n      iszero\n        /* \"#utility.yul\":15433:15516   */\n      or\n        /* \"#utility.yul\":15410:15549   */\n      tag_504\n      jumpi\n        /* \"#utility.yul\":15529:15547   */\n      tag_505\n      tag_363\n      jump\t// in\n    tag_505:\n        /* \"#utility.yul\":15410:15549   */\n    tag_504:\n        /* \"#utility.yul\":15194:15556   */\n      pop\n        /* \"#utility.yul\":15146:15556   */\n      swap3\n      swap2\n      pop\n      pop\n      jump\t// out\n        /* \"#utility.yul\":15562:15742   */\n    tag_366:\n        /* \"#utility.yul\":15610:15687   */\n      0x4e487b7100000000000000000000000000000000000000000000000000000000\n        /* \"#utility.yul\":15607:15608   */\n      0x00\n        /* \"#utility.yul\":15600:15688   */\n      mstore\n        /* \"#utility.yul\":15707:15711   */\n      0x12\n        /* \"#utility.yul\":15704:15705   */\n      0x04\n        /* \"#utility.yul\":15697:15712   */\n      mstore\n        /* \"#utility.yul\":15731:15735   */\n      0x24\n        /* \"#utility.yul\":15728:15729   */\n      0x00\n        /* \"#utility.yul\":15721:15736   */\n      revert\n        /* \"#utility.yul\":15748:15933   */\n    tag_314:\n        /* \"#utility.yul\":15788:15789   */\n      0x00\n        /* \"#utility.yul\":15805:15825   */\n      tag_508\n        /* \"#utility.yul\":15823:15824   */\n      dup3\n        /* \"#utility.yul\":15805:15825   */\n      tag_341\n      jump\t// in\n    tag_508:\n        /* \"#utility.yul\":15800:15825   */\n      swap2\n      pop\n        /* \"#utility.yul\":15839:15859   */\n      tag_509\n        /* \"#utility.yul\":15857:15858   */\n      dup4\n        /* \"#utility.yul\":15839:15859   */\n      tag_341\n      jump\t// in\n    tag_509:\n        /* \"#utility.yul\":15834:15859   */\n      swap3\n      pop\n        /* \"#utility.yul\":15878:15879   */\n      dup3\n        /* \"#utility.yul\":15868:15903   */\n      tag_510\n      jumpi\n        /* \"#utility.yul\":15883:15901   */\n      tag_511\n      tag_366\n      jump\t// in\n    tag_511:\n        /* \"#utility.yul\":15868:15903   */\n    tag_510:\n        /* \"#utility.yul\":15925:15926   */\n      dup3\n        /* \"#utility.yul\":15922:15923   */\n      dup3\n        /* \"#utility.yul\":15918:15927   */\n      div\n        /* \"#utility.yul\":15913:15927   */\n      swap1\n      pop\n        /* \"#utility.yul\":15748:15933   */\n      swap3\n      swap2\n      pop\n      pop\n      jump\t// out\n        /* \"#utility.yul\":15939:16133   */\n    tag_316:\n        /* \"#utility.yul\":15979:15983   */\n      0x00\n        /* \"#utility.yul\":15999:16019   */\n      tag_513\n        /* \"#utility.yul\":16017:16018   */\n      dup3\n        /* \"#utility.yul\":15999:16019   */\n      tag_341\n      jump\t// in\n    tag_513:\n        /* \"#utility.yul\":15994:16019   */\n      swap2\n      pop\n        /* \"#utility.yul\":16033:16053   */\n      tag_514\n        /* \"#utility.yul\":16051:16052   */\n      dup4\n        /* \"#utility.yul\":16033:16053   */\n      tag_341\n      jump\t// in\n    tag_514:\n        /* \"#utility.yul\":16028:16053   */\n      swap3\n      pop\n        /* \"#utility.yul\":16077:16078   */\n      dup3\n        /* \"#utility.yul\":16074:16075   */\n      dup3\n        /* \"#utility.yul\":16070:16079   */\n      sub\n        /* \"#utility.yul\":16062:16079   */\n      swap1\n      pop\n        /* \"#utility.yul\":16101:16102   */\n      dup2\n        /* \"#utility.yul\":16095:16099   */\n      dup2\n        /* \"#utility.yul\":16092:16103   */\n      gt\n        /* \"#utility.yul\":16089:16126   */\n      iszero\n      tag_515\n      jumpi\n        /* \"#utility.yul\":16106:16124   */\n      tag_516\n      tag_363\n      jump\t// in\n    tag_516:\n        /* \"#utility.yul\":16089:16126   */\n    tag_515:\n        /* \"#utility.yul\":15939:16133   */\n      swap3\n      swap2\n      pop\n      pop\n      jump\t// out\n\n    auxdata: 0xa2646970667358221220c8eef9ad00a7b632390a46735f590f1c972c5b793843d324fb126788631b197364736f6c634300081a0033\n}\n",
				"bytecode": {
					"linkReferences": {},
					"object": "608060405261001261026360201b60201c565b600a61001e9190610ac0565b6305f5e10061002d9190610b0a565b600655600654600755603c60085560056009556002600a555f600e5f6101000a81548160ff0219169083151502179055505f600e60016101000a81548160ff021916908315150217905550348015610083575f80fd5b506040516132ff3803806132ff83398181016040528101906100a59190610ba9565b816040518060400160405280600981526020017f43686169546f6b656e00000000000000000000000000000000000000000000008152506040518060400160405280600481526020017f436861690000000000000000000000000000000000000000000000000000000081525081600390816101219190610e18565b5080600490816101319190610e18565b5050505f73ffffffffffffffffffffffffffffffffffffffff168173ffffffffffffffffffffffffffffffffffffffff16036101a4575f6040517f1e4fbdf700000000000000000000000000000000000000000000000000000000815260040161019b9190610ef6565b60405180910390fd5b6101b38161026b60201b60201c565b506101c68260065461032e60201b60201c565b6001600c5f8473ffffffffffffffffffffffffffffffffffffffff1673ffffffffffffffffffffffffffffffffffffffff1681526020019081526020015f205f6101000a81548160ff02191690831515021790555080600e60026101000a81548173ffffffffffffffffffffffffffffffffffffffff021916908373ffffffffffffffffffffffffffffffffffffffff1602179055505050611205565b5f6012905090565b5f60055f9054906101000a900473ffffffffffffffffffffffffffffffffffffffff1690508160055f6101000a81548173ffffffffffffffffffffffffffffffffffffffff021916908373ffffffffffffffffffffffffffffffffffffffff1602179055508173ffffffffffffffffffffffffffffffffffffffff168173ffffffffffffffffffffffffffffffffffffffff167f8be0079c531659141344cd1fd0a4f28419497f9722a3daafe3b4186f6b6457e060405160405180910390a35050565b5f73ffffffffffffffffffffffffffffffffffffffff168273ffffffffffffffffffffffffffffffffffffffff160361039e575f6040517fec442f050000000000000000000000000000000000000000000000000000000081526004016103959190610ef6565b60405180910390fd5b6103af5f83836103b360201b60201c565b5050565b600b5f8473ffffffffffffffffffffffffffffffffffffffff1673ffffffffffffffffffffffffffffffffffffffff1681526020019081526020015f205f9054906101000a900460ff161580156104515750600b5f8373ffffffffffffffffffffffffffffffffffffffff1673ffffffffffffffffffffffffffffffffffffffff1681526020019081526020015f205f9054906101000a900460ff16155b610490576040517f08c379a000000000000000000000000000000000000000000000000000000000815260040161048790610f69565b60405180910390fd5b600e5f9054906101000a900460ff161561058057600c5f8473ffffffffffffffffffffffffffffffffffffffff1673ffffffffffffffffffffffffffffffffffffffff1681526020019081526020015f205f9054906101000a900460ff1680156105405750600c5f8373ffffffffffffffffffffffffffffffffffffffff1673ffffffffffffffffffffffffffffffffffffffff1681526020019081526020015f205f9054906101000a900460ff165b61057f576040517f08c379a000000000000000000000000000000000000000000000000000000000815260040161057690610ff7565b60405180910390fd5b5b6007548111156105c5576040517f08c379a00000000000000000000000000000000000000000000000000000000081526004016105bc9061105f565b60405180910390fd5b600854600d5f8573ffffffffffffffffffffffffffffffffffffffff1673ffffffffffffffffffffffffffffffffffffffff1681526020019081526020015f2054610610919061107d565b421015610652576040517f08c379a0000000000000000000000000000000000000000000000000000000008152600401610649906110fa565b60405180910390fd5b5f819050600e60019054906101000a900460ff16156106dd575f600a5460095461067c919061107d565b90505f6064828561068d9190610b0a565b6106979190611145565b905080846106a59190611175565b92506106da86600e60029054906101000a900473ffffffffffffffffffffffffffffffffffffffff168361073660201b60201c565b50505b42600d5f8673ffffffffffffffffffffffffffffffffffffffff1673ffffffffffffffffffffffffffffffffffffffff1681526020019081526020015f208190555061073084848361073660201b60201c565b50505050565b5f73ffffffffffffffffffffffffffffffffffffffff168373ffffffffffffffffffffffffffffffffffffffff1603610786578060025f82825461077a919061107d565b92505081905550610854565b5f805f8573ffffffffffffffffffffffffffffffffffffffff1673ffffffffffffffffffffffffffffffffffffffff1681526020019081526020015f205490508181101561080f578381836040517fe450d38c000000000000000000000000000000000000000000000000000000008152600401610806939291906111b7565b60405180910390fd5b8181035f808673ffffffffffffffffffffffffffffffffffffffff1673ffffffffffffffffffffffffffffffffffffffff1681526020019081526020015f2081905550505b5f73ffffffffffffffffffffffffffffffffffffffff168273ffffffffffffffffffffffffffffffffffffffff160361089b578060025f82825403925050819055506108e5565b805f808473ffffffffffffffffffffffffffffffffffffffff1673ffffffffffffffffffffffffffffffffffffffff1681526020019081526020015f205f82825401925050819055505b8173ffffffffffffffffffffffffffffffffffffffff168373ffffffffffffffffffffffffffffffffffffffff167fddf252ad1be2c89b69c2b068fc378daa952ba7f163c4a11628f55a4df523b3ef8360405161094291906111ec565b60405180910390a3505050565b7f4e487b71000000000000000000000000000000000000000000000000000000005f52601160045260245ffd5b5f8160011c9050919050565b5f808291508390505b60018511156109d1578086048111156109ad576109ac61094f565b5b60018516156109bc5780820291505b80810290506109ca8561097c565b9450610991565b94509492505050565b5f826109e95760019050610aa4565b816109f6575f9050610aa4565b8160018114610a0c5760028114610a1657610a45565b6001915050610aa4565b60ff841115610a2857610a2761094f565b5b8360020a915084821115610a3f57610a3e61094f565b5b50610aa4565b5060208310610133831016604e8410600b8410161715610a7a5782820a905083811115610a7557610a7461094f565b5b610aa4565b610a878484846001610988565b92509050818404811115610a9e57610a9d61094f565b5b81810290505b9392505050565b5f819050919050565b5f60ff82169050919050565b5f610aca82610aab565b9150610ad583610ab4565b9250610b027fffffffffffffffffffffffffffffffffffffffffffffffffffffffffffffffff84846109da565b905092915050565b5f610b1482610aab565b9150610b1f83610aab565b9250828202610b2d81610aab565b91508282048414831517610b4457610b4361094f565b5b5092915050565b5f80fd5b5f73ffffffffffffffffffffffffffffffffffffffff82169050919050565b5f610b7882610b4f565b9050919050565b610b8881610b6e565b8114610b92575f80fd5b50565b5f81519050610ba381610b7f565b92915050565b5f8060408385031215610bbf57610bbe610b4b565b5b5f610bcc85828601610b95565b9250506020610bdd85828601610b95565b9150509250929050565b5f81519050919050565b7f4e487b71000000000000000000000000000000000000000000000000000000005f52604160045260245ffd5b7f4e487b71000000000000000000000000000000000000000000000000000000005f52602260045260245ffd5b5f6002820490506001821680610c6257607f821691505b602082108103610c7557610c74610c1e565b5b50919050565b5f819050815f5260205f209050919050565b5f6020601f8301049050919050565b5f82821b905092915050565b5f60088302610cd77fffffffffffffffffffffffffffffffffffffffffffffffffffffffffffffffff82610c9c565b610ce18683610c9c565b95508019841693508086168417925050509392505050565b5f819050919050565b5f610d1c610d17610d1284610aab565b610cf9565b610aab565b9050919050565b5f819050919050565b610d3583610d02565b610d49610d4182610d23565b848454610ca8565b825550505050565b5f90565b610d5d610d51565b610d68818484610d2c565b505050565b5b81811015610d8b57610d805f82610d55565b600181019050610d6e565b5050565b601f821115610dd057610da181610c7b565b610daa84610c8d565b81016020851015610db9578190505b610dcd610dc585610c8d565b830182610d6d565b50505b505050565b5f82821c905092915050565b5f610df05f1984600802610dd5565b1980831691505092915050565b5f610e088383610de1565b9150826002028217905092915050565b610e2182610be7565b67ffffffffffffffff811115610e3a57610e39610bf1565b5b610e448254610c4b565b610e4f828285610d8f565b5f60209050601f831160018114610e80575f8415610e6e578287015190505b610e788582610dfd565b865550610edf565b601f198416610e8e86610c7b565b5f5b82811015610eb557848901518255600182019150602085019450602081019050610e90565b86831015610ed25784890151610ece601f891682610de1565b8355505b6001600288020188555050505b505050505050565b610ef081610b6e565b82525050565b5f602082019050610f095f830184610ee7565b92915050565b5f82825260208201905092915050565b7f426c61636b6c69737465642041646472657373657300000000000000000000005f82015250565b5f610f53601583610f0f565b9150610f5e82610f1f565b602082019050919050565b5f6020820190508181035f830152610f8081610f47565b9050919050565b7f426f746820616464726573736573206d7573742062652077686974656c6973745f8201527f6564000000000000000000000000000000000000000000000000000000000000602082015250565b5f610fe1602283610f0f565b9150610fec82610f87565b604082019050919050565b5f6020820190508181035f83015261100e81610fd5565b9050919050565b7f546f6b656e205472616e73666572204c696d69742045786365656465640000005f82015250565b5f611049601d83610f0f565b915061105482611015565b602082019050919050565b5f6020820190508181035f8301526110768161103d565b9050919050565b5f61108782610aab565b915061109283610aab565b92508282019050808211156110aa576110a961094f565b5b92915050565b7f546f6b656e205472616e7366657220696e20636f6f6c646f776e0000000000005f82015250565b5f6110e4601a83610f0f565b91506110ef826110b0565b602082019050919050565b5f6020820190508181035f830152611111816110d8565b9050919050565b7f4e487b71000000000000000000000000000000000000000000000000000000005f52601260045260245ffd5b5f61114f82610aab565b915061115a83610aab565b92508261116a57611169611118565b5b828204905092915050565b5f61117f82610aab565b915061118a83610aab565b92508282039050818111156111a2576111a161094f565b5b92915050565b6111b181610aab565b82525050565b5f6060820190506111ca5f830186610ee7565b6111d760208301856111a8565b6111e460408301846111a8565b949350505050565b5f6020820190506111ff5f8301846111a8565b92915050565b6120ed806112125f395ff3fe608060405234801561000f575f80fd5b5060043610610204575f3560e01c806370a0823111610118578063b319c6b7116100ab578063dd62ed3e1161007a578063dd62ed3e1461055b578063e43252d71461058b578063ec28438a146105a7578063f2fde38b146105c3578063fe575a87146105df57610204565b8063b319c6b7146104f7578063b7bda68f14610515578063cc7a736d14610533578063ced695a41461055157610204565b80638da5cb5b116100e75780638da5cb5b1461046a57806395d89b41146104885780639dfc9117146104a6578063a9059cbb146104c757610204565b806370a08231146103f6578063715018a6146104265780638ab1d681146104305780638c0b5e221461044c57610204565b80633af32abf1161019b578063537df3b61161016a578063537df3b61461038c57806353eb3bcf146103a8578063688188e8146103b25780636d8b0527146103bc5780636e16de11146103da57610204565b80633af32abf1461030857806344337ea11461033857806349192418146103545780634ebc552d1461037057610204565b80631c0aecfa116101d75780631c0aecfa1461029257806323b872dd146102b05780632958ad7f146102e0578063313ce567146102ea57610204565b806306fdde0314610208578063095ea7b3146102265780630ddc09761461025657806318160ddd14610274575b5f80fd5b61021061060f565b60405161021d91906118dd565b60405180910390f35b610240600480360381019061023b919061198e565b61069f565b60405161024d91906119e6565b60405180910390f35b61025e6106c1565b60405161026b9190611a0e565b60405180910390f35b61027c6106c7565b6040516102899190611a0e565b60405180910390f35b61029a6106d0565b6040516102a791906119e6565b60405180910390f35b6102ca60048036038101906102c59190611a27565b6106e5565b6040516102d791906119e6565b60405180910390f35b6102e8610713565b005b6102f2610737565b6040516102ff9190611a92565b60405180910390f35b610322600480360381019061031d9190611aab565b61073f565b60405161032f91906119e6565b60405180910390f35b610352600480360381019061034d9190611aab565b610791565b005b61036e60048036038101906103699190611ad6565b610845565b005b61038a60048036038101906103859190611ad6565b61089b565b005b6103a660048036038101906103a19190611aab565b6108f1565b005b6103b0610950565b005b6103ba610975565b005b6103c4610998565b6040516103d19190611a0e565b60405180910390f35b6103f460048036038101906103ef9190611ad6565b6109a1565b005b610410600480360381019061040b9190611aab565b6109b3565b60405161041d9190611a0e565b60405180910390f35b61042e6109f8565b005b61044a60048036038101906104459190611aab565b610a0a565b005b610454610a69565b6040516104619190611a0e565b60405180910390f35b610472610a6f565b60405161047f9190611b10565b60405180910390f35b610490610a97565b60405161049d91906118dd565b60405180910390f35b6104ae610b27565b6040516104be9493929190611b29565b60405180910390f35b6104e160048036038101906104dc919061198e565b610b4a565b6040516104ee91906119e6565b60405180910390f35b6104ff610b6c565b60405161050c9190611a0e565b60405180910390f35b61051d610b72565b60405161052a9190611b10565b60405180910390f35b61053b610b98565b6040516105489190611a0e565b60405180910390f35b610559610b9e565b005b61057560048036038101906105709190611b6c565b610bc2565b6040516105829190611a0e565b60405180910390f35b6105a560048036038101906105a09190611aab565b610c44565b005b6105c160048036038101906105bc9190611ad6565b610d2e565b005b6105dd60048036038101906105d89190611aab565b610d40565b005b6105f960048036038101906105f49190611aab565b610dc4565b60405161060691906119e6565b60405180910390f35b60606003805461061e90611bd7565b80601f016020809104026020016040519081016040528092919081815260200182805461064a90611bd7565b80156106955780601f1061066c57610100808354040283529160200191610695565b820191905f5260205f20905b81548152906001019060200180831161067857829003601f168201915b5050505050905090565b5f806106a9610e16565b90506106b6818585610e1d565b600191505092915050565b60095481565b5f600254905090565b5f600e5f9054906101000a900460ff16905090565b5f806106ef610e16565b90506106fc858285610e2f565b610707858585610ec1565b60019150509392505050565b61071b610fb1565b6001600e5f6101000a81548160ff021916908315150217905550565b5f6012905090565b5f600c5f8373ffffffffffffffffffffffffffffffffffffffff1673ffffffffffffffffffffffffffffffffffffffff1681526020019081526020015f205f9054906101000a900460ff169050919050565b610799610fb1565b6001600b5f8373ffffffffffffffffffffffffffffffffffffffff1673ffffffffffffffffffffffffffffffffffffffff1681526020019081526020015f205f6101000a81548160ff0219169083151502179055505f600c5f8373ffffffffffffffffffffffffffffffffffffffff1673ffffffffffffffffffffffffffffffffffffffff1681526020019081526020015f205f6101000a81548160ff02191690831515021790555050565b61084d610fb1565b6005811115610891576040517f08c379a000000000000000000000000000000000000000000000000000000000815260040161088890611c77565b60405180910390fd5b80600a8190555050565b6108a3610fb1565b600a8111156108e7576040517f08c379a00000000000000000000000000000000000000000000000000000000081526004016108de90611cdf565b60405180910390fd5b8060098190555050565b6108f9610fb1565b5f600b5f8373ffffffffffffffffffffffffffffffffffffffff1673ffffffffffffffffffffffffffffffffffffffff1681526020019081526020015f205f6101000a81548160ff02191690831515021790555050565b610958610fb1565b6001600e60016101000a81548160ff021916908315150217905550565b61097d610fb1565b5f600e5f6101000a81548160ff021916908315150217905550565b5f600754905090565b6109a9610fb1565b8060088190555050565b5f805f8373ffffffffffffffffffffffffffffffffffffffff1673ffffffffffffffffffffffffffffffffffffffff1681526020019081526020015f20549050919050565b610a00610fb1565b610a08611038565b565b610a12610fb1565b5f600c5f8373ffffffffffffffffffffffffffffffffffffffff1673ffffffffffffffffffffffffffffffffffffffff1681526020019081526020015f205f6101000a81548160ff02191690831515021790555050565b60075481565b5f60055f9054906101000a900473ffffffffffffffffffffffffffffffffffffffff16905090565b606060048054610aa690611bd7565b80601f0160208091040260200160405190810160405280929190818152602001828054610ad290611bd7565b8015610b1d5780601f10610af457610100808354040283529160200191610b1d565b820191905f5260205f20905b815481529060010190602001808311610b0057829003601f168201915b5050505050905090565b5f805f80610b33610a6f565b600754600854600654935093509350935090919293565b5f80610b54610e16565b9050610b61818585610ec1565b600191505092915050565b60085481565b600e60029054906101000a900473ffffffffffffffffffffffffffffffffffffffff1681565b600a5481565b610ba6610fb1565b5f600e60016101000a81548160ff021916908315150217905550565b5f60015f8473ffffffffffffffffffffffffffffffffffffffff1673ffffffffffffffffffffffffffffffffffffffff1681526020019081526020015f205f8373ffffffffffffffffffffffffffffffffffffffff1673ffffffffffffffffffffffffffffffffffffffff1681526020019081526020015f2054905092915050565b610c4c610fb1565b600b5f8273ffffffffffffffffffffffffffffffffffffffff1673ffffffffffffffffffffffffffffffffffffffff1681526020019081526020015f205f9054906101000a900460ff1615610cd6576040517f08c379a0000000000000000000000000000000000000000000000000000000008152600401610ccd90611d6d565b60405180910390fd5b6001600c5f8373ffffffffffffffffffffffffffffffffffffffff1673ffffffffffffffffffffffffffffffffffffffff1681526020019081526020015f205f6101000a81548160ff02191690831515021790555050565b610d36610fb1565b8060078190555050565b610d48610fb1565b5f73ffffffffffffffffffffffffffffffffffffffff168173ffffffffffffffffffffffffffffffffffffffff1603610db8575f6040517f1e4fbdf7000000000000000000000000000000000000000000000000000000008152600401610daf9190611b10565b60405180910390fd5b610dc18161104b565b50565b5f600b5f8373ffffffffffffffffffffffffffffffffffffffff1673ffffffffffffffffffffffffffffffffffffffff1681526020019081526020015f205f9054906101000a900460ff169050919050565b5f33905090565b610e2a838383600161110e565b505050565b5f610e3a8484610bc2565b90507fffffffffffffffffffffffffffffffffffffffffffffffffffffffffffffffff8114610ebb5781811015610eac578281836040517ffb8f41b2000000000000000000000000000000000000000000000000000000008152600401610ea393929190611d8b565b60405180910390fd5b610eba84848484035f61110e565b5b50505050565b5f73ffffffffffffffffffffffffffffffffffffffff168373ffffffffffffffffffffffffffffffffffffffff1603610f31575f6040517f96c6fd1e000000000000000000000000000000000000000000000000000000008152600401610f289190611b10565b60405180910390fd5b5f73ffffffffffffffffffffffffffffffffffffffff168273ffffffffffffffffffffffffffffffffffffffff1603610fa1575f6040517fec442f05000000000000000000000000000000000000000000000000000000008152600401610f989190611b10565b60405180910390fd5b610fac8383836112dd565b505050565b610fb9610e16565b73ffffffffffffffffffffffffffffffffffffffff16610fd7610a6f565b73ffffffffffffffffffffffffffffffffffffffff161461103657610ffa610e16565b6040517f118cdaa700000000000000000000000000000000000000000000000000000000815260040161102d9190611b10565b60405180910390fd5b565b611040610fb1565b6110495f61104b565b565b5f60055f9054906101000a900473ffffffffffffffffffffffffffffffffffffffff1690508160055f6101000a81548173ffffffffffffffffffffffffffffffffffffffff021916908373ffffffffffffffffffffffffffffffffffffffff1602179055508173ffffffffffffffffffffffffffffffffffffffff168173ffffffffffffffffffffffffffffffffffffffff167f8be0079c531659141344cd1fd0a4f28419497f9722a3daafe3b4186f6b6457e060405160405180910390a35050565b5f73ffffffffffffffffffffffffffffffffffffffff168473ffffffffffffffffffffffffffffffffffffffff160361117e575f6040517fe602df050000000000000000000000000000000000000000000000000000000081526004016111759190611b10565b60405180910390fd5b5f73ffffffffffffffffffffffffffffffffffffffff168373ffffffffffffffffffffffffffffffffffffffff16036111ee575f6040517f94280d620000000000000000000000000000000000000000000000000000000081526004016111e59190611b10565b60405180910390fd5b8160015f8673ffffffffffffffffffffffffffffffffffffffff1673ffffffffffffffffffffffffffffffffffffffff1681526020019081526020015f205f8573ffffffffffffffffffffffffffffffffffffffff1673ffffffffffffffffffffffffffffffffffffffff1681526020019081526020015f208190555080156112d7578273ffffffffffffffffffffffffffffffffffffffff168473ffffffffffffffffffffffffffffffffffffffff167f8c5be1e5ebec7d5bd14f71427d1e84f3dd0314c0f7b2291e5b200ac8c7c3b925846040516112ce9190611a0e565b60405180910390a35b50505050565b600b5f8473ffffffffffffffffffffffffffffffffffffffff1673ffffffffffffffffffffffffffffffffffffffff1681526020019081526020015f205f9054906101000a900460ff1615801561137b5750600b5f8373ffffffffffffffffffffffffffffffffffffffff1673ffffffffffffffffffffffffffffffffffffffff1681526020019081526020015f205f9054906101000a900460ff16155b6113ba576040517f08c379a00000000000000000000000000000000000000000000000000000000081526004016113b190611e0a565b60405180910390fd5b600e5f9054906101000a900460ff16156114aa57600c5f8473ffffffffffffffffffffffffffffffffffffffff1673ffffffffffffffffffffffffffffffffffffffff1681526020019081526020015f205f9054906101000a900460ff16801561146a5750600c5f8373ffffffffffffffffffffffffffffffffffffffff1673ffffffffffffffffffffffffffffffffffffffff1681526020019081526020015f205f9054906101000a900460ff165b6114a9576040517f08c379a00000000000000000000000000000000000000000000000000000000081526004016114a090611e98565b60405180910390fd5b5b6007548111156114ef576040517f08c379a00000000000000000000000000000000000000000000000000000000081526004016114e690611f00565b60405180910390fd5b600854600d5f8573ffffffffffffffffffffffffffffffffffffffff1673ffffffffffffffffffffffffffffffffffffffff1681526020019081526020015f205461153a9190611f4b565b42101561157c576040517f08c379a000000000000000000000000000000000000000000000000000000000815260040161157390611fc8565b60405180910390fd5b5f819050600e60019054906101000a900460ff1615611601575f600a546009546115a69190611f4b565b90505f606482856115b79190611fe6565b6115c19190612054565b905080846115cf9190612084565b92506115fe86600e60029054906101000a900473ffffffffffffffffffffffffffffffffffffffff1683611654565b50505b42600d5f8673ffffffffffffffffffffffffffffffffffffffff1673ffffffffffffffffffffffffffffffffffffffff1681526020019081526020015f208190555061164e848483611654565b50505050565b5f73ffffffffffffffffffffffffffffffffffffffff168373ffffffffffffffffffffffffffffffffffffffff16036116a4578060025f8282546116989190611f4b565b92505081905550611772565b5f805f8573ffffffffffffffffffffffffffffffffffffffff1673ffffffffffffffffffffffffffffffffffffffff1681526020019081526020015f205490508181101561172d578381836040517fe450d38c00000000000000000000000000000000000000000000000000000000815260040161172493929190611d8b565b60405180910390fd5b8181035f808673ffffffffffffffffffffffffffffffffffffffff1673ffffffffffffffffffffffffffffffffffffffff1681526020019081526020015f2081905550505b5f73ffffffffffffffffffffffffffffffffffffffff168273ffffffffffffffffffffffffffffffffffffffff16036117b9578060025f8282540392505081905550611803565b805f808473ffffffffffffffffffffffffffffffffffffffff1673ffffffffffffffffffffffffffffffffffffffff1681526020019081526020015f205f82825401925050819055505b8173ffffffffffffffffffffffffffffffffffffffff168373ffffffffffffffffffffffffffffffffffffffff167fddf252ad1be2c89b69c2b068fc378daa952ba7f163c4a11628f55a4df523b3ef836040516118609190611a0e565b60405180910390a3505050565b5f81519050919050565b5f82825260208201905092915050565b8281835e5f83830152505050565b5f601f19601f8301169050919050565b5f6118af8261186d565b6118b98185611877565b93506118c9818560208601611887565b6118d281611895565b840191505092915050565b5f6020820190508181035f8301526118f581846118a5565b905092915050565b5f80fd5b5f73ffffffffffffffffffffffffffffffffffffffff82169050919050565b5f61192a82611901565b9050919050565b61193a81611920565b8114611944575f80fd5b50565b5f8135905061195581611931565b92915050565b5f819050919050565b61196d8161195b565b8114611977575f80fd5b50565b5f8135905061198881611964565b92915050565b5f80604083850312156119a4576119a36118fd565b5b5f6119b185828601611947565b92505060206119c28582860161197a565b9150509250929050565b5f8115159050919050565b6119e0816119cc565b82525050565b5f6020820190506119f95f8301846119d7565b92915050565b611a088161195b565b82525050565b5f602082019050611a215f8301846119ff565b92915050565b5f805f60608486031215611a3e57611a3d6118fd565b5b5f611a4b86828701611947565b9350506020611a5c86828701611947565b9250506040611a6d8682870161197a565b9150509250925092565b5f60ff82169050919050565b611a8c81611a77565b82525050565b5f602082019050611aa55f830184611a83565b92915050565b5f60208284031215611ac057611abf6118fd565b5b5f611acd84828501611947565b91505092915050565b5f60208284031215611aeb57611aea6118fd565b5b5f611af88482850161197a565b91505092915050565b611b0a81611920565b82525050565b5f602082019050611b235f830184611b01565b92915050565b5f608082019050611b3c5f830187611b01565b611b4960208301866119ff565b611b5660408301856119ff565b611b6360608301846119ff565b95945050505050565b5f8060408385031215611b8257611b816118fd565b5b5f611b8f85828601611947565b9250506020611ba085828601611947565b9150509250929050565b7f4e487b71000000000000000000000000000000000000000000000000000000005f52602260045260245ffd5b5f6002820490506001821680611bee57607f821691505b602082108103611c0157611c00611baa565b5b50919050565b7f536c6970706167652066656573206d757374206265206c657373207468616e205f8201527f3525000000000000000000000000000000000000000000000000000000000000602082015250565b5f611c61602283611877565b9150611c6c82611c07565b604082019050919050565b5f6020820190508181035f830152611c8e81611c55565b9050919050565b7f54617820666565206d757374206265206c657373207468616e203130250000005f82015250565b5f611cc9601d83611877565b9150611cd482611c95565b602082019050919050565b5f6020820190508181035f830152611cf681611cbd565b9050919050565b7f426c61636b6c697374656420616464726573732063616e6e6f742062652077685f8201527f6974656c69737465640000000000000000000000000000000000000000000000602082015250565b5f611d57602983611877565b9150611d6282611cfd565b604082019050919050565b5f6020820190508181035f830152611d8481611d4b565b9050919050565b5f606082019050611d9e5f830186611b01565b611dab60208301856119ff565b611db860408301846119ff565b949350505050565b7f426c61636b6c69737465642041646472657373657300000000000000000000005f82015250565b5f611df4601583611877565b9150611dff82611dc0565b602082019050919050565b5f6020820190508181035f830152611e2181611de8565b9050919050565b7f426f746820616464726573736573206d7573742062652077686974656c6973745f8201527f6564000000000000000000000000000000000000000000000000000000000000602082015250565b5f611e82602283611877565b9150611e8d82611e28565b604082019050919050565b5f6020820190508181035f830152611eaf81611e76565b9050919050565b7f546f6b656e205472616e73666572204c696d69742045786365656465640000005f82015250565b5f611eea601d83611877565b9150611ef582611eb6565b602082019050919050565b5f6020820190508181035f830152611f1781611ede565b9050919050565b7f4e487b71000000000000000000000000000000000000000000000000000000005f52601160045260245ffd5b5f611f558261195b565b9150611f608361195b565b9250828201905080821115611f7857611f77611f1e565b5b92915050565b7f546f6b656e205472616e7366657220696e20636f6f6c646f776e0000000000005f82015250565b5f611fb2601a83611877565b9150611fbd82611f7e565b602082019050919050565b5f6020820190508181035f830152611fdf81611fa6565b9050919050565b5f611ff08261195b565b9150611ffb8361195b565b92508282026120098161195b565b915082820484148315176120205761201f611f1e565b5b5092915050565b7f4e487b71000000000000000000000000000000000000000000000000000000005f52601260045260245ffd5b5f61205e8261195b565b91506120698361195b565b92508261207957612078612027565b5b828204905092915050565b5f61208e8261195b565b91506120998361195b565b92508282039050818111156120b1576120b0611f1e565b5b9291505056fea2646970667358221220c8eef9ad00a7b632390a46735f590f1c972c5b793843d324fb126788631b197364736f6c634300081a0033",
					"opcodes": "PUSH1 0x80 PUSH1 0x40 MSTORE PUSH2 0x12 PUSH2 0x263 PUSH1 0x20 SHL PUSH1 0x20 SHR JUMP JUMPDEST PUSH1 0xA PUSH2 0x1E SWAP2 SWAP1 PUSH2 0xAC0 JUMP JUMPDEST PUSH4 0x5F5E100 PUSH2 0x2D SWAP2 SWAP1 PUSH2 0xB0A JUMP JUMPDEST PUSH1 0x6 SSTORE PUSH1 0x6 SLOAD PUSH1 0x7 SSTORE PUSH1 0x3C PUSH1 0x8 SSTORE PUSH1 0x5 PUSH1 0x9 SSTORE PUSH1 0x2 PUSH1 0xA SSTORE PUSH0 PUSH1 0xE PUSH0 PUSH2 0x100 EXP DUP2 SLOAD DUP2 PUSH1 0xFF MUL NOT AND SWAP1 DUP4 ISZERO ISZERO MUL OR SWAP1 SSTORE POP PUSH0 PUSH1 0xE PUSH1 0x1 PUSH2 0x100 EXP DUP2 SLOAD DUP2 PUSH1 0xFF MUL NOT AND SWAP1 DUP4 ISZERO ISZERO MUL OR SWAP1 SSTORE POP CALLVALUE DUP1 ISZERO PUSH2 0x83 JUMPI PUSH0 DUP1 REVERT JUMPDEST POP PUSH1 0x40 MLOAD PUSH2 0x32FF CODESIZE SUB DUP1 PUSH2 0x32FF DUP4 CODECOPY DUP2 DUP2 ADD PUSH1 0x40 MSTORE DUP2 ADD SWAP1 PUSH2 0xA5 SWAP2 SWAP1 PUSH2 0xBA9 JUMP JUMPDEST DUP2 PUSH1 0x40 MLOAD DUP1 PUSH1 0x40 ADD PUSH1 0x40 MSTORE DUP1 PUSH1 0x9 DUP2 MSTORE PUSH1 0x20 ADD PUSH32 0x43686169546F6B656E0000000000000000000000000000000000000000000000 DUP2 MSTORE POP PUSH1 0x40 MLOAD DUP1 PUSH1 0x40 ADD PUSH1 0x40 MSTORE DUP1 PUSH1 0x4 DUP2 MSTORE PUSH1 0x20 ADD PUSH32 0x4368616900000000000000000000000000000000000000000000000000000000 DUP2 MSTORE POP DUP2 PUSH1 0x3 SWAP1 DUP2 PUSH2 0x121 SWAP2 SWAP1 PUSH2 0xE18 JUMP JUMPDEST POP DUP1 PUSH1 0x4 SWAP1 DUP2 PUSH2 0x131 SWAP2 SWAP1 PUSH2 0xE18 JUMP JUMPDEST POP POP POP PUSH0 PUSH20 0xFFFFFFFFFFFFFFFFFFFFFFFFFFFFFFFFFFFFFFFF AND DUP2 PUSH20 0xFFFFFFFFFFFFFFFFFFFFFFFFFFFFFFFFFFFFFFFF AND SUB PUSH2 0x1A4 JUMPI PUSH0 PUSH1 0x40 MLOAD PUSH32 0x1E4FBDF700000000000000000000000000000000000000000000000000000000 DUP2 MSTORE PUSH1 0x4 ADD PUSH2 0x19B SWAP2 SWAP1 PUSH2 0xEF6 JUMP JUMPDEST PUSH1 0x40 MLOAD DUP1 SWAP2 SUB SWAP1 REVERT JUMPDEST PUSH2 0x1B3 DUP2 PUSH2 0x26B PUSH1 0x20 SHL PUSH1 0x20 SHR JUMP JUMPDEST POP PUSH2 0x1C6 DUP3 PUSH1 0x6 SLOAD PUSH2 0x32E PUSH1 0x20 SHL PUSH1 0x20 SHR JUMP JUMPDEST PUSH1 0x1 PUSH1 0xC PUSH0 DUP5 PUSH20 0xFFFFFFFFFFFFFFFFFFFFFFFFFFFFFFFFFFFFFFFF AND PUSH20 0xFFFFFFFFFFFFFFFFFFFFFFFFFFFFFFFFFFFFFFFF AND DUP2 MSTORE PUSH1 0x20 ADD SWAP1 DUP2 MSTORE PUSH1 0x20 ADD PUSH0 KECCAK256 PUSH0 PUSH2 0x100 EXP DUP2 SLOAD DUP2 PUSH1 0xFF MUL NOT AND SWAP1 DUP4 ISZERO ISZERO MUL OR SWAP1 SSTORE POP DUP1 PUSH1 0xE PUSH1 0x2 PUSH2 0x100 EXP DUP2 SLOAD DUP2 PUSH20 0xFFFFFFFFFFFFFFFFFFFFFFFFFFFFFFFFFFFFFFFF MUL NOT AND SWAP1 DUP4 PUSH20 0xFFFFFFFFFFFFFFFFFFFFFFFFFFFFFFFFFFFFFFFF AND MUL OR SWAP1 SSTORE POP POP POP PUSH2 0x1205 JUMP JUMPDEST PUSH0 PUSH1 0x12 SWAP1 POP SWAP1 JUMP JUMPDEST PUSH0 PUSH1 0x5 PUSH0 SWAP1 SLOAD SWAP1 PUSH2 0x100 EXP SWAP1 DIV PUSH20 0xFFFFFFFFFFFFFFFFFFFFFFFFFFFFFFFFFFFFFFFF AND SWAP1 POP DUP2 PUSH1 0x5 PUSH0 PUSH2 0x100 EXP DUP2 SLOAD DUP2 PUSH20 0xFFFFFFFFFFFFFFFFFFFFFFFFFFFFFFFFFFFFFFFF MUL NOT AND SWAP1 DUP4 PUSH20 0xFFFFFFFFFFFFFFFFFFFFFFFFFFFFFFFFFFFFFFFF AND MUL OR SWAP1 SSTORE POP DUP2 PUSH20 0xFFFFFFFFFFFFFFFFFFFFFFFFFFFFFFFFFFFFFFFF AND DUP2 PUSH20 0xFFFFFFFFFFFFFFFFFFFFFFFFFFFFFFFFFFFFFFFF AND PUSH32 0x8BE0079C531659141344CD1FD0A4F28419497F9722A3DAAFE3B4186F6B6457E0 PUSH1 0x40 MLOAD PUSH1 0x40 MLOAD DUP1 SWAP2 SUB SWAP1 LOG3 POP POP JUMP JUMPDEST PUSH0 PUSH20 0xFFFFFFFFFFFFFFFFFFFFFFFFFFFFFFFFFFFFFFFF AND DUP3 PUSH20 0xFFFFFFFFFFFFFFFFFFFFFFFFFFFFFFFFFFFFFFFF AND SUB PUSH2 0x39E JUMPI PUSH0 PUSH1 0x40 MLOAD PUSH32 0xEC442F0500000000000000000000000000000000000000000000000000000000 DUP2 MSTORE PUSH1 0x4 ADD PUSH2 0x395 SWAP2 SWAP1 PUSH2 0xEF6 JUMP JUMPDEST PUSH1 0x40 MLOAD DUP1 SWAP2 SUB SWAP1 REVERT JUMPDEST PUSH2 0x3AF PUSH0 DUP4 DUP4 PUSH2 0x3B3 PUSH1 0x20 SHL PUSH1 0x20 SHR JUMP JUMPDEST POP POP JUMP JUMPDEST PUSH1 0xB PUSH0 DUP5 PUSH20 0xFFFFFFFFFFFFFFFFFFFFFFFFFFFFFFFFFFFFFFFF AND PUSH20 0xFFFFFFFFFFFFFFFFFFFFFFFFFFFFFFFFFFFFFFFF AND DUP2 MSTORE PUSH1 0x20 ADD SWAP1 DUP2 MSTORE PUSH1 0x20 ADD PUSH0 KECCAK256 PUSH0 SWAP1 SLOAD SWAP1 PUSH2 0x100 EXP SWAP1 DIV PUSH1 0xFF AND ISZERO DUP1 ISZERO PUSH2 0x451 JUMPI POP PUSH1 0xB PUSH0 DUP4 PUSH20 0xFFFFFFFFFFFFFFFFFFFFFFFFFFFFFFFFFFFFFFFF AND PUSH20 0xFFFFFFFFFFFFFFFFFFFFFFFFFFFFFFFFFFFFFFFF AND DUP2 MSTORE PUSH1 0x20 ADD SWAP1 DUP2 MSTORE PUSH1 0x20 ADD PUSH0 KECCAK256 PUSH0 SWAP1 SLOAD SWAP1 PUSH2 0x100 EXP SWAP1 DIV PUSH1 0xFF AND ISZERO JUMPDEST PUSH2 0x490 JUMPI PUSH1 0x40 MLOAD PUSH32 0x8C379A000000000000000000000000000000000000000000000000000000000 DUP2 MSTORE PUSH1 0x4 ADD PUSH2 0x487 SWAP1 PUSH2 0xF69 JUMP JUMPDEST PUSH1 0x40 MLOAD DUP1 SWAP2 SUB SWAP1 REVERT JUMPDEST PUSH1 0xE PUSH0 SWAP1 SLOAD SWAP1 PUSH2 0x100 EXP SWAP1 DIV PUSH1 0xFF AND ISZERO PUSH2 0x580 JUMPI PUSH1 0xC PUSH0 DUP5 PUSH20 0xFFFFFFFFFFFFFFFFFFFFFFFFFFFFFFFFFFFFFFFF AND PUSH20 0xFFFFFFFFFFFFFFFFFFFFFFFFFFFFFFFFFFFFFFFF AND DUP2 MSTORE PUSH1 0x20 ADD SWAP1 DUP2 MSTORE PUSH1 0x20 ADD PUSH0 KECCAK256 PUSH0 SWAP1 SLOAD SWAP1 PUSH2 0x100 EXP SWAP1 DIV PUSH1 0xFF AND DUP1 ISZERO PUSH2 0x540 JUMPI POP PUSH1 0xC PUSH0 DUP4 PUSH20 0xFFFFFFFFFFFFFFFFFFFFFFFFFFFFFFFFFFFFFFFF AND PUSH20 0xFFFFFFFFFFFFFFFFFFFFFFFFFFFFFFFFFFFFFFFF AND DUP2 MSTORE PUSH1 0x20 ADD SWAP1 DUP2 MSTORE PUSH1 0x20 ADD PUSH0 KECCAK256 PUSH0 SWAP1 SLOAD SWAP1 PUSH2 0x100 EXP SWAP1 DIV PUSH1 0xFF AND JUMPDEST PUSH2 0x57F JUMPI PUSH1 0x40 MLOAD PUSH32 0x8C379A000000000000000000000000000000000000000000000000000000000 DUP2 MSTORE PUSH1 0x4 ADD PUSH2 0x576 SWAP1 PUSH2 0xFF7 JUMP JUMPDEST PUSH1 0x40 MLOAD DUP1 SWAP2 SUB SWAP1 REVERT JUMPDEST JUMPDEST PUSH1 0x7 SLOAD DUP2 GT ISZERO PUSH2 0x5C5 JUMPI PUSH1 0x40 MLOAD PUSH32 0x8C379A000000000000000000000000000000000000000000000000000000000 DUP2 MSTORE PUSH1 0x4 ADD PUSH2 0x5BC SWAP1 PUSH2 0x105F JUMP JUMPDEST PUSH1 0x40 MLOAD DUP1 SWAP2 SUB SWAP1 REVERT JUMPDEST PUSH1 0x8 SLOAD PUSH1 0xD PUSH0 DUP6 PUSH20 0xFFFFFFFFFFFFFFFFFFFFFFFFFFFFFFFFFFFFFFFF AND PUSH20 0xFFFFFFFFFFFFFFFFFFFFFFFFFFFFFFFFFFFFFFFF AND DUP2 MSTORE PUSH1 0x20 ADD SWAP1 DUP2 MSTORE PUSH1 0x20 ADD PUSH0 KECCAK256 SLOAD PUSH2 0x610 SWAP2 SWAP1 PUSH2 0x107D JUMP JUMPDEST TIMESTAMP LT ISZERO PUSH2 0x652 JUMPI PUSH1 0x40 MLOAD PUSH32 0x8C379A000000000000000000000000000000000000000000000000000000000 DUP2 MSTORE PUSH1 0x4 ADD PUSH2 0x649 SWAP1 PUSH2 0x10FA JUMP JUMPDEST PUSH1 0x40 MLOAD DUP1 SWAP2 SUB SWAP1 REVERT JUMPDEST PUSH0 DUP2 SWAP1 POP PUSH1 0xE PUSH1 0x1 SWAP1 SLOAD SWAP1 PUSH2 0x100 EXP SWAP1 DIV PUSH1 0xFF AND ISZERO PUSH2 0x6DD JUMPI PUSH0 PUSH1 0xA SLOAD PUSH1 0x9 SLOAD PUSH2 0x67C SWAP2 SWAP1 PUSH2 0x107D JUMP JUMPDEST SWAP1 POP PUSH0 PUSH1 0x64 DUP3 DUP6 PUSH2 0x68D SWAP2 SWAP1 PUSH2 0xB0A JUMP JUMPDEST PUSH2 0x697 SWAP2 SWAP1 PUSH2 0x1145 JUMP JUMPDEST SWAP1 POP DUP1 DUP5 PUSH2 0x6A5 SWAP2 SWAP1 PUSH2 0x1175 JUMP JUMPDEST SWAP3 POP PUSH2 0x6DA DUP7 PUSH1 0xE PUSH1 0x2 SWAP1 SLOAD SWAP1 PUSH2 0x100 EXP SWAP1 DIV PUSH20 0xFFFFFFFFFFFFFFFFFFFFFFFFFFFFFFFFFFFFFFFF AND DUP4 PUSH2 0x736 PUSH1 0x20 SHL PUSH1 0x20 SHR JUMP JUMPDEST POP POP JUMPDEST TIMESTAMP PUSH1 0xD PUSH0 DUP7 PUSH20 0xFFFFFFFFFFFFFFFFFFFFFFFFFFFFFFFFFFFFFFFF AND PUSH20 0xFFFFFFFFFFFFFFFFFFFFFFFFFFFFFFFFFFFFFFFF AND DUP2 MSTORE PUSH1 0x20 ADD SWAP1 DUP2 MSTORE PUSH1 0x20 ADD PUSH0 KECCAK256 DUP2 SWAP1 SSTORE POP PUSH2 0x730 DUP5 DUP5 DUP4 PUSH2 0x736 PUSH1 0x20 SHL PUSH1 0x20 SHR JUMP JUMPDEST POP POP POP POP JUMP JUMPDEST PUSH0 PUSH20 0xFFFFFFFFFFFFFFFFFFFFFFFFFFFFFFFFFFFFFFFF AND DUP4 PUSH20 0xFFFFFFFFFFFFFFFFFFFFFFFFFFFFFFFFFFFFFFFF AND SUB PUSH2 0x786 JUMPI DUP1 PUSH1 0x2 PUSH0 DUP3 DUP3 SLOAD PUSH2 0x77A SWAP2 SWAP1 PUSH2 0x107D JUMP JUMPDEST SWAP3 POP POP DUP2 SWAP1 SSTORE POP PUSH2 0x854 JUMP JUMPDEST PUSH0 DUP1 PUSH0 DUP6 PUSH20 0xFFFFFFFFFFFFFFFFFFFFFFFFFFFFFFFFFFFFFFFF AND PUSH20 0xFFFFFFFFFFFFFFFFFFFFFFFFFFFFFFFFFFFFFFFF AND DUP2 MSTORE PUSH1 0x20 ADD SWAP1 DUP2 MSTORE PUSH1 0x20 ADD PUSH0 KECCAK256 SLOAD SWAP1 POP DUP2 DUP2 LT ISZERO PUSH2 0x80F JUMPI DUP4 DUP2 DUP4 PUSH1 0x40 MLOAD PUSH32 0xE450D38C00000000000000000000000000000000000000000000000000000000 DUP2 MSTORE PUSH1 0x4 ADD PUSH2 0x806 SWAP4 SWAP3 SWAP2 SWAP1 PUSH2 0x11B7 JUMP JUMPDEST PUSH1 0x40 MLOAD DUP1 SWAP2 SUB SWAP1 REVERT JUMPDEST DUP2 DUP2 SUB PUSH0 DUP1 DUP7 PUSH20 0xFFFFFFFFFFFFFFFFFFFFFFFFFFFFFFFFFFFFFFFF AND PUSH20 0xFFFFFFFFFFFFFFFFFFFFFFFFFFFFFFFFFFFFFFFF AND DUP2 MSTORE PUSH1 0x20 ADD SWAP1 DUP2 MSTORE PUSH1 0x20 ADD PUSH0 KECCAK256 DUP2 SWAP1 SSTORE POP POP JUMPDEST PUSH0 PUSH20 0xFFFFFFFFFFFFFFFFFFFFFFFFFFFFFFFFFFFFFFFF AND DUP3 PUSH20 0xFFFFFFFFFFFFFFFFFFFFFFFFFFFFFFFFFFFFFFFF AND SUB PUSH2 0x89B JUMPI DUP1 PUSH1 0x2 PUSH0 DUP3 DUP3 SLOAD SUB SWAP3 POP POP DUP2 SWAP1 SSTORE POP PUSH2 0x8E5 JUMP JUMPDEST DUP1 PUSH0 DUP1 DUP5 PUSH20 0xFFFFFFFFFFFFFFFFFFFFFFFFFFFFFFFFFFFFFFFF AND PUSH20 0xFFFFFFFFFFFFFFFFFFFFFFFFFFFFFFFFFFFFFFFF AND DUP2 MSTORE PUSH1 0x20 ADD SWAP1 DUP2 MSTORE PUSH1 0x20 ADD PUSH0 KECCAK256 PUSH0 DUP3 DUP3 SLOAD ADD SWAP3 POP POP DUP2 SWAP1 SSTORE POP JUMPDEST DUP2 PUSH20 0xFFFFFFFFFFFFFFFFFFFFFFFFFFFFFFFFFFFFFFFF AND DUP4 PUSH20 0xFFFFFFFFFFFFFFFFFFFFFFFFFFFFFFFFFFFFFFFF AND PUSH32 0xDDF252AD1BE2C89B69C2B068FC378DAA952BA7F163C4A11628F55A4DF523B3EF DUP4 PUSH1 0x40 MLOAD PUSH2 0x942 SWAP2 SWAP1 PUSH2 0x11EC JUMP JUMPDEST PUSH1 0x40 MLOAD DUP1 SWAP2 SUB SWAP1 LOG3 POP POP POP JUMP JUMPDEST PUSH32 0x4E487B7100000000000000000000000000000000000000000000000000000000 PUSH0 MSTORE PUSH1 0x11 PUSH1 0x4 MSTORE PUSH1 0x24 PUSH0 REVERT JUMPDEST PUSH0 DUP2 PUSH1 0x1 SHR SWAP1 POP SWAP2 SWAP1 POP JUMP JUMPDEST PUSH0 DUP1 DUP3 SWAP2 POP DUP4 SWAP1 POP JUMPDEST PUSH1 0x1 DUP6 GT ISZERO PUSH2 0x9D1 JUMPI DUP1 DUP7 DIV DUP2 GT ISZERO PUSH2 0x9AD JUMPI PUSH2 0x9AC PUSH2 0x94F JUMP JUMPDEST JUMPDEST PUSH1 0x1 DUP6 AND ISZERO PUSH2 0x9BC JUMPI DUP1 DUP3 MUL SWAP2 POP JUMPDEST DUP1 DUP2 MUL SWAP1 POP PUSH2 0x9CA DUP6 PUSH2 0x97C JUMP JUMPDEST SWAP5 POP PUSH2 0x991 JUMP JUMPDEST SWAP5 POP SWAP5 SWAP3 POP POP POP JUMP JUMPDEST PUSH0 DUP3 PUSH2 0x9E9 JUMPI PUSH1 0x1 SWAP1 POP PUSH2 0xAA4 JUMP JUMPDEST DUP2 PUSH2 0x9F6 JUMPI PUSH0 SWAP1 POP PUSH2 0xAA4 JUMP JUMPDEST DUP2 PUSH1 0x1 DUP2 EQ PUSH2 0xA0C JUMPI PUSH1 0x2 DUP2 EQ PUSH2 0xA16 JUMPI PUSH2 0xA45 JUMP JUMPDEST PUSH1 0x1 SWAP2 POP POP PUSH2 0xAA4 JUMP JUMPDEST PUSH1 0xFF DUP5 GT ISZERO PUSH2 0xA28 JUMPI PUSH2 0xA27 PUSH2 0x94F JUMP JUMPDEST JUMPDEST DUP4 PUSH1 0x2 EXP SWAP2 POP DUP5 DUP3 GT ISZERO PUSH2 0xA3F JUMPI PUSH2 0xA3E PUSH2 0x94F JUMP JUMPDEST JUMPDEST POP PUSH2 0xAA4 JUMP JUMPDEST POP PUSH1 0x20 DUP4 LT PUSH2 0x133 DUP4 LT AND PUSH1 0x4E DUP5 LT PUSH1 0xB DUP5 LT AND OR ISZERO PUSH2 0xA7A JUMPI DUP3 DUP3 EXP SWAP1 POP DUP4 DUP2 GT ISZERO PUSH2 0xA75 JUMPI PUSH2 0xA74 PUSH2 0x94F JUMP JUMPDEST JUMPDEST PUSH2 0xAA4 JUMP JUMPDEST PUSH2 0xA87 DUP5 DUP5 DUP5 PUSH1 0x1 PUSH2 0x988 JUMP JUMPDEST SWAP3 POP SWAP1 POP DUP2 DUP5 DIV DUP2 GT ISZERO PUSH2 0xA9E JUMPI PUSH2 0xA9D PUSH2 0x94F JUMP JUMPDEST JUMPDEST DUP2 DUP2 MUL SWAP1 POP JUMPDEST SWAP4 SWAP3 POP POP POP JUMP JUMPDEST PUSH0 DUP2 SWAP1 POP SWAP2 SWAP1 POP JUMP JUMPDEST PUSH0 PUSH1 0xFF DUP3 AND SWAP1 POP SWAP2 SWAP1 POP JUMP JUMPDEST PUSH0 PUSH2 0xACA DUP3 PUSH2 0xAAB JUMP JUMPDEST SWAP2 POP PUSH2 0xAD5 DUP4 PUSH2 0xAB4 JUMP JUMPDEST SWAP3 POP PUSH2 0xB02 PUSH32 0xFFFFFFFFFFFFFFFFFFFFFFFFFFFFFFFFFFFFFFFFFFFFFFFFFFFFFFFFFFFFFFFF DUP5 DUP5 PUSH2 0x9DA JUMP JUMPDEST SWAP1 POP SWAP3 SWAP2 POP POP JUMP JUMPDEST PUSH0 PUSH2 0xB14 DUP3 PUSH2 0xAAB JUMP JUMPDEST SWAP2 POP PUSH2 0xB1F DUP4 PUSH2 0xAAB JUMP JUMPDEST SWAP3 POP DUP3 DUP3 MUL PUSH2 0xB2D DUP2 PUSH2 0xAAB JUMP JUMPDEST SWAP2 POP DUP3 DUP3 DIV DUP5 EQ DUP4 ISZERO OR PUSH2 0xB44 JUMPI PUSH2 0xB43 PUSH2 0x94F JUMP JUMPDEST JUMPDEST POP SWAP3 SWAP2 POP POP JUMP JUMPDEST PUSH0 DUP1 REVERT JUMPDEST PUSH0 PUSH20 0xFFFFFFFFFFFFFFFFFFFFFFFFFFFFFFFFFFFFFFFF DUP3 AND SWAP1 POP SWAP2 SWAP1 POP JUMP JUMPDEST PUSH0 PUSH2 0xB78 DUP3 PUSH2 0xB4F JUMP JUMPDEST SWAP1 POP SWAP2 SWAP1 POP JUMP JUMPDEST PUSH2 0xB88 DUP2 PUSH2 0xB6E JUMP JUMPDEST DUP2 EQ PUSH2 0xB92 JUMPI PUSH0 DUP1 REVERT JUMPDEST POP JUMP JUMPDEST PUSH0 DUP2 MLOAD SWAP1 POP PUSH2 0xBA3 DUP2 PUSH2 0xB7F JUMP JUMPDEST SWAP3 SWAP2 POP POP JUMP JUMPDEST PUSH0 DUP1 PUSH1 0x40 DUP4 DUP6 SUB SLT ISZERO PUSH2 0xBBF JUMPI PUSH2 0xBBE PUSH2 0xB4B JUMP JUMPDEST JUMPDEST PUSH0 PUSH2 0xBCC DUP6 DUP3 DUP7 ADD PUSH2 0xB95 JUMP JUMPDEST SWAP3 POP POP PUSH1 0x20 PUSH2 0xBDD DUP6 DUP3 DUP7 ADD PUSH2 0xB95 JUMP JUMPDEST SWAP2 POP POP SWAP3 POP SWAP3 SWAP1 POP JUMP JUMPDEST PUSH0 DUP2 MLOAD SWAP1 POP SWAP2 SWAP1 POP JUMP JUMPDEST PUSH32 0x4E487B7100000000000000000000000000000000000000000000000000000000 PUSH0 MSTORE PUSH1 0x41 PUSH1 0x4 MSTORE PUSH1 0x24 PUSH0 REVERT JUMPDEST PUSH32 0x4E487B7100000000000000000000000000000000000000000000000000000000 PUSH0 MSTORE PUSH1 0x22 PUSH1 0x4 MSTORE PUSH1 0x24 PUSH0 REVERT JUMPDEST PUSH0 PUSH1 0x2 DUP3 DIV SWAP1 POP PUSH1 0x1 DUP3 AND DUP1 PUSH2 0xC62 JUMPI PUSH1 0x7F DUP3 AND SWAP2 POP JUMPDEST PUSH1 0x20 DUP3 LT DUP2 SUB PUSH2 0xC75 JUMPI PUSH2 0xC74 PUSH2 0xC1E JUMP JUMPDEST JUMPDEST POP SWAP2 SWAP1 POP JUMP JUMPDEST PUSH0 DUP2 SWAP1 POP DUP2 PUSH0 MSTORE PUSH1 0x20 PUSH0 KECCAK256 SWAP1 POP SWAP2 SWAP1 POP JUMP JUMPDEST PUSH0 PUSH1 0x20 PUSH1 0x1F DUP4 ADD DIV SWAP1 POP SWAP2 SWAP1 POP JUMP JUMPDEST PUSH0 DUP3 DUP3 SHL SWAP1 POP SWAP3 SWAP2 POP POP JUMP JUMPDEST PUSH0 PUSH1 0x8 DUP4 MUL PUSH2 0xCD7 PUSH32 0xFFFFFFFFFFFFFFFFFFFFFFFFFFFFFFFFFFFFFFFFFFFFFFFFFFFFFFFFFFFFFFFF DUP3 PUSH2 0xC9C JUMP JUMPDEST PUSH2 0xCE1 DUP7 DUP4 PUSH2 0xC9C JUMP JUMPDEST SWAP6 POP DUP1 NOT DUP5 AND SWAP4 POP DUP1 DUP7 AND DUP5 OR SWAP3 POP POP POP SWAP4 SWAP3 POP POP POP JUMP JUMPDEST PUSH0 DUP2 SWAP1 POP SWAP2 SWAP1 POP JUMP JUMPDEST PUSH0 PUSH2 0xD1C PUSH2 0xD17 PUSH2 0xD12 DUP5 PUSH2 0xAAB JUMP JUMPDEST PUSH2 0xCF9 JUMP JUMPDEST PUSH2 0xAAB JUMP JUMPDEST SWAP1 POP SWAP2 SWAP1 POP JUMP JUMPDEST PUSH0 DUP2 SWAP1 POP SWAP2 SWAP1 POP JUMP JUMPDEST PUSH2 0xD35 DUP4 PUSH2 0xD02 JUMP JUMPDEST PUSH2 0xD49 PUSH2 0xD41 DUP3 PUSH2 0xD23 JUMP JUMPDEST DUP5 DUP5 SLOAD PUSH2 0xCA8 JUMP JUMPDEST DUP3 SSTORE POP POP POP POP JUMP JUMPDEST PUSH0 SWAP1 JUMP JUMPDEST PUSH2 0xD5D PUSH2 0xD51 JUMP JUMPDEST PUSH2 0xD68 DUP2 DUP5 DUP5 PUSH2 0xD2C JUMP JUMPDEST POP POP POP JUMP JUMPDEST JUMPDEST DUP2 DUP2 LT ISZERO PUSH2 0xD8B JUMPI PUSH2 0xD80 PUSH0 DUP3 PUSH2 0xD55 JUMP JUMPDEST PUSH1 0x1 DUP2 ADD SWAP1 POP PUSH2 0xD6E JUMP JUMPDEST POP POP JUMP JUMPDEST PUSH1 0x1F DUP3 GT ISZERO PUSH2 0xDD0 JUMPI PUSH2 0xDA1 DUP2 PUSH2 0xC7B JUMP JUMPDEST PUSH2 0xDAA DUP5 PUSH2 0xC8D JUMP JUMPDEST DUP2 ADD PUSH1 0x20 DUP6 LT ISZERO PUSH2 0xDB9 JUMPI DUP2 SWAP1 POP JUMPDEST PUSH2 0xDCD PUSH2 0xDC5 DUP6 PUSH2 0xC8D JUMP JUMPDEST DUP4 ADD DUP3 PUSH2 0xD6D JUMP JUMPDEST POP POP JUMPDEST POP POP POP JUMP JUMPDEST PUSH0 DUP3 DUP3 SHR SWAP1 POP SWAP3 SWAP2 POP POP JUMP JUMPDEST PUSH0 PUSH2 0xDF0 PUSH0 NOT DUP5 PUSH1 0x8 MUL PUSH2 0xDD5 JUMP JUMPDEST NOT DUP1 DUP4 AND SWAP2 POP POP SWAP3 SWAP2 POP POP JUMP JUMPDEST PUSH0 PUSH2 0xE08 DUP4 DUP4 PUSH2 0xDE1 JUMP JUMPDEST SWAP2 POP DUP3 PUSH1 0x2 MUL DUP3 OR SWAP1 POP SWAP3 SWAP2 POP POP JUMP JUMPDEST PUSH2 0xE21 DUP3 PUSH2 0xBE7 JUMP JUMPDEST PUSH8 0xFFFFFFFFFFFFFFFF DUP2 GT ISZERO PUSH2 0xE3A JUMPI PUSH2 0xE39 PUSH2 0xBF1 JUMP JUMPDEST JUMPDEST PUSH2 0xE44 DUP3 SLOAD PUSH2 0xC4B JUMP JUMPDEST PUSH2 0xE4F DUP3 DUP3 DUP6 PUSH2 0xD8F JUMP JUMPDEST PUSH0 PUSH1 0x20 SWAP1 POP PUSH1 0x1F DUP4 GT PUSH1 0x1 DUP2 EQ PUSH2 0xE80 JUMPI PUSH0 DUP5 ISZERO PUSH2 0xE6E JUMPI DUP3 DUP8 ADD MLOAD SWAP1 POP JUMPDEST PUSH2 0xE78 DUP6 DUP3 PUSH2 0xDFD JUMP JUMPDEST DUP7 SSTORE POP PUSH2 0xEDF JUMP JUMPDEST PUSH1 0x1F NOT DUP5 AND PUSH2 0xE8E DUP7 PUSH2 0xC7B JUMP JUMPDEST PUSH0 JUMPDEST DUP3 DUP2 LT ISZERO PUSH2 0xEB5 JUMPI DUP5 DUP10 ADD MLOAD DUP3 SSTORE PUSH1 0x1 DUP3 ADD SWAP2 POP PUSH1 0x20 DUP6 ADD SWAP5 POP PUSH1 0x20 DUP2 ADD SWAP1 POP PUSH2 0xE90 JUMP JUMPDEST DUP7 DUP4 LT ISZERO PUSH2 0xED2 JUMPI DUP5 DUP10 ADD MLOAD PUSH2 0xECE PUSH1 0x1F DUP10 AND DUP3 PUSH2 0xDE1 JUMP JUMPDEST DUP4 SSTORE POP JUMPDEST PUSH1 0x1 PUSH1 0x2 DUP9 MUL ADD DUP9 SSTORE POP POP POP JUMPDEST POP POP POP POP POP POP JUMP JUMPDEST PUSH2 0xEF0 DUP2 PUSH2 0xB6E JUMP JUMPDEST DUP3 MSTORE POP POP JUMP JUMPDEST PUSH0 PUSH1 0x20 DUP3 ADD SWAP1 POP PUSH2 0xF09 PUSH0 DUP4 ADD DUP5 PUSH2 0xEE7 JUMP JUMPDEST SWAP3 SWAP2 POP POP JUMP JUMPDEST PUSH0 DUP3 DUP3 MSTORE PUSH1 0x20 DUP3 ADD SWAP1 POP SWAP3 SWAP2 POP POP JUMP JUMPDEST PUSH32 0x426C61636B6C6973746564204164647265737365730000000000000000000000 PUSH0 DUP3 ADD MSTORE POP JUMP JUMPDEST PUSH0 PUSH2 0xF53 PUSH1 0x15 DUP4 PUSH2 0xF0F JUMP JUMPDEST SWAP2 POP PUSH2 0xF5E DUP3 PUSH2 0xF1F JUMP JUMPDEST PUSH1 0x20 DUP3 ADD SWAP1 POP SWAP2 SWAP1 POP JUMP JUMPDEST PUSH0 PUSH1 0x20 DUP3 ADD SWAP1 POP DUP2 DUP2 SUB PUSH0 DUP4 ADD MSTORE PUSH2 0xF80 DUP2 PUSH2 0xF47 JUMP JUMPDEST SWAP1 POP SWAP2 SWAP1 POP JUMP JUMPDEST PUSH32 0x426F746820616464726573736573206D7573742062652077686974656C697374 PUSH0 DUP3 ADD MSTORE PUSH32 0x6564000000000000000000000000000000000000000000000000000000000000 PUSH1 0x20 DUP3 ADD MSTORE POP JUMP JUMPDEST PUSH0 PUSH2 0xFE1 PUSH1 0x22 DUP4 PUSH2 0xF0F JUMP JUMPDEST SWAP2 POP PUSH2 0xFEC DUP3 PUSH2 0xF87 JUMP JUMPDEST PUSH1 0x40 DUP3 ADD SWAP1 POP SWAP2 SWAP1 POP JUMP JUMPDEST PUSH0 PUSH1 0x20 DUP3 ADD SWAP1 POP DUP2 DUP2 SUB PUSH0 DUP4 ADD MSTORE PUSH2 0x100E DUP2 PUSH2 0xFD5 JUMP JUMPDEST SWAP1 POP SWAP2 SWAP1 POP JUMP JUMPDEST PUSH32 0x546F6B656E205472616E73666572204C696D6974204578636565646564000000 PUSH0 DUP3 ADD MSTORE POP JUMP JUMPDEST PUSH0 PUSH2 0x1049 PUSH1 0x1D DUP4 PUSH2 0xF0F JUMP JUMPDEST SWAP2 POP PUSH2 0x1054 DUP3 PUSH2 0x1015 JUMP JUMPDEST PUSH1 0x20 DUP3 ADD SWAP1 POP SWAP2 SWAP1 POP JUMP JUMPDEST PUSH0 PUSH1 0x20 DUP3 ADD SWAP1 POP DUP2 DUP2 SUB PUSH0 DUP4 ADD MSTORE PUSH2 0x1076 DUP2 PUSH2 0x103D JUMP JUMPDEST SWAP1 POP SWAP2 SWAP1 POP JUMP JUMPDEST PUSH0 PUSH2 0x1087 DUP3 PUSH2 0xAAB JUMP JUMPDEST SWAP2 POP PUSH2 0x1092 DUP4 PUSH2 0xAAB JUMP JUMPDEST SWAP3 POP DUP3 DUP3 ADD SWAP1 POP DUP1 DUP3 GT ISZERO PUSH2 0x10AA JUMPI PUSH2 0x10A9 PUSH2 0x94F JUMP JUMPDEST JUMPDEST SWAP3 SWAP2 POP POP JUMP JUMPDEST PUSH32 0x546F6B656E205472616E7366657220696E20636F6F6C646F776E000000000000 PUSH0 DUP3 ADD MSTORE POP JUMP JUMPDEST PUSH0 PUSH2 0x10E4 PUSH1 0x1A DUP4 PUSH2 0xF0F JUMP JUMPDEST SWAP2 POP PUSH2 0x10EF DUP3 PUSH2 0x10B0 JUMP JUMPDEST PUSH1 0x20 DUP3 ADD SWAP1 POP SWAP2 SWAP1 POP JUMP JUMPDEST PUSH0 PUSH1 0x20 DUP3 ADD SWAP1 POP DUP2 DUP2 SUB PUSH0 DUP4 ADD MSTORE PUSH2 0x1111 DUP2 PUSH2 0x10D8 JUMP JUMPDEST SWAP1 POP SWAP2 SWAP1 POP JUMP JUMPDEST PUSH32 0x4E487B7100000000000000000000000000000000000000000000000000000000 PUSH0 MSTORE PUSH1 0x12 PUSH1 0x4 MSTORE PUSH1 0x24 PUSH0 REVERT JUMPDEST PUSH0 PUSH2 0x114F DUP3 PUSH2 0xAAB JUMP JUMPDEST SWAP2 POP PUSH2 0x115A DUP4 PUSH2 0xAAB JUMP JUMPDEST SWAP3 POP DUP3 PUSH2 0x116A JUMPI PUSH2 0x1169 PUSH2 0x1118 JUMP JUMPDEST JUMPDEST DUP3 DUP3 DIV SWAP1 POP SWAP3 SWAP2 POP POP JUMP JUMPDEST PUSH0 PUSH2 0x117F DUP3 PUSH2 0xAAB JUMP JUMPDEST SWAP2 POP PUSH2 0x118A DUP4 PUSH2 0xAAB JUMP JUMPDEST SWAP3 POP DUP3 DUP3 SUB SWAP1 POP DUP2 DUP2 GT ISZERO PUSH2 0x11A2 JUMPI PUSH2 0x11A1 PUSH2 0x94F JUMP JUMPDEST JUMPDEST SWAP3 SWAP2 POP POP JUMP JUMPDEST PUSH2 0x11B1 DUP2 PUSH2 0xAAB JUMP JUMPDEST DUP3 MSTORE POP POP JUMP JUMPDEST PUSH0 PUSH1 0x60 DUP3 ADD SWAP1 POP PUSH2 0x11CA PUSH0 DUP4 ADD DUP7 PUSH2 0xEE7 JUMP JUMPDEST PUSH2 0x11D7 PUSH1 0x20 DUP4 ADD DUP6 PUSH2 0x11A8 JUMP JUMPDEST PUSH2 0x11E4 PUSH1 0x40 DUP4 ADD DUP5 PUSH2 0x11A8 JUMP JUMPDEST SWAP5 SWAP4 POP POP POP POP JUMP JUMPDEST PUSH0 PUSH1 0x20 DUP3 ADD SWAP1 POP PUSH2 0x11FF PUSH0 DUP4 ADD DUP5 PUSH2 0x11A8 JUMP JUMPDEST SWAP3 SWAP2 POP POP JUMP JUMPDEST PUSH2 0x20ED DUP1 PUSH2 0x1212 PUSH0 CODECOPY PUSH0 RETURN INVALID PUSH1 0x80 PUSH1 0x40 MSTORE CALLVALUE DUP1 ISZERO PUSH2 0xF JUMPI PUSH0 DUP1 REVERT JUMPDEST POP PUSH1 0x4 CALLDATASIZE LT PUSH2 0x204 JUMPI PUSH0 CALLDATALOAD PUSH1 0xE0 SHR DUP1 PUSH4 0x70A08231 GT PUSH2 0x118 JUMPI DUP1 PUSH4 0xB319C6B7 GT PUSH2 0xAB JUMPI DUP1 PUSH4 0xDD62ED3E GT PUSH2 0x7A JUMPI DUP1 PUSH4 0xDD62ED3E EQ PUSH2 0x55B JUMPI DUP1 PUSH4 0xE43252D7 EQ PUSH2 0x58B JUMPI DUP1 PUSH4 0xEC28438A EQ PUSH2 0x5A7 JUMPI DUP1 PUSH4 0xF2FDE38B EQ PUSH2 0x5C3 JUMPI DUP1 PUSH4 0xFE575A87 EQ PUSH2 0x5DF JUMPI PUSH2 0x204 JUMP JUMPDEST DUP1 PUSH4 0xB319C6B7 EQ PUSH2 0x4F7 JUMPI DUP1 PUSH4 0xB7BDA68F EQ PUSH2 0x515 JUMPI DUP1 PUSH4 0xCC7A736D EQ PUSH2 0x533 JUMPI DUP1 PUSH4 0xCED695A4 EQ PUSH2 0x551 JUMPI PUSH2 0x204 JUMP JUMPDEST DUP1 PUSH4 0x8DA5CB5B GT PUSH2 0xE7 JUMPI DUP1 PUSH4 0x8DA5CB5B EQ PUSH2 0x46A JUMPI DUP1 PUSH4 0x95D89B41 EQ PUSH2 0x488 JUMPI DUP1 PUSH4 0x9DFC9117 EQ PUSH2 0x4A6 JUMPI DUP1 PUSH4 0xA9059CBB EQ PUSH2 0x4C7 JUMPI PUSH2 0x204 JUMP JUMPDEST DUP1 PUSH4 0x70A08231 EQ PUSH2 0x3F6 JUMPI DUP1 PUSH4 0x715018A6 EQ PUSH2 0x426 JUMPI DUP1 PUSH4 0x8AB1D681 EQ PUSH2 0x430 JUMPI DUP1 PUSH4 0x8C0B5E22 EQ PUSH2 0x44C JUMPI PUSH2 0x204 JUMP JUMPDEST DUP1 PUSH4 0x3AF32ABF GT PUSH2 0x19B JUMPI DUP1 PUSH4 0x537DF3B6 GT PUSH2 0x16A JUMPI DUP1 PUSH4 0x537DF3B6 EQ PUSH2 0x38C JUMPI DUP1 PUSH4 0x53EB3BCF EQ PUSH2 0x3A8 JUMPI DUP1 PUSH4 0x688188E8 EQ PUSH2 0x3B2 JUMPI DUP1 PUSH4 0x6D8B0527 EQ PUSH2 0x3BC JUMPI DUP1 PUSH4 0x6E16DE11 EQ PUSH2 0x3DA JUMPI PUSH2 0x204 JUMP JUMPDEST DUP1 PUSH4 0x3AF32ABF EQ PUSH2 0x308 JUMPI DUP1 PUSH4 0x44337EA1 EQ PUSH2 0x338 JUMPI DUP1 PUSH4 0x49192418 EQ PUSH2 0x354 JUMPI DUP1 PUSH4 0x4EBC552D EQ PUSH2 0x370 JUMPI PUSH2 0x204 JUMP JUMPDEST DUP1 PUSH4 0x1C0AECFA GT PUSH2 0x1D7 JUMPI DUP1 PUSH4 0x1C0AECFA EQ PUSH2 0x292 JUMPI DUP1 PUSH4 0x23B872DD EQ PUSH2 0x2B0 JUMPI DUP1 PUSH4 0x2958AD7F EQ PUSH2 0x2E0 JUMPI DUP1 PUSH4 0x313CE567 EQ PUSH2 0x2EA JUMPI PUSH2 0x204 JUMP JUMPDEST DUP1 PUSH4 0x6FDDE03 EQ PUSH2 0x208 JUMPI DUP1 PUSH4 0x95EA7B3 EQ PUSH2 0x226 JUMPI DUP1 PUSH4 0xDDC0976 EQ PUSH2 0x256 JUMPI DUP1 PUSH4 0x18160DDD EQ PUSH2 0x274 JUMPI JUMPDEST PUSH0 DUP1 REVERT JUMPDEST PUSH2 0x210 PUSH2 0x60F JUMP JUMPDEST PUSH1 0x40 MLOAD PUSH2 0x21D SWAP2 SWAP1 PUSH2 0x18DD JUMP JUMPDEST PUSH1 0x40 MLOAD DUP1 SWAP2 SUB SWAP1 RETURN JUMPDEST PUSH2 0x240 PUSH1 0x4 DUP1 CALLDATASIZE SUB DUP2 ADD SWAP1 PUSH2 0x23B SWAP2 SWAP1 PUSH2 0x198E JUMP JUMPDEST PUSH2 0x69F JUMP JUMPDEST PUSH1 0x40 MLOAD PUSH2 0x24D SWAP2 SWAP1 PUSH2 0x19E6 JUMP JUMPDEST PUSH1 0x40 MLOAD DUP1 SWAP2 SUB SWAP1 RETURN JUMPDEST PUSH2 0x25E PUSH2 0x6C1 JUMP JUMPDEST PUSH1 0x40 MLOAD PUSH2 0x26B SWAP2 SWAP1 PUSH2 0x1A0E JUMP JUMPDEST PUSH1 0x40 MLOAD DUP1 SWAP2 SUB SWAP1 RETURN JUMPDEST PUSH2 0x27C PUSH2 0x6C7 JUMP JUMPDEST PUSH1 0x40 MLOAD PUSH2 0x289 SWAP2 SWAP1 PUSH2 0x1A0E JUMP JUMPDEST PUSH1 0x40 MLOAD DUP1 SWAP2 SUB SWAP1 RETURN JUMPDEST PUSH2 0x29A PUSH2 0x6D0 JUMP JUMPDEST PUSH1 0x40 MLOAD PUSH2 0x2A7 SWAP2 SWAP1 PUSH2 0x19E6 JUMP JUMPDEST PUSH1 0x40 MLOAD DUP1 SWAP2 SUB SWAP1 RETURN JUMPDEST PUSH2 0x2CA PUSH1 0x4 DUP1 CALLDATASIZE SUB DUP2 ADD SWAP1 PUSH2 0x2C5 SWAP2 SWAP1 PUSH2 0x1A27 JUMP JUMPDEST PUSH2 0x6E5 JUMP JUMPDEST PUSH1 0x40 MLOAD PUSH2 0x2D7 SWAP2 SWAP1 PUSH2 0x19E6 JUMP JUMPDEST PUSH1 0x40 MLOAD DUP1 SWAP2 SUB SWAP1 RETURN JUMPDEST PUSH2 0x2E8 PUSH2 0x713 JUMP JUMPDEST STOP JUMPDEST PUSH2 0x2F2 PUSH2 0x737 JUMP JUMPDEST PUSH1 0x40 MLOAD PUSH2 0x2FF SWAP2 SWAP1 PUSH2 0x1A92 JUMP JUMPDEST PUSH1 0x40 MLOAD DUP1 SWAP2 SUB SWAP1 RETURN JUMPDEST PUSH2 0x322 PUSH1 0x4 DUP1 CALLDATASIZE SUB DUP2 ADD SWAP1 PUSH2 0x31D SWAP2 SWAP1 PUSH2 0x1AAB JUMP JUMPDEST PUSH2 0x73F JUMP JUMPDEST PUSH1 0x40 MLOAD PUSH2 0x32F SWAP2 SWAP1 PUSH2 0x19E6 JUMP JUMPDEST PUSH1 0x40 MLOAD DUP1 SWAP2 SUB SWAP1 RETURN JUMPDEST PUSH2 0x352 PUSH1 0x4 DUP1 CALLDATASIZE SUB DUP2 ADD SWAP1 PUSH2 0x34D SWAP2 SWAP1 PUSH2 0x1AAB JUMP JUMPDEST PUSH2 0x791 JUMP JUMPDEST STOP JUMPDEST PUSH2 0x36E PUSH1 0x4 DUP1 CALLDATASIZE SUB DUP2 ADD SWAP1 PUSH2 0x369 SWAP2 SWAP1 PUSH2 0x1AD6 JUMP JUMPDEST PUSH2 0x845 JUMP JUMPDEST STOP JUMPDEST PUSH2 0x38A PUSH1 0x4 DUP1 CALLDATASIZE SUB DUP2 ADD SWAP1 PUSH2 0x385 SWAP2 SWAP1 PUSH2 0x1AD6 JUMP JUMPDEST PUSH2 0x89B JUMP JUMPDEST STOP JUMPDEST PUSH2 0x3A6 PUSH1 0x4 DUP1 CALLDATASIZE SUB DUP2 ADD SWAP1 PUSH2 0x3A1 SWAP2 SWAP1 PUSH2 0x1AAB JUMP JUMPDEST PUSH2 0x8F1 JUMP JUMPDEST STOP JUMPDEST PUSH2 0x3B0 PUSH2 0x950 JUMP JUMPDEST STOP JUMPDEST PUSH2 0x3BA PUSH2 0x975 JUMP JUMPDEST STOP JUMPDEST PUSH2 0x3C4 PUSH2 0x998 JUMP JUMPDEST PUSH1 0x40 MLOAD PUSH2 0x3D1 SWAP2 SWAP1 PUSH2 0x1A0E JUMP JUMPDEST PUSH1 0x40 MLOAD DUP1 SWAP2 SUB SWAP1 RETURN JUMPDEST PUSH2 0x3F4 PUSH1 0x4 DUP1 CALLDATASIZE SUB DUP2 ADD SWAP1 PUSH2 0x3EF SWAP2 SWAP1 PUSH2 0x1AD6 JUMP JUMPDEST PUSH2 0x9A1 JUMP JUMPDEST STOP JUMPDEST PUSH2 0x410 PUSH1 0x4 DUP1 CALLDATASIZE SUB DUP2 ADD SWAP1 PUSH2 0x40B SWAP2 SWAP1 PUSH2 0x1AAB JUMP JUMPDEST PUSH2 0x9B3 JUMP JUMPDEST PUSH1 0x40 MLOAD PUSH2 0x41D SWAP2 SWAP1 PUSH2 0x1A0E JUMP JUMPDEST PUSH1 0x40 MLOAD DUP1 SWAP2 SUB SWAP1 RETURN JUMPDEST PUSH2 0x42E PUSH2 0x9F8 JUMP JUMPDEST STOP JUMPDEST PUSH2 0x44A PUSH1 0x4 DUP1 CALLDATASIZE SUB DUP2 ADD SWAP1 PUSH2 0x445 SWAP2 SWAP1 PUSH2 0x1AAB JUMP JUMPDEST PUSH2 0xA0A JUMP JUMPDEST STOP JUMPDEST PUSH2 0x454 PUSH2 0xA69 JUMP JUMPDEST PUSH1 0x40 MLOAD PUSH2 0x461 SWAP2 SWAP1 PUSH2 0x1A0E JUMP JUMPDEST PUSH1 0x40 MLOAD DUP1 SWAP2 SUB SWAP1 RETURN JUMPDEST PUSH2 0x472 PUSH2 0xA6F JUMP JUMPDEST PUSH1 0x40 MLOAD PUSH2 0x47F SWAP2 SWAP1 PUSH2 0x1B10 JUMP JUMPDEST PUSH1 0x40 MLOAD DUP1 SWAP2 SUB SWAP1 RETURN JUMPDEST PUSH2 0x490 PUSH2 0xA97 JUMP JUMPDEST PUSH1 0x40 MLOAD PUSH2 0x49D SWAP2 SWAP1 PUSH2 0x18DD JUMP JUMPDEST PUSH1 0x40 MLOAD DUP1 SWAP2 SUB SWAP1 RETURN JUMPDEST PUSH2 0x4AE PUSH2 0xB27 JUMP JUMPDEST PUSH1 0x40 MLOAD PUSH2 0x4BE SWAP5 SWAP4 SWAP3 SWAP2 SWAP1 PUSH2 0x1B29 JUMP JUMPDEST PUSH1 0x40 MLOAD DUP1 SWAP2 SUB SWAP1 RETURN JUMPDEST PUSH2 0x4E1 PUSH1 0x4 DUP1 CALLDATASIZE SUB DUP2 ADD SWAP1 PUSH2 0x4DC SWAP2 SWAP1 PUSH2 0x198E JUMP JUMPDEST PUSH2 0xB4A JUMP JUMPDEST PUSH1 0x40 MLOAD PUSH2 0x4EE SWAP2 SWAP1 PUSH2 0x19E6 JUMP JUMPDEST PUSH1 0x40 MLOAD DUP1 SWAP2 SUB SWAP1 RETURN JUMPDEST PUSH2 0x4FF PUSH2 0xB6C JUMP JUMPDEST PUSH1 0x40 MLOAD PUSH2 0x50C SWAP2 SWAP1 PUSH2 0x1A0E JUMP JUMPDEST PUSH1 0x40 MLOAD DUP1 SWAP2 SUB SWAP1 RETURN JUMPDEST PUSH2 0x51D PUSH2 0xB72 JUMP JUMPDEST PUSH1 0x40 MLOAD PUSH2 0x52A SWAP2 SWAP1 PUSH2 0x1B10 JUMP JUMPDEST PUSH1 0x40 MLOAD DUP1 SWAP2 SUB SWAP1 RETURN JUMPDEST PUSH2 0x53B PUSH2 0xB98 JUMP JUMPDEST PUSH1 0x40 MLOAD PUSH2 0x548 SWAP2 SWAP1 PUSH2 0x1A0E JUMP JUMPDEST PUSH1 0x40 MLOAD DUP1 SWAP2 SUB SWAP1 RETURN JUMPDEST PUSH2 0x559 PUSH2 0xB9E JUMP JUMPDEST STOP JUMPDEST PUSH2 0x575 PUSH1 0x4 DUP1 CALLDATASIZE SUB DUP2 ADD SWAP1 PUSH2 0x570 SWAP2 SWAP1 PUSH2 0x1B6C JUMP JUMPDEST PUSH2 0xBC2 JUMP JUMPDEST PUSH1 0x40 MLOAD PUSH2 0x582 SWAP2 SWAP1 PUSH2 0x1A0E JUMP JUMPDEST PUSH1 0x40 MLOAD DUP1 SWAP2 SUB SWAP1 RETURN JUMPDEST PUSH2 0x5A5 PUSH1 0x4 DUP1 CALLDATASIZE SUB DUP2 ADD SWAP1 PUSH2 0x5A0 SWAP2 SWAP1 PUSH2 0x1AAB JUMP JUMPDEST PUSH2 0xC44 JUMP JUMPDEST STOP JUMPDEST PUSH2 0x5C1 PUSH1 0x4 DUP1 CALLDATASIZE SUB DUP2 ADD SWAP1 PUSH2 0x5BC SWAP2 SWAP1 PUSH2 0x1AD6 JUMP JUMPDEST PUSH2 0xD2E JUMP JUMPDEST STOP JUMPDEST PUSH2 0x5DD PUSH1 0x4 DUP1 CALLDATASIZE SUB DUP2 ADD SWAP1 PUSH2 0x5D8 SWAP2 SWAP1 PUSH2 0x1AAB JUMP JUMPDEST PUSH2 0xD40 JUMP JUMPDEST STOP JUMPDEST PUSH2 0x5F9 PUSH1 0x4 DUP1 CALLDATASIZE SUB DUP2 ADD SWAP1 PUSH2 0x5F4 SWAP2 SWAP1 PUSH2 0x1AAB JUMP JUMPDEST PUSH2 0xDC4 JUMP JUMPDEST PUSH1 0x40 MLOAD PUSH2 0x606 SWAP2 SWAP1 PUSH2 0x19E6 JUMP JUMPDEST PUSH1 0x40 MLOAD DUP1 SWAP2 SUB SWAP1 RETURN JUMPDEST PUSH1 0x60 PUSH1 0x3 DUP1 SLOAD PUSH2 0x61E SWAP1 PUSH2 0x1BD7 JUMP JUMPDEST DUP1 PUSH1 0x1F ADD PUSH1 0x20 DUP1 SWAP2 DIV MUL PUSH1 0x20 ADD PUSH1 0x40 MLOAD SWAP1 DUP2 ADD PUSH1 0x40 MSTORE DUP1 SWAP3 SWAP2 SWAP1 DUP2 DUP2 MSTORE PUSH1 0x20 ADD DUP3 DUP1 SLOAD PUSH2 0x64A SWAP1 PUSH2 0x1BD7 JUMP JUMPDEST DUP1 ISZERO PUSH2 0x695 JUMPI DUP1 PUSH1 0x1F LT PUSH2 0x66C JUMPI PUSH2 0x100 DUP1 DUP4 SLOAD DIV MUL DUP4 MSTORE SWAP2 PUSH1 0x20 ADD SWAP2 PUSH2 0x695 JUMP JUMPDEST DUP3 ADD SWAP2 SWAP1 PUSH0 MSTORE PUSH1 0x20 PUSH0 KECCAK256 SWAP1 JUMPDEST DUP2 SLOAD DUP2 MSTORE SWAP1 PUSH1 0x1 ADD SWAP1 PUSH1 0x20 ADD DUP1 DUP4 GT PUSH2 0x678 JUMPI DUP3 SWAP1 SUB PUSH1 0x1F AND DUP3 ADD SWAP2 JUMPDEST POP POP POP POP POP SWAP1 POP SWAP1 JUMP JUMPDEST PUSH0 DUP1 PUSH2 0x6A9 PUSH2 0xE16 JUMP JUMPDEST SWAP1 POP PUSH2 0x6B6 DUP2 DUP6 DUP6 PUSH2 0xE1D JUMP JUMPDEST PUSH1 0x1 SWAP2 POP POP SWAP3 SWAP2 POP POP JUMP JUMPDEST PUSH1 0x9 SLOAD DUP2 JUMP JUMPDEST PUSH0 PUSH1 0x2 SLOAD SWAP1 POP SWAP1 JUMP JUMPDEST PUSH0 PUSH1 0xE PUSH0 SWAP1 SLOAD SWAP1 PUSH2 0x100 EXP SWAP1 DIV PUSH1 0xFF AND SWAP1 POP SWAP1 JUMP JUMPDEST PUSH0 DUP1 PUSH2 0x6EF PUSH2 0xE16 JUMP JUMPDEST SWAP1 POP PUSH2 0x6FC DUP6 DUP3 DUP6 PUSH2 0xE2F JUMP JUMPDEST PUSH2 0x707 DUP6 DUP6 DUP6 PUSH2 0xEC1 JUMP JUMPDEST PUSH1 0x1 SWAP2 POP POP SWAP4 SWAP3 POP POP POP JUMP JUMPDEST PUSH2 0x71B PUSH2 0xFB1 JUMP JUMPDEST PUSH1 0x1 PUSH1 0xE PUSH0 PUSH2 0x100 EXP DUP2 SLOAD DUP2 PUSH1 0xFF MUL NOT AND SWAP1 DUP4 ISZERO ISZERO MUL OR SWAP1 SSTORE POP JUMP JUMPDEST PUSH0 PUSH1 0x12 SWAP1 POP SWAP1 JUMP JUMPDEST PUSH0 PUSH1 0xC PUSH0 DUP4 PUSH20 0xFFFFFFFFFFFFFFFFFFFFFFFFFFFFFFFFFFFFFFFF AND PUSH20 0xFFFFFFFFFFFFFFFFFFFFFFFFFFFFFFFFFFFFFFFF AND DUP2 MSTORE PUSH1 0x20 ADD SWAP1 DUP2 MSTORE PUSH1 0x20 ADD PUSH0 KECCAK256 PUSH0 SWAP1 SLOAD SWAP1 PUSH2 0x100 EXP SWAP1 DIV PUSH1 0xFF AND SWAP1 POP SWAP2 SWAP1 POP JUMP JUMPDEST PUSH2 0x799 PUSH2 0xFB1 JUMP JUMPDEST PUSH1 0x1 PUSH1 0xB PUSH0 DUP4 PUSH20 0xFFFFFFFFFFFFFFFFFFFFFFFFFFFFFFFFFFFFFFFF AND PUSH20 0xFFFFFFFFFFFFFFFFFFFFFFFFFFFFFFFFFFFFFFFF AND DUP2 MSTORE PUSH1 0x20 ADD SWAP1 DUP2 MSTORE PUSH1 0x20 ADD PUSH0 KECCAK256 PUSH0 PUSH2 0x100 EXP DUP2 SLOAD DUP2 PUSH1 0xFF MUL NOT AND SWAP1 DUP4 ISZERO ISZERO MUL OR SWAP1 SSTORE POP PUSH0 PUSH1 0xC PUSH0 DUP4 PUSH20 0xFFFFFFFFFFFFFFFFFFFFFFFFFFFFFFFFFFFFFFFF AND PUSH20 0xFFFFFFFFFFFFFFFFFFFFFFFFFFFFFFFFFFFFFFFF AND DUP2 MSTORE PUSH1 0x20 ADD SWAP1 DUP2 MSTORE PUSH1 0x20 ADD PUSH0 KECCAK256 PUSH0 PUSH2 0x100 EXP DUP2 SLOAD DUP2 PUSH1 0xFF MUL NOT AND SWAP1 DUP4 ISZERO ISZERO MUL OR SWAP1 SSTORE POP POP JUMP JUMPDEST PUSH2 0x84D PUSH2 0xFB1 JUMP JUMPDEST PUSH1 0x5 DUP2 GT ISZERO PUSH2 0x891 JUMPI PUSH1 0x40 MLOAD PUSH32 0x8C379A000000000000000000000000000000000000000000000000000000000 DUP2 MSTORE PUSH1 0x4 ADD PUSH2 0x888 SWAP1 PUSH2 0x1C77 JUMP JUMPDEST PUSH1 0x40 MLOAD DUP1 SWAP2 SUB SWAP1 REVERT JUMPDEST DUP1 PUSH1 0xA DUP2 SWAP1 SSTORE POP POP JUMP JUMPDEST PUSH2 0x8A3 PUSH2 0xFB1 JUMP JUMPDEST PUSH1 0xA DUP2 GT ISZERO PUSH2 0x8E7 JUMPI PUSH1 0x40 MLOAD PUSH32 0x8C379A000000000000000000000000000000000000000000000000000000000 DUP2 MSTORE PUSH1 0x4 ADD PUSH2 0x8DE SWAP1 PUSH2 0x1CDF JUMP JUMPDEST PUSH1 0x40 MLOAD DUP1 SWAP2 SUB SWAP1 REVERT JUMPDEST DUP1 PUSH1 0x9 DUP2 SWAP1 SSTORE POP POP JUMP JUMPDEST PUSH2 0x8F9 PUSH2 0xFB1 JUMP JUMPDEST PUSH0 PUSH1 0xB PUSH0 DUP4 PUSH20 0xFFFFFFFFFFFFFFFFFFFFFFFFFFFFFFFFFFFFFFFF AND PUSH20 0xFFFFFFFFFFFFFFFFFFFFFFFFFFFFFFFFFFFFFFFF AND DUP2 MSTORE PUSH1 0x20 ADD SWAP1 DUP2 MSTORE PUSH1 0x20 ADD PUSH0 KECCAK256 PUSH0 PUSH2 0x100 EXP DUP2 SLOAD DUP2 PUSH1 0xFF MUL NOT AND SWAP1 DUP4 ISZERO ISZERO MUL OR SWAP1 SSTORE POP POP JUMP JUMPDEST PUSH2 0x958 PUSH2 0xFB1 JUMP JUMPDEST PUSH1 0x1 PUSH1 0xE PUSH1 0x1 PUSH2 0x100 EXP DUP2 SLOAD DUP2 PUSH1 0xFF MUL NOT AND SWAP1 DUP4 ISZERO ISZERO MUL OR SWAP1 SSTORE POP JUMP JUMPDEST PUSH2 0x97D PUSH2 0xFB1 JUMP JUMPDEST PUSH0 PUSH1 0xE PUSH0 PUSH2 0x100 EXP DUP2 SLOAD DUP2 PUSH1 0xFF MUL NOT AND SWAP1 DUP4 ISZERO ISZERO MUL OR SWAP1 SSTORE POP JUMP JUMPDEST PUSH0 PUSH1 0x7 SLOAD SWAP1 POP SWAP1 JUMP JUMPDEST PUSH2 0x9A9 PUSH2 0xFB1 JUMP JUMPDEST DUP1 PUSH1 0x8 DUP2 SWAP1 SSTORE POP POP JUMP JUMPDEST PUSH0 DUP1 PUSH0 DUP4 PUSH20 0xFFFFFFFFFFFFFFFFFFFFFFFFFFFFFFFFFFFFFFFF AND PUSH20 0xFFFFFFFFFFFFFFFFFFFFFFFFFFFFFFFFFFFFFFFF AND DUP2 MSTORE PUSH1 0x20 ADD SWAP1 DUP2 MSTORE PUSH1 0x20 ADD PUSH0 KECCAK256 SLOAD SWAP1 POP SWAP2 SWAP1 POP JUMP JUMPDEST PUSH2 0xA00 PUSH2 0xFB1 JUMP JUMPDEST PUSH2 0xA08 PUSH2 0x1038 JUMP JUMPDEST JUMP JUMPDEST PUSH2 0xA12 PUSH2 0xFB1 JUMP JUMPDEST PUSH0 PUSH1 0xC PUSH0 DUP4 PUSH20 0xFFFFFFFFFFFFFFFFFFFFFFFFFFFFFFFFFFFFFFFF AND PUSH20 0xFFFFFFFFFFFFFFFFFFFFFFFFFFFFFFFFFFFFFFFF AND DUP2 MSTORE PUSH1 0x20 ADD SWAP1 DUP2 MSTORE PUSH1 0x20 ADD PUSH0 KECCAK256 PUSH0 PUSH2 0x100 EXP DUP2 SLOAD DUP2 PUSH1 0xFF MUL NOT AND SWAP1 DUP4 ISZERO ISZERO MUL OR SWAP1 SSTORE POP POP JUMP JUMPDEST PUSH1 0x7 SLOAD DUP2 JUMP JUMPDEST PUSH0 PUSH1 0x5 PUSH0 SWAP1 SLOAD SWAP1 PUSH2 0x100 EXP SWAP1 DIV PUSH20 0xFFFFFFFFFFFFFFFFFFFFFFFFFFFFFFFFFFFFFFFF AND SWAP1 POP SWAP1 JUMP JUMPDEST PUSH1 0x60 PUSH1 0x4 DUP1 SLOAD PUSH2 0xAA6 SWAP1 PUSH2 0x1BD7 JUMP JUMPDEST DUP1 PUSH1 0x1F ADD PUSH1 0x20 DUP1 SWAP2 DIV MUL PUSH1 0x20 ADD PUSH1 0x40 MLOAD SWAP1 DUP2 ADD PUSH1 0x40 MSTORE DUP1 SWAP3 SWAP2 SWAP1 DUP2 DUP2 MSTORE PUSH1 0x20 ADD DUP3 DUP1 SLOAD PUSH2 0xAD2 SWAP1 PUSH2 0x1BD7 JUMP JUMPDEST DUP1 ISZERO PUSH2 0xB1D JUMPI DUP1 PUSH1 0x1F LT PUSH2 0xAF4 JUMPI PUSH2 0x100 DUP1 DUP4 SLOAD DIV MUL DUP4 MSTORE SWAP2 PUSH1 0x20 ADD SWAP2 PUSH2 0xB1D JUMP JUMPDEST DUP3 ADD SWAP2 SWAP1 PUSH0 MSTORE PUSH1 0x20 PUSH0 KECCAK256 SWAP1 JUMPDEST DUP2 SLOAD DUP2 MSTORE SWAP1 PUSH1 0x1 ADD SWAP1 PUSH1 0x20 ADD DUP1 DUP4 GT PUSH2 0xB00 JUMPI DUP3 SWAP1 SUB PUSH1 0x1F AND DUP3 ADD SWAP2 JUMPDEST POP POP POP POP POP SWAP1 POP SWAP1 JUMP JUMPDEST PUSH0 DUP1 PUSH0 DUP1 PUSH2 0xB33 PUSH2 0xA6F JUMP JUMPDEST PUSH1 0x7 SLOAD PUSH1 0x8 SLOAD PUSH1 0x6 SLOAD SWAP4 POP SWAP4 POP SWAP4 POP SWAP4 POP SWAP1 SWAP2 SWAP3 SWAP4 JUMP JUMPDEST PUSH0 DUP1 PUSH2 0xB54 PUSH2 0xE16 JUMP JUMPDEST SWAP1 POP PUSH2 0xB61 DUP2 DUP6 DUP6 PUSH2 0xEC1 JUMP JUMPDEST PUSH1 0x1 SWAP2 POP POP SWAP3 SWAP2 POP POP JUMP JUMPDEST PUSH1 0x8 SLOAD DUP2 JUMP JUMPDEST PUSH1 0xE PUSH1 0x2 SWAP1 SLOAD SWAP1 PUSH2 0x100 EXP SWAP1 DIV PUSH20 0xFFFFFFFFFFFFFFFFFFFFFFFFFFFFFFFFFFFFFFFF AND DUP2 JUMP JUMPDEST PUSH1 0xA SLOAD DUP2 JUMP JUMPDEST PUSH2 0xBA6 PUSH2 0xFB1 JUMP JUMPDEST PUSH0 PUSH1 0xE PUSH1 0x1 PUSH2 0x100 EXP DUP2 SLOAD DUP2 PUSH1 0xFF MUL NOT AND SWAP1 DUP4 ISZERO ISZERO MUL OR SWAP1 SSTORE POP JUMP JUMPDEST PUSH0 PUSH1 0x1 PUSH0 DUP5 PUSH20 0xFFFFFFFFFFFFFFFFFFFFFFFFFFFFFFFFFFFFFFFF AND PUSH20 0xFFFFFFFFFFFFFFFFFFFFFFFFFFFFFFFFFFFFFFFF AND DUP2 MSTORE PUSH1 0x20 ADD SWAP1 DUP2 MSTORE PUSH1 0x20 ADD PUSH0 KECCAK256 PUSH0 DUP4 PUSH20 0xFFFFFFFFFFFFFFFFFFFFFFFFFFFFFFFFFFFFFFFF AND PUSH20 0xFFFFFFFFFFFFFFFFFFFFFFFFFFFFFFFFFFFFFFFF AND DUP2 MSTORE PUSH1 0x20 ADD SWAP1 DUP2 MSTORE PUSH1 0x20 ADD PUSH0 KECCAK256 SLOAD SWAP1 POP SWAP3 SWAP2 POP POP JUMP JUMPDEST PUSH2 0xC4C PUSH2 0xFB1 JUMP JUMPDEST PUSH1 0xB PUSH0 DUP3 PUSH20 0xFFFFFFFFFFFFFFFFFFFFFFFFFFFFFFFFFFFFFFFF AND PUSH20 0xFFFFFFFFFFFFFFFFFFFFFFFFFFFFFFFFFFFFFFFF AND DUP2 MSTORE PUSH1 0x20 ADD SWAP1 DUP2 MSTORE PUSH1 0x20 ADD PUSH0 KECCAK256 PUSH0 SWAP1 SLOAD SWAP1 PUSH2 0x100 EXP SWAP1 DIV PUSH1 0xFF AND ISZERO PUSH2 0xCD6 JUMPI PUSH1 0x40 MLOAD PUSH32 0x8C379A000000000000000000000000000000000000000000000000000000000 DUP2 MSTORE PUSH1 0x4 ADD PUSH2 0xCCD SWAP1 PUSH2 0x1D6D JUMP JUMPDEST PUSH1 0x40 MLOAD DUP1 SWAP2 SUB SWAP1 REVERT JUMPDEST PUSH1 0x1 PUSH1 0xC PUSH0 DUP4 PUSH20 0xFFFFFFFFFFFFFFFFFFFFFFFFFFFFFFFFFFFFFFFF AND PUSH20 0xFFFFFFFFFFFFFFFFFFFFFFFFFFFFFFFFFFFFFFFF AND DUP2 MSTORE PUSH1 0x20 ADD SWAP1 DUP2 MSTORE PUSH1 0x20 ADD PUSH0 KECCAK256 PUSH0 PUSH2 0x100 EXP DUP2 SLOAD DUP2 PUSH1 0xFF MUL NOT AND SWAP1 DUP4 ISZERO ISZERO MUL OR SWAP1 SSTORE POP POP JUMP JUMPDEST PUSH2 0xD36 PUSH2 0xFB1 JUMP JUMPDEST DUP1 PUSH1 0x7 DUP2 SWAP1 SSTORE POP POP JUMP JUMPDEST PUSH2 0xD48 PUSH2 0xFB1 JUMP JUMPDEST PUSH0 PUSH20 0xFFFFFFFFFFFFFFFFFFFFFFFFFFFFFFFFFFFFFFFF AND DUP2 PUSH20 0xFFFFFFFFFFFFFFFFFFFFFFFFFFFFFFFFFFFFFFFF AND SUB PUSH2 0xDB8 JUMPI PUSH0 PUSH1 0x40 MLOAD PUSH32 0x1E4FBDF700000000000000000000000000000000000000000000000000000000 DUP2 MSTORE PUSH1 0x4 ADD PUSH2 0xDAF SWAP2 SWAP1 PUSH2 0x1B10 JUMP JUMPDEST PUSH1 0x40 MLOAD DUP1 SWAP2 SUB SWAP1 REVERT JUMPDEST PUSH2 0xDC1 DUP2 PUSH2 0x104B JUMP JUMPDEST POP JUMP JUMPDEST PUSH0 PUSH1 0xB PUSH0 DUP4 PUSH20 0xFFFFFFFFFFFFFFFFFFFFFFFFFFFFFFFFFFFFFFFF AND PUSH20 0xFFFFFFFFFFFFFFFFFFFFFFFFFFFFFFFFFFFFFFFF AND DUP2 MSTORE PUSH1 0x20 ADD SWAP1 DUP2 MSTORE PUSH1 0x20 ADD PUSH0 KECCAK256 PUSH0 SWAP1 SLOAD SWAP1 PUSH2 0x100 EXP SWAP1 DIV PUSH1 0xFF AND SWAP1 POP SWAP2 SWAP1 POP JUMP JUMPDEST PUSH0 CALLER SWAP1 POP SWAP1 JUMP JUMPDEST PUSH2 0xE2A DUP4 DUP4 DUP4 PUSH1 0x1 PUSH2 0x110E JUMP JUMPDEST POP POP POP JUMP JUMPDEST PUSH0 PUSH2 0xE3A DUP5 DUP5 PUSH2 0xBC2 JUMP JUMPDEST SWAP1 POP PUSH32 0xFFFFFFFFFFFFFFFFFFFFFFFFFFFFFFFFFFFFFFFFFFFFFFFFFFFFFFFFFFFFFFFF DUP2 EQ PUSH2 0xEBB JUMPI DUP2 DUP2 LT ISZERO PUSH2 0xEAC JUMPI DUP3 DUP2 DUP4 PUSH1 0x40 MLOAD PUSH32 0xFB8F41B200000000000000000000000000000000000000000000000000000000 DUP2 MSTORE PUSH1 0x4 ADD PUSH2 0xEA3 SWAP4 SWAP3 SWAP2 SWAP1 PUSH2 0x1D8B JUMP JUMPDEST PUSH1 0x40 MLOAD DUP1 SWAP2 SUB SWAP1 REVERT JUMPDEST PUSH2 0xEBA DUP5 DUP5 DUP5 DUP5 SUB PUSH0 PUSH2 0x110E JUMP JUMPDEST JUMPDEST POP POP POP POP JUMP JUMPDEST PUSH0 PUSH20 0xFFFFFFFFFFFFFFFFFFFFFFFFFFFFFFFFFFFFFFFF AND DUP4 PUSH20 0xFFFFFFFFFFFFFFFFFFFFFFFFFFFFFFFFFFFFFFFF AND SUB PUSH2 0xF31 JUMPI PUSH0 PUSH1 0x40 MLOAD PUSH32 0x96C6FD1E00000000000000000000000000000000000000000000000000000000 DUP2 MSTORE PUSH1 0x4 ADD PUSH2 0xF28 SWAP2 SWAP1 PUSH2 0x1B10 JUMP JUMPDEST PUSH1 0x40 MLOAD DUP1 SWAP2 SUB SWAP1 REVERT JUMPDEST PUSH0 PUSH20 0xFFFFFFFFFFFFFFFFFFFFFFFFFFFFFFFFFFFFFFFF AND DUP3 PUSH20 0xFFFFFFFFFFFFFFFFFFFFFFFFFFFFFFFFFFFFFFFF AND SUB PUSH2 0xFA1 JUMPI PUSH0 PUSH1 0x40 MLOAD PUSH32 0xEC442F0500000000000000000000000000000000000000000000000000000000 DUP2 MSTORE PUSH1 0x4 ADD PUSH2 0xF98 SWAP2 SWAP1 PUSH2 0x1B10 JUMP JUMPDEST PUSH1 0x40 MLOAD DUP1 SWAP2 SUB SWAP1 REVERT JUMPDEST PUSH2 0xFAC DUP4 DUP4 DUP4 PUSH2 0x12DD JUMP JUMPDEST POP POP POP JUMP JUMPDEST PUSH2 0xFB9 PUSH2 0xE16 JUMP JUMPDEST PUSH20 0xFFFFFFFFFFFFFFFFFFFFFFFFFFFFFFFFFFFFFFFF AND PUSH2 0xFD7 PUSH2 0xA6F JUMP JUMPDEST PUSH20 0xFFFFFFFFFFFFFFFFFFFFFFFFFFFFFFFFFFFFFFFF AND EQ PUSH2 0x1036 JUMPI PUSH2 0xFFA PUSH2 0xE16 JUMP JUMPDEST PUSH1 0x40 MLOAD PUSH32 0x118CDAA700000000000000000000000000000000000000000000000000000000 DUP2 MSTORE PUSH1 0x4 ADD PUSH2 0x102D SWAP2 SWAP1 PUSH2 0x1B10 JUMP JUMPDEST PUSH1 0x40 MLOAD DUP1 SWAP2 SUB SWAP1 REVERT JUMPDEST JUMP JUMPDEST PUSH2 0x1040 PUSH2 0xFB1 JUMP JUMPDEST PUSH2 0x1049 PUSH0 PUSH2 0x104B JUMP JUMPDEST JUMP JUMPDEST PUSH0 PUSH1 0x5 PUSH0 SWAP1 SLOAD SWAP1 PUSH2 0x100 EXP SWAP1 DIV PUSH20 0xFFFFFFFFFFFFFFFFFFFFFFFFFFFFFFFFFFFFFFFF AND SWAP1 POP DUP2 PUSH1 0x5 PUSH0 PUSH2 0x100 EXP DUP2 SLOAD DUP2 PUSH20 0xFFFFFFFFFFFFFFFFFFFFFFFFFFFFFFFFFFFFFFFF MUL NOT AND SWAP1 DUP4 PUSH20 0xFFFFFFFFFFFFFFFFFFFFFFFFFFFFFFFFFFFFFFFF AND MUL OR SWAP1 SSTORE POP DUP2 PUSH20 0xFFFFFFFFFFFFFFFFFFFFFFFFFFFFFFFFFFFFFFFF AND DUP2 PUSH20 0xFFFFFFFFFFFFFFFFFFFFFFFFFFFFFFFFFFFFFFFF AND PUSH32 0x8BE0079C531659141344CD1FD0A4F28419497F9722A3DAAFE3B4186F6B6457E0 PUSH1 0x40 MLOAD PUSH1 0x40 MLOAD DUP1 SWAP2 SUB SWAP1 LOG3 POP POP JUMP JUMPDEST PUSH0 PUSH20 0xFFFFFFFFFFFFFFFFFFFFFFFFFFFFFFFFFFFFFFFF AND DUP5 PUSH20 0xFFFFFFFFFFFFFFFFFFFFFFFFFFFFFFFFFFFFFFFF AND SUB PUSH2 0x117E JUMPI PUSH0 PUSH1 0x40 MLOAD PUSH32 0xE602DF0500000000000000000000000000000000000000000000000000000000 DUP2 MSTORE PUSH1 0x4 ADD PUSH2 0x1175 SWAP2 SWAP1 PUSH2 0x1B10 JUMP JUMPDEST PUSH1 0x40 MLOAD DUP1 SWAP2 SUB SWAP1 REVERT JUMPDEST PUSH0 PUSH20 0xFFFFFFFFFFFFFFFFFFFFFFFFFFFFFFFFFFFFFFFF AND DUP4 PUSH20 0xFFFFFFFFFFFFFFFFFFFFFFFFFFFFFFFFFFFFFFFF AND SUB PUSH2 0x11EE JUMPI PUSH0 PUSH1 0x40 MLOAD PUSH32 0x94280D6200000000000000000000000000000000000000000000000000000000 DUP2 MSTORE PUSH1 0x4 ADD PUSH2 0x11E5 SWAP2 SWAP1 PUSH2 0x1B10 JUMP JUMPDEST PUSH1 0x40 MLOAD DUP1 SWAP2 SUB SWAP1 REVERT JUMPDEST DUP2 PUSH1 0x1 PUSH0 DUP7 PUSH20 0xFFFFFFFFFFFFFFFFFFFFFFFFFFFFFFFFFFFFFFFF AND PUSH20 0xFFFFFFFFFFFFFFFFFFFFFFFFFFFFFFFFFFFFFFFF AND DUP2 MSTORE PUSH1 0x20 ADD SWAP1 DUP2 MSTORE PUSH1 0x20 ADD PUSH0 KECCAK256 PUSH0 DUP6 PUSH20 0xFFFFFFFFFFFFFFFFFFFFFFFFFFFFFFFFFFFFFFFF AND PUSH20 0xFFFFFFFFFFFFFFFFFFFFFFFFFFFFFFFFFFFFFFFF AND DUP2 MSTORE PUSH1 0x20 ADD SWAP1 DUP2 MSTORE PUSH1 0x20 ADD PUSH0 KECCAK256 DUP2 SWAP1 SSTORE POP DUP1 ISZERO PUSH2 0x12D7 JUMPI DUP3 PUSH20 0xFFFFFFFFFFFFFFFFFFFFFFFFFFFFFFFFFFFFFFFF AND DUP5 PUSH20 0xFFFFFFFFFFFFFFFFFFFFFFFFFFFFFFFFFFFFFFFF AND PUSH32 0x8C5BE1E5EBEC7D5BD14F71427D1E84F3DD0314C0F7B2291E5B200AC8C7C3B925 DUP5 PUSH1 0x40 MLOAD PUSH2 0x12CE SWAP2 SWAP1 PUSH2 0x1A0E JUMP JUMPDEST PUSH1 0x40 MLOAD DUP1 SWAP2 SUB SWAP1 LOG3 JUMPDEST POP POP POP POP JUMP JUMPDEST PUSH1 0xB PUSH0 DUP5 PUSH20 0xFFFFFFFFFFFFFFFFFFFFFFFFFFFFFFFFFFFFFFFF AND PUSH20 0xFFFFFFFFFFFFFFFFFFFFFFFFFFFFFFFFFFFFFFFF AND DUP2 MSTORE PUSH1 0x20 ADD SWAP1 DUP2 MSTORE PUSH1 0x20 ADD PUSH0 KECCAK256 PUSH0 SWAP1 SLOAD SWAP1 PUSH2 0x100 EXP SWAP1 DIV PUSH1 0xFF AND ISZERO DUP1 ISZERO PUSH2 0x137B JUMPI POP PUSH1 0xB PUSH0 DUP4 PUSH20 0xFFFFFFFFFFFFFFFFFFFFFFFFFFFFFFFFFFFFFFFF AND PUSH20 0xFFFFFFFFFFFFFFFFFFFFFFFFFFFFFFFFFFFFFFFF AND DUP2 MSTORE PUSH1 0x20 ADD SWAP1 DUP2 MSTORE PUSH1 0x20 ADD PUSH0 KECCAK256 PUSH0 SWAP1 SLOAD SWAP1 PUSH2 0x100 EXP SWAP1 DIV PUSH1 0xFF AND ISZERO JUMPDEST PUSH2 0x13BA JUMPI PUSH1 0x40 MLOAD PUSH32 0x8C379A000000000000000000000000000000000000000000000000000000000 DUP2 MSTORE PUSH1 0x4 ADD PUSH2 0x13B1 SWAP1 PUSH2 0x1E0A JUMP JUMPDEST PUSH1 0x40 MLOAD DUP1 SWAP2 SUB SWAP1 REVERT JUMPDEST PUSH1 0xE PUSH0 SWAP1 SLOAD SWAP1 PUSH2 0x100 EXP SWAP1 DIV PUSH1 0xFF AND ISZERO PUSH2 0x14AA JUMPI PUSH1 0xC PUSH0 DUP5 PUSH20 0xFFFFFFFFFFFFFFFFFFFFFFFFFFFFFFFFFFFFFFFF AND PUSH20 0xFFFFFFFFFFFFFFFFFFFFFFFFFFFFFFFFFFFFFFFF AND DUP2 MSTORE PUSH1 0x20 ADD SWAP1 DUP2 MSTORE PUSH1 0x20 ADD PUSH0 KECCAK256 PUSH0 SWAP1 SLOAD SWAP1 PUSH2 0x100 EXP SWAP1 DIV PUSH1 0xFF AND DUP1 ISZERO PUSH2 0x146A JUMPI POP PUSH1 0xC PUSH0 DUP4 PUSH20 0xFFFFFFFFFFFFFFFFFFFFFFFFFFFFFFFFFFFFFFFF AND PUSH20 0xFFFFFFFFFFFFFFFFFFFFFFFFFFFFFFFFFFFFFFFF AND DUP2 MSTORE PUSH1 0x20 ADD SWAP1 DUP2 MSTORE PUSH1 0x20 ADD PUSH0 KECCAK256 PUSH0 SWAP1 SLOAD SWAP1 PUSH2 0x100 EXP SWAP1 DIV PUSH1 0xFF AND JUMPDEST PUSH2 0x14A9 JUMPI PUSH1 0x40 MLOAD PUSH32 0x8C379A000000000000000000000000000000000000000000000000000000000 DUP2 MSTORE PUSH1 0x4 ADD PUSH2 0x14A0 SWAP1 PUSH2 0x1E98 JUMP JUMPDEST PUSH1 0x40 MLOAD DUP1 SWAP2 SUB SWAP1 REVERT JUMPDEST JUMPDEST PUSH1 0x7 SLOAD DUP2 GT ISZERO PUSH2 0x14EF JUMPI PUSH1 0x40 MLOAD PUSH32 0x8C379A000000000000000000000000000000000000000000000000000000000 DUP2 MSTORE PUSH1 0x4 ADD PUSH2 0x14E6 SWAP1 PUSH2 0x1F00 JUMP JUMPDEST PUSH1 0x40 MLOAD DUP1 SWAP2 SUB SWAP1 REVERT JUMPDEST PUSH1 0x8 SLOAD PUSH1 0xD PUSH0 DUP6 PUSH20 0xFFFFFFFFFFFFFFFFFFFFFFFFFFFFFFFFFFFFFFFF AND PUSH20 0xFFFFFFFFFFFFFFFFFFFFFFFFFFFFFFFFFFFFFFFF AND DUP2 MSTORE PUSH1 0x20 ADD SWAP1 DUP2 MSTORE PUSH1 0x20 ADD PUSH0 KECCAK256 SLOAD PUSH2 0x153A SWAP2 SWAP1 PUSH2 0x1F4B JUMP JUMPDEST TIMESTAMP LT ISZERO PUSH2 0x157C JUMPI PUSH1 0x40 MLOAD PUSH32 0x8C379A000000000000000000000000000000000000000000000000000000000 DUP2 MSTORE PUSH1 0x4 ADD PUSH2 0x1573 SWAP1 PUSH2 0x1FC8 JUMP JUMPDEST PUSH1 0x40 MLOAD DUP1 SWAP2 SUB SWAP1 REVERT JUMPDEST PUSH0 DUP2 SWAP1 POP PUSH1 0xE PUSH1 0x1 SWAP1 SLOAD SWAP1 PUSH2 0x100 EXP SWAP1 DIV PUSH1 0xFF AND ISZERO PUSH2 0x1601 JUMPI PUSH0 PUSH1 0xA SLOAD PUSH1 0x9 SLOAD PUSH2 0x15A6 SWAP2 SWAP1 PUSH2 0x1F4B JUMP JUMPDEST SWAP1 POP PUSH0 PUSH1 0x64 DUP3 DUP6 PUSH2 0x15B7 SWAP2 SWAP1 PUSH2 0x1FE6 JUMP JUMPDEST PUSH2 0x15C1 SWAP2 SWAP1 PUSH2 0x2054 JUMP JUMPDEST SWAP1 POP DUP1 DUP5 PUSH2 0x15CF SWAP2 SWAP1 PUSH2 0x2084 JUMP JUMPDEST SWAP3 POP PUSH2 0x15FE DUP7 PUSH1 0xE PUSH1 0x2 SWAP1 SLOAD SWAP1 PUSH2 0x100 EXP SWAP1 DIV PUSH20 0xFFFFFFFFFFFFFFFFFFFFFFFFFFFFFFFFFFFFFFFF AND DUP4 PUSH2 0x1654 JUMP JUMPDEST POP POP JUMPDEST TIMESTAMP PUSH1 0xD PUSH0 DUP7 PUSH20 0xFFFFFFFFFFFFFFFFFFFFFFFFFFFFFFFFFFFFFFFF AND PUSH20 0xFFFFFFFFFFFFFFFFFFFFFFFFFFFFFFFFFFFFFFFF AND DUP2 MSTORE PUSH1 0x20 ADD SWAP1 DUP2 MSTORE PUSH1 0x20 ADD PUSH0 KECCAK256 DUP2 SWAP1 SSTORE POP PUSH2 0x164E DUP5 DUP5 DUP4 PUSH2 0x1654 JUMP JUMPDEST POP POP POP POP JUMP JUMPDEST PUSH0 PUSH20 0xFFFFFFFFFFFFFFFFFFFFFFFFFFFFFFFFFFFFFFFF AND DUP4 PUSH20 0xFFFFFFFFFFFFFFFFFFFFFFFFFFFFFFFFFFFFFFFF AND SUB PUSH2 0x16A4 JUMPI DUP1 PUSH1 0x2 PUSH0 DUP3 DUP3 SLOAD PUSH2 0x1698 SWAP2 SWAP1 PUSH2 0x1F4B JUMP JUMPDEST SWAP3 POP POP DUP2 SWAP1 SSTORE POP PUSH2 0x1772 JUMP JUMPDEST PUSH0 DUP1 PUSH0 DUP6 PUSH20 0xFFFFFFFFFFFFFFFFFFFFFFFFFFFFFFFFFFFFFFFF AND PUSH20 0xFFFFFFFFFFFFFFFFFFFFFFFFFFFFFFFFFFFFFFFF AND DUP2 MSTORE PUSH1 0x20 ADD SWAP1 DUP2 MSTORE PUSH1 0x20 ADD PUSH0 KECCAK256 SLOAD SWAP1 POP DUP2 DUP2 LT ISZERO PUSH2 0x172D JUMPI DUP4 DUP2 DUP4 PUSH1 0x40 MLOAD PUSH32 0xE450D38C00000000000000000000000000000000000000000000000000000000 DUP2 MSTORE PUSH1 0x4 ADD PUSH2 0x1724 SWAP4 SWAP3 SWAP2 SWAP1 PUSH2 0x1D8B JUMP JUMPDEST PUSH1 0x40 MLOAD DUP1 SWAP2 SUB SWAP1 REVERT JUMPDEST DUP2 DUP2 SUB PUSH0 DUP1 DUP7 PUSH20 0xFFFFFFFFFFFFFFFFFFFFFFFFFFFFFFFFFFFFFFFF AND PUSH20 0xFFFFFFFFFFFFFFFFFFFFFFFFFFFFFFFFFFFFFFFF AND DUP2 MSTORE PUSH1 0x20 ADD SWAP1 DUP2 MSTORE PUSH1 0x20 ADD PUSH0 KECCAK256 DUP2 SWAP1 SSTORE POP POP JUMPDEST PUSH0 PUSH20 0xFFFFFFFFFFFFFFFFFFFFFFFFFFFFFFFFFFFFFFFF AND DUP3 PUSH20 0xFFFFFFFFFFFFFFFFFFFFFFFFFFFFFFFFFFFFFFFF AND SUB PUSH2 0x17B9 JUMPI DUP1 PUSH1 0x2 PUSH0 DUP3 DUP3 SLOAD SUB SWAP3 POP POP DUP2 SWAP1 SSTORE POP PUSH2 0x1803 JUMP JUMPDEST DUP1 PUSH0 DUP1 DUP5 PUSH20 0xFFFFFFFFFFFFFFFFFFFFFFFFFFFFFFFFFFFFFFFF AND PUSH20 0xFFFFFFFFFFFFFFFFFFFFFFFFFFFFFFFFFFFFFFFF AND DUP2 MSTORE PUSH1 0x20 ADD SWAP1 DUP2 MSTORE PUSH1 0x20 ADD PUSH0 KECCAK256 PUSH0 DUP3 DUP3 SLOAD ADD SWAP3 POP POP DUP2 SWAP1 SSTORE POP JUMPDEST DUP2 PUSH20 0xFFFFFFFFFFFFFFFFFFFFFFFFFFFFFFFFFFFFFFFF AND DUP4 PUSH20 0xFFFFFFFFFFFFFFFFFFFFFFFFFFFFFFFFFFFFFFFF AND PUSH32 0xDDF252AD1BE2C89B69C2B068FC378DAA952BA7F163C4A11628F55A4DF523B3EF DUP4 PUSH1 0x40 MLOAD PUSH2 0x1860 SWAP2 SWAP1 PUSH2 0x1A0E JUMP JUMPDEST PUSH1 0x40 MLOAD DUP1 SWAP2 SUB SWAP1 LOG3 POP POP POP JUMP JUMPDEST PUSH0 DUP2 MLOAD SWAP1 POP SWAP2 SWAP1 POP JUMP JUMPDEST PUSH0 DUP3 DUP3 MSTORE PUSH1 0x20 DUP3 ADD SWAP1 POP SWAP3 SWAP2 POP POP JUMP JUMPDEST DUP3 DUP2 DUP4 MCOPY PUSH0 DUP4 DUP4 ADD MSTORE POP POP POP JUMP JUMPDEST PUSH0 PUSH1 0x1F NOT PUSH1 0x1F DUP4 ADD AND SWAP1 POP SWAP2 SWAP1 POP JUMP JUMPDEST PUSH0 PUSH2 0x18AF DUP3 PUSH2 0x186D JUMP JUMPDEST PUSH2 0x18B9 DUP2 DUP6 PUSH2 0x1877 JUMP JUMPDEST SWAP4 POP PUSH2 0x18C9 DUP2 DUP6 PUSH1 0x20 DUP7 ADD PUSH2 0x1887 JUMP JUMPDEST PUSH2 0x18D2 DUP2 PUSH2 0x1895 JUMP JUMPDEST DUP5 ADD SWAP2 POP POP SWAP3 SWAP2 POP POP JUMP JUMPDEST PUSH0 PUSH1 0x20 DUP3 ADD SWAP1 POP DUP2 DUP2 SUB PUSH0 DUP4 ADD MSTORE PUSH2 0x18F5 DUP2 DUP5 PUSH2 0x18A5 JUMP JUMPDEST SWAP1 POP SWAP3 SWAP2 POP POP JUMP JUMPDEST PUSH0 DUP1 REVERT JUMPDEST PUSH0 PUSH20 0xFFFFFFFFFFFFFFFFFFFFFFFFFFFFFFFFFFFFFFFF DUP3 AND SWAP1 POP SWAP2 SWAP1 POP JUMP JUMPDEST PUSH0 PUSH2 0x192A DUP3 PUSH2 0x1901 JUMP JUMPDEST SWAP1 POP SWAP2 SWAP1 POP JUMP JUMPDEST PUSH2 0x193A DUP2 PUSH2 0x1920 JUMP JUMPDEST DUP2 EQ PUSH2 0x1944 JUMPI PUSH0 DUP1 REVERT JUMPDEST POP JUMP JUMPDEST PUSH0 DUP2 CALLDATALOAD SWAP1 POP PUSH2 0x1955 DUP2 PUSH2 0x1931 JUMP JUMPDEST SWAP3 SWAP2 POP POP JUMP JUMPDEST PUSH0 DUP2 SWAP1 POP SWAP2 SWAP1 POP JUMP JUMPDEST PUSH2 0x196D DUP2 PUSH2 0x195B JUMP JUMPDEST DUP2 EQ PUSH2 0x1977 JUMPI PUSH0 DUP1 REVERT JUMPDEST POP JUMP JUMPDEST PUSH0 DUP2 CALLDATALOAD SWAP1 POP PUSH2 0x1988 DUP2 PUSH2 0x1964 JUMP JUMPDEST SWAP3 SWAP2 POP POP JUMP JUMPDEST PUSH0 DUP1 PUSH1 0x40 DUP4 DUP6 SUB SLT ISZERO PUSH2 0x19A4 JUMPI PUSH2 0x19A3 PUSH2 0x18FD JUMP JUMPDEST JUMPDEST PUSH0 PUSH2 0x19B1 DUP6 DUP3 DUP7 ADD PUSH2 0x1947 JUMP JUMPDEST SWAP3 POP POP PUSH1 0x20 PUSH2 0x19C2 DUP6 DUP3 DUP7 ADD PUSH2 0x197A JUMP JUMPDEST SWAP2 POP POP SWAP3 POP SWAP3 SWAP1 POP JUMP JUMPDEST PUSH0 DUP2 ISZERO ISZERO SWAP1 POP SWAP2 SWAP1 POP JUMP JUMPDEST PUSH2 0x19E0 DUP2 PUSH2 0x19CC JUMP JUMPDEST DUP3 MSTORE POP POP JUMP JUMPDEST PUSH0 PUSH1 0x20 DUP3 ADD SWAP1 POP PUSH2 0x19F9 PUSH0 DUP4 ADD DUP5 PUSH2 0x19D7 JUMP JUMPDEST SWAP3 SWAP2 POP POP JUMP JUMPDEST PUSH2 0x1A08 DUP2 PUSH2 0x195B JUMP JUMPDEST DUP3 MSTORE POP POP JUMP JUMPDEST PUSH0 PUSH1 0x20 DUP3 ADD SWAP1 POP PUSH2 0x1A21 PUSH0 DUP4 ADD DUP5 PUSH2 0x19FF JUMP JUMPDEST SWAP3 SWAP2 POP POP JUMP JUMPDEST PUSH0 DUP1 PUSH0 PUSH1 0x60 DUP5 DUP7 SUB SLT ISZERO PUSH2 0x1A3E JUMPI PUSH2 0x1A3D PUSH2 0x18FD JUMP JUMPDEST JUMPDEST PUSH0 PUSH2 0x1A4B DUP7 DUP3 DUP8 ADD PUSH2 0x1947 JUMP JUMPDEST SWAP4 POP POP PUSH1 0x20 PUSH2 0x1A5C DUP7 DUP3 DUP8 ADD PUSH2 0x1947 JUMP JUMPDEST SWAP3 POP POP PUSH1 0x40 PUSH2 0x1A6D DUP7 DUP3 DUP8 ADD PUSH2 0x197A JUMP JUMPDEST SWAP2 POP POP SWAP3 POP SWAP3 POP SWAP3 JUMP JUMPDEST PUSH0 PUSH1 0xFF DUP3 AND SWAP1 POP SWAP2 SWAP1 POP JUMP JUMPDEST PUSH2 0x1A8C DUP2 PUSH2 0x1A77 JUMP JUMPDEST DUP3 MSTORE POP POP JUMP JUMPDEST PUSH0 PUSH1 0x20 DUP3 ADD SWAP1 POP PUSH2 0x1AA5 PUSH0 DUP4 ADD DUP5 PUSH2 0x1A83 JUMP JUMPDEST SWAP3 SWAP2 POP POP JUMP JUMPDEST PUSH0 PUSH1 0x20 DUP3 DUP5 SUB SLT ISZERO PUSH2 0x1AC0 JUMPI PUSH2 0x1ABF PUSH2 0x18FD JUMP JUMPDEST JUMPDEST PUSH0 PUSH2 0x1ACD DUP5 DUP3 DUP6 ADD PUSH2 0x1947 JUMP JUMPDEST SWAP2 POP POP SWAP3 SWAP2 POP POP JUMP JUMPDEST PUSH0 PUSH1 0x20 DUP3 DUP5 SUB SLT ISZERO PUSH2 0x1AEB JUMPI PUSH2 0x1AEA PUSH2 0x18FD JUMP JUMPDEST JUMPDEST PUSH0 PUSH2 0x1AF8 DUP5 DUP3 DUP6 ADD PUSH2 0x197A JUMP JUMPDEST SWAP2 POP POP SWAP3 SWAP2 POP POP JUMP JUMPDEST PUSH2 0x1B0A DUP2 PUSH2 0x1920 JUMP JUMPDEST DUP3 MSTORE POP POP JUMP JUMPDEST PUSH0 PUSH1 0x20 DUP3 ADD SWAP1 POP PUSH2 0x1B23 PUSH0 DUP4 ADD DUP5 PUSH2 0x1B01 JUMP JUMPDEST SWAP3 SWAP2 POP POP JUMP JUMPDEST PUSH0 PUSH1 0x80 DUP3 ADD SWAP1 POP PUSH2 0x1B3C PUSH0 DUP4 ADD DUP8 PUSH2 0x1B01 JUMP JUMPDEST PUSH2 0x1B49 PUSH1 0x20 DUP4 ADD DUP7 PUSH2 0x19FF JUMP JUMPDEST PUSH2 0x1B56 PUSH1 0x40 DUP4 ADD DUP6 PUSH2 0x19FF JUMP JUMPDEST PUSH2 0x1B63 PUSH1 0x60 DUP4 ADD DUP5 PUSH2 0x19FF JUMP JUMPDEST SWAP6 SWAP5 POP POP POP POP POP JUMP JUMPDEST PUSH0 DUP1 PUSH1 0x40 DUP4 DUP6 SUB SLT ISZERO PUSH2 0x1B82 JUMPI PUSH2 0x1B81 PUSH2 0x18FD JUMP JUMPDEST JUMPDEST PUSH0 PUSH2 0x1B8F DUP6 DUP3 DUP7 ADD PUSH2 0x1947 JUMP JUMPDEST SWAP3 POP POP PUSH1 0x20 PUSH2 0x1BA0 DUP6 DUP3 DUP7 ADD PUSH2 0x1947 JUMP JUMPDEST SWAP2 POP POP SWAP3 POP SWAP3 SWAP1 POP JUMP JUMPDEST PUSH32 0x4E487B7100000000000000000000000000000000000000000000000000000000 PUSH0 MSTORE PUSH1 0x22 PUSH1 0x4 MSTORE PUSH1 0x24 PUSH0 REVERT JUMPDEST PUSH0 PUSH1 0x2 DUP3 DIV SWAP1 POP PUSH1 0x1 DUP3 AND DUP1 PUSH2 0x1BEE JUMPI PUSH1 0x7F DUP3 AND SWAP2 POP JUMPDEST PUSH1 0x20 DUP3 LT DUP2 SUB PUSH2 0x1C01 JUMPI PUSH2 0x1C00 PUSH2 0x1BAA JUMP JUMPDEST JUMPDEST POP SWAP2 SWAP1 POP JUMP JUMPDEST PUSH32 0x536C6970706167652066656573206D757374206265206C657373207468616E20 PUSH0 DUP3 ADD MSTORE PUSH32 0x3525000000000000000000000000000000000000000000000000000000000000 PUSH1 0x20 DUP3 ADD MSTORE POP JUMP JUMPDEST PUSH0 PUSH2 0x1C61 PUSH1 0x22 DUP4 PUSH2 0x1877 JUMP JUMPDEST SWAP2 POP PUSH2 0x1C6C DUP3 PUSH2 0x1C07 JUMP JUMPDEST PUSH1 0x40 DUP3 ADD SWAP1 POP SWAP2 SWAP1 POP JUMP JUMPDEST PUSH0 PUSH1 0x20 DUP3 ADD SWAP1 POP DUP2 DUP2 SUB PUSH0 DUP4 ADD MSTORE PUSH2 0x1C8E DUP2 PUSH2 0x1C55 JUMP JUMPDEST SWAP1 POP SWAP2 SWAP1 POP JUMP JUMPDEST PUSH32 0x54617820666565206D757374206265206C657373207468616E20313025000000 PUSH0 DUP3 ADD MSTORE POP JUMP JUMPDEST PUSH0 PUSH2 0x1CC9 PUSH1 0x1D DUP4 PUSH2 0x1877 JUMP JUMPDEST SWAP2 POP PUSH2 0x1CD4 DUP3 PUSH2 0x1C95 JUMP JUMPDEST PUSH1 0x20 DUP3 ADD SWAP1 POP SWAP2 SWAP1 POP JUMP JUMPDEST PUSH0 PUSH1 0x20 DUP3 ADD SWAP1 POP DUP2 DUP2 SUB PUSH0 DUP4 ADD MSTORE PUSH2 0x1CF6 DUP2 PUSH2 0x1CBD JUMP JUMPDEST SWAP1 POP SWAP2 SWAP1 POP JUMP JUMPDEST PUSH32 0x426C61636B6C697374656420616464726573732063616E6E6F74206265207768 PUSH0 DUP3 ADD MSTORE PUSH32 0x6974656C69737465640000000000000000000000000000000000000000000000 PUSH1 0x20 DUP3 ADD MSTORE POP JUMP JUMPDEST PUSH0 PUSH2 0x1D57 PUSH1 0x29 DUP4 PUSH2 0x1877 JUMP JUMPDEST SWAP2 POP PUSH2 0x1D62 DUP3 PUSH2 0x1CFD JUMP JUMPDEST PUSH1 0x40 DUP3 ADD SWAP1 POP SWAP2 SWAP1 POP JUMP JUMPDEST PUSH0 PUSH1 0x20 DUP3 ADD SWAP1 POP DUP2 DUP2 SUB PUSH0 DUP4 ADD MSTORE PUSH2 0x1D84 DUP2 PUSH2 0x1D4B JUMP JUMPDEST SWAP1 POP SWAP2 SWAP1 POP JUMP JUMPDEST PUSH0 PUSH1 0x60 DUP3 ADD SWAP1 POP PUSH2 0x1D9E PUSH0 DUP4 ADD DUP7 PUSH2 0x1B01 JUMP JUMPDEST PUSH2 0x1DAB PUSH1 0x20 DUP4 ADD DUP6 PUSH2 0x19FF JUMP JUMPDEST PUSH2 0x1DB8 PUSH1 0x40 DUP4 ADD DUP5 PUSH2 0x19FF JUMP JUMPDEST SWAP5 SWAP4 POP POP POP POP JUMP JUMPDEST PUSH32 0x426C61636B6C6973746564204164647265737365730000000000000000000000 PUSH0 DUP3 ADD MSTORE POP JUMP JUMPDEST PUSH0 PUSH2 0x1DF4 PUSH1 0x15 DUP4 PUSH2 0x1877 JUMP JUMPDEST SWAP2 POP PUSH2 0x1DFF DUP3 PUSH2 0x1DC0 JUMP JUMPDEST PUSH1 0x20 DUP3 ADD SWAP1 POP SWAP2 SWAP1 POP JUMP JUMPDEST PUSH0 PUSH1 0x20 DUP3 ADD SWAP1 POP DUP2 DUP2 SUB PUSH0 DUP4 ADD MSTORE PUSH2 0x1E21 DUP2 PUSH2 0x1DE8 JUMP JUMPDEST SWAP1 POP SWAP2 SWAP1 POP JUMP JUMPDEST PUSH32 0x426F746820616464726573736573206D7573742062652077686974656C697374 PUSH0 DUP3 ADD MSTORE PUSH32 0x6564000000000000000000000000000000000000000000000000000000000000 PUSH1 0x20 DUP3 ADD MSTORE POP JUMP JUMPDEST PUSH0 PUSH2 0x1E82 PUSH1 0x22 DUP4 PUSH2 0x1877 JUMP JUMPDEST SWAP2 POP PUSH2 0x1E8D DUP3 PUSH2 0x1E28 JUMP JUMPDEST PUSH1 0x40 DUP3 ADD SWAP1 POP SWAP2 SWAP1 POP JUMP JUMPDEST PUSH0 PUSH1 0x20 DUP3 ADD SWAP1 POP DUP2 DUP2 SUB PUSH0 DUP4 ADD MSTORE PUSH2 0x1EAF DUP2 PUSH2 0x1E76 JUMP JUMPDEST SWAP1 POP SWAP2 SWAP1 POP JUMP JUMPDEST PUSH32 0x546F6B656E205472616E73666572204C696D6974204578636565646564000000 PUSH0 DUP3 ADD MSTORE POP JUMP JUMPDEST PUSH0 PUSH2 0x1EEA PUSH1 0x1D DUP4 PUSH2 0x1877 JUMP JUMPDEST SWAP2 POP PUSH2 0x1EF5 DUP3 PUSH2 0x1EB6 JUMP JUMPDEST PUSH1 0x20 DUP3 ADD SWAP1 POP SWAP2 SWAP1 POP JUMP JUMPDEST PUSH0 PUSH1 0x20 DUP3 ADD SWAP1 POP DUP2 DUP2 SUB PUSH0 DUP4 ADD MSTORE PUSH2 0x1F17 DUP2 PUSH2 0x1EDE JUMP JUMPDEST SWAP1 POP SWAP2 SWAP1 POP JUMP JUMPDEST PUSH32 0x4E487B7100000000000000000000000000000000000000000000000000000000 PUSH0 MSTORE PUSH1 0x11 PUSH1 0x4 MSTORE PUSH1 0x24 PUSH0 REVERT JUMPDEST PUSH0 PUSH2 0x1F55 DUP3 PUSH2 0x195B JUMP JUMPDEST SWAP2 POP PUSH2 0x1F60 DUP4 PUSH2 0x195B JUMP JUMPDEST SWAP3 POP DUP3 DUP3 ADD SWAP1 POP DUP1 DUP3 GT ISZERO PUSH2 0x1F78 JUMPI PUSH2 0x1F77 PUSH2 0x1F1E JUMP JUMPDEST JUMPDEST SWAP3 SWAP2 POP POP JUMP JUMPDEST PUSH32 0x546F6B656E205472616E7366657220696E20636F6F6C646F776E000000000000 PUSH0 DUP3 ADD MSTORE POP JUMP JUMPDEST PUSH0 PUSH2 0x1FB2 PUSH1 0x1A DUP4 PUSH2 0x1877 JUMP JUMPDEST SWAP2 POP PUSH2 0x1FBD DUP3 PUSH2 0x1F7E JUMP JUMPDEST PUSH1 0x20 DUP3 ADD SWAP1 POP SWAP2 SWAP1 POP JUMP JUMPDEST PUSH0 PUSH1 0x20 DUP3 ADD SWAP1 POP DUP2 DUP2 SUB PUSH0 DUP4 ADD MSTORE PUSH2 0x1FDF DUP2 PUSH2 0x1FA6 JUMP JUMPDEST SWAP1 POP SWAP2 SWAP1 POP JUMP JUMPDEST PUSH0 PUSH2 0x1FF0 DUP3 PUSH2 0x195B JUMP JUMPDEST SWAP2 POP PUSH2 0x1FFB DUP4 PUSH2 0x195B JUMP JUMPDEST SWAP3 POP DUP3 DUP3 MUL PUSH2 0x2009 DUP2 PUSH2 0x195B JUMP JUMPDEST SWAP2 POP DUP3 DUP3 DIV DUP5 EQ DUP4 ISZERO OR PUSH2 0x2020 JUMPI PUSH2 0x201F PUSH2 0x1F1E JUMP JUMPDEST JUMPDEST POP SWAP3 SWAP2 POP POP JUMP JUMPDEST PUSH32 0x4E487B7100000000000000000000000000000000000000000000000000000000 PUSH0 MSTORE PUSH1 0x12 PUSH1 0x4 MSTORE PUSH1 0x24 PUSH0 REVERT JUMPDEST PUSH0 PUSH2 0x205E DUP3 PUSH2 0x195B JUMP JUMPDEST SWAP2 POP PUSH2 0x2069 DUP4 PUSH2 0x195B JUMP JUMPDEST SWAP3 POP DUP3 PUSH2 0x2079 JUMPI PUSH2 0x2078 PUSH2 0x2027 JUMP JUMPDEST JUMPDEST DUP3 DUP3 DIV SWAP1 POP SWAP3 SWAP2 POP POP JUMP JUMPDEST PUSH0 PUSH2 0x208E DUP3 PUSH2 0x195B JUMP JUMPDEST SWAP2 POP PUSH2 0x2099 DUP4 PUSH2 0x195B JUMP JUMPDEST SWAP3 POP DUP3 DUP3 SUB SWAP1 POP DUP2 DUP2 GT ISZERO PUSH2 0x20B1 JUMPI PUSH2 0x20B0 PUSH2 0x1F1E JUMP JUMPDEST JUMPDEST SWAP3 SWAP2 POP POP JUMP INVALID LOG2 PUSH5 0x6970667358 0x22 SLT KECCAK256 0xC8 0xEE 0xF9 0xAD STOP 0xA7 0xB6 ORIGIN CODECOPY EXP CHAINID PUSH20 0x5F590F1C972C5B793843D324FB126788631B1973 PUSH5 0x736F6C6343 STOP ADDMOD BYTE STOP CALLER "
				},
				"gasEstimates": {
					"creation": {
						"codeDepositCost": "1685800",
						"executionCost": "infinite",
						"totalCost": "infinite"
					},
					"external": {
						"SlippageFees()": "2514",
						"addToBlacklist(address)": "infinite",
						"addToWhitelist(address)": "infinite",
						"allowance(address,address)": "infinite",
						"approve(address,uint256)": "infinite",
						"balanceOf(address)": "2875",
						"cooldownTime()": "2470",
						"decimals()": "450",
						"disableTax()": "infinite",
						"disableWhiteListing()": "infinite",
						"enableTax()": "infinite",
						"enableWhiteListing()": "infinite",
						"getContractDetails()": "infinite",
						"getMaxTxAmount()": "2543",
						"isBlacklisted(address)": "3002",
						"isWhiteListingEnabled()": "2519",
						"isWhitelisted(address)": "2916",
						"maxTxAmount()": "2537",
						"name()": "infinite",
						"owner()": "2560",
						"removeFromBlacklist(address)": "infinite",
						"removeFromWhitelist(address)": "infinite",
						"renounceOwnership()": "infinite",
						"setCoolDownTime(uint256)": "infinite",
						"setMaxTxAmount(uint256)": "infinite",
						"setSlippageFees(uint256)": "infinite",
						"setTaxes(uint256)": "infinite",
						"symbol()": "infinite",
						"taxAddress()": "2626",
						"taxFees()": "2516",
						"totalSupply()": "2545",
						"transfer(address,uint256)": "infinite",
						"transferFrom(address,address,uint256)": "infinite",
						"transferOwnership(address)": "infinite"
					},
					"internal": {
						"_update(address,address,uint256)": "infinite"
					}
				},
				"methodIdentifiers": {
					"SlippageFees()": "cc7a736d",
					"addToBlacklist(address)": "44337ea1",
					"addToWhitelist(address)": "e43252d7",
					"allowance(address,address)": "dd62ed3e",
					"approve(address,uint256)": "095ea7b3",
					"balanceOf(address)": "70a08231",
					"cooldownTime()": "b319c6b7",
					"decimals()": "313ce567",
					"disableTax()": "ced695a4",
					"disableWhiteListing()": "688188e8",
					"enableTax()": "53eb3bcf",
					"enableWhiteListing()": "2958ad7f",
					"getContractDetails()": "9dfc9117",
					"getMaxTxAmount()": "6d8b0527",
					"isBlacklisted(address)": "fe575a87",
					"isWhiteListingEnabled()": "1c0aecfa",
					"isWhitelisted(address)": "3af32abf",
					"maxTxAmount()": "8c0b5e22",
					"name()": "06fdde03",
					"owner()": "8da5cb5b",
					"removeFromBlacklist(address)": "537df3b6",
					"removeFromWhitelist(address)": "8ab1d681",
					"renounceOwnership()": "715018a6",
					"setCoolDownTime(uint256)": "6e16de11",
					"setMaxTxAmount(uint256)": "ec28438a",
					"setSlippageFees(uint256)": "49192418",
					"setTaxes(uint256)": "4ebc552d",
					"symbol()": "95d89b41",
					"taxAddress()": "b7bda68f",
					"taxFees()": "0ddc0976",
					"totalSupply()": "18160ddd",
					"transfer(address,uint256)": "a9059cbb",
					"transferFrom(address,address,uint256)": "23b872dd",
					"transferOwnership(address)": "f2fde38b"
				}
			},
			"storageLayout": {
				"storage": [
					{
						"astId": 307,
						"contract": "ChaiToken.sol:ChaiToken",
						"label": "_balances",
						"offset": 0,
						"slot": "0",
						"type": "t_mapping(t_address,t_uint256)"
					},
					{
						"astId": 313,
						"contract": "ChaiToken.sol:ChaiToken",
						"label": "_allowances",
						"offset": 0,
						"slot": "1",
						"type": "t_mapping(t_address,t_mapping(t_address,t_uint256))"
					},
					{
						"astId": 315,
						"contract": "ChaiToken.sol:ChaiToken",
						"label": "_totalSupply",
						"offset": 0,
						"slot": "2",
						"type": "t_uint256"
					},
					{
						"astId": 317,
						"contract": "ChaiToken.sol:ChaiToken",
						"label": "_name",
						"offset": 0,
						"slot": "3",
						"type": "t_string_storage"
					},
					{
						"astId": 319,
						"contract": "ChaiToken.sol:ChaiToken",
						"label": "_symbol",
						"offset": 0,
						"slot": "4",
						"type": "t_string_storage"
					},
					{
						"astId": 8,
						"contract": "ChaiToken.sol:ChaiToken",
						"label": "_owner",
						"offset": 0,
						"slot": "5",
						"type": "t_address"
					},
					{
						"astId": 949,
						"contract": "ChaiToken.sol:ChaiToken",
						"label": "_initialSupply",
						"offset": 0,
						"slot": "6",
						"type": "t_uint256"
					},
					{
						"astId": 952,
						"contract": "ChaiToken.sol:ChaiToken",
						"label": "maxTxAmount",
						"offset": 0,
						"slot": "7",
						"type": "t_uint256"
					},
					{
						"astId": 955,
						"contract": "ChaiToken.sol:ChaiToken",
						"label": "cooldownTime",
						"offset": 0,
						"slot": "8",
						"type": "t_uint256"
					},
					{
						"astId": 958,
						"contract": "ChaiToken.sol:ChaiToken",
						"label": "taxFees",
						"offset": 0,
						"slot": "9",
						"type": "t_uint256"
					},
					{
						"astId": 961,
						"contract": "ChaiToken.sol:ChaiToken",
						"label": "SlippageFees",
						"offset": 0,
						"slot": "10",
						"type": "t_uint256"
					},
					{
						"astId": 965,
						"contract": "ChaiToken.sol:ChaiToken",
						"label": "_blacklist",
						"offset": 0,
						"slot": "11",
						"type": "t_mapping(t_address,t_bool)"
					},
					{
						"astId": 969,
						"contract": "ChaiToken.sol:ChaiToken",
						"label": "_whitelist",
						"offset": 0,
						"slot": "12",
						"type": "t_mapping(t_address,t_bool)"
					},
					{
						"astId": 973,
						"contract": "ChaiToken.sol:ChaiToken",
						"label": "_lastTxTime",
						"offset": 0,
						"slot": "13",
						"type": "t_mapping(t_address,t_uint256)"
					},
					{
						"astId": 976,
						"contract": "ChaiToken.sol:ChaiToken",
						"label": "_whiteListingEnabled",
						"offset": 0,
						"slot": "14",
						"type": "t_bool"
					},
					{
						"astId": 979,
						"contract": "ChaiToken.sol:ChaiToken",
						"label": "_TaxEnabled",
						"offset": 1,
						"slot": "14",
						"type": "t_bool"
					},
					{
						"astId": 981,
						"contract": "ChaiToken.sol:ChaiToken",
						"label": "taxAddress",
						"offset": 2,
						"slot": "14",
						"type": "t_address"
					}
				],
				"types": {
					"t_address": {
						"encoding": "inplace",
						"label": "address",
						"numberOfBytes": "20"
					},
					"t_bool": {
						"encoding": "inplace",
						"label": "bool",
						"numberOfBytes": "1"
					},
					"t_mapping(t_address,t_bool)": {
						"encoding": "mapping",
						"key": "t_address",
						"label": "mapping(address => bool)",
						"numberOfBytes": "32",
						"value": "t_bool"
					},
					"t_mapping(t_address,t_mapping(t_address,t_uint256))": {
						"encoding": "mapping",
						"key": "t_address",
						"label": "mapping(address => mapping(address => uint256))",
						"numberOfBytes": "32",
						"value": "t_mapping(t_address,t_uint256)"
					},
					"t_mapping(t_address,t_uint256)": {
						"encoding": "mapping",
						"key": "t_address",
						"label": "mapping(address => uint256)",
						"numberOfBytes": "32",
						"value": "t_uint256"
					},
					"t_string_storage": {
						"encoding": "bytes",
						"label": "string",
						"numberOfBytes": "32"
					},
					"t_uint256": {
						"encoding": "inplace",
						"label": "uint256",
						"numberOfBytes": "32"
					}
				}
			},
			"userdoc": {
				"kind": "user",
				"methods": {},
				"version": 1
			}
		}
	}
}