{
	"ChaiToken_flattened.sol": {
		"ChaiToken": {
			"abi": [
				{
					"inputs": [
						{
							"internalType": "address",
							"name": "initialOwner",
							"type": "address"
						}
					],
					"stateMutability": "nonpayable",
					"type": "constructor"
				},
				{
					"inputs": [
						{
							"internalType": "address",
							"name": "spender",
							"type": "address"
						},
						{
							"internalType": "uint256",
							"name": "allowance",
							"type": "uint256"
						},
						{
							"internalType": "uint256",
							"name": "needed",
							"type": "uint256"
						}
					],
					"name": "ERC20InsufficientAllowance",
					"type": "error"
				},
				{
					"inputs": [
						{
							"internalType": "address",
							"name": "sender",
							"type": "address"
						},
						{
							"internalType": "uint256",
							"name": "balance",
							"type": "uint256"
						},
						{
							"internalType": "uint256",
							"name": "needed",
							"type": "uint256"
						}
					],
					"name": "ERC20InsufficientBalance",
					"type": "error"
				},
				{
					"inputs": [
						{
							"internalType": "address",
							"name": "approver",
							"type": "address"
						}
					],
					"name": "ERC20InvalidApprover",
					"type": "error"
				},
				{
					"inputs": [
						{
							"internalType": "address",
							"name": "receiver",
							"type": "address"
						}
					],
					"name": "ERC20InvalidReceiver",
					"type": "error"
				},
				{
					"inputs": [
						{
							"internalType": "address",
							"name": "sender",
							"type": "address"
						}
					],
					"name": "ERC20InvalidSender",
					"type": "error"
				},
				{
					"inputs": [
						{
							"internalType": "address",
							"name": "spender",
							"type": "address"
						}
					],
					"name": "ERC20InvalidSpender",
					"type": "error"
				},
				{
					"inputs": [
						{
							"internalType": "address",
							"name": "owner",
							"type": "address"
						}
					],
					"name": "OwnableInvalidOwner",
					"type": "error"
				},
				{
					"inputs": [
						{
							"internalType": "address",
							"name": "account",
							"type": "address"
						}
					],
					"name": "OwnableUnauthorizedAccount",
					"type": "error"
				},
				{
					"anonymous": false,
					"inputs": [
						{
							"indexed": true,
							"internalType": "address",
							"name": "owner",
							"type": "address"
						},
						{
							"indexed": true,
							"internalType": "address",
							"name": "spender",
							"type": "address"
						},
						{
							"indexed": false,
							"internalType": "uint256",
							"name": "value",
							"type": "uint256"
						}
					],
					"name": "Approval",
					"type": "event"
				},
				{
					"anonymous": false,
					"inputs": [
						{
							"indexed": true,
							"internalType": "address",
							"name": "previousOwner",
							"type": "address"
						},
						{
							"indexed": true,
							"internalType": "address",
							"name": "newOwner",
							"type": "address"
						}
					],
					"name": "OwnershipTransferred",
					"type": "event"
				},
				{
					"anonymous": false,
					"inputs": [
						{
							"indexed": true,
							"internalType": "address",
							"name": "from",
							"type": "address"
						},
						{
							"indexed": true,
							"internalType": "address",
							"name": "to",
							"type": "address"
						},
						{
							"indexed": false,
							"internalType": "uint256",
							"name": "value",
							"type": "uint256"
						}
					],
					"name": "Transfer",
					"type": "event"
				},
				{
					"inputs": [
						{
							"internalType": "address",
							"name": "account",
							"type": "address"
						}
					],
					"name": "addToBlacklist",
					"outputs": [],
					"stateMutability": "nonpayable",
					"type": "function"
				},
				{
					"inputs": [
						{
							"internalType": "address",
							"name": "account",
							"type": "address"
						}
					],
					"name": "addToWhitelist",
					"outputs": [],
					"stateMutability": "nonpayable",
					"type": "function"
				},
				{
					"inputs": [
						{
							"internalType": "address",
							"name": "owner",
							"type": "address"
						},
						{
							"internalType": "address",
							"name": "spender",
							"type": "address"
						}
					],
					"name": "allowance",
					"outputs": [
						{
							"internalType": "uint256",
							"name": "",
							"type": "uint256"
						}
					],
					"stateMutability": "view",
					"type": "function"
				},
				{
					"inputs": [
						{
							"internalType": "address",
							"name": "spender",
							"type": "address"
						},
						{
							"internalType": "uint256",
							"name": "value",
							"type": "uint256"
						}
					],
					"name": "approve",
					"outputs": [
						{
							"internalType": "bool",
							"name": "",
							"type": "bool"
						}
					],
					"stateMutability": "nonpayable",
					"type": "function"
				},
				{
					"inputs": [
						{
							"internalType": "address",
							"name": "account",
							"type": "address"
						}
					],
					"name": "balanceOf",
					"outputs": [
						{
							"internalType": "uint256",
							"name": "",
							"type": "uint256"
						}
					],
					"stateMutability": "view",
					"type": "function"
				},
				{
					"inputs": [],
					"name": "cooldownTime",
					"outputs": [
						{
							"internalType": "uint256",
							"name": "",
							"type": "uint256"
						}
					],
					"stateMutability": "view",
					"type": "function"
				},
				{
					"inputs": [],
					"name": "decimals",
					"outputs": [
						{
							"internalType": "uint8",
							"name": "",
							"type": "uint8"
						}
					],
					"stateMutability": "view",
					"type": "function"
				},
				{
					"inputs": [],
					"name": "disableWhiteListing",
					"outputs": [],
					"stateMutability": "nonpayable",
					"type": "function"
				},
				{
					"inputs": [],
					"name": "enableWhiteListing",
					"outputs": [],
					"stateMutability": "nonpayable",
					"type": "function"
				},
				{
					"inputs": [],
					"name": "getContractDetails",
					"outputs": [
						{
							"internalType": "address",
							"name": "",
							"type": "address"
						},
						{
							"internalType": "uint256",
							"name": "",
							"type": "uint256"
						},
						{
							"internalType": "uint256",
							"name": "",
							"type": "uint256"
						},
						{
							"internalType": "uint256",
							"name": "",
							"type": "uint256"
						}
					],
					"stateMutability": "view",
					"type": "function"
				},
				{
					"inputs": [],
					"name": "getMaxTxAmount",
					"outputs": [
						{
							"internalType": "uint256",
							"name": "",
							"type": "uint256"
						}
					],
					"stateMutability": "view",
					"type": "function"
				},
				{
					"inputs": [
						{
							"internalType": "address",
							"name": "account",
							"type": "address"
						}
					],
					"name": "isBlacklisted",
					"outputs": [
						{
							"internalType": "bool",
							"name": "",
							"type": "bool"
						}
					],
					"stateMutability": "view",
					"type": "function"
				},
				{
					"inputs": [],
					"name": "isWhiteListingEnabled",
					"outputs": [
						{
							"internalType": "bool",
							"name": "",
							"type": "bool"
						}
					],
					"stateMutability": "view",
					"type": "function"
				},
				{
					"inputs": [
						{
							"internalType": "address",
							"name": "account",
							"type": "address"
						}
					],
					"name": "isWhitelisted",
					"outputs": [
						{
							"internalType": "bool",
							"name": "",
							"type": "bool"
						}
					],
					"stateMutability": "view",
					"type": "function"
				},
				{
					"inputs": [],
					"name": "maxTxAmount",
					"outputs": [
						{
							"internalType": "uint256",
							"name": "",
							"type": "uint256"
						}
					],
					"stateMutability": "view",
					"type": "function"
				},
				{
					"inputs": [],
					"name": "name",
					"outputs": [
						{
							"internalType": "string",
							"name": "",
							"type": "string"
						}
					],
					"stateMutability": "view",
					"type": "function"
				},
				{
					"inputs": [],
					"name": "owner",
					"outputs": [
						{
							"internalType": "address",
							"name": "",
							"type": "address"
						}
					],
					"stateMutability": "view",
					"type": "function"
				},
				{
					"inputs": [
						{
							"internalType": "address",
							"name": "account",
							"type": "address"
						}
					],
					"name": "removeFromBlacklist",
					"outputs": [],
					"stateMutability": "nonpayable",
					"type": "function"
				},
				{
					"inputs": [
						{
							"internalType": "address",
							"name": "account",
							"type": "address"
						}
					],
					"name": "removeFromWhitelist",
					"outputs": [],
					"stateMutability": "nonpayable",
					"type": "function"
				},
				{
					"inputs": [],
					"name": "renounceOwnership",
					"outputs": [],
					"stateMutability": "nonpayable",
					"type": "function"
				},
				{
					"inputs": [
						{
							"internalType": "uint256",
							"name": "newCoolDowntime",
							"type": "uint256"
						}
					],
					"name": "setCoolDownTime",
					"outputs": [],
					"stateMutability": "nonpayable",
					"type": "function"
				},
				{
					"inputs": [
						{
							"internalType": "uint256",
							"name": "newMaxTxAmount",
							"type": "uint256"
						}
					],
					"name": "setMaxTxAmount",
					"outputs": [],
					"stateMutability": "nonpayable",
					"type": "function"
				},
				{
					"inputs": [],
					"name": "symbol",
					"outputs": [
						{
							"internalType": "string",
							"name": "",
							"type": "string"
						}
					],
					"stateMutability": "view",
					"type": "function"
				},
				{
					"inputs": [],
					"name": "totalSupply",
					"outputs": [
						{
							"internalType": "uint256",
							"name": "",
							"type": "uint256"
						}
					],
					"stateMutability": "view",
					"type": "function"
				},
				{
					"inputs": [
						{
							"internalType": "address",
							"name": "to",
							"type": "address"
						},
						{
							"internalType": "uint256",
							"name": "value",
							"type": "uint256"
						}
					],
					"name": "transfer",
					"outputs": [
						{
							"internalType": "bool",
							"name": "",
							"type": "bool"
						}
					],
					"stateMutability": "nonpayable",
					"type": "function"
				},
				{
					"inputs": [
						{
							"internalType": "address",
							"name": "from",
							"type": "address"
						},
						{
							"internalType": "address",
							"name": "to",
							"type": "address"
						},
						{
							"internalType": "uint256",
							"name": "value",
							"type": "uint256"
						}
					],
					"name": "transferFrom",
					"outputs": [
						{
							"internalType": "bool",
							"name": "",
							"type": "bool"
						}
					],
					"stateMutability": "nonpayable",
					"type": "function"
				},
				{
					"inputs": [
						{
							"internalType": "address",
							"name": "newOwner",
							"type": "address"
						}
					],
					"name": "transferOwnership",
					"outputs": [],
					"stateMutability": "nonpayable",
					"type": "function"
				}
			],
			"devdoc": {
				"errors": {
					"ERC20InsufficientAllowance(address,uint256,uint256)": [
						{
							"details": "Indicates a failure with the `spender`’s `allowance`. Used in transfers.",
							"params": {
								"allowance": "Amount of tokens a `spender` is allowed to operate with.",
								"needed": "Minimum amount required to perform a transfer.",
								"spender": "Address that may be allowed to operate on tokens without being their owner."
							}
						}
					],
					"ERC20InsufficientBalance(address,uint256,uint256)": [
						{
							"details": "Indicates an error related to the current `balance` of a `sender`. Used in transfers.",
							"params": {
								"balance": "Current balance for the interacting account.",
								"needed": "Minimum amount required to perform a transfer.",
								"sender": "Address whose tokens are being transferred."
							}
						}
					],
					"ERC20InvalidApprover(address)": [
						{
							"details": "Indicates a failure with the `approver` of a token to be approved. Used in approvals.",
							"params": {
								"approver": "Address initiating an approval operation."
							}
						}
					],
					"ERC20InvalidReceiver(address)": [
						{
							"details": "Indicates a failure with the token `receiver`. Used in transfers.",
							"params": {
								"receiver": "Address to which tokens are being transferred."
							}
						}
					],
					"ERC20InvalidSender(address)": [
						{
							"details": "Indicates a failure with the token `sender`. Used in transfers.",
							"params": {
								"sender": "Address whose tokens are being transferred."
							}
						}
					],
					"ERC20InvalidSpender(address)": [
						{
							"details": "Indicates a failure with the `spender` to be approved. Used in approvals.",
							"params": {
								"spender": "Address that may be allowed to operate on tokens without being their owner."
							}
						}
					],
					"OwnableInvalidOwner(address)": [
						{
							"details": "The owner is not a valid owner account. (eg. `address(0)`)"
						}
					],
					"OwnableUnauthorizedAccount(address)": [
						{
							"details": "The caller account is not authorized to perform an operation."
						}
					]
				},
				"events": {
					"Approval(address,address,uint256)": {
						"details": "Emitted when the allowance of a `spender` for an `owner` is set by a call to {approve}. `value` is the new allowance."
					},
					"Transfer(address,address,uint256)": {
						"details": "Emitted when `value` tokens are moved from one account (`from`) to another (`to`). Note that `value` may be zero."
					}
				},
				"kind": "dev",
				"methods": {
					"allowance(address,address)": {
						"details": "See {IERC20-allowance}."
					},
					"approve(address,uint256)": {
						"details": "See {IERC20-approve}. NOTE: If `value` is the maximum `uint256`, the allowance is not updated on `transferFrom`. This is semantically equivalent to an infinite approval. Requirements: - `spender` cannot be the zero address."
					},
					"balanceOf(address)": {
						"details": "See {IERC20-balanceOf}."
					},
					"decimals()": {
						"details": "Returns the number of decimals used to get its user representation. For example, if `decimals` equals `2`, a balance of `505` tokens should be displayed to a user as `5.05` (`505 / 10 ** 2`). Tokens usually opt for a value of 18, imitating the relationship between Ether and Wei. This is the default value returned by this function, unless it's overridden. NOTE: This information is only used for _display_ purposes: it in no way affects any of the arithmetic of the contract, including {IERC20-balanceOf} and {IERC20-transfer}."
					},
					"name()": {
						"details": "Returns the name of the token."
					},
					"owner()": {
						"details": "Returns the address of the current owner."
					},
					"renounceOwnership()": {
						"details": "Leaves the contract without owner. It will not be possible to call `onlyOwner` functions. Can only be called by the current owner. NOTE: Renouncing ownership will leave the contract without an owner, thereby disabling any functionality that is only available to the owner."
					},
					"symbol()": {
						"details": "Returns the symbol of the token, usually a shorter version of the name."
					},
					"totalSupply()": {
						"details": "See {IERC20-totalSupply}."
					},
					"transfer(address,uint256)": {
						"details": "See {IERC20-transfer}. Requirements: - `to` cannot be the zero address. - the caller must have a balance of at least `value`."
					},
					"transferFrom(address,address,uint256)": {
						"details": "See {IERC20-transferFrom}. Emits an {Approval} event indicating the updated allowance. This is not required by the EIP. See the note at the beginning of {ERC20}. NOTE: Does not update the allowance if the current allowance is the maximum `uint256`. Requirements: - `from` and `to` cannot be the zero address. - `from` must have a balance of at least `value`. - the caller must have allowance for ``from``'s tokens of at least `value`."
					},
					"transferOwnership(address)": {
						"details": "Transfers ownership of the contract to a new account (`newOwner`). Can only be called by the current owner."
					}
				},
				"version": 1
			},
			"evm": {
				"assembly": "    /* \"ChaiToken_flattened.sol\":25217:28281  contract ChaiToken is ERC20, Ownable {... */\n  mstore(0x40, 0x80)\n    /* \"ChaiToken_flattened.sol\":25309:25319  decimals() */\n  tag_1\n    /* \"ChaiToken_flattened.sol\":25309:25317  decimals */\n  shl(0x20, tag_2)\n    /* \"ChaiToken_flattened.sol\":25309:25319  decimals() */\n  0x20\n  shr\n  jump\t// in\ntag_1:\n    /* \"ChaiToken_flattened.sol\":25305:25307  10 */\n  0x0a\n    /* \"ChaiToken_flattened.sol\":25305:25319  10**decimals() */\n  tag_3\n  swap2\n  swap1\n  tag_4\n  jump\t// in\ntag_3:\n    /* \"ChaiToken_flattened.sol\":25293:25302  100000000 */\n  0x05f5e100\n    /* \"ChaiToken_flattened.sol\":25293:25319  100000000 * 10**decimals() */\n  tag_5\n  swap2\n  swap1\n  tag_6\n  jump\t// in\ntag_5:\n    /* \"ChaiToken_flattened.sol\":25260:25319  uint256 private _initialSupply = 100000000 * 10**decimals() */\n  0x06\n  sstore\n    /* \"ChaiToken_flattened.sol\":25376:25390  _initialSupply */\n  sload(0x06)\n    /* \"ChaiToken_flattened.sol\":25347:25390  uint256 public maxTxAmount = _initialSupply */\n  0x07\n  sstore\n    /* \"ChaiToken_flattened.sol\":25426:25435  1 minutes */\n  0x3c\n    /* \"ChaiToken_flattened.sol\":25396:25435  uint256 public cooldownTime = 1 minutes */\n  0x08\n  sstore\n    /* \"ChaiToken_flattened.sol\":25629:25634  false */\n  0x00\n    /* \"ChaiToken_flattened.sol\":25593:25634  bool private _whiteListingEnabled = false */\n  0x0c\n  exp(0x0100, 0x00)\n  dup2\n  sload\n  dup2\n  0xff\n  mul\n  not\n  and\n  swap1\n  dup4\n  iszero\n  iszero\n  mul\n  or\n  swap1\n  sstore\n  pop\n    /* \"ChaiToken_flattened.sol\":25641:25881  constructor(address initialOwner)... */\n  callvalue\n  dup1\n  iszero\n  tag_7\n  jumpi\n  0x00\n  dup1\n  revert\ntag_7:\n  pop\n  mload(0x40)\n  sub(codesize, bytecodeSize)\n  dup1\n  bytecodeSize\n  dup4\n  codecopy\n  dup2\n  dup2\n  add\n  0x40\n  mstore\n  dup2\n  add\n  swap1\n  tag_8\n  swap2\n  swap1\n  tag_9\n  jump\t// in\ntag_8:\n    /* \"ChaiToken_flattened.sol\":25726:25738  initialOwner */\n  dup1\n    /* \"ChaiToken_flattened.sol\":12788:12901  constructor(string memory name_, string memory symbol_) {... */\n  mload(0x40)\n  dup1\n  0x40\n  add\n  0x40\n  mstore\n  dup1\n  0x09\n  dup2\n  mstore\n  0x20\n  add\n  0x43686169546f6b656e0000000000000000000000000000000000000000000000\n  dup2\n  mstore\n  pop\n  mload(0x40)\n  dup1\n  0x40\n  add\n  0x40\n  mstore\n  dup1\n  0x04\n  dup2\n  mstore\n  0x20\n  add\n  0x4368616900000000000000000000000000000000000000000000000000000000\n  dup2\n  mstore\n  pop\n    /* \"ChaiToken_flattened.sol\":12862:12867  name_ */\n  dup2\n    /* \"ChaiToken_flattened.sol\":12854:12859  _name */\n  0x03\n    /* \"ChaiToken_flattened.sol\":12854:12867  _name = name_ */\n  swap1\n  dup2\n  tag_14\n  swap2\n  swap1\n  tag_15\n  jump\t// in\ntag_14:\n  pop\n    /* \"ChaiToken_flattened.sol\":12887:12894  symbol_ */\n  dup1\n    /* \"ChaiToken_flattened.sol\":12877:12884  _symbol */\n  0x04\n    /* \"ChaiToken_flattened.sol\":12877:12894  _symbol = symbol_ */\n  swap1\n  dup2\n  tag_16\n  swap2\n  swap1\n  tag_15\n  jump\t// in\ntag_16:\n  pop\n    /* \"ChaiToken_flattened.sol\":12788:12901  constructor(string memory name_, string memory symbol_) {... */\n  pop\n  pop\n    /* \"ChaiToken_flattened.sol\":23309:23310  0 */\n  0x00\n    /* \"ChaiToken_flattened.sol\":23285:23311  initialOwner == address(0) */\n  0xffffffffffffffffffffffffffffffffffffffff\n  and\n    /* \"ChaiToken_flattened.sol\":23285:23297  initialOwner */\n  dup2\n    /* \"ChaiToken_flattened.sol\":23285:23311  initialOwner == address(0) */\n  0xffffffffffffffffffffffffffffffffffffffff\n  and\n  sub\n    /* \"ChaiToken_flattened.sol\":23281:23376  if (initialOwner == address(0)) {... */\n  tag_18\n  jumpi\n    /* \"ChaiToken_flattened.sol\":23362:23363  0 */\n  0x00\n    /* \"ChaiToken_flattened.sol\":23334:23365  OwnableInvalidOwner(address(0)) */\n  mload(0x40)\n  0x1e4fbdf700000000000000000000000000000000000000000000000000000000\n  dup2\n  mstore\n  0x04\n  add\n  tag_19\n  swap2\n  swap1\n  tag_20\n  jump\t// in\ntag_19:\n  mload(0x40)\n  dup1\n  swap2\n  sub\n  swap1\n  revert\n    /* \"ChaiToken_flattened.sol\":23281:23376  if (initialOwner == address(0)) {... */\ntag_18:\n    /* \"ChaiToken_flattened.sol\":23385:23417  _transferOwnership(initialOwner) */\n  tag_21\n    /* \"ChaiToken_flattened.sol\":23404:23416  initialOwner */\n  dup2\n    /* \"ChaiToken_flattened.sol\":23385:23403  _transferOwnership */\n  shl(0x20, tag_22)\n    /* \"ChaiToken_flattened.sol\":23385:23417  _transferOwnership(initialOwner) */\n  0x20\n  shr\n  jump\t// in\ntag_21:\n    /* \"ChaiToken_flattened.sol\":23237:23424  constructor(address initialOwner) {... */\n  pop\n    /* \"ChaiToken_flattened.sol\":25754:25789  _mint(initialOwner, _initialSupply) */\n  tag_24\n    /* \"ChaiToken_flattened.sol\":25760:25772  initialOwner */\n  dup2\n    /* \"ChaiToken_flattened.sol\":25774:25788  _initialSupply */\n  sload(0x06)\n    /* \"ChaiToken_flattened.sol\":25754:25759  _mint */\n  shl(0x20, tag_25)\n    /* \"ChaiToken_flattened.sol\":25754:25789  _mint(initialOwner, _initialSupply) */\n  0x20\n  shr\n  jump\t// in\ntag_24:\n    /* \"ChaiToken_flattened.sol\":25870:25874  true */\n  0x01\n    /* \"ChaiToken_flattened.sol\":25843:25853  _whitelist */\n  0x0a\n    /* \"ChaiToken_flattened.sol\":25843:25867  _whitelist[initialOwner] */\n  0x00\n    /* \"ChaiToken_flattened.sol\":25854:25866  initialOwner */\n  dup4\n    /* \"ChaiToken_flattened.sol\":25843:25867  _whitelist[initialOwner] */\n  0xffffffffffffffffffffffffffffffffffffffff\n  and\n  0xffffffffffffffffffffffffffffffffffffffff\n  and\n  dup2\n  mstore\n  0x20\n  add\n  swap1\n  dup2\n  mstore\n  0x20\n  add\n  0x00\n  keccak256\n  0x00\n    /* \"ChaiToken_flattened.sol\":25843:25874  _whitelist[initialOwner] = true */\n  0x0100\n  exp\n  dup2\n  sload\n  dup2\n  0xff\n  mul\n  not\n  and\n  swap1\n  dup4\n  iszero\n  iszero\n  mul\n  or\n  swap1\n  sstore\n  pop\n    /* \"ChaiToken_flattened.sol\":25641:25881  constructor(address initialOwner)... */\n  pop\n    /* \"ChaiToken_flattened.sol\":25217:28281  contract ChaiToken is ERC20, Ownable {... */\n  jump(tag_26)\n    /* \"ChaiToken_flattened.sol\":13894:13976  function decimals() public view virtual returns (uint8) {... */\ntag_2:\n    /* \"ChaiToken_flattened.sol\":13943:13948  uint8 */\n  0x00\n    /* \"ChaiToken_flattened.sol\":13967:13969  18 */\n  0x12\n    /* \"ChaiToken_flattened.sol\":13960:13969  return 18 */\n  swap1\n  pop\n    /* \"ChaiToken_flattened.sol\":13894:13976  function decimals() public view virtual returns (uint8) {... */\n  swap1\n  jump\t// out\n    /* \"ChaiToken_flattened.sol\":24924:25111  function _transferOwnership(address newOwner) internal virtual {... */\ntag_22:\n    /* \"ChaiToken_flattened.sol\":24997:25013  address oldOwner */\n  0x00\n    /* \"ChaiToken_flattened.sol\":25016:25022  _owner */\n  0x05\n  0x00\n  swap1\n  sload\n  swap1\n  0x0100\n  exp\n  swap1\n  div\n  0xffffffffffffffffffffffffffffffffffffffff\n  and\n    /* \"ChaiToken_flattened.sol\":24997:25022  address oldOwner = _owner */\n  swap1\n  pop\n    /* \"ChaiToken_flattened.sol\":25041:25049  newOwner */\n  dup2\n    /* \"ChaiToken_flattened.sol\":25032:25038  _owner */\n  0x05\n  0x00\n    /* \"ChaiToken_flattened.sol\":25032:25049  _owner = newOwner */\n  0x0100\n  exp\n  dup2\n  sload\n  dup2\n  0xffffffffffffffffffffffffffffffffffffffff\n  mul\n  not\n  and\n  swap1\n  dup4\n  0xffffffffffffffffffffffffffffffffffffffff\n  and\n  mul\n  or\n  swap1\n  sstore\n  pop\n    /* \"ChaiToken_flattened.sol\":25095:25103  newOwner */\n  dup2\n    /* \"ChaiToken_flattened.sol\":25064:25104  OwnershipTransferred(oldOwner, newOwner) */\n  0xffffffffffffffffffffffffffffffffffffffff\n  and\n    /* \"ChaiToken_flattened.sol\":25085:25093  oldOwner */\n  dup2\n    /* \"ChaiToken_flattened.sol\":25064:25104  OwnershipTransferred(oldOwner, newOwner) */\n  0xffffffffffffffffffffffffffffffffffffffff\n  and\n  0x8be0079c531659141344cd1fd0a4f28419497f9722a3daafe3b4186f6b6457e0\n  mload(0x40)\n  mload(0x40)\n  dup1\n  swap2\n  sub\n  swap1\n  log3\n    /* \"ChaiToken_flattened.sol\":24987:25111  {... */\n  pop\n    /* \"ChaiToken_flattened.sol\":24924:25111  function _transferOwnership(address newOwner) internal virtual {... */\n  pop\n  jump\t// out\n    /* \"ChaiToken_flattened.sol\":18613:18821  function _mint(address account, uint256 value) internal {... */\ntag_25:\n    /* \"ChaiToken_flattened.sol\":18702:18703  0 */\n  0x00\n    /* \"ChaiToken_flattened.sol\":18683:18704  account == address(0) */\n  0xffffffffffffffffffffffffffffffffffffffff\n  and\n    /* \"ChaiToken_flattened.sol\":18683:18690  account */\n  dup3\n    /* \"ChaiToken_flattened.sol\":18683:18704  account == address(0) */\n  0xffffffffffffffffffffffffffffffffffffffff\n  and\n  sub\n    /* \"ChaiToken_flattened.sol\":18679:18770  if (account == address(0)) {... */\n  tag_30\n  jumpi\n    /* \"ChaiToken_flattened.sol\":18756:18757  0 */\n  0x00\n    /* \"ChaiToken_flattened.sol\":18727:18759  ERC20InvalidReceiver(address(0)) */\n  mload(0x40)\n  0xec442f0500000000000000000000000000000000000000000000000000000000\n  dup2\n  mstore\n  0x04\n  add\n  tag_31\n  swap2\n  swap1\n  tag_20\n  jump\t// in\ntag_31:\n  mload(0x40)\n  dup1\n  swap2\n  sub\n  swap1\n  revert\n    /* \"ChaiToken_flattened.sol\":18679:18770  if (account == address(0)) {... */\ntag_30:\n    /* \"ChaiToken_flattened.sol\":18779:18814  _update(address(0), account, value) */\n  tag_32\n    /* \"ChaiToken_flattened.sol\":18795:18796  0 */\n  0x00\n    /* \"ChaiToken_flattened.sol\":18799:18806  account */\n  dup4\n    /* \"ChaiToken_flattened.sol\":18808:18813  value */\n  dup4\n    /* \"ChaiToken_flattened.sol\":18779:18786  _update */\n  shl(0x20, tag_33)\n    /* \"ChaiToken_flattened.sol\":18779:18814  _update(address(0), account, value) */\n  0x20\n  shr\n  jump\t// in\ntag_32:\n    /* \"ChaiToken_flattened.sol\":18613:18821  function _mint(address account, uint256 value) internal {... */\n  pop\n  pop\n  jump\t// out\n    /* \"ChaiToken_flattened.sol\":27665:28278  function _update(address from, address to, uint256 value) internal override ... */\ntag_33:\n    /* \"ChaiToken_flattened.sol\":27765:27775  _blacklist */\n  0x09\n    /* \"ChaiToken_flattened.sol\":27765:27781  _blacklist[from] */\n  0x00\n    /* \"ChaiToken_flattened.sol\":27776:27780  from */\n  dup5\n    /* \"ChaiToken_flattened.sol\":27765:27781  _blacklist[from] */\n  0xffffffffffffffffffffffffffffffffffffffff\n  and\n  0xffffffffffffffffffffffffffffffffffffffff\n  and\n  dup2\n  mstore\n  0x20\n  add\n  swap1\n  dup2\n  mstore\n  0x20\n  add\n  0x00\n  keccak256\n  0x00\n  swap1\n  sload\n  swap1\n  0x0100\n  exp\n  swap1\n  div\n  0xff\n  and\n    /* \"ChaiToken_flattened.sol\":27764:27781  !_blacklist[from] */\n  iszero\n    /* \"ChaiToken_flattened.sol\":27764:27800  !_blacklist[from] && !_blacklist[to] */\n  dup1\n  iszero\n  tag_35\n  jumpi\n  pop\n    /* \"ChaiToken_flattened.sol\":27786:27796  _blacklist */\n  0x09\n    /* \"ChaiToken_flattened.sol\":27786:27800  _blacklist[to] */\n  0x00\n    /* \"ChaiToken_flattened.sol\":27797:27799  to */\n  dup4\n    /* \"ChaiToken_flattened.sol\":27786:27800  _blacklist[to] */\n  0xffffffffffffffffffffffffffffffffffffffff\n  and\n  0xffffffffffffffffffffffffffffffffffffffff\n  and\n  dup2\n  mstore\n  0x20\n  add\n  swap1\n  dup2\n  mstore\n  0x20\n  add\n  0x00\n  keccak256\n  0x00\n  swap1\n  sload\n  swap1\n  0x0100\n  exp\n  swap1\n  div\n  0xff\n  and\n    /* \"ChaiToken_flattened.sol\":27785:27800  !_blacklist[to] */\n  iszero\n    /* \"ChaiToken_flattened.sol\":27764:27800  !_blacklist[from] && !_blacklist[to] */\ntag_35:\n    /* \"ChaiToken_flattened.sol\":27756:27827  require(!_blacklist[from] && !_blacklist[to] , \"Blacklisted Addresses\") */\n  tag_36\n  jumpi\n  mload(0x40)\n  0x08c379a000000000000000000000000000000000000000000000000000000000\n  dup2\n  mstore\n  0x04\n  add\n  tag_37\n  swap1\n  tag_38\n  jump\t// in\ntag_37:\n  mload(0x40)\n  dup1\n  swap2\n  sub\n  swap1\n  revert\ntag_36:\n    /* \"ChaiToken_flattened.sol\":27840:27860  _whiteListingEnabled */\n  0x0c\n  0x00\n  swap1\n  sload\n  swap1\n  0x0100\n  exp\n  swap1\n  div\n  0xff\n  and\n    /* \"ChaiToken_flattened.sol\":27837:27977  if(_whiteListingEnabled)... */\n  iszero\n  tag_39\n  jumpi\n    /* \"ChaiToken_flattened.sol\":27892:27902  _whitelist */\n  0x0a\n    /* \"ChaiToken_flattened.sol\":27892:27908  _whitelist[from] */\n  0x00\n    /* \"ChaiToken_flattened.sol\":27903:27907  from */\n  dup5\n    /* \"ChaiToken_flattened.sol\":27892:27908  _whitelist[from] */\n  0xffffffffffffffffffffffffffffffffffffffff\n  and\n  0xffffffffffffffffffffffffffffffffffffffff\n  and\n  dup2\n  mstore\n  0x20\n  add\n  swap1\n  dup2\n  mstore\n  0x20\n  add\n  0x00\n  keccak256\n  0x00\n  swap1\n  sload\n  swap1\n  0x0100\n  exp\n  swap1\n  div\n  0xff\n  and\n    /* \"ChaiToken_flattened.sol\":27892:27926  _whitelist[from] && _whitelist[to] */\n  dup1\n  iszero\n  tag_40\n  jumpi\n  pop\n    /* \"ChaiToken_flattened.sol\":27912:27922  _whitelist */\n  0x0a\n    /* \"ChaiToken_flattened.sol\":27912:27926  _whitelist[to] */\n  0x00\n    /* \"ChaiToken_flattened.sol\":27923:27925  to */\n  dup4\n    /* \"ChaiToken_flattened.sol\":27912:27926  _whitelist[to] */\n  0xffffffffffffffffffffffffffffffffffffffff\n  and\n  0xffffffffffffffffffffffffffffffffffffffff\n  and\n  dup2\n  mstore\n  0x20\n  add\n  swap1\n  dup2\n  mstore\n  0x20\n  add\n  0x00\n  keccak256\n  0x00\n  swap1\n  sload\n  swap1\n  0x0100\n  exp\n  swap1\n  div\n  0xff\n  and\n    /* \"ChaiToken_flattened.sol\":27892:27926  _whitelist[from] && _whitelist[to] */\ntag_40:\n    /* \"ChaiToken_flattened.sol\":27884:27966  require(_whitelist[from] && _whitelist[to] , \"Both addresses must be whitelisted\") */\n  tag_41\n  jumpi\n  mload(0x40)\n  0x08c379a000000000000000000000000000000000000000000000000000000000\n  dup2\n  mstore\n  0x04\n  add\n  tag_42\n  swap1\n  tag_43\n  jump\t// in\ntag_42:\n  mload(0x40)\n  dup1\n  swap2\n  sub\n  swap1\n  revert\ntag_41:\n    /* \"ChaiToken_flattened.sol\":27837:27977  if(_whiteListingEnabled)... */\ntag_39:\n    /* \"ChaiToken_flattened.sol\":28003:28014  maxTxAmount */\n  sload(0x07)\n    /* \"ChaiToken_flattened.sol\":27994:27999  value */\n  dup2\n    /* \"ChaiToken_flattened.sol\":27994:28014  value <= maxTxAmount */\n  gt\n  iszero\n    /* \"ChaiToken_flattened.sol\":27986:28049  require(value <= maxTxAmount , \"Token Transfer Limit Exceeded\") */\n  tag_44\n  jumpi\n  mload(0x40)\n  0x08c379a000000000000000000000000000000000000000000000000000000000\n  dup2\n  mstore\n  0x04\n  add\n  tag_45\n  swap1\n  tag_46\n  jump\t// in\ntag_45:\n  mload(0x40)\n  dup1\n  swap2\n  sub\n  swap1\n  revert\ntag_44:\n    /* \"ChaiToken_flattened.sol\":28104:28116  cooldownTime */\n  sload(0x08)\n    /* \"ChaiToken_flattened.sol\":28086:28097  _lastTxTime */\n  0x0b\n    /* \"ChaiToken_flattened.sol\":28086:28103  _lastTxTime[from] */\n  0x00\n    /* \"ChaiToken_flattened.sol\":28098:28102  from */\n  dup6\n    /* \"ChaiToken_flattened.sol\":28086:28103  _lastTxTime[from] */\n  0xffffffffffffffffffffffffffffffffffffffff\n  and\n  0xffffffffffffffffffffffffffffffffffffffff\n  and\n  dup2\n  mstore\n  0x20\n  add\n  swap1\n  dup2\n  mstore\n  0x20\n  add\n  0x00\n  keccak256\n  sload\n    /* \"ChaiToken_flattened.sol\":28086:28116  _lastTxTime[from]+cooldownTime */\n  tag_47\n  swap2\n  swap1\n  tag_48\n  jump\t// in\ntag_47:\n    /* \"ChaiToken_flattened.sol\":28067:28082  block.timestamp */\n  timestamp\n    /* \"ChaiToken_flattened.sol\":28067:28116  block.timestamp >= _lastTxTime[from]+cooldownTime */\n  lt\n  iszero\n    /* \"ChaiToken_flattened.sol\":28059:28148  require(block.timestamp >= _lastTxTime[from]+cooldownTime , \"Token Transfer in cooldown\") */\n  tag_49\n  jumpi\n  mload(0x40)\n  0x08c379a000000000000000000000000000000000000000000000000000000000\n  dup2\n  mstore\n  0x04\n  add\n  tag_50\n  swap1\n  tag_51\n  jump\t// in\ntag_50:\n  mload(0x40)\n  dup1\n  swap2\n  sub\n  swap1\n  revert\ntag_49:\n    /* \"ChaiToken_flattened.sol\":28178:28193  block.timestamp */\n  timestamp\n    /* \"ChaiToken_flattened.sol\":28158:28169  _lastTxTime */\n  0x0b\n    /* \"ChaiToken_flattened.sol\":28158:28175  _lastTxTime[from] */\n  0x00\n    /* \"ChaiToken_flattened.sol\":28170:28174  from */\n  dup6\n    /* \"ChaiToken_flattened.sol\":28158:28175  _lastTxTime[from] */\n  0xffffffffffffffffffffffffffffffffffffffff\n  and\n  0xffffffffffffffffffffffffffffffffffffffff\n  and\n  dup2\n  mstore\n  0x20\n  add\n  swap1\n  dup2\n  mstore\n  0x20\n  add\n  0x00\n  keccak256\n    /* \"ChaiToken_flattened.sol\":28158:28193  _lastTxTime[from] = block.timestamp */\n  dup2\n  swap1\n  sstore\n  pop\n    /* \"ChaiToken_flattened.sol\":28203:28233  super._update(from, to, value) */\n  tag_52\n    /* \"ChaiToken_flattened.sol\":28217:28221  from */\n  dup4\n    /* \"ChaiToken_flattened.sol\":28223:28225  to */\n  dup4\n    /* \"ChaiToken_flattened.sol\":28227:28232  value */\n  dup4\n    /* \"ChaiToken_flattened.sol\":28203:28216  super._update */\n  shl(0x20, tag_53)\n    /* \"ChaiToken_flattened.sol\":28203:28233  super._update(from, to, value) */\n  0x20\n  shr\n  jump\t// in\ntag_52:\n    /* \"ChaiToken_flattened.sol\":27665:28278  function _update(address from, address to, uint256 value) internal override ... */\n  pop\n  pop\n  pop\n  jump\t// out\n    /* \"ChaiToken_flattened.sol\":17163:18270  function _update(address from, address to, uint256 value) internal virtual {... */\ntag_53:\n    /* \"ChaiToken_flattened.sol\":17268:17269  0 */\n  0x00\n    /* \"ChaiToken_flattened.sol\":17252:17270  from == address(0) */\n  0xffffffffffffffffffffffffffffffffffffffff\n  and\n    /* \"ChaiToken_flattened.sol\":17252:17256  from */\n  dup4\n    /* \"ChaiToken_flattened.sol\":17252:17270  from == address(0) */\n  0xffffffffffffffffffffffffffffffffffffffff\n  and\n  sub\n    /* \"ChaiToken_flattened.sol\":17248:17788  if (from == address(0)) {... */\n  tag_55\n  jumpi\n    /* \"ChaiToken_flattened.sol\":17404:17409  value */\n  dup1\n    /* \"ChaiToken_flattened.sol\":17388:17400  _totalSupply */\n  0x02\n  0x00\n    /* \"ChaiToken_flattened.sol\":17388:17409  _totalSupply += value */\n  dup3\n  dup3\n  sload\n  tag_56\n  swap2\n  swap1\n  tag_48\n  jump\t// in\ntag_56:\n  swap3\n  pop\n  pop\n  dup2\n  swap1\n  sstore\n  pop\n    /* \"ChaiToken_flattened.sol\":17248:17788  if (from == address(0)) {... */\n  jump(tag_57)\ntag_55:\n    /* \"ChaiToken_flattened.sol\":17440:17459  uint256 fromBalance */\n  0x00\n    /* \"ChaiToken_flattened.sol\":17462:17471  _balances */\n  dup1\n    /* \"ChaiToken_flattened.sol\":17462:17477  _balances[from] */\n  0x00\n    /* \"ChaiToken_flattened.sol\":17472:17476  from */\n  dup6\n    /* \"ChaiToken_flattened.sol\":17462:17477  _balances[from] */\n  0xffffffffffffffffffffffffffffffffffffffff\n  and\n  0xffffffffffffffffffffffffffffffffffffffff\n  and\n  dup2\n  mstore\n  0x20\n  add\n  swap1\n  dup2\n  mstore\n  0x20\n  add\n  0x00\n  keccak256\n  sload\n    /* \"ChaiToken_flattened.sol\":17440:17477  uint256 fromBalance = _balances[from] */\n  swap1\n  pop\n    /* \"ChaiToken_flattened.sol\":17509:17514  value */\n  dup2\n    /* \"ChaiToken_flattened.sol\":17495:17506  fromBalance */\n  dup2\n    /* \"ChaiToken_flattened.sol\":17495:17514  fromBalance < value */\n  lt\n    /* \"ChaiToken_flattened.sol\":17491:17606  if (fromBalance < value) {... */\n  iszero\n  tag_58\n  jumpi\n    /* \"ChaiToken_flattened.sol\":17566:17570  from */\n  dup4\n    /* \"ChaiToken_flattened.sol\":17572:17583  fromBalance */\n  dup2\n    /* \"ChaiToken_flattened.sol\":17585:17590  value */\n  dup4\n    /* \"ChaiToken_flattened.sol\":17541:17591  ERC20InsufficientBalance(from, fromBalance, value) */\n  mload(0x40)\n  0xe450d38c00000000000000000000000000000000000000000000000000000000\n  dup2\n  mstore\n  0x04\n  add\n  tag_59\n  swap4\n  swap3\n  swap2\n  swap1\n  tag_60\n  jump\t// in\ntag_59:\n  mload(0x40)\n  dup1\n  swap2\n  sub\n  swap1\n  revert\n    /* \"ChaiToken_flattened.sol\":17491:17606  if (fromBalance < value) {... */\ntag_58:\n    /* \"ChaiToken_flattened.sol\":17758:17763  value */\n  dup2\n    /* \"ChaiToken_flattened.sol\":17744:17755  fromBalance */\n  dup2\n    /* \"ChaiToken_flattened.sol\":17744:17763  fromBalance - value */\n  sub\n    /* \"ChaiToken_flattened.sol\":17726:17735  _balances */\n  0x00\n    /* \"ChaiToken_flattened.sol\":17726:17741  _balances[from] */\n  dup1\n    /* \"ChaiToken_flattened.sol\":17736:17740  from */\n  dup7\n    /* \"ChaiToken_flattened.sol\":17726:17741  _balances[from] */\n  0xffffffffffffffffffffffffffffffffffffffff\n  and\n  0xffffffffffffffffffffffffffffffffffffffff\n  and\n  dup2\n  mstore\n  0x20\n  add\n  swap1\n  dup2\n  mstore\n  0x20\n  add\n  0x00\n  keccak256\n    /* \"ChaiToken_flattened.sol\":17726:17763  _balances[from] = fromBalance - value */\n  dup2\n  swap1\n  sstore\n  pop\n    /* \"ChaiToken_flattened.sol\":17426:17788  {... */\n  pop\n    /* \"ChaiToken_flattened.sol\":17248:17788  if (from == address(0)) {... */\ntag_57:\n    /* \"ChaiToken_flattened.sol\":17816:17817  0 */\n  0x00\n    /* \"ChaiToken_flattened.sol\":17802:17818  to == address(0) */\n  0xffffffffffffffffffffffffffffffffffffffff\n  and\n    /* \"ChaiToken_flattened.sol\":17802:17804  to */\n  dup3\n    /* \"ChaiToken_flattened.sol\":17802:17818  to == address(0) */\n  0xffffffffffffffffffffffffffffffffffffffff\n  and\n  sub\n    /* \"ChaiToken_flattened.sol\":17798:18223  if (to == address(0)) {... */\n  tag_61\n  jumpi\n    /* \"ChaiToken_flattened.sol\":17981:17986  value */\n  dup1\n    /* \"ChaiToken_flattened.sol\":17965:17977  _totalSupply */\n  0x02\n  0x00\n    /* \"ChaiToken_flattened.sol\":17965:17986  _totalSupply -= value */\n  dup3\n  dup3\n  sload\n  sub\n  swap3\n  pop\n  pop\n  dup2\n  swap1\n  sstore\n  pop\n    /* \"ChaiToken_flattened.sol\":17798:18223  if (to == address(0)) {... */\n  jump(tag_62)\ntag_61:\n    /* \"ChaiToken_flattened.sol\":18193:18198  value */\n  dup1\n    /* \"ChaiToken_flattened.sol\":18176:18185  _balances */\n  0x00\n    /* \"ChaiToken_flattened.sol\":18176:18189  _balances[to] */\n  dup1\n    /* \"ChaiToken_flattened.sol\":18186:18188  to */\n  dup5\n    /* \"ChaiToken_flattened.sol\":18176:18189  _balances[to] */\n  0xffffffffffffffffffffffffffffffffffffffff\n  and\n  0xffffffffffffffffffffffffffffffffffffffff\n  and\n  dup2\n  mstore\n  0x20\n  add\n  swap1\n  dup2\n  mstore\n  0x20\n  add\n  0x00\n  keccak256\n  0x00\n    /* \"ChaiToken_flattened.sol\":18176:18198  _balances[to] += value */\n  dup3\n  dup3\n  sload\n  add\n  swap3\n  pop\n  pop\n  dup2\n  swap1\n  sstore\n  pop\n    /* \"ChaiToken_flattened.sol\":17798:18223  if (to == address(0)) {... */\ntag_62:\n    /* \"ChaiToken_flattened.sol\":18253:18255  to */\n  dup2\n    /* \"ChaiToken_flattened.sol\":18238:18263  Transfer(from, to, value) */\n  0xffffffffffffffffffffffffffffffffffffffff\n  and\n    /* \"ChaiToken_flattened.sol\":18247:18251  from */\n  dup4\n    /* \"ChaiToken_flattened.sol\":18238:18263  Transfer(from, to, value) */\n  0xffffffffffffffffffffffffffffffffffffffff\n  and\n  0xddf252ad1be2c89b69c2b068fc378daa952ba7f163c4a11628f55a4df523b3ef\n    /* \"ChaiToken_flattened.sol\":18257:18262  value */\n  dup4\n    /* \"ChaiToken_flattened.sol\":18238:18263  Transfer(from, to, value) */\n  mload(0x40)\n  tag_63\n  swap2\n  swap1\n  tag_64\n  jump\t// in\ntag_63:\n  mload(0x40)\n  dup1\n  swap2\n  sub\n  swap1\n  log3\n    /* \"ChaiToken_flattened.sol\":17163:18270  function _update(address from, address to, uint256 value) internal virtual {... */\n  pop\n  pop\n  pop\n  jump\t// out\n    /* \"#utility.yul\":7:187   */\ntag_65:\n    /* \"#utility.yul\":55:132   */\n  0x4e487b7100000000000000000000000000000000000000000000000000000000\n    /* \"#utility.yul\":52:53   */\n  0x00\n    /* \"#utility.yul\":45:133   */\n  mstore\n    /* \"#utility.yul\":152:156   */\n  0x11\n    /* \"#utility.yul\":149:150   */\n  0x04\n    /* \"#utility.yul\":142:157   */\n  mstore\n    /* \"#utility.yul\":176:180   */\n  0x24\n    /* \"#utility.yul\":173:174   */\n  0x00\n    /* \"#utility.yul\":166:181   */\n  revert\n    /* \"#utility.yul\":193:295   */\ntag_66:\n    /* \"#utility.yul\":235:243   */\n  0x00\n    /* \"#utility.yul\":282:287   */\n  dup2\n    /* \"#utility.yul\":279:280   */\n  0x01\n    /* \"#utility.yul\":275:288   */\n  shr\n    /* \"#utility.yul\":254:288   */\n  swap1\n  pop\n    /* \"#utility.yul\":193:295   */\n  swap2\n  swap1\n  pop\n  jump\t// out\n    /* \"#utility.yul\":301:1149   */\ntag_67:\n    /* \"#utility.yul\":362:367   */\n  0x00\n    /* \"#utility.yul\":369:373   */\n  dup1\n    /* \"#utility.yul\":393:399   */\n  dup3\n    /* \"#utility.yul\":384:399   */\n  swap2\n  pop\n    /* \"#utility.yul\":417:422   */\n  dup4\n    /* \"#utility.yul\":408:422   */\n  swap1\n  pop\n    /* \"#utility.yul\":431:1143   */\ntag_112:\n    /* \"#utility.yul\":452:453   */\n  0x01\n    /* \"#utility.yul\":442:450   */\n  dup6\n    /* \"#utility.yul\":439:454   */\n  gt\n    /* \"#utility.yul\":431:1143   */\n  iszero\n  tag_114\n  jumpi\n    /* \"#utility.yul\":547:551   */\n  dup1\n    /* \"#utility.yul\":542:545   */\n  dup7\n    /* \"#utility.yul\":538:552   */\n  div\n    /* \"#utility.yul\":532:536   */\n  dup2\n    /* \"#utility.yul\":529:553   */\n  gt\n    /* \"#utility.yul\":526:576   */\n  iszero\n  tag_115\n  jumpi\n    /* \"#utility.yul\":556:574   */\n  tag_116\n  tag_65\n  jump\t// in\ntag_116:\n    /* \"#utility.yul\":526:576   */\ntag_115:\n    /* \"#utility.yul\":606:607   */\n  0x01\n    /* \"#utility.yul\":596:604   */\n  dup6\n    /* \"#utility.yul\":592:608   */\n  and\n    /* \"#utility.yul\":589:1040   */\n  iszero\n  tag_117\n  jumpi\n    /* \"#utility.yul\":1021:1025   */\n  dup1\n    /* \"#utility.yul\":1014:1019   */\n  dup3\n    /* \"#utility.yul\":1010:1026   */\n  mul\n    /* \"#utility.yul\":1001:1026   */\n  swap2\n  pop\n    /* \"#utility.yul\":589:1040   */\ntag_117:\n    /* \"#utility.yul\":1071:1075   */\n  dup1\n    /* \"#utility.yul\":1065:1069   */\n  dup2\n    /* \"#utility.yul\":1061:1076   */\n  mul\n    /* \"#utility.yul\":1053:1076   */\n  swap1\n  pop\n    /* \"#utility.yul\":1101:1133   */\n  tag_118\n    /* \"#utility.yul\":1124:1132   */\n  dup6\n    /* \"#utility.yul\":1101:1133   */\n  tag_66\n  jump\t// in\ntag_118:\n    /* \"#utility.yul\":1089:1133   */\n  swap5\n  pop\n    /* \"#utility.yul\":431:1143   */\n  jump(tag_112)\ntag_114:\n    /* \"#utility.yul\":301:1149   */\n  swap5\n  pop\n  swap5\n  swap3\n  pop\n  pop\n  pop\n  jump\t// out\n    /* \"#utility.yul\":1155:2228   */\ntag_68:\n    /* \"#utility.yul\":1209:1214   */\n  0x00\n    /* \"#utility.yul\":1400:1408   */\n  dup3\n    /* \"#utility.yul\":1390:1430   */\n  tag_120\n  jumpi\n    /* \"#utility.yul\":1421:1422   */\n  0x01\n    /* \"#utility.yul\":1412:1422   */\n  swap1\n  pop\n    /* \"#utility.yul\":1423:1428   */\n  jump(tag_119)\n    /* \"#utility.yul\":1390:1430   */\ntag_120:\n    /* \"#utility.yul\":1449:1453   */\n  dup2\n    /* \"#utility.yul\":1439:1475   */\n  tag_121\n  jumpi\n    /* \"#utility.yul\":1466:1467   */\n  0x00\n    /* \"#utility.yul\":1457:1467   */\n  swap1\n  pop\n    /* \"#utility.yul\":1468:1473   */\n  jump(tag_119)\n    /* \"#utility.yul\":1439:1475   */\ntag_121:\n    /* \"#utility.yul\":1535:1539   */\n  dup2\n    /* \"#utility.yul\":1583:1584   */\n  0x01\n    /* \"#utility.yul\":1578:1605   */\n  dup2\n  eq\n  tag_123\n  jumpi\n    /* \"#utility.yul\":1619:1620   */\n  0x02\n    /* \"#utility.yul\":1614:1805   */\n  dup2\n  eq\n  tag_124\n  jumpi\n    /* \"#utility.yul\":1528:1805   */\n  jump(tag_122)\n    /* \"#utility.yul\":1578:1605   */\ntag_123:\n    /* \"#utility.yul\":1596:1597   */\n  0x01\n    /* \"#utility.yul\":1587:1597   */\n  swap2\n  pop\n    /* \"#utility.yul\":1598:1603   */\n  pop\n  jump(tag_119)\n    /* \"#utility.yul\":1614:1805   */\ntag_124:\n    /* \"#utility.yul\":1659:1662   */\n  0xff\n    /* \"#utility.yul\":1649:1657   */\n  dup5\n    /* \"#utility.yul\":1646:1663   */\n  gt\n    /* \"#utility.yul\":1643:1686   */\n  iszero\n  tag_125\n  jumpi\n    /* \"#utility.yul\":1666:1684   */\n  tag_126\n  tag_65\n  jump\t// in\ntag_126:\n    /* \"#utility.yul\":1643:1686   */\ntag_125:\n    /* \"#utility.yul\":1715:1723   */\n  dup4\n    /* \"#utility.yul\":1712:1713   */\n  0x02\n    /* \"#utility.yul\":1708:1724   */\n  exp\n    /* \"#utility.yul\":1699:1724   */\n  swap2\n  pop\n    /* \"#utility.yul\":1750:1753   */\n  dup5\n    /* \"#utility.yul\":1743:1748   */\n  dup3\n    /* \"#utility.yul\":1740:1754   */\n  gt\n    /* \"#utility.yul\":1737:1777   */\n  iszero\n  tag_127\n  jumpi\n    /* \"#utility.yul\":1757:1775   */\n  tag_128\n  tag_65\n  jump\t// in\ntag_128:\n    /* \"#utility.yul\":1737:1777   */\ntag_127:\n    /* \"#utility.yul\":1790:1795   */\n  pop\n  jump(tag_119)\n    /* \"#utility.yul\":1528:1805   */\ntag_122:\n  pop\n    /* \"#utility.yul\":1914:1916   */\n  0x20\n    /* \"#utility.yul\":1904:1912   */\n  dup4\n    /* \"#utility.yul\":1901:1917   */\n  lt\n    /* \"#utility.yul\":1895:1898   */\n  0x0133\n    /* \"#utility.yul\":1889:1893   */\n  dup4\n    /* \"#utility.yul\":1886:1899   */\n  lt\n    /* \"#utility.yul\":1882:1918   */\n  and\n    /* \"#utility.yul\":1864:1866   */\n  0x4e\n    /* \"#utility.yul\":1854:1862   */\n  dup5\n    /* \"#utility.yul\":1851:1867   */\n  lt\n    /* \"#utility.yul\":1846:1848   */\n  0x0b\n    /* \"#utility.yul\":1840:1844   */\n  dup5\n    /* \"#utility.yul\":1837:1849   */\n  lt\n    /* \"#utility.yul\":1833:1868   */\n  and\n    /* \"#utility.yul\":1817:1928   */\n  or\n    /* \"#utility.yul\":1814:2060   */\n  iszero\n  tag_129\n  jumpi\n    /* \"#utility.yul\":1970:1978   */\n  dup3\n    /* \"#utility.yul\":1964:1968   */\n  dup3\n    /* \"#utility.yul\":1960:1979   */\n  exp\n    /* \"#utility.yul\":1951:1979   */\n  swap1\n  pop\n    /* \"#utility.yul\":2005:2008   */\n  dup4\n    /* \"#utility.yul\":1998:2003   */\n  dup2\n    /* \"#utility.yul\":1995:2009   */\n  gt\n    /* \"#utility.yul\":1992:2032   */\n  iszero\n  tag_130\n  jumpi\n    /* \"#utility.yul\":2012:2030   */\n  tag_131\n  tag_65\n  jump\t// in\ntag_131:\n    /* \"#utility.yul\":1992:2032   */\ntag_130:\n    /* \"#utility.yul\":2045:2050   */\n  jump(tag_119)\n    /* \"#utility.yul\":1814:2060   */\ntag_129:\n    /* \"#utility.yul\":2085:2127   */\n  tag_132\n    /* \"#utility.yul\":2123:2126   */\n  dup5\n    /* \"#utility.yul\":2113:2121   */\n  dup5\n    /* \"#utility.yul\":2107:2111   */\n  dup5\n    /* \"#utility.yul\":2104:2105   */\n  0x01\n    /* \"#utility.yul\":2085:2127   */\n  tag_67\n  jump\t// in\ntag_132:\n    /* \"#utility.yul\":2070:2127   */\n  swap3\n  pop\n  swap1\n  pop\n    /* \"#utility.yul\":2159:2163   */\n  dup2\n    /* \"#utility.yul\":2154:2157   */\n  dup5\n    /* \"#utility.yul\":2150:2164   */\n  div\n    /* \"#utility.yul\":2143:2148   */\n  dup2\n    /* \"#utility.yul\":2140:2165   */\n  gt\n    /* \"#utility.yul\":2137:2188   */\n  iszero\n  tag_133\n  jumpi\n    /* \"#utility.yul\":2168:2186   */\n  tag_134\n  tag_65\n  jump\t// in\ntag_134:\n    /* \"#utility.yul\":2137:2188   */\ntag_133:\n    /* \"#utility.yul\":2217:2221   */\n  dup2\n    /* \"#utility.yul\":2210:2215   */\n  dup2\n    /* \"#utility.yul\":2206:2222   */\n  mul\n    /* \"#utility.yul\":2197:2222   */\n  swap1\n  pop\n    /* \"#utility.yul\":1155:2228   */\ntag_119:\n  swap4\n  swap3\n  pop\n  pop\n  pop\n  jump\t// out\n    /* \"#utility.yul\":2234:2311   */\ntag_69:\n    /* \"#utility.yul\":2271:2278   */\n  0x00\n    /* \"#utility.yul\":2300:2305   */\n  dup2\n    /* \"#utility.yul\":2289:2305   */\n  swap1\n  pop\n    /* \"#utility.yul\":2234:2311   */\n  swap2\n  swap1\n  pop\n  jump\t// out\n    /* \"#utility.yul\":2317:2403   */\ntag_70:\n    /* \"#utility.yul\":2352:2359   */\n  0x00\n    /* \"#utility.yul\":2392:2396   */\n  0xff\n    /* \"#utility.yul\":2385:2390   */\n  dup3\n    /* \"#utility.yul\":2381:2397   */\n  and\n    /* \"#utility.yul\":2370:2397   */\n  swap1\n  pop\n    /* \"#utility.yul\":2317:2403   */\n  swap2\n  swap1\n  pop\n  jump\t// out\n    /* \"#utility.yul\":2409:2690   */\ntag_4:\n    /* \"#utility.yul\":2467:2472   */\n  0x00\n    /* \"#utility.yul\":2491:2514   */\n  tag_138\n    /* \"#utility.yul\":2509:2513   */\n  dup3\n    /* \"#utility.yul\":2491:2514   */\n  tag_69\n  jump\t// in\ntag_138:\n    /* \"#utility.yul\":2483:2514   */\n  swap2\n  pop\n    /* \"#utility.yul\":2535:2560   */\n  tag_139\n    /* \"#utility.yul\":2551:2559   */\n  dup4\n    /* \"#utility.yul\":2535:2560   */\n  tag_70\n  jump\t// in\ntag_139:\n    /* \"#utility.yul\":2523:2560   */\n  swap3\n  pop\n    /* \"#utility.yul\":2579:2683   */\n  tag_140\n    /* \"#utility.yul\":2616:2682   */\n  0xffffffffffffffffffffffffffffffffffffffffffffffffffffffffffffffff\n    /* \"#utility.yul\":2606:2614   */\n  dup5\n    /* \"#utility.yul\":2600:2604   */\n  dup5\n    /* \"#utility.yul\":2579:2683   */\n  tag_68\n  jump\t// in\ntag_140:\n    /* \"#utility.yul\":2570:2683   */\n  swap1\n  pop\n    /* \"#utility.yul\":2409:2690   */\n  swap3\n  swap2\n  pop\n  pop\n  jump\t// out\n    /* \"#utility.yul\":2696:3106   */\ntag_6:\n    /* \"#utility.yul\":2736:2743   */\n  0x00\n    /* \"#utility.yul\":2759:2779   */\n  tag_142\n    /* \"#utility.yul\":2777:2778   */\n  dup3\n    /* \"#utility.yul\":2759:2779   */\n  tag_69\n  jump\t// in\ntag_142:\n    /* \"#utility.yul\":2754:2779   */\n  swap2\n  pop\n    /* \"#utility.yul\":2793:2813   */\n  tag_143\n    /* \"#utility.yul\":2811:2812   */\n  dup4\n    /* \"#utility.yul\":2793:2813   */\n  tag_69\n  jump\t// in\ntag_143:\n    /* \"#utility.yul\":2788:2813   */\n  swap3\n  pop\n    /* \"#utility.yul\":2848:2849   */\n  dup3\n    /* \"#utility.yul\":2845:2846   */\n  dup3\n    /* \"#utility.yul\":2841:2850   */\n  mul\n    /* \"#utility.yul\":2870:2900   */\n  tag_144\n    /* \"#utility.yul\":2888:2899   */\n  dup2\n    /* \"#utility.yul\":2870:2900   */\n  tag_69\n  jump\t// in\ntag_144:\n    /* \"#utility.yul\":2859:2900   */\n  swap2\n  pop\n    /* \"#utility.yul\":3049:3050   */\n  dup3\n    /* \"#utility.yul\":3040:3047   */\n  dup3\n    /* \"#utility.yul\":3036:3051   */\n  div\n    /* \"#utility.yul\":3033:3034   */\n  dup5\n    /* \"#utility.yul\":3030:3052   */\n  eq\n    /* \"#utility.yul\":3010:3011   */\n  dup4\n    /* \"#utility.yul\":3003:3012   */\n  iszero\n    /* \"#utility.yul\":2983:3066   */\n  or\n    /* \"#utility.yul\":2960:3099   */\n  tag_145\n  jumpi\n    /* \"#utility.yul\":3079:3097   */\n  tag_146\n  tag_65\n  jump\t// in\ntag_146:\n    /* \"#utility.yul\":2960:3099   */\ntag_145:\n    /* \"#utility.yul\":2744:3106   */\n  pop\n    /* \"#utility.yul\":2696:3106   */\n  swap3\n  swap2\n  pop\n  pop\n  jump\t// out\n    /* \"#utility.yul\":3193:3310   */\ntag_72:\n    /* \"#utility.yul\":3302:3303   */\n  0x00\n    /* \"#utility.yul\":3299:3300   */\n  dup1\n    /* \"#utility.yul\":3292:3304   */\n  revert\n    /* \"#utility.yul\":3439:3565   */\ntag_74:\n    /* \"#utility.yul\":3476:3483   */\n  0x00\n    /* \"#utility.yul\":3516:3558   */\n  0xffffffffffffffffffffffffffffffffffffffff\n    /* \"#utility.yul\":3509:3514   */\n  dup3\n    /* \"#utility.yul\":3505:3559   */\n  and\n    /* \"#utility.yul\":3494:3559   */\n  swap1\n  pop\n    /* \"#utility.yul\":3439:3565   */\n  swap2\n  swap1\n  pop\n  jump\t// out\n    /* \"#utility.yul\":3571:3667   */\ntag_75:\n    /* \"#utility.yul\":3608:3615   */\n  0x00\n    /* \"#utility.yul\":3637:3661   */\n  tag_152\n    /* \"#utility.yul\":3655:3660   */\n  dup3\n    /* \"#utility.yul\":3637:3661   */\n  tag_74\n  jump\t// in\ntag_152:\n    /* \"#utility.yul\":3626:3661   */\n  swap1\n  pop\n    /* \"#utility.yul\":3571:3667   */\n  swap2\n  swap1\n  pop\n  jump\t// out\n    /* \"#utility.yul\":3673:3795   */\ntag_76:\n    /* \"#utility.yul\":3746:3770   */\n  tag_154\n    /* \"#utility.yul\":3764:3769   */\n  dup2\n    /* \"#utility.yul\":3746:3770   */\n  tag_75\n  jump\t// in\ntag_154:\n    /* \"#utility.yul\":3739:3744   */\n  dup2\n    /* \"#utility.yul\":3736:3771   */\n  eq\n    /* \"#utility.yul\":3726:3789   */\n  tag_155\n  jumpi\n    /* \"#utility.yul\":3785:3786   */\n  0x00\n    /* \"#utility.yul\":3782:3783   */\n  dup1\n    /* \"#utility.yul\":3775:3787   */\n  revert\n    /* \"#utility.yul\":3726:3789   */\ntag_155:\n    /* \"#utility.yul\":3673:3795   */\n  pop\n  jump\t// out\n    /* \"#utility.yul\":3801:3944   */\ntag_77:\n    /* \"#utility.yul\":3858:3863   */\n  0x00\n    /* \"#utility.yul\":3889:3895   */\n  dup2\n    /* \"#utility.yul\":3883:3896   */\n  mload\n    /* \"#utility.yul\":3874:3896   */\n  swap1\n  pop\n    /* \"#utility.yul\":3905:3938   */\n  tag_157\n    /* \"#utility.yul\":3932:3937   */\n  dup2\n    /* \"#utility.yul\":3905:3938   */\n  tag_76\n  jump\t// in\ntag_157:\n    /* \"#utility.yul\":3801:3944   */\n  swap3\n  swap2\n  pop\n  pop\n  jump\t// out\n    /* \"#utility.yul\":3950:4301   */\ntag_9:\n    /* \"#utility.yul\":4020:4026   */\n  0x00\n    /* \"#utility.yul\":4069:4071   */\n  0x20\n    /* \"#utility.yul\":4057:4066   */\n  dup3\n    /* \"#utility.yul\":4048:4055   */\n  dup5\n    /* \"#utility.yul\":4044:4067   */\n  sub\n    /* \"#utility.yul\":4040:4072   */\n  slt\n    /* \"#utility.yul\":4037:4156   */\n  iszero\n  tag_159\n  jumpi\n    /* \"#utility.yul\":4075:4154   */\n  tag_160\n  tag_72\n  jump\t// in\ntag_160:\n    /* \"#utility.yul\":4037:4156   */\ntag_159:\n    /* \"#utility.yul\":4195:4196   */\n  0x00\n    /* \"#utility.yul\":4220:4284   */\n  tag_161\n    /* \"#utility.yul\":4276:4283   */\n  dup5\n    /* \"#utility.yul\":4267:4273   */\n  dup3\n    /* \"#utility.yul\":4256:4265   */\n  dup6\n    /* \"#utility.yul\":4252:4274   */\n  add\n    /* \"#utility.yul\":4220:4284   */\n  tag_77\n  jump\t// in\ntag_161:\n    /* \"#utility.yul\":4210:4284   */\n  swap2\n  pop\n    /* \"#utility.yul\":4166:4294   */\n  pop\n    /* \"#utility.yul\":3950:4301   */\n  swap3\n  swap2\n  pop\n  pop\n  jump\t// out\n    /* \"#utility.yul\":4307:4406   */\ntag_78:\n    /* \"#utility.yul\":4359:4365   */\n  0x00\n    /* \"#utility.yul\":4393:4398   */\n  dup2\n    /* \"#utility.yul\":4387:4399   */\n  mload\n    /* \"#utility.yul\":4377:4399   */\n  swap1\n  pop\n    /* \"#utility.yul\":4307:4406   */\n  swap2\n  swap1\n  pop\n  jump\t// out\n    /* \"#utility.yul\":4412:4592   */\ntag_79:\n    /* \"#utility.yul\":4460:4537   */\n  0x4e487b7100000000000000000000000000000000000000000000000000000000\n    /* \"#utility.yul\":4457:4458   */\n  0x00\n    /* \"#utility.yul\":4450:4538   */\n  mstore\n    /* \"#utility.yul\":4557:4561   */\n  0x41\n    /* \"#utility.yul\":4554:4555   */\n  0x04\n    /* \"#utility.yul\":4547:4562   */\n  mstore\n    /* \"#utility.yul\":4581:4585   */\n  0x24\n    /* \"#utility.yul\":4578:4579   */\n  0x00\n    /* \"#utility.yul\":4571:4586   */\n  revert\n    /* \"#utility.yul\":4598:4778   */\ntag_80:\n    /* \"#utility.yul\":4646:4723   */\n  0x4e487b7100000000000000000000000000000000000000000000000000000000\n    /* \"#utility.yul\":4643:4644   */\n  0x00\n    /* \"#utility.yul\":4636:4724   */\n  mstore\n    /* \"#utility.yul\":4743:4747   */\n  0x22\n    /* \"#utility.yul\":4740:4741   */\n  0x04\n    /* \"#utility.yul\":4733:4748   */\n  mstore\n    /* \"#utility.yul\":4767:4771   */\n  0x24\n    /* \"#utility.yul\":4764:4765   */\n  0x00\n    /* \"#utility.yul\":4757:4772   */\n  revert\n    /* \"#utility.yul\":4784:5104   */\ntag_81:\n    /* \"#utility.yul\":4828:4834   */\n  0x00\n    /* \"#utility.yul\":4865:4866   */\n  0x02\n    /* \"#utility.yul\":4859:4863   */\n  dup3\n    /* \"#utility.yul\":4855:4867   */\n  div\n    /* \"#utility.yul\":4845:4867   */\n  swap1\n  pop\n    /* \"#utility.yul\":4912:4913   */\n  0x01\n    /* \"#utility.yul\":4906:4910   */\n  dup3\n    /* \"#utility.yul\":4902:4914   */\n  and\n    /* \"#utility.yul\":4933:4951   */\n  dup1\n    /* \"#utility.yul\":4923:5004   */\n  tag_166\n  jumpi\n    /* \"#utility.yul\":4989:4993   */\n  0x7f\n    /* \"#utility.yul\":4981:4987   */\n  dup3\n    /* \"#utility.yul\":4977:4994   */\n  and\n    /* \"#utility.yul\":4967:4994   */\n  swap2\n  pop\n    /* \"#utility.yul\":4923:5004   */\ntag_166:\n    /* \"#utility.yul\":5051:5053   */\n  0x20\n    /* \"#utility.yul\":5043:5049   */\n  dup3\n    /* \"#utility.yul\":5040:5054   */\n  lt\n    /* \"#utility.yul\":5020:5038   */\n  dup2\n    /* \"#utility.yul\":5017:5055   */\n  sub\n    /* \"#utility.yul\":5014:5098   */\n  tag_167\n  jumpi\n    /* \"#utility.yul\":5070:5088   */\n  tag_168\n  tag_80\n  jump\t// in\ntag_168:\n    /* \"#utility.yul\":5014:5098   */\ntag_167:\n    /* \"#utility.yul\":4835:5104   */\n  pop\n    /* \"#utility.yul\":4784:5104   */\n  swap2\n  swap1\n  pop\n  jump\t// out\n    /* \"#utility.yul\":5110:5251   */\ntag_82:\n    /* \"#utility.yul\":5159:5163   */\n  0x00\n    /* \"#utility.yul\":5182:5185   */\n  dup2\n    /* \"#utility.yul\":5174:5185   */\n  swap1\n  pop\n    /* \"#utility.yul\":5205:5208   */\n  dup2\n    /* \"#utility.yul\":5202:5203   */\n  0x00\n    /* \"#utility.yul\":5195:5209   */\n  mstore\n    /* \"#utility.yul\":5239:5243   */\n  0x20\n    /* \"#utility.yul\":5236:5237   */\n  0x00\n    /* \"#utility.yul\":5226:5244   */\n  keccak256\n    /* \"#utility.yul\":5218:5244   */\n  swap1\n  pop\n    /* \"#utility.yul\":5110:5251   */\n  swap2\n  swap1\n  pop\n  jump\t// out\n    /* \"#utility.yul\":5257:5350   */\ntag_83:\n    /* \"#utility.yul\":5294:5300   */\n  0x00\n    /* \"#utility.yul\":5341:5343   */\n  0x20\n    /* \"#utility.yul\":5336:5338   */\n  0x1f\n    /* \"#utility.yul\":5329:5334   */\n  dup4\n    /* \"#utility.yul\":5325:5339   */\n  add\n    /* \"#utility.yul\":5321:5344   */\n  div\n    /* \"#utility.yul\":5311:5344   */\n  swap1\n  pop\n    /* \"#utility.yul\":5257:5350   */\n  swap2\n  swap1\n  pop\n  jump\t// out\n    /* \"#utility.yul\":5356:5463   */\ntag_84:\n    /* \"#utility.yul\":5400:5408   */\n  0x00\n    /* \"#utility.yul\":5450:5455   */\n  dup3\n    /* \"#utility.yul\":5444:5448   */\n  dup3\n    /* \"#utility.yul\":5440:5456   */\n  shl\n    /* \"#utility.yul\":5419:5456   */\n  swap1\n  pop\n    /* \"#utility.yul\":5356:5463   */\n  swap3\n  swap2\n  pop\n  pop\n  jump\t// out\n    /* \"#utility.yul\":5469:5862   */\ntag_85:\n    /* \"#utility.yul\":5538:5544   */\n  0x00\n    /* \"#utility.yul\":5588:5589   */\n  0x08\n    /* \"#utility.yul\":5576:5586   */\n  dup4\n    /* \"#utility.yul\":5572:5590   */\n  mul\n    /* \"#utility.yul\":5611:5708   */\n  tag_173\n    /* \"#utility.yul\":5641:5707   */\n  0xffffffffffffffffffffffffffffffffffffffffffffffffffffffffffffffff\n    /* \"#utility.yul\":5630:5639   */\n  dup3\n    /* \"#utility.yul\":5611:5708   */\n  tag_84\n  jump\t// in\ntag_173:\n    /* \"#utility.yul\":5729:5768   */\n  tag_174\n    /* \"#utility.yul\":5759:5767   */\n  dup7\n    /* \"#utility.yul\":5748:5757   */\n  dup4\n    /* \"#utility.yul\":5729:5768   */\n  tag_84\n  jump\t// in\ntag_174:\n    /* \"#utility.yul\":5717:5768   */\n  swap6\n  pop\n    /* \"#utility.yul\":5801:5805   */\n  dup1\n    /* \"#utility.yul\":5797:5806   */\n  not\n    /* \"#utility.yul\":5790:5795   */\n  dup5\n    /* \"#utility.yul\":5786:5807   */\n  and\n    /* \"#utility.yul\":5777:5807   */\n  swap4\n  pop\n    /* \"#utility.yul\":5850:5854   */\n  dup1\n    /* \"#utility.yul\":5840:5848   */\n  dup7\n    /* \"#utility.yul\":5836:5855   */\n  and\n    /* \"#utility.yul\":5829:5834   */\n  dup5\n    /* \"#utility.yul\":5826:5856   */\n  or\n    /* \"#utility.yul\":5816:5856   */\n  swap3\n  pop\n    /* \"#utility.yul\":5545:5862   */\n  pop\n  pop\n    /* \"#utility.yul\":5469:5862   */\n  swap4\n  swap3\n  pop\n  pop\n  pop\n  jump\t// out\n    /* \"#utility.yul\":5868:5928   */\ntag_86:\n    /* \"#utility.yul\":5896:5899   */\n  0x00\n    /* \"#utility.yul\":5917:5922   */\n  dup2\n    /* \"#utility.yul\":5910:5922   */\n  swap1\n  pop\n    /* \"#utility.yul\":5868:5928   */\n  swap2\n  swap1\n  pop\n  jump\t// out\n    /* \"#utility.yul\":5934:6076   */\ntag_87:\n    /* \"#utility.yul\":5984:5993   */\n  0x00\n    /* \"#utility.yul\":6017:6070   */\n  tag_177\n    /* \"#utility.yul\":6035:6069   */\n  tag_178\n    /* \"#utility.yul\":6044:6068   */\n  tag_179\n    /* \"#utility.yul\":6062:6067   */\n  dup5\n    /* \"#utility.yul\":6044:6068   */\n  tag_69\n  jump\t// in\ntag_179:\n    /* \"#utility.yul\":6035:6069   */\n  tag_86\n  jump\t// in\ntag_178:\n    /* \"#utility.yul\":6017:6070   */\n  tag_69\n  jump\t// in\ntag_177:\n    /* \"#utility.yul\":6004:6070   */\n  swap1\n  pop\n    /* \"#utility.yul\":5934:6076   */\n  swap2\n  swap1\n  pop\n  jump\t// out\n    /* \"#utility.yul\":6082:6157   */\ntag_88:\n    /* \"#utility.yul\":6125:6128   */\n  0x00\n    /* \"#utility.yul\":6146:6151   */\n  dup2\n    /* \"#utility.yul\":6139:6151   */\n  swap1\n  pop\n    /* \"#utility.yul\":6082:6157   */\n  swap2\n  swap1\n  pop\n  jump\t// out\n    /* \"#utility.yul\":6163:6432   */\ntag_89:\n    /* \"#utility.yul\":6273:6312   */\n  tag_182\n    /* \"#utility.yul\":6304:6311   */\n  dup4\n    /* \"#utility.yul\":6273:6312   */\n  tag_87\n  jump\t// in\ntag_182:\n    /* \"#utility.yul\":6334:6425   */\n  tag_183\n    /* \"#utility.yul\":6383:6424   */\n  tag_184\n    /* \"#utility.yul\":6407:6423   */\n  dup3\n    /* \"#utility.yul\":6383:6424   */\n  tag_88\n  jump\t// in\ntag_184:\n    /* \"#utility.yul\":6375:6381   */\n  dup5\n    /* \"#utility.yul\":6368:6372   */\n  dup5\n    /* \"#utility.yul\":6362:6373   */\n  sload\n    /* \"#utility.yul\":6334:6425   */\n  tag_85\n  jump\t// in\ntag_183:\n    /* \"#utility.yul\":6328:6332   */\n  dup3\n    /* \"#utility.yul\":6321:6426   */\n  sstore\n    /* \"#utility.yul\":6239:6432   */\n  pop\n    /* \"#utility.yul\":6163:6432   */\n  pop\n  pop\n  pop\n  jump\t// out\n    /* \"#utility.yul\":6438:6511   */\ntag_90:\n    /* \"#utility.yul\":6483:6486   */\n  0x00\n    /* \"#utility.yul\":6438:6511   */\n  swap1\n  jump\t// out\n    /* \"#utility.yul\":6517:6706   */\ntag_91:\n    /* \"#utility.yul\":6594:6626   */\n  tag_187\n  tag_90\n  jump\t// in\ntag_187:\n    /* \"#utility.yul\":6635:6700   */\n  tag_188\n    /* \"#utility.yul\":6693:6699   */\n  dup2\n    /* \"#utility.yul\":6685:6691   */\n  dup5\n    /* \"#utility.yul\":6679:6683   */\n  dup5\n    /* \"#utility.yul\":6635:6700   */\n  tag_89\n  jump\t// in\ntag_188:\n    /* \"#utility.yul\":6570:6706   */\n  pop\n    /* \"#utility.yul\":6517:6706   */\n  pop\n  pop\n  jump\t// out\n    /* \"#utility.yul\":6712:6898   */\ntag_92:\n    /* \"#utility.yul\":6772:6892   */\ntag_190:\n    /* \"#utility.yul\":6789:6792   */\n  dup2\n    /* \"#utility.yul\":6782:6787   */\n  dup2\n    /* \"#utility.yul\":6779:6793   */\n  lt\n    /* \"#utility.yul\":6772:6892   */\n  iszero\n  tag_192\n  jumpi\n    /* \"#utility.yul\":6843:6882   */\n  tag_193\n    /* \"#utility.yul\":6880:6881   */\n  0x00\n    /* \"#utility.yul\":6873:6878   */\n  dup3\n    /* \"#utility.yul\":6843:6882   */\n  tag_91\n  jump\t// in\ntag_193:\n    /* \"#utility.yul\":6816:6817   */\n  0x01\n    /* \"#utility.yul\":6809:6814   */\n  dup2\n    /* \"#utility.yul\":6805:6818   */\n  add\n    /* \"#utility.yul\":6796:6818   */\n  swap1\n  pop\n    /* \"#utility.yul\":6772:6892   */\n  jump(tag_190)\ntag_192:\n    /* \"#utility.yul\":6712:6898   */\n  pop\n  pop\n  jump\t// out\n    /* \"#utility.yul\":6904:7447   */\ntag_93:\n    /* \"#utility.yul\":7005:7007   */\n  0x1f\n    /* \"#utility.yul\":7000:7003   */\n  dup3\n    /* \"#utility.yul\":6997:7008   */\n  gt\n    /* \"#utility.yul\":6994:7440   */\n  iszero\n  tag_195\n  jumpi\n    /* \"#utility.yul\":7039:7077   */\n  tag_196\n    /* \"#utility.yul\":7071:7076   */\n  dup2\n    /* \"#utility.yul\":7039:7077   */\n  tag_82\n  jump\t// in\ntag_196:\n    /* \"#utility.yul\":7123:7152   */\n  tag_197\n    /* \"#utility.yul\":7141:7151   */\n  dup5\n    /* \"#utility.yul\":7123:7152   */\n  tag_83\n  jump\t// in\ntag_197:\n    /* \"#utility.yul\":7113:7121   */\n  dup2\n    /* \"#utility.yul\":7109:7153   */\n  add\n    /* \"#utility.yul\":7306:7308   */\n  0x20\n    /* \"#utility.yul\":7294:7304   */\n  dup6\n    /* \"#utility.yul\":7291:7309   */\n  lt\n    /* \"#utility.yul\":7288:7337   */\n  iszero\n  tag_198\n  jumpi\n    /* \"#utility.yul\":7327:7335   */\n  dup2\n    /* \"#utility.yul\":7312:7335   */\n  swap1\n  pop\n    /* \"#utility.yul\":7288:7337   */\ntag_198:\n    /* \"#utility.yul\":7350:7430   */\n  tag_199\n    /* \"#utility.yul\":7406:7428   */\n  tag_200\n    /* \"#utility.yul\":7424:7427   */\n  dup6\n    /* \"#utility.yul\":7406:7428   */\n  tag_83\n  jump\t// in\ntag_200:\n    /* \"#utility.yul\":7396:7404   */\n  dup4\n    /* \"#utility.yul\":7392:7429   */\n  add\n    /* \"#utility.yul\":7379:7390   */\n  dup3\n    /* \"#utility.yul\":7350:7430   */\n  tag_92\n  jump\t// in\ntag_199:\n    /* \"#utility.yul\":7009:7440   */\n  pop\n  pop\n    /* \"#utility.yul\":6994:7440   */\ntag_195:\n    /* \"#utility.yul\":6904:7447   */\n  pop\n  pop\n  pop\n  jump\t// out\n    /* \"#utility.yul\":7453:7570   */\ntag_94:\n    /* \"#utility.yul\":7507:7515   */\n  0x00\n    /* \"#utility.yul\":7557:7562   */\n  dup3\n    /* \"#utility.yul\":7551:7555   */\n  dup3\n    /* \"#utility.yul\":7547:7563   */\n  shr\n    /* \"#utility.yul\":7526:7563   */\n  swap1\n  pop\n    /* \"#utility.yul\":7453:7570   */\n  swap3\n  swap2\n  pop\n  pop\n  jump\t// out\n    /* \"#utility.yul\":7576:7745   */\ntag_95:\n    /* \"#utility.yul\":7620:7626   */\n  0x00\n    /* \"#utility.yul\":7653:7704   */\n  tag_203\n    /* \"#utility.yul\":7701:7702   */\n  0x00\n    /* \"#utility.yul\":7697:7703   */\n  not\n    /* \"#utility.yul\":7689:7694   */\n  dup5\n    /* \"#utility.yul\":7686:7687   */\n  0x08\n    /* \"#utility.yul\":7682:7695   */\n  mul\n    /* \"#utility.yul\":7653:7704   */\n  tag_94\n  jump\t// in\ntag_203:\n    /* \"#utility.yul\":7649:7705   */\n  not\n    /* \"#utility.yul\":7734:7738   */\n  dup1\n    /* \"#utility.yul\":7728:7732   */\n  dup4\n    /* \"#utility.yul\":7724:7739   */\n  and\n    /* \"#utility.yul\":7714:7739   */\n  swap2\n  pop\n    /* \"#utility.yul\":7627:7745   */\n  pop\n    /* \"#utility.yul\":7576:7745   */\n  swap3\n  swap2\n  pop\n  pop\n  jump\t// out\n    /* \"#utility.yul\":7750:8045   */\ntag_96:\n    /* \"#utility.yul\":7826:7830   */\n  0x00\n    /* \"#utility.yul\":7972:8001   */\n  tag_205\n    /* \"#utility.yul\":7997:8000   */\n  dup4\n    /* \"#utility.yul\":7991:7995   */\n  dup4\n    /* \"#utility.yul\":7972:8001   */\n  tag_95\n  jump\t// in\ntag_205:\n    /* \"#utility.yul\":7964:8001   */\n  swap2\n  pop\n    /* \"#utility.yul\":8034:8037   */\n  dup3\n    /* \"#utility.yul\":8031:8032   */\n  0x02\n    /* \"#utility.yul\":8027:8038   */\n  mul\n    /* \"#utility.yul\":8021:8025   */\n  dup3\n    /* \"#utility.yul\":8018:8039   */\n  or\n    /* \"#utility.yul\":8010:8039   */\n  swap1\n  pop\n    /* \"#utility.yul\":7750:8045   */\n  swap3\n  swap2\n  pop\n  pop\n  jump\t// out\n    /* \"#utility.yul\":8050:9445   */\ntag_15:\n    /* \"#utility.yul\":8167:8204   */\n  tag_207\n    /* \"#utility.yul\":8200:8203   */\n  dup3\n    /* \"#utility.yul\":8167:8204   */\n  tag_78\n  jump\t// in\ntag_207:\n    /* \"#utility.yul\":8269:8287   */\n  0xffffffffffffffff\n    /* \"#utility.yul\":8261:8267   */\n  dup2\n    /* \"#utility.yul\":8258:8288   */\n  gt\n    /* \"#utility.yul\":8255:8311   */\n  iszero\n  tag_208\n  jumpi\n    /* \"#utility.yul\":8291:8309   */\n  tag_209\n  tag_79\n  jump\t// in\ntag_209:\n    /* \"#utility.yul\":8255:8311   */\ntag_208:\n    /* \"#utility.yul\":8335:8373   */\n  tag_210\n    /* \"#utility.yul\":8367:8371   */\n  dup3\n    /* \"#utility.yul\":8361:8372   */\n  sload\n    /* \"#utility.yul\":8335:8373   */\n  tag_81\n  jump\t// in\ntag_210:\n    /* \"#utility.yul\":8420:8487   */\n  tag_211\n    /* \"#utility.yul\":8480:8486   */\n  dup3\n    /* \"#utility.yul\":8472:8478   */\n  dup3\n    /* \"#utility.yul\":8466:8470   */\n  dup6\n    /* \"#utility.yul\":8420:8487   */\n  tag_93\n  jump\t// in\ntag_211:\n    /* \"#utility.yul\":8514:8515   */\n  0x00\n    /* \"#utility.yul\":8538:8542   */\n  0x20\n    /* \"#utility.yul\":8525:8542   */\n  swap1\n  pop\n    /* \"#utility.yul\":8570:8572   */\n  0x1f\n    /* \"#utility.yul\":8562:8568   */\n  dup4\n    /* \"#utility.yul\":8559:8573   */\n  gt\n    /* \"#utility.yul\":8587:8588   */\n  0x01\n    /* \"#utility.yul\":8582:9200   */\n  dup2\n  eq\n  tag_213\n  jumpi\n    /* \"#utility.yul\":9244:9245   */\n  0x00\n    /* \"#utility.yul\":9261:9267   */\n  dup5\n    /* \"#utility.yul\":9258:9335   */\n  iszero\n  tag_214\n  jumpi\n    /* \"#utility.yul\":9310:9319   */\n  dup3\n    /* \"#utility.yul\":9305:9308   */\n  dup8\n    /* \"#utility.yul\":9301:9320   */\n  add\n    /* \"#utility.yul\":9295:9321   */\n  mload\n    /* \"#utility.yul\":9286:9321   */\n  swap1\n  pop\n    /* \"#utility.yul\":9258:9335   */\ntag_214:\n    /* \"#utility.yul\":9361:9428   */\n  tag_215\n    /* \"#utility.yul\":9421:9427   */\n  dup6\n    /* \"#utility.yul\":9414:9419   */\n  dup3\n    /* \"#utility.yul\":9361:9428   */\n  tag_96\n  jump\t// in\ntag_215:\n    /* \"#utility.yul\":9355:9359   */\n  dup7\n    /* \"#utility.yul\":9348:9429   */\n  sstore\n    /* \"#utility.yul\":9217:9439   */\n  pop\n    /* \"#utility.yul\":8552:9439   */\n  jump(tag_212)\n    /* \"#utility.yul\":8582:9200   */\ntag_213:\n    /* \"#utility.yul\":8634:8638   */\n  0x1f\n    /* \"#utility.yul\":8630:8639   */\n  not\n    /* \"#utility.yul\":8622:8628   */\n  dup5\n    /* \"#utility.yul\":8618:8640   */\n  and\n    /* \"#utility.yul\":8668:8705   */\n  tag_216\n    /* \"#utility.yul\":8700:8704   */\n  dup7\n    /* \"#utility.yul\":8668:8705   */\n  tag_82\n  jump\t// in\ntag_216:\n    /* \"#utility.yul\":8727:8728   */\n  0x00\n    /* \"#utility.yul\":8741:8949   */\ntag_217:\n    /* \"#utility.yul\":8755:8762   */\n  dup3\n    /* \"#utility.yul\":8752:8753   */\n  dup2\n    /* \"#utility.yul\":8749:8763   */\n  lt\n    /* \"#utility.yul\":8741:8949   */\n  iszero\n  tag_219\n  jumpi\n    /* \"#utility.yul\":8834:8843   */\n  dup5\n    /* \"#utility.yul\":8829:8832   */\n  dup10\n    /* \"#utility.yul\":8825:8844   */\n  add\n    /* \"#utility.yul\":8819:8845   */\n  mload\n    /* \"#utility.yul\":8811:8817   */\n  dup3\n    /* \"#utility.yul\":8804:8846   */\n  sstore\n    /* \"#utility.yul\":8885:8886   */\n  0x01\n    /* \"#utility.yul\":8877:8883   */\n  dup3\n    /* \"#utility.yul\":8873:8887   */\n  add\n    /* \"#utility.yul\":8863:8887   */\n  swap2\n  pop\n    /* \"#utility.yul\":8932:8934   */\n  0x20\n    /* \"#utility.yul\":8921:8930   */\n  dup6\n    /* \"#utility.yul\":8917:8935   */\n  add\n    /* \"#utility.yul\":8904:8935   */\n  swap5\n  pop\n    /* \"#utility.yul\":8778:8782   */\n  0x20\n    /* \"#utility.yul\":8775:8776   */\n  dup2\n    /* \"#utility.yul\":8771:8783   */\n  add\n    /* \"#utility.yul\":8766:8783   */\n  swap1\n  pop\n    /* \"#utility.yul\":8741:8949   */\n  jump(tag_217)\ntag_219:\n    /* \"#utility.yul\":8977:8983   */\n  dup7\n    /* \"#utility.yul\":8968:8975   */\n  dup4\n    /* \"#utility.yul\":8965:8984   */\n  lt\n    /* \"#utility.yul\":8962:9141   */\n  iszero\n  tag_220\n  jumpi\n    /* \"#utility.yul\":9035:9044   */\n  dup5\n    /* \"#utility.yul\":9030:9033   */\n  dup10\n    /* \"#utility.yul\":9026:9045   */\n  add\n    /* \"#utility.yul\":9020:9046   */\n  mload\n    /* \"#utility.yul\":9078:9126   */\n  tag_221\n    /* \"#utility.yul\":9120:9124   */\n  0x1f\n    /* \"#utility.yul\":9112:9118   */\n  dup10\n    /* \"#utility.yul\":9108:9125   */\n  and\n    /* \"#utility.yul\":9097:9106   */\n  dup3\n    /* \"#utility.yul\":9078:9126   */\n  tag_95\n  jump\t// in\ntag_221:\n    /* \"#utility.yul\":9070:9076   */\n  dup4\n    /* \"#utility.yul\":9063:9127   */\n  sstore\n    /* \"#utility.yul\":8985:9141   */\n  pop\n    /* \"#utility.yul\":8962:9141   */\ntag_220:\n    /* \"#utility.yul\":9187:9188   */\n  0x01\n    /* \"#utility.yul\":9183:9184   */\n  0x02\n    /* \"#utility.yul\":9175:9181   */\n  dup9\n    /* \"#utility.yul\":9171:9185   */\n  mul\n    /* \"#utility.yul\":9167:9189   */\n  add\n    /* \"#utility.yul\":9161:9165   */\n  dup9\n    /* \"#utility.yul\":9154:9190   */\n  sstore\n    /* \"#utility.yul\":8589:9200   */\n  pop\n  pop\n  pop\n    /* \"#utility.yul\":8552:9439   */\ntag_212:\n  pop\n    /* \"#utility.yul\":8142:9445   */\n  pop\n  pop\n  pop\n    /* \"#utility.yul\":8050:9445   */\n  pop\n  pop\n  jump\t// out\n    /* \"#utility.yul\":9451:9569   */\ntag_97:\n    /* \"#utility.yul\":9538:9562   */\n  tag_223\n    /* \"#utility.yul\":9556:9561   */\n  dup2\n    /* \"#utility.yul\":9538:9562   */\n  tag_75\n  jump\t// in\ntag_223:\n    /* \"#utility.yul\":9533:9536   */\n  dup3\n    /* \"#utility.yul\":9526:9563   */\n  mstore\n    /* \"#utility.yul\":9451:9569   */\n  pop\n  pop\n  jump\t// out\n    /* \"#utility.yul\":9575:9797   */\ntag_20:\n    /* \"#utility.yul\":9668:9672   */\n  0x00\n    /* \"#utility.yul\":9706:9708   */\n  0x20\n    /* \"#utility.yul\":9695:9704   */\n  dup3\n    /* \"#utility.yul\":9691:9709   */\n  add\n    /* \"#utility.yul\":9683:9709   */\n  swap1\n  pop\n    /* \"#utility.yul\":9719:9790   */\n  tag_225\n    /* \"#utility.yul\":9787:9788   */\n  0x00\n    /* \"#utility.yul\":9776:9785   */\n  dup4\n    /* \"#utility.yul\":9772:9789   */\n  add\n    /* \"#utility.yul\":9763:9769   */\n  dup5\n    /* \"#utility.yul\":9719:9790   */\n  tag_97\n  jump\t// in\ntag_225:\n    /* \"#utility.yul\":9575:9797   */\n  swap3\n  swap2\n  pop\n  pop\n  jump\t// out\n    /* \"#utility.yul\":9803:9972   */\ntag_98:\n    /* \"#utility.yul\":9887:9898   */\n  0x00\n    /* \"#utility.yul\":9921:9927   */\n  dup3\n    /* \"#utility.yul\":9916:9919   */\n  dup3\n    /* \"#utility.yul\":9909:9928   */\n  mstore\n    /* \"#utility.yul\":9961:9965   */\n  0x20\n    /* \"#utility.yul\":9956:9959   */\n  dup3\n    /* \"#utility.yul\":9952:9966   */\n  add\n    /* \"#utility.yul\":9937:9966   */\n  swap1\n  pop\n    /* \"#utility.yul\":9803:9972   */\n  swap3\n  swap2\n  pop\n  pop\n  jump\t// out\n    /* \"#utility.yul\":9978:10149   */\ntag_99:\n    /* \"#utility.yul\":10118:10141   */\n  0x426c61636b6c6973746564204164647265737365730000000000000000000000\n    /* \"#utility.yul\":10114:10115   */\n  0x00\n    /* \"#utility.yul\":10106:10112   */\n  dup3\n    /* \"#utility.yul\":10102:10116   */\n  add\n    /* \"#utility.yul\":10095:10142   */\n  mstore\n    /* \"#utility.yul\":9978:10149   */\n  pop\n  jump\t// out\n    /* \"#utility.yul\":10155:10521   */\ntag_100:\n    /* \"#utility.yul\":10297:10300   */\n  0x00\n    /* \"#utility.yul\":10318:10385   */\n  tag_229\n    /* \"#utility.yul\":10382:10384   */\n  0x15\n    /* \"#utility.yul\":10377:10380   */\n  dup4\n    /* \"#utility.yul\":10318:10385   */\n  tag_98\n  jump\t// in\ntag_229:\n    /* \"#utility.yul\":10311:10385   */\n  swap2\n  pop\n    /* \"#utility.yul\":10394:10487   */\n  tag_230\n    /* \"#utility.yul\":10483:10486   */\n  dup3\n    /* \"#utility.yul\":10394:10487   */\n  tag_99\n  jump\t// in\ntag_230:\n    /* \"#utility.yul\":10512:10514   */\n  0x20\n    /* \"#utility.yul\":10507:10510   */\n  dup3\n    /* \"#utility.yul\":10503:10515   */\n  add\n    /* \"#utility.yul\":10496:10515   */\n  swap1\n  pop\n    /* \"#utility.yul\":10155:10521   */\n  swap2\n  swap1\n  pop\n  jump\t// out\n    /* \"#utility.yul\":10527:10946   */\ntag_38:\n    /* \"#utility.yul\":10693:10697   */\n  0x00\n    /* \"#utility.yul\":10731:10733   */\n  0x20\n    /* \"#utility.yul\":10720:10729   */\n  dup3\n    /* \"#utility.yul\":10716:10734   */\n  add\n    /* \"#utility.yul\":10708:10734   */\n  swap1\n  pop\n    /* \"#utility.yul\":10780:10789   */\n  dup2\n    /* \"#utility.yul\":10774:10778   */\n  dup2\n    /* \"#utility.yul\":10770:10790   */\n  sub\n    /* \"#utility.yul\":10766:10767   */\n  0x00\n    /* \"#utility.yul\":10755:10764   */\n  dup4\n    /* \"#utility.yul\":10751:10768   */\n  add\n    /* \"#utility.yul\":10744:10791   */\n  mstore\n    /* \"#utility.yul\":10808:10939   */\n  tag_232\n    /* \"#utility.yul\":10934:10938   */\n  dup2\n    /* \"#utility.yul\":10808:10939   */\n  tag_100\n  jump\t// in\ntag_232:\n    /* \"#utility.yul\":10800:10939   */\n  swap1\n  pop\n    /* \"#utility.yul\":10527:10946   */\n  swap2\n  swap1\n  pop\n  jump\t// out\n    /* \"#utility.yul\":10952:11173   */\ntag_101:\n    /* \"#utility.yul\":11092:11126   */\n  0x426f746820616464726573736573206d7573742062652077686974656c697374\n    /* \"#utility.yul\":11088:11089   */\n  0x00\n    /* \"#utility.yul\":11080:11086   */\n  dup3\n    /* \"#utility.yul\":11076:11090   */\n  add\n    /* \"#utility.yul\":11069:11127   */\n  mstore\n    /* \"#utility.yul\":11161:11165   */\n  0x6564000000000000000000000000000000000000000000000000000000000000\n    /* \"#utility.yul\":11156:11158   */\n  0x20\n    /* \"#utility.yul\":11148:11154   */\n  dup3\n    /* \"#utility.yul\":11144:11159   */\n  add\n    /* \"#utility.yul\":11137:11166   */\n  mstore\n    /* \"#utility.yul\":10952:11173   */\n  pop\n  jump\t// out\n    /* \"#utility.yul\":11179:11545   */\ntag_102:\n    /* \"#utility.yul\":11321:11324   */\n  0x00\n    /* \"#utility.yul\":11342:11409   */\n  tag_235\n    /* \"#utility.yul\":11406:11408   */\n  0x22\n    /* \"#utility.yul\":11401:11404   */\n  dup4\n    /* \"#utility.yul\":11342:11409   */\n  tag_98\n  jump\t// in\ntag_235:\n    /* \"#utility.yul\":11335:11409   */\n  swap2\n  pop\n    /* \"#utility.yul\":11418:11511   */\n  tag_236\n    /* \"#utility.yul\":11507:11510   */\n  dup3\n    /* \"#utility.yul\":11418:11511   */\n  tag_101\n  jump\t// in\ntag_236:\n    /* \"#utility.yul\":11536:11538   */\n  0x40\n    /* \"#utility.yul\":11531:11534   */\n  dup3\n    /* \"#utility.yul\":11527:11539   */\n  add\n    /* \"#utility.yul\":11520:11539   */\n  swap1\n  pop\n    /* \"#utility.yul\":11179:11545   */\n  swap2\n  swap1\n  pop\n  jump\t// out\n    /* \"#utility.yul\":11551:11970   */\ntag_43:\n    /* \"#utility.yul\":11717:11721   */\n  0x00\n    /* \"#utility.yul\":11755:11757   */\n  0x20\n    /* \"#utility.yul\":11744:11753   */\n  dup3\n    /* \"#utility.yul\":11740:11758   */\n  add\n    /* \"#utility.yul\":11732:11758   */\n  swap1\n  pop\n    /* \"#utility.yul\":11804:11813   */\n  dup2\n    /* \"#utility.yul\":11798:11802   */\n  dup2\n    /* \"#utility.yul\":11794:11814   */\n  sub\n    /* \"#utility.yul\":11790:11791   */\n  0x00\n    /* \"#utility.yul\":11779:11788   */\n  dup4\n    /* \"#utility.yul\":11775:11792   */\n  add\n    /* \"#utility.yul\":11768:11815   */\n  mstore\n    /* \"#utility.yul\":11832:11963   */\n  tag_238\n    /* \"#utility.yul\":11958:11962   */\n  dup2\n    /* \"#utility.yul\":11832:11963   */\n  tag_102\n  jump\t// in\ntag_238:\n    /* \"#utility.yul\":11824:11963   */\n  swap1\n  pop\n    /* \"#utility.yul\":11551:11970   */\n  swap2\n  swap1\n  pop\n  jump\t// out\n    /* \"#utility.yul\":11976:12155   */\ntag_103:\n    /* \"#utility.yul\":12116:12147   */\n  0x546f6b656e205472616e73666572204c696d6974204578636565646564000000\n    /* \"#utility.yul\":12112:12113   */\n  0x00\n    /* \"#utility.yul\":12104:12110   */\n  dup3\n    /* \"#utility.yul\":12100:12114   */\n  add\n    /* \"#utility.yul\":12093:12148   */\n  mstore\n    /* \"#utility.yul\":11976:12155   */\n  pop\n  jump\t// out\n    /* \"#utility.yul\":12161:12527   */\ntag_104:\n    /* \"#utility.yul\":12303:12306   */\n  0x00\n    /* \"#utility.yul\":12324:12391   */\n  tag_241\n    /* \"#utility.yul\":12388:12390   */\n  0x1d\n    /* \"#utility.yul\":12383:12386   */\n  dup4\n    /* \"#utility.yul\":12324:12391   */\n  tag_98\n  jump\t// in\ntag_241:\n    /* \"#utility.yul\":12317:12391   */\n  swap2\n  pop\n    /* \"#utility.yul\":12400:12493   */\n  tag_242\n    /* \"#utility.yul\":12489:12492   */\n  dup3\n    /* \"#utility.yul\":12400:12493   */\n  tag_103\n  jump\t// in\ntag_242:\n    /* \"#utility.yul\":12518:12520   */\n  0x20\n    /* \"#utility.yul\":12513:12516   */\n  dup3\n    /* \"#utility.yul\":12509:12521   */\n  add\n    /* \"#utility.yul\":12502:12521   */\n  swap1\n  pop\n    /* \"#utility.yul\":12161:12527   */\n  swap2\n  swap1\n  pop\n  jump\t// out\n    /* \"#utility.yul\":12533:12952   */\ntag_46:\n    /* \"#utility.yul\":12699:12703   */\n  0x00\n    /* \"#utility.yul\":12737:12739   */\n  0x20\n    /* \"#utility.yul\":12726:12735   */\n  dup3\n    /* \"#utility.yul\":12722:12740   */\n  add\n    /* \"#utility.yul\":12714:12740   */\n  swap1\n  pop\n    /* \"#utility.yul\":12786:12795   */\n  dup2\n    /* \"#utility.yul\":12780:12784   */\n  dup2\n    /* \"#utility.yul\":12776:12796   */\n  sub\n    /* \"#utility.yul\":12772:12773   */\n  0x00\n    /* \"#utility.yul\":12761:12770   */\n  dup4\n    /* \"#utility.yul\":12757:12774   */\n  add\n    /* \"#utility.yul\":12750:12797   */\n  mstore\n    /* \"#utility.yul\":12814:12945   */\n  tag_244\n    /* \"#utility.yul\":12940:12944   */\n  dup2\n    /* \"#utility.yul\":12814:12945   */\n  tag_104\n  jump\t// in\ntag_244:\n    /* \"#utility.yul\":12806:12945   */\n  swap1\n  pop\n    /* \"#utility.yul\":12533:12952   */\n  swap2\n  swap1\n  pop\n  jump\t// out\n    /* \"#utility.yul\":12958:13149   */\ntag_48:\n    /* \"#utility.yul\":12998:13001   */\n  0x00\n    /* \"#utility.yul\":13017:13037   */\n  tag_246\n    /* \"#utility.yul\":13035:13036   */\n  dup3\n    /* \"#utility.yul\":13017:13037   */\n  tag_69\n  jump\t// in\ntag_246:\n    /* \"#utility.yul\":13012:13037   */\n  swap2\n  pop\n    /* \"#utility.yul\":13051:13071   */\n  tag_247\n    /* \"#utility.yul\":13069:13070   */\n  dup4\n    /* \"#utility.yul\":13051:13071   */\n  tag_69\n  jump\t// in\ntag_247:\n    /* \"#utility.yul\":13046:13071   */\n  swap3\n  pop\n    /* \"#utility.yul\":13094:13095   */\n  dup3\n    /* \"#utility.yul\":13091:13092   */\n  dup3\n    /* \"#utility.yul\":13087:13096   */\n  add\n    /* \"#utility.yul\":13080:13096   */\n  swap1\n  pop\n    /* \"#utility.yul\":13115:13118   */\n  dup1\n    /* \"#utility.yul\":13112:13113   */\n  dup3\n    /* \"#utility.yul\":13109:13119   */\n  gt\n    /* \"#utility.yul\":13106:13142   */\n  iszero\n  tag_248\n  jumpi\n    /* \"#utility.yul\":13122:13140   */\n  tag_249\n  tag_65\n  jump\t// in\ntag_249:\n    /* \"#utility.yul\":13106:13142   */\ntag_248:\n    /* \"#utility.yul\":12958:13149   */\n  swap3\n  swap2\n  pop\n  pop\n  jump\t// out\n    /* \"#utility.yul\":13155:13331   */\ntag_105:\n    /* \"#utility.yul\":13295:13323   */\n  0x546f6b656e205472616e7366657220696e20636f6f6c646f776e000000000000\n    /* \"#utility.yul\":13291:13292   */\n  0x00\n    /* \"#utility.yul\":13283:13289   */\n  dup3\n    /* \"#utility.yul\":13279:13293   */\n  add\n    /* \"#utility.yul\":13272:13324   */\n  mstore\n    /* \"#utility.yul\":13155:13331   */\n  pop\n  jump\t// out\n    /* \"#utility.yul\":13337:13703   */\ntag_106:\n    /* \"#utility.yul\":13479:13482   */\n  0x00\n    /* \"#utility.yul\":13500:13567   */\n  tag_252\n    /* \"#utility.yul\":13564:13566   */\n  0x1a\n    /* \"#utility.yul\":13559:13562   */\n  dup4\n    /* \"#utility.yul\":13500:13567   */\n  tag_98\n  jump\t// in\ntag_252:\n    /* \"#utility.yul\":13493:13567   */\n  swap2\n  pop\n    /* \"#utility.yul\":13576:13669   */\n  tag_253\n    /* \"#utility.yul\":13665:13668   */\n  dup3\n    /* \"#utility.yul\":13576:13669   */\n  tag_105\n  jump\t// in\ntag_253:\n    /* \"#utility.yul\":13694:13696   */\n  0x20\n    /* \"#utility.yul\":13689:13692   */\n  dup3\n    /* \"#utility.yul\":13685:13697   */\n  add\n    /* \"#utility.yul\":13678:13697   */\n  swap1\n  pop\n    /* \"#utility.yul\":13337:13703   */\n  swap2\n  swap1\n  pop\n  jump\t// out\n    /* \"#utility.yul\":13709:14128   */\ntag_51:\n    /* \"#utility.yul\":13875:13879   */\n  0x00\n    /* \"#utility.yul\":13913:13915   */\n  0x20\n    /* \"#utility.yul\":13902:13911   */\n  dup3\n    /* \"#utility.yul\":13898:13916   */\n  add\n    /* \"#utility.yul\":13890:13916   */\n  swap1\n  pop\n    /* \"#utility.yul\":13962:13971   */\n  dup2\n    /* \"#utility.yul\":13956:13960   */\n  dup2\n    /* \"#utility.yul\":13952:13972   */\n  sub\n    /* \"#utility.yul\":13948:13949   */\n  0x00\n    /* \"#utility.yul\":13937:13946   */\n  dup4\n    /* \"#utility.yul\":13933:13950   */\n  add\n    /* \"#utility.yul\":13926:13973   */\n  mstore\n    /* \"#utility.yul\":13990:14121   */\n  tag_255\n    /* \"#utility.yul\":14116:14120   */\n  dup2\n    /* \"#utility.yul\":13990:14121   */\n  tag_106\n  jump\t// in\ntag_255:\n    /* \"#utility.yul\":13982:14121   */\n  swap1\n  pop\n    /* \"#utility.yul\":13709:14128   */\n  swap2\n  swap1\n  pop\n  jump\t// out\n    /* \"#utility.yul\":14134:14252   */\ntag_107:\n    /* \"#utility.yul\":14221:14245   */\n  tag_257\n    /* \"#utility.yul\":14239:14244   */\n  dup2\n    /* \"#utility.yul\":14221:14245   */\n  tag_69\n  jump\t// in\ntag_257:\n    /* \"#utility.yul\":14216:14219   */\n  dup3\n    /* \"#utility.yul\":14209:14246   */\n  mstore\n    /* \"#utility.yul\":14134:14252   */\n  pop\n  pop\n  jump\t// out\n    /* \"#utility.yul\":14258:14700   */\ntag_60:\n    /* \"#utility.yul\":14407:14411   */\n  0x00\n    /* \"#utility.yul\":14445:14447   */\n  0x60\n    /* \"#utility.yul\":14434:14443   */\n  dup3\n    /* \"#utility.yul\":14430:14448   */\n  add\n    /* \"#utility.yul\":14422:14448   */\n  swap1\n  pop\n    /* \"#utility.yul\":14458:14529   */\n  tag_259\n    /* \"#utility.yul\":14526:14527   */\n  0x00\n    /* \"#utility.yul\":14515:14524   */\n  dup4\n    /* \"#utility.yul\":14511:14528   */\n  add\n    /* \"#utility.yul\":14502:14508   */\n  dup7\n    /* \"#utility.yul\":14458:14529   */\n  tag_97\n  jump\t// in\ntag_259:\n    /* \"#utility.yul\":14539:14611   */\n  tag_260\n    /* \"#utility.yul\":14607:14609   */\n  0x20\n    /* \"#utility.yul\":14596:14605   */\n  dup4\n    /* \"#utility.yul\":14592:14610   */\n  add\n    /* \"#utility.yul\":14583:14589   */\n  dup6\n    /* \"#utility.yul\":14539:14611   */\n  tag_107\n  jump\t// in\ntag_260:\n    /* \"#utility.yul\":14621:14693   */\n  tag_261\n    /* \"#utility.yul\":14689:14691   */\n  0x40\n    /* \"#utility.yul\":14678:14687   */\n  dup4\n    /* \"#utility.yul\":14674:14692   */\n  add\n    /* \"#utility.yul\":14665:14671   */\n  dup5\n    /* \"#utility.yul\":14621:14693   */\n  tag_107\n  jump\t// in\ntag_261:\n    /* \"#utility.yul\":14258:14700   */\n  swap5\n  swap4\n  pop\n  pop\n  pop\n  pop\n  jump\t// out\n    /* \"#utility.yul\":14706:14928   */\ntag_64:\n    /* \"#utility.yul\":14799:14803   */\n  0x00\n    /* \"#utility.yul\":14837:14839   */\n  0x20\n    /* \"#utility.yul\":14826:14835   */\n  dup3\n    /* \"#utility.yul\":14822:14840   */\n  add\n    /* \"#utility.yul\":14814:14840   */\n  swap1\n  pop\n    /* \"#utility.yul\":14850:14921   */\n  tag_263\n    /* \"#utility.yul\":14918:14919   */\n  0x00\n    /* \"#utility.yul\":14907:14916   */\n  dup4\n    /* \"#utility.yul\":14903:14920   */\n  add\n    /* \"#utility.yul\":14894:14900   */\n  dup5\n    /* \"#utility.yul\":14850:14921   */\n  tag_107\n  jump\t// in\ntag_263:\n    /* \"#utility.yul\":14706:14928   */\n  swap3\n  swap2\n  pop\n  pop\n  jump\t// out\n    /* \"ChaiToken_flattened.sol\":25217:28281  contract ChaiToken is ERC20, Ownable {... */\ntag_26:\n  dataSize(sub_0)\n  dup1\n  dataOffset(sub_0)\n  0x00\n  codecopy\n  0x00\n  return\nstop\n\nsub_0: assembly {\n        /* \"ChaiToken_flattened.sol\":25217:28281  contract ChaiToken is ERC20, Ownable {... */\n      mstore(0x40, 0x80)\n      callvalue\n      dup1\n      iszero\n      tag_1\n      jumpi\n      0x00\n      dup1\n      revert\n    tag_1:\n      pop\n      jumpi(tag_2, lt(calldatasize, 0x04))\n      shr(0xe0, calldataload(0x00))\n      dup1\n      0x70a08231\n      gt\n      tag_30\n      jumpi\n      dup1\n      0xa9059cbb\n      gt\n      tag_31\n      jumpi\n      dup1\n      0xe43252d7\n      gt\n      tag_32\n      jumpi\n      dup1\n      0xe43252d7\n      eq\n      tag_26\n      jumpi\n      dup1\n      0xec28438a\n      eq\n      tag_27\n      jumpi\n      dup1\n      0xf2fde38b\n      eq\n      tag_28\n      jumpi\n      dup1\n      0xfe575a87\n      eq\n      tag_29\n      jumpi\n      jump(tag_2)\n    tag_32:\n      dup1\n      0xa9059cbb\n      eq\n      tag_23\n      jumpi\n      dup1\n      0xb319c6b7\n      eq\n      tag_24\n      jumpi\n      dup1\n      0xdd62ed3e\n      eq\n      tag_25\n      jumpi\n      jump(tag_2)\n    tag_31:\n      dup1\n      0x8c0b5e22\n      gt\n      tag_33\n      jumpi\n      dup1\n      0x8c0b5e22\n      eq\n      tag_19\n      jumpi\n      dup1\n      0x8da5cb5b\n      eq\n      tag_20\n      jumpi\n      dup1\n      0x95d89b41\n      eq\n      tag_21\n      jumpi\n      dup1\n      0x9dfc9117\n      eq\n      tag_22\n      jumpi\n      jump(tag_2)\n    tag_33:\n      dup1\n      0x70a08231\n      eq\n      tag_16\n      jumpi\n      dup1\n      0x715018a6\n      eq\n      tag_17\n      jumpi\n      dup1\n      0x8ab1d681\n      eq\n      tag_18\n      jumpi\n      jump(tag_2)\n    tag_30:\n      dup1\n      0x313ce567\n      gt\n      tag_34\n      jumpi\n      dup1\n      0x537df3b6\n      gt\n      tag_35\n      jumpi\n      dup1\n      0x537df3b6\n      eq\n      tag_12\n      jumpi\n      dup1\n      0x688188e8\n      eq\n      tag_13\n      jumpi\n      dup1\n      0x6d8b0527\n      eq\n      tag_14\n      jumpi\n      dup1\n      0x6e16de11\n      eq\n      tag_15\n      jumpi\n      jump(tag_2)\n    tag_35:\n      dup1\n      0x313ce567\n      eq\n      tag_9\n      jumpi\n      dup1\n      0x3af32abf\n      eq\n      tag_10\n      jumpi\n      dup1\n      0x44337ea1\n      eq\n      tag_11\n      jumpi\n      jump(tag_2)\n    tag_34:\n      dup1\n      0x06fdde03\n      eq\n      tag_3\n      jumpi\n      dup1\n      0x095ea7b3\n      eq\n      tag_4\n      jumpi\n      dup1\n      0x18160ddd\n      eq\n      tag_5\n      jumpi\n      dup1\n      0x1c0aecfa\n      eq\n      tag_6\n      jumpi\n      dup1\n      0x23b872dd\n      eq\n      tag_7\n      jumpi\n      dup1\n      0x2958ad7f\n      eq\n      tag_8\n      jumpi\n    tag_2:\n      0x00\n      dup1\n      revert\n        /* \"ChaiToken_flattened.sol\":12966:13055  function name() public view virtual returns (string memory) {... */\n    tag_3:\n      tag_36\n      tag_37\n      jump\t// in\n    tag_36:\n      mload(0x40)\n      tag_38\n      swap2\n      swap1\n      tag_39\n      jump\t// in\n    tag_38:\n      mload(0x40)\n      dup1\n      swap2\n      sub\n      swap1\n      return\n        /* \"ChaiToken_flattened.sol\":15185:15371  function approve(address spender, uint256 value) public virtual returns (bool) {... */\n    tag_4:\n      tag_40\n      0x04\n      dup1\n      calldatasize\n      sub\n      dup2\n      add\n      swap1\n      tag_41\n      swap2\n      swap1\n      tag_42\n      jump\t// in\n    tag_41:\n      tag_43\n      jump\t// in\n    tag_40:\n      mload(0x40)\n      tag_44\n      swap2\n      swap1\n      tag_45\n      jump\t// in\n    tag_44:\n      mload(0x40)\n      dup1\n      swap2\n      sub\n      swap1\n      return\n        /* \"ChaiToken_flattened.sol\":14036:14133  function totalSupply() public view virtual returns (uint256) {... */\n    tag_5:\n      tag_46\n      tag_47\n      jump\t// in\n    tag_46:\n      mload(0x40)\n      tag_48\n      swap2\n      swap1\n      tag_49\n      jump\t// in\n    tag_48:\n      mload(0x40)\n      dup1\n      swap2\n      sub\n      swap1\n      return\n        /* \"ChaiToken_flattened.sol\":27025:27134  function isWhiteListingEnabled() external view returns(bool)... */\n    tag_6:\n      tag_50\n      tag_51\n      jump\t// in\n    tag_50:\n      mload(0x40)\n      tag_52\n      swap2\n      swap1\n      tag_45\n      jump\t// in\n    tag_52:\n      mload(0x40)\n      dup1\n      swap2\n      sub\n      swap1\n      return\n        /* \"ChaiToken_flattened.sol\":15931:16175  function transferFrom(address from, address to, uint256 value) public virtual returns (bool) {... */\n    tag_7:\n      tag_53\n      0x04\n      dup1\n      calldatasize\n      sub\n      dup2\n      add\n      swap1\n      tag_54\n      swap2\n      swap1\n      tag_55\n      jump\t// in\n    tag_54:\n      tag_56\n      jump\t// in\n    tag_53:\n      mload(0x40)\n      tag_57\n      swap2\n      swap1\n      tag_45\n      jump\t// in\n    tag_57:\n      mload(0x40)\n      dup1\n      swap2\n      sub\n      swap1\n      return\n        /* \"ChaiToken_flattened.sol\":26380:26477  function enableWhiteListing() external onlyOwner... */\n    tag_8:\n      tag_58\n      tag_59\n      jump\t// in\n    tag_58:\n      stop\n        /* \"ChaiToken_flattened.sol\":13894:13976  function decimals() public view virtual returns (uint8) {... */\n    tag_9:\n      tag_60\n      tag_61\n      jump\t// in\n    tag_60:\n      mload(0x40)\n      tag_62\n      swap2\n      swap1\n      tag_63\n      jump\t// in\n    tag_62:\n      mload(0x40)\n      dup1\n      swap2\n      sub\n      swap1\n      return\n        /* \"ChaiToken_flattened.sol\":26902:27019  function isWhitelisted(address account) external view returns(bool)  ... */\n    tag_10:\n      tag_64\n      0x04\n      dup1\n      calldatasize\n      sub\n      dup2\n      add\n      swap1\n      tag_65\n      swap2\n      swap1\n      tag_66\n      jump\t// in\n    tag_65:\n      tag_67\n      jump\t// in\n    tag_64:\n      mload(0x40)\n      tag_68\n      swap2\n      swap1\n      tag_45\n      jump\t// in\n    tag_68:\n      mload(0x40)\n      dup1\n      swap2\n      sub\n      swap1\n      return\n        /* \"ChaiToken_flattened.sol\":25990:26134  function addToBlacklist(address account) external onlyOwner... */\n    tag_11:\n      tag_69\n      0x04\n      dup1\n      calldatasize\n      sub\n      dup2\n      add\n      swap1\n      tag_70\n      swap2\n      swap1\n      tag_66\n      jump\t// in\n    tag_70:\n      tag_71\n      jump\t// in\n    tag_69:\n      stop\n        /* \"ChaiToken_flattened.sol\":26139:26252  function removeFromBlacklist(address account) external onlyOwner... */\n    tag_12:\n      tag_72\n      0x04\n      dup1\n      calldatasize\n      sub\n      dup2\n      add\n      swap1\n      tag_73\n      swap2\n      swap1\n      tag_66\n      jump\t// in\n    tag_73:\n      tag_74\n      jump\t// in\n    tag_72:\n      stop\n        /* \"ChaiToken_flattened.sol\":26483:26582  function disableWhiteListing() external onlyOwner... */\n    tag_13:\n      tag_75\n      tag_76\n      jump\t// in\n    tag_75:\n      stop\n        /* \"ChaiToken_flattened.sol\":27263:27359  function getMaxTxAmount() external view returns(uint256)... */\n    tag_14:\n      tag_77\n      tag_78\n      jump\t// in\n    tag_77:\n      mload(0x40)\n      tag_79\n      swap2\n      swap1\n      tag_49\n      jump\t// in\n    tag_79:\n      mload(0x40)\n      dup1\n      swap2\n      sub\n      swap1\n      return\n        /* \"ChaiToken_flattened.sol\":27365:27485  function setCoolDownTime(uint256 newCoolDowntime) external onlyOwner... */\n    tag_15:\n      tag_80\n      0x04\n      dup1\n      calldatasize\n      sub\n      dup2\n      add\n      swap1\n      tag_81\n      swap2\n      swap1\n      tag_82\n      jump\t// in\n    tag_81:\n      tag_83\n      jump\t// in\n    tag_80:\n      stop\n        /* \"ChaiToken_flattened.sol\":14191:14307  function balanceOf(address account) public view virtual returns (uint256) {... */\n    tag_16:\n      tag_84\n      0x04\n      dup1\n      calldatasize\n      sub\n      dup2\n      add\n      swap1\n      tag_85\n      swap2\n      swap1\n      tag_66\n      jump\t// in\n    tag_85:\n      tag_86\n      jump\t// in\n    tag_84:\n      mload(0x40)\n      tag_87\n      swap2\n      swap1\n      tag_49\n      jump\t// in\n    tag_87:\n      mload(0x40)\n      dup1\n      swap2\n      sub\n      swap1\n      return\n        /* \"ChaiToken_flattened.sol\":25887:25984  function renounceOwnership() public override onlyOwner {... */\n    tag_17:\n      tag_88\n      tag_89\n      jump\t// in\n    tag_88:\n      stop\n        /* \"ChaiToken_flattened.sol\":26784:26897  function removeFromWhitelist(address account) external onlyOwner... */\n    tag_18:\n      tag_90\n      0x04\n      dup1\n      calldatasize\n      sub\n      dup2\n      add\n      swap1\n      tag_91\n      swap2\n      swap1\n      tag_66\n      jump\t// in\n    tag_91:\n      tag_92\n      jump\t// in\n    tag_90:\n      stop\n        /* \"ChaiToken_flattened.sol\":25347:25390  uint256 public maxTxAmount = _initialSupply */\n    tag_19:\n      tag_93\n      tag_94\n      jump\t// in\n    tag_93:\n      mload(0x40)\n      tag_95\n      swap2\n      swap1\n      tag_49\n      jump\t// in\n    tag_95:\n      mload(0x40)\n      dup1\n      swap2\n      sub\n      swap1\n      return\n        /* \"ChaiToken_flattened.sol\":23650:23735  function owner() public view virtual returns (address) {... */\n    tag_20:\n      tag_96\n      tag_97\n      jump\t// in\n    tag_96:\n      mload(0x40)\n      tag_98\n      swap2\n      swap1\n      tag_99\n      jump\t// in\n    tag_98:\n      mload(0x40)\n      dup1\n      swap2\n      sub\n      swap1\n      return\n        /* \"ChaiToken_flattened.sol\":13168:13261  function symbol() public view virtual returns (string memory) {... */\n    tag_21:\n      tag_100\n      tag_101\n      jump\t// in\n    tag_100:\n      mload(0x40)\n      tag_102\n      swap2\n      swap1\n      tag_39\n      jump\t// in\n    tag_102:\n      mload(0x40)\n      dup1\n      swap2\n      sub\n      swap1\n      return\n        /* \"ChaiToken_flattened.sol\":27491:27659  function getContractDetails() external view returns (address, uint256, uint256,uint256)... */\n    tag_22:\n      tag_103\n      tag_104\n      jump\t// in\n    tag_103:\n      mload(0x40)\n      tag_105\n      swap5\n      swap4\n      swap3\n      swap2\n      swap1\n      tag_106\n      jump\t// in\n    tag_105:\n      mload(0x40)\n      dup1\n      swap2\n      sub\n      swap1\n      return\n        /* \"ChaiToken_flattened.sol\":14502:14680  function transfer(address to, uint256 value) public virtual returns (bool) {... */\n    tag_23:\n      tag_107\n      0x04\n      dup1\n      calldatasize\n      sub\n      dup2\n      add\n      swap1\n      tag_108\n      swap2\n      swap1\n      tag_42\n      jump\t// in\n    tag_108:\n      tag_109\n      jump\t// in\n    tag_107:\n      mload(0x40)\n      tag_110\n      swap2\n      swap1\n      tag_45\n      jump\t// in\n    tag_110:\n      mload(0x40)\n      dup1\n      swap2\n      sub\n      swap1\n      return\n        /* \"ChaiToken_flattened.sol\":25396:25435  uint256 public cooldownTime = 1 minutes */\n    tag_24:\n      tag_111\n      tag_112\n      jump\t// in\n    tag_111:\n      mload(0x40)\n      tag_113\n      swap2\n      swap1\n      tag_49\n      jump\t// in\n    tag_113:\n      mload(0x40)\n      dup1\n      swap2\n      sub\n      swap1\n      return\n        /* \"ChaiToken_flattened.sol\":14738:14878  function allowance(address owner, address spender) public view virtual returns (uint256) {... */\n    tag_25:\n      tag_114\n      0x04\n      dup1\n      calldatasize\n      sub\n      dup2\n      add\n      swap1\n      tag_115\n      swap2\n      swap1\n      tag_116\n      jump\t// in\n    tag_115:\n      tag_117\n      jump\t// in\n    tag_114:\n      mload(0x40)\n      tag_118\n      swap2\n      swap1\n      tag_49\n      jump\t// in\n    tag_118:\n      mload(0x40)\n      dup1\n      swap2\n      sub\n      swap1\n      return\n        /* \"ChaiToken_flattened.sol\":26588:26779  function addToWhitelist(address account) external onlyOwner... */\n    tag_26:\n      tag_119\n      0x04\n      dup1\n      calldatasize\n      sub\n      dup2\n      add\n      swap1\n      tag_120\n      swap2\n      swap1\n      tag_66\n      jump\t// in\n    tag_120:\n      tag_121\n      jump\t// in\n    tag_119:\n      stop\n        /* \"ChaiToken_flattened.sol\":27140:27257  function setMaxTxAmount(uint256 newMaxTxAmount) external onlyOwner... */\n    tag_27:\n      tag_122\n      0x04\n      dup1\n      calldatasize\n      sub\n      dup2\n      add\n      swap1\n      tag_123\n      swap2\n      swap1\n      tag_82\n      jump\t// in\n    tag_123:\n      tag_124\n      jump\t// in\n    tag_122:\n      stop\n        /* \"ChaiToken_flattened.sol\":24555:24770  function transferOwnership(address newOwner) public virtual onlyOwner {... */\n    tag_28:\n      tag_125\n      0x04\n      dup1\n      calldatasize\n      sub\n      dup2\n      add\n      swap1\n      tag_126\n      swap2\n      swap1\n      tag_66\n      jump\t// in\n    tag_126:\n      tag_127\n      jump\t// in\n    tag_125:\n      stop\n        /* \"ChaiToken_flattened.sol\":26257:26374  function isBlacklisted(address account) external view returns(bool)  ... */\n    tag_29:\n      tag_128\n      0x04\n      dup1\n      calldatasize\n      sub\n      dup2\n      add\n      swap1\n      tag_129\n      swap2\n      swap1\n      tag_66\n      jump\t// in\n    tag_129:\n      tag_130\n      jump\t// in\n    tag_128:\n      mload(0x40)\n      tag_131\n      swap2\n      swap1\n      tag_45\n      jump\t// in\n    tag_131:\n      mload(0x40)\n      dup1\n      swap2\n      sub\n      swap1\n      return\n        /* \"ChaiToken_flattened.sol\":12966:13055  function name() public view virtual returns (string memory) {... */\n    tag_37:\n        /* \"ChaiToken_flattened.sol\":13011:13024  string memory */\n      0x60\n        /* \"ChaiToken_flattened.sol\":13043:13048  _name */\n      0x03\n        /* \"ChaiToken_flattened.sol\":13036:13048  return _name */\n      dup1\n      sload\n      tag_133\n      swap1\n      tag_134\n      jump\t// in\n    tag_133:\n      dup1\n      0x1f\n      add\n      0x20\n      dup1\n      swap2\n      div\n      mul\n      0x20\n      add\n      mload(0x40)\n      swap1\n      dup2\n      add\n      0x40\n      mstore\n      dup1\n      swap3\n      swap2\n      swap1\n      dup2\n      dup2\n      mstore\n      0x20\n      add\n      dup3\n      dup1\n      sload\n      tag_135\n      swap1\n      tag_134\n      jump\t// in\n    tag_135:\n      dup1\n      iszero\n      tag_136\n      jumpi\n      dup1\n      0x1f\n      lt\n      tag_137\n      jumpi\n      0x0100\n      dup1\n      dup4\n      sload\n      div\n      mul\n      dup4\n      mstore\n      swap2\n      0x20\n      add\n      swap2\n      jump(tag_136)\n    tag_137:\n      dup3\n      add\n      swap2\n      swap1\n      0x00\n      mstore\n      keccak256(0x00, 0x20)\n      swap1\n    tag_138:\n      dup2\n      sload\n      dup2\n      mstore\n      swap1\n      0x01\n      add\n      swap1\n      0x20\n      add\n      dup1\n      dup4\n      gt\n      tag_138\n      jumpi\n      dup3\n      swap1\n      sub\n      0x1f\n      and\n      dup3\n      add\n      swap2\n    tag_136:\n      pop\n      pop\n      pop\n      pop\n      pop\n      swap1\n      pop\n        /* \"ChaiToken_flattened.sol\":12966:13055  function name() public view virtual returns (string memory) {... */\n      swap1\n      jump\t// out\n        /* \"ChaiToken_flattened.sol\":15185:15371  function approve(address spender, uint256 value) public virtual returns (bool) {... */\n    tag_43:\n        /* \"ChaiToken_flattened.sol\":15258:15262  bool */\n      0x00\n        /* \"ChaiToken_flattened.sol\":15274:15287  address owner */\n      dup1\n        /* \"ChaiToken_flattened.sol\":15290:15302  _msgSender() */\n      tag_140\n        /* \"ChaiToken_flattened.sol\":15290:15300  _msgSender */\n      tag_141\n        /* \"ChaiToken_flattened.sol\":15290:15302  _msgSender() */\n      jump\t// in\n    tag_140:\n        /* \"ChaiToken_flattened.sol\":15274:15302  address owner = _msgSender() */\n      swap1\n      pop\n        /* \"ChaiToken_flattened.sol\":15312:15343  _approve(owner, spender, value) */\n      tag_142\n        /* \"ChaiToken_flattened.sol\":15321:15326  owner */\n      dup2\n        /* \"ChaiToken_flattened.sol\":15328:15335  spender */\n      dup6\n        /* \"ChaiToken_flattened.sol\":15337:15342  value */\n      dup6\n        /* \"ChaiToken_flattened.sol\":15312:15320  _approve */\n      tag_143\n        /* \"ChaiToken_flattened.sol\":15312:15343  _approve(owner, spender, value) */\n      jump\t// in\n    tag_142:\n        /* \"ChaiToken_flattened.sol\":15360:15364  true */\n      0x01\n        /* \"ChaiToken_flattened.sol\":15353:15364  return true */\n      swap2\n      pop\n      pop\n        /* \"ChaiToken_flattened.sol\":15185:15371  function approve(address spender, uint256 value) public virtual returns (bool) {... */\n      swap3\n      swap2\n      pop\n      pop\n      jump\t// out\n        /* \"ChaiToken_flattened.sol\":14036:14133  function totalSupply() public view virtual returns (uint256) {... */\n    tag_47:\n        /* \"ChaiToken_flattened.sol\":14088:14095  uint256 */\n      0x00\n        /* \"ChaiToken_flattened.sol\":14114:14126  _totalSupply */\n      sload(0x02)\n        /* \"ChaiToken_flattened.sol\":14107:14126  return _totalSupply */\n      swap1\n      pop\n        /* \"ChaiToken_flattened.sol\":14036:14133  function totalSupply() public view virtual returns (uint256) {... */\n      swap1\n      jump\t// out\n        /* \"ChaiToken_flattened.sol\":27025:27134  function isWhiteListingEnabled() external view returns(bool)... */\n    tag_51:\n        /* \"ChaiToken_flattened.sol\":27080:27084  bool */\n      0x00\n        /* \"ChaiToken_flattened.sol\":27107:27127  _whiteListingEnabled */\n      0x0c\n      0x00\n      swap1\n      sload\n      swap1\n      0x0100\n      exp\n      swap1\n      div\n      0xff\n      and\n        /* \"ChaiToken_flattened.sol\":27100:27127  return _whiteListingEnabled */\n      swap1\n      pop\n        /* \"ChaiToken_flattened.sol\":27025:27134  function isWhiteListingEnabled() external view returns(bool)... */\n      swap1\n      jump\t// out\n        /* \"ChaiToken_flattened.sol\":15931:16175  function transferFrom(address from, address to, uint256 value) public virtual returns (bool) {... */\n    tag_56:\n        /* \"ChaiToken_flattened.sol\":16018:16022  bool */\n      0x00\n        /* \"ChaiToken_flattened.sol\":16034:16049  address spender */\n      dup1\n        /* \"ChaiToken_flattened.sol\":16052:16064  _msgSender() */\n      tag_147\n        /* \"ChaiToken_flattened.sol\":16052:16062  _msgSender */\n      tag_141\n        /* \"ChaiToken_flattened.sol\":16052:16064  _msgSender() */\n      jump\t// in\n    tag_147:\n        /* \"ChaiToken_flattened.sol\":16034:16064  address spender = _msgSender() */\n      swap1\n      pop\n        /* \"ChaiToken_flattened.sol\":16074:16111  _spendAllowance(from, spender, value) */\n      tag_148\n        /* \"ChaiToken_flattened.sol\":16090:16094  from */\n      dup6\n        /* \"ChaiToken_flattened.sol\":16096:16103  spender */\n      dup3\n        /* \"ChaiToken_flattened.sol\":16105:16110  value */\n      dup6\n        /* \"ChaiToken_flattened.sol\":16074:16089  _spendAllowance */\n      tag_149\n        /* \"ChaiToken_flattened.sol\":16074:16111  _spendAllowance(from, spender, value) */\n      jump\t// in\n    tag_148:\n        /* \"ChaiToken_flattened.sol\":16121:16147  _transfer(from, to, value) */\n      tag_150\n        /* \"ChaiToken_flattened.sol\":16131:16135  from */\n      dup6\n        /* \"ChaiToken_flattened.sol\":16137:16139  to */\n      dup6\n        /* \"ChaiToken_flattened.sol\":16141:16146  value */\n      dup6\n        /* \"ChaiToken_flattened.sol\":16121:16130  _transfer */\n      tag_151\n        /* \"ChaiToken_flattened.sol\":16121:16147  _transfer(from, to, value) */\n      jump\t// in\n    tag_150:\n        /* \"ChaiToken_flattened.sol\":16164:16168  true */\n      0x01\n        /* \"ChaiToken_flattened.sol\":16157:16168  return true */\n      swap2\n      pop\n      pop\n        /* \"ChaiToken_flattened.sol\":15931:16175  function transferFrom(address from, address to, uint256 value) public virtual returns (bool) {... */\n      swap4\n      swap3\n      pop\n      pop\n      pop\n      jump\t// out\n        /* \"ChaiToken_flattened.sol\":26380:26477  function enableWhiteListing() external onlyOwner... */\n    tag_59:\n        /* \"ChaiToken_flattened.sol\":23543:23556  _checkOwner() */\n      tag_153\n        /* \"ChaiToken_flattened.sol\":23543:23554  _checkOwner */\n      tag_154\n        /* \"ChaiToken_flattened.sol\":23543:23556  _checkOwner() */\n      jump\t// in\n    tag_153:\n        /* \"ChaiToken_flattened.sol\":26466:26470  true */\n      0x01\n        /* \"ChaiToken_flattened.sol\":26443:26463  _whiteListingEnabled */\n      0x0c\n      0x00\n        /* \"ChaiToken_flattened.sol\":26443:26470  _whiteListingEnabled = true */\n      0x0100\n      exp\n      dup2\n      sload\n      dup2\n      0xff\n      mul\n      not\n      and\n      swap1\n      dup4\n      iszero\n      iszero\n      mul\n      or\n      swap1\n      sstore\n      pop\n        /* \"ChaiToken_flattened.sol\":26380:26477  function enableWhiteListing() external onlyOwner... */\n      jump\t// out\n        /* \"ChaiToken_flattened.sol\":13894:13976  function decimals() public view virtual returns (uint8) {... */\n    tag_61:\n        /* \"ChaiToken_flattened.sol\":13943:13948  uint8 */\n      0x00\n        /* \"ChaiToken_flattened.sol\":13967:13969  18 */\n      0x12\n        /* \"ChaiToken_flattened.sol\":13960:13969  return 18 */\n      swap1\n      pop\n        /* \"ChaiToken_flattened.sol\":13894:13976  function decimals() public view virtual returns (uint8) {... */\n      swap1\n      jump\t// out\n        /* \"ChaiToken_flattened.sol\":26902:27019  function isWhitelisted(address account) external view returns(bool)  ... */\n    tag_67:\n        /* \"ChaiToken_flattened.sol\":26964:26968  bool */\n      0x00\n        /* \"ChaiToken_flattened.sol\":26993:27003  _whitelist */\n      0x0a\n        /* \"ChaiToken_flattened.sol\":26993:27012  _whitelist[account] */\n      0x00\n        /* \"ChaiToken_flattened.sol\":27004:27011  account */\n      dup4\n        /* \"ChaiToken_flattened.sol\":26993:27012  _whitelist[account] */\n      0xffffffffffffffffffffffffffffffffffffffff\n      and\n      0xffffffffffffffffffffffffffffffffffffffff\n      and\n      dup2\n      mstore\n      0x20\n      add\n      swap1\n      dup2\n      mstore\n      0x20\n      add\n      0x00\n      keccak256\n      0x00\n      swap1\n      sload\n      swap1\n      0x0100\n      exp\n      swap1\n      div\n      0xff\n      and\n        /* \"ChaiToken_flattened.sol\":26986:27012  return _whitelist[account] */\n      swap1\n      pop\n        /* \"ChaiToken_flattened.sol\":26902:27019  function isWhitelisted(address account) external view returns(bool)  ... */\n      swap2\n      swap1\n      pop\n      jump\t// out\n        /* \"ChaiToken_flattened.sol\":25990:26134  function addToBlacklist(address account) external onlyOwner... */\n    tag_71:\n        /* \"ChaiToken_flattened.sol\":23543:23556  _checkOwner() */\n      tag_159\n        /* \"ChaiToken_flattened.sol\":23543:23554  _checkOwner */\n      tag_154\n        /* \"ChaiToken_flattened.sol\":23543:23556  _checkOwner() */\n      jump\t// in\n    tag_159:\n        /* \"ChaiToken_flattened.sol\":26086:26090  true */\n      0x01\n        /* \"ChaiToken_flattened.sol\":26064:26074  _blacklist */\n      0x09\n        /* \"ChaiToken_flattened.sol\":26064:26083  _blacklist[account] */\n      0x00\n        /* \"ChaiToken_flattened.sol\":26075:26082  account */\n      dup4\n        /* \"ChaiToken_flattened.sol\":26064:26083  _blacklist[account] */\n      0xffffffffffffffffffffffffffffffffffffffff\n      and\n      0xffffffffffffffffffffffffffffffffffffffff\n      and\n      dup2\n      mstore\n      0x20\n      add\n      swap1\n      dup2\n      mstore\n      0x20\n      add\n      0x00\n      keccak256\n      0x00\n        /* \"ChaiToken_flattened.sol\":26064:26090  _blacklist[account] = true */\n      0x0100\n      exp\n      dup2\n      sload\n      dup2\n      0xff\n      mul\n      not\n      and\n      swap1\n      dup4\n      iszero\n      iszero\n      mul\n      or\n      swap1\n      sstore\n      pop\n        /* \"ChaiToken_flattened.sol\":26122:26127  false */\n      0x00\n        /* \"ChaiToken_flattened.sol\":26100:26110  _whitelist */\n      0x0a\n        /* \"ChaiToken_flattened.sol\":26100:26119  _whitelist[account] */\n      0x00\n        /* \"ChaiToken_flattened.sol\":26111:26118  account */\n      dup4\n        /* \"ChaiToken_flattened.sol\":26100:26119  _whitelist[account] */\n      0xffffffffffffffffffffffffffffffffffffffff\n      and\n      0xffffffffffffffffffffffffffffffffffffffff\n      and\n      dup2\n      mstore\n      0x20\n      add\n      swap1\n      dup2\n      mstore\n      0x20\n      add\n      0x00\n      keccak256\n      0x00\n        /* \"ChaiToken_flattened.sol\":26100:26127  _whitelist[account] = false */\n      0x0100\n      exp\n      dup2\n      sload\n      dup2\n      0xff\n      mul\n      not\n      and\n      swap1\n      dup4\n      iszero\n      iszero\n      mul\n      or\n      swap1\n      sstore\n      pop\n        /* \"ChaiToken_flattened.sol\":25990:26134  function addToBlacklist(address account) external onlyOwner... */\n      pop\n      jump\t// out\n        /* \"ChaiToken_flattened.sol\":26139:26252  function removeFromBlacklist(address account) external onlyOwner... */\n    tag_74:\n        /* \"ChaiToken_flattened.sol\":23543:23556  _checkOwner() */\n      tag_162\n        /* \"ChaiToken_flattened.sol\":23543:23554  _checkOwner */\n      tag_154\n        /* \"ChaiToken_flattened.sol\":23543:23556  _checkOwner() */\n      jump\t// in\n    tag_162:\n        /* \"ChaiToken_flattened.sol\":26240:26245  false */\n      0x00\n        /* \"ChaiToken_flattened.sol\":26218:26228  _blacklist */\n      0x09\n        /* \"ChaiToken_flattened.sol\":26218:26237  _blacklist[account] */\n      0x00\n        /* \"ChaiToken_flattened.sol\":26229:26236  account */\n      dup4\n        /* \"ChaiToken_flattened.sol\":26218:26237  _blacklist[account] */\n      0xffffffffffffffffffffffffffffffffffffffff\n      and\n      0xffffffffffffffffffffffffffffffffffffffff\n      and\n      dup2\n      mstore\n      0x20\n      add\n      swap1\n      dup2\n      mstore\n      0x20\n      add\n      0x00\n      keccak256\n      0x00\n        /* \"ChaiToken_flattened.sol\":26218:26245  _blacklist[account] = false */\n      0x0100\n      exp\n      dup2\n      sload\n      dup2\n      0xff\n      mul\n      not\n      and\n      swap1\n      dup4\n      iszero\n      iszero\n      mul\n      or\n      swap1\n      sstore\n      pop\n        /* \"ChaiToken_flattened.sol\":26139:26252  function removeFromBlacklist(address account) external onlyOwner... */\n      pop\n      jump\t// out\n        /* \"ChaiToken_flattened.sol\":26483:26582  function disableWhiteListing() external onlyOwner... */\n    tag_76:\n        /* \"ChaiToken_flattened.sol\":23543:23556  _checkOwner() */\n      tag_165\n        /* \"ChaiToken_flattened.sol\":23543:23554  _checkOwner */\n      tag_154\n        /* \"ChaiToken_flattened.sol\":23543:23556  _checkOwner() */\n      jump\t// in\n    tag_165:\n        /* \"ChaiToken_flattened.sol\":26570:26575  false */\n      0x00\n        /* \"ChaiToken_flattened.sol\":26547:26567  _whiteListingEnabled */\n      0x0c\n      0x00\n        /* \"ChaiToken_flattened.sol\":26547:26575  _whiteListingEnabled = false */\n      0x0100\n      exp\n      dup2\n      sload\n      dup2\n      0xff\n      mul\n      not\n      and\n      swap1\n      dup4\n      iszero\n      iszero\n      mul\n      or\n      swap1\n      sstore\n      pop\n        /* \"ChaiToken_flattened.sol\":26483:26582  function disableWhiteListing() external onlyOwner... */\n      jump\t// out\n        /* \"ChaiToken_flattened.sol\":27263:27359  function getMaxTxAmount() external view returns(uint256)... */\n    tag_78:\n        /* \"ChaiToken_flattened.sol\":27311:27318  uint256 */\n      0x00\n        /* \"ChaiToken_flattened.sol\":27341:27352  maxTxAmount */\n      sload(0x07)\n        /* \"ChaiToken_flattened.sol\":27334:27352  return maxTxAmount */\n      swap1\n      pop\n        /* \"ChaiToken_flattened.sol\":27263:27359  function getMaxTxAmount() external view returns(uint256)... */\n      swap1\n      jump\t// out\n        /* \"ChaiToken_flattened.sol\":27365:27485  function setCoolDownTime(uint256 newCoolDowntime) external onlyOwner... */\n    tag_83:\n        /* \"ChaiToken_flattened.sol\":23543:23556  _checkOwner() */\n      tag_169\n        /* \"ChaiToken_flattened.sol\":23543:23554  _checkOwner */\n      tag_154\n        /* \"ChaiToken_flattened.sol\":23543:23556  _checkOwner() */\n      jump\t// in\n    tag_169:\n        /* \"ChaiToken_flattened.sol\":27463:27478  newCoolDowntime */\n      dup1\n        /* \"ChaiToken_flattened.sol\":27448:27460  cooldownTime */\n      0x08\n        /* \"ChaiToken_flattened.sol\":27448:27478  cooldownTime = newCoolDowntime */\n      dup2\n      swap1\n      sstore\n      pop\n        /* \"ChaiToken_flattened.sol\":27365:27485  function setCoolDownTime(uint256 newCoolDowntime) external onlyOwner... */\n      pop\n      jump\t// out\n        /* \"ChaiToken_flattened.sol\":14191:14307  function balanceOf(address account) public view virtual returns (uint256) {... */\n    tag_86:\n        /* \"ChaiToken_flattened.sol\":14256:14263  uint256 */\n      0x00\n        /* \"ChaiToken_flattened.sol\":14282:14291  _balances */\n      dup1\n        /* \"ChaiToken_flattened.sol\":14282:14300  _balances[account] */\n      0x00\n        /* \"ChaiToken_flattened.sol\":14292:14299  account */\n      dup4\n        /* \"ChaiToken_flattened.sol\":14282:14300  _balances[account] */\n      0xffffffffffffffffffffffffffffffffffffffff\n      and\n      0xffffffffffffffffffffffffffffffffffffffff\n      and\n      dup2\n      mstore\n      0x20\n      add\n      swap1\n      dup2\n      mstore\n      0x20\n      add\n      0x00\n      keccak256\n      sload\n        /* \"ChaiToken_flattened.sol\":14275:14300  return _balances[account] */\n      swap1\n      pop\n        /* \"ChaiToken_flattened.sol\":14191:14307  function balanceOf(address account) public view virtual returns (uint256) {... */\n      swap2\n      swap1\n      pop\n      jump\t// out\n        /* \"ChaiToken_flattened.sol\":25887:25984  function renounceOwnership() public override onlyOwner {... */\n    tag_89:\n        /* \"ChaiToken_flattened.sol\":23543:23556  _checkOwner() */\n      tag_173\n        /* \"ChaiToken_flattened.sol\":23543:23554  _checkOwner */\n      tag_154\n        /* \"ChaiToken_flattened.sol\":23543:23556  _checkOwner() */\n      jump\t// in\n    tag_173:\n        /* \"ChaiToken_flattened.sol\":25952:25977  super.renounceOwnership() */\n      tag_175\n        /* \"ChaiToken_flattened.sol\":25952:25975  super.renounceOwnership */\n      tag_176\n        /* \"ChaiToken_flattened.sol\":25952:25977  super.renounceOwnership() */\n      jump\t// in\n    tag_175:\n        /* \"ChaiToken_flattened.sol\":25887:25984  function renounceOwnership() public override onlyOwner {... */\n      jump\t// out\n        /* \"ChaiToken_flattened.sol\":26784:26897  function removeFromWhitelist(address account) external onlyOwner... */\n    tag_92:\n        /* \"ChaiToken_flattened.sol\":23543:23556  _checkOwner() */\n      tag_178\n        /* \"ChaiToken_flattened.sol\":23543:23554  _checkOwner */\n      tag_154\n        /* \"ChaiToken_flattened.sol\":23543:23556  _checkOwner() */\n      jump\t// in\n    tag_178:\n        /* \"ChaiToken_flattened.sol\":26885:26890  false */\n      0x00\n        /* \"ChaiToken_flattened.sol\":26863:26873  _whitelist */\n      0x0a\n        /* \"ChaiToken_flattened.sol\":26863:26882  _whitelist[account] */\n      0x00\n        /* \"ChaiToken_flattened.sol\":26874:26881  account */\n      dup4\n        /* \"ChaiToken_flattened.sol\":26863:26882  _whitelist[account] */\n      0xffffffffffffffffffffffffffffffffffffffff\n      and\n      0xffffffffffffffffffffffffffffffffffffffff\n      and\n      dup2\n      mstore\n      0x20\n      add\n      swap1\n      dup2\n      mstore\n      0x20\n      add\n      0x00\n      keccak256\n      0x00\n        /* \"ChaiToken_flattened.sol\":26863:26890  _whitelist[account] = false */\n      0x0100\n      exp\n      dup2\n      sload\n      dup2\n      0xff\n      mul\n      not\n      and\n      swap1\n      dup4\n      iszero\n      iszero\n      mul\n      or\n      swap1\n      sstore\n      pop\n        /* \"ChaiToken_flattened.sol\":26784:26897  function removeFromWhitelist(address account) external onlyOwner... */\n      pop\n      jump\t// out\n        /* \"ChaiToken_flattened.sol\":25347:25390  uint256 public maxTxAmount = _initialSupply */\n    tag_94:\n      sload(0x07)\n      dup2\n      jump\t// out\n        /* \"ChaiToken_flattened.sol\":23650:23735  function owner() public view virtual returns (address) {... */\n    tag_97:\n        /* \"ChaiToken_flattened.sol\":23696:23703  address */\n      0x00\n        /* \"ChaiToken_flattened.sol\":23722:23728  _owner */\n      0x05\n      0x00\n      swap1\n      sload\n      swap1\n      0x0100\n      exp\n      swap1\n      div\n      0xffffffffffffffffffffffffffffffffffffffff\n      and\n        /* \"ChaiToken_flattened.sol\":23715:23728  return _owner */\n      swap1\n      pop\n        /* \"ChaiToken_flattened.sol\":23650:23735  function owner() public view virtual returns (address) {... */\n      swap1\n      jump\t// out\n        /* \"ChaiToken_flattened.sol\":13168:13261  function symbol() public view virtual returns (string memory) {... */\n    tag_101:\n        /* \"ChaiToken_flattened.sol\":13215:13228  string memory */\n      0x60\n        /* \"ChaiToken_flattened.sol\":13247:13254  _symbol */\n      0x04\n        /* \"ChaiToken_flattened.sol\":13240:13254  return _symbol */\n      dup1\n      sload\n      tag_182\n      swap1\n      tag_134\n      jump\t// in\n    tag_182:\n      dup1\n      0x1f\n      add\n      0x20\n      dup1\n      swap2\n      div\n      mul\n      0x20\n      add\n      mload(0x40)\n      swap1\n      dup2\n      add\n      0x40\n      mstore\n      dup1\n      swap3\n      swap2\n      swap1\n      dup2\n      dup2\n      mstore\n      0x20\n      add\n      dup3\n      dup1\n      sload\n      tag_183\n      swap1\n      tag_134\n      jump\t// in\n    tag_183:\n      dup1\n      iszero\n      tag_184\n      jumpi\n      dup1\n      0x1f\n      lt\n      tag_185\n      jumpi\n      0x0100\n      dup1\n      dup4\n      sload\n      div\n      mul\n      dup4\n      mstore\n      swap2\n      0x20\n      add\n      swap2\n      jump(tag_184)\n    tag_185:\n      dup3\n      add\n      swap2\n      swap1\n      0x00\n      mstore\n      keccak256(0x00, 0x20)\n      swap1\n    tag_186:\n      dup2\n      sload\n      dup2\n      mstore\n      swap1\n      0x01\n      add\n      swap1\n      0x20\n      add\n      dup1\n      dup4\n      gt\n      tag_186\n      jumpi\n      dup3\n      swap1\n      sub\n      0x1f\n      and\n      dup3\n      add\n      swap2\n    tag_184:\n      pop\n      pop\n      pop\n      pop\n      pop\n      swap1\n      pop\n        /* \"ChaiToken_flattened.sol\":13168:13261  function symbol() public view virtual returns (string memory) {... */\n      swap1\n      jump\t// out\n        /* \"ChaiToken_flattened.sol\":27491:27659  function getContractDetails() external view returns (address, uint256, uint256,uint256)... */\n    tag_104:\n        /* \"ChaiToken_flattened.sol\":27544:27551  address */\n      0x00\n        /* \"ChaiToken_flattened.sol\":27553:27560  uint256 */\n      dup1\n        /* \"ChaiToken_flattened.sol\":27562:27569  uint256 */\n      0x00\n        /* \"ChaiToken_flattened.sol\":27570:27577  uint256 */\n      dup1\n        /* \"ChaiToken_flattened.sol\":27601:27608  owner() */\n      tag_188\n        /* \"ChaiToken_flattened.sol\":27601:27606  owner */\n      tag_97\n        /* \"ChaiToken_flattened.sol\":27601:27608  owner() */\n      jump\t// in\n    tag_188:\n        /* \"ChaiToken_flattened.sol\":27610:27621  maxTxAmount */\n      sload(0x07)\n        /* \"ChaiToken_flattened.sol\":27623:27635  cooldownTime */\n      sload(0x08)\n        /* \"ChaiToken_flattened.sol\":27637:27651  _initialSupply */\n      sload(0x06)\n        /* \"ChaiToken_flattened.sol\":27593:27652  return (owner(), maxTxAmount, cooldownTime, _initialSupply) */\n      swap4\n      pop\n      swap4\n      pop\n      swap4\n      pop\n      swap4\n      pop\n        /* \"ChaiToken_flattened.sol\":27491:27659  function getContractDetails() external view returns (address, uint256, uint256,uint256)... */\n      swap1\n      swap2\n      swap3\n      swap4\n      jump\t// out\n        /* \"ChaiToken_flattened.sol\":14502:14680  function transfer(address to, uint256 value) public virtual returns (bool) {... */\n    tag_109:\n        /* \"ChaiToken_flattened.sol\":14571:14575  bool */\n      0x00\n        /* \"ChaiToken_flattened.sol\":14587:14600  address owner */\n      dup1\n        /* \"ChaiToken_flattened.sol\":14603:14615  _msgSender() */\n      tag_190\n        /* \"ChaiToken_flattened.sol\":14603:14613  _msgSender */\n      tag_141\n        /* \"ChaiToken_flattened.sol\":14603:14615  _msgSender() */\n      jump\t// in\n    tag_190:\n        /* \"ChaiToken_flattened.sol\":14587:14615  address owner = _msgSender() */\n      swap1\n      pop\n        /* \"ChaiToken_flattened.sol\":14625:14652  _transfer(owner, to, value) */\n      tag_191\n        /* \"ChaiToken_flattened.sol\":14635:14640  owner */\n      dup2\n        /* \"ChaiToken_flattened.sol\":14642:14644  to */\n      dup6\n        /* \"ChaiToken_flattened.sol\":14646:14651  value */\n      dup6\n        /* \"ChaiToken_flattened.sol\":14625:14634  _transfer */\n      tag_151\n        /* \"ChaiToken_flattened.sol\":14625:14652  _transfer(owner, to, value) */\n      jump\t// in\n    tag_191:\n        /* \"ChaiToken_flattened.sol\":14669:14673  true */\n      0x01\n        /* \"ChaiToken_flattened.sol\":14662:14673  return true */\n      swap2\n      pop\n      pop\n        /* \"ChaiToken_flattened.sol\":14502:14680  function transfer(address to, uint256 value) public virtual returns (bool) {... */\n      swap3\n      swap2\n      pop\n      pop\n      jump\t// out\n        /* \"ChaiToken_flattened.sol\":25396:25435  uint256 public cooldownTime = 1 minutes */\n    tag_112:\n      sload(0x08)\n      dup2\n      jump\t// out\n        /* \"ChaiToken_flattened.sol\":14738:14878  function allowance(address owner, address spender) public view virtual returns (uint256) {... */\n    tag_117:\n        /* \"ChaiToken_flattened.sol\":14818:14825  uint256 */\n      0x00\n        /* \"ChaiToken_flattened.sol\":14844:14855  _allowances */\n      0x01\n        /* \"ChaiToken_flattened.sol\":14844:14862  _allowances[owner] */\n      0x00\n        /* \"ChaiToken_flattened.sol\":14856:14861  owner */\n      dup5\n        /* \"ChaiToken_flattened.sol\":14844:14862  _allowances[owner] */\n      0xffffffffffffffffffffffffffffffffffffffff\n      and\n      0xffffffffffffffffffffffffffffffffffffffff\n      and\n      dup2\n      mstore\n      0x20\n      add\n      swap1\n      dup2\n      mstore\n      0x20\n      add\n      0x00\n      keccak256\n        /* \"ChaiToken_flattened.sol\":14844:14871  _allowances[owner][spender] */\n      0x00\n        /* \"ChaiToken_flattened.sol\":14863:14870  spender */\n      dup4\n        /* \"ChaiToken_flattened.sol\":14844:14871  _allowances[owner][spender] */\n      0xffffffffffffffffffffffffffffffffffffffff\n      and\n      0xffffffffffffffffffffffffffffffffffffffff\n      and\n      dup2\n      mstore\n      0x20\n      add\n      swap1\n      dup2\n      mstore\n      0x20\n      add\n      0x00\n      keccak256\n      sload\n        /* \"ChaiToken_flattened.sol\":14837:14871  return _allowances[owner][spender] */\n      swap1\n      pop\n        /* \"ChaiToken_flattened.sol\":14738:14878  function allowance(address owner, address spender) public view virtual returns (uint256) {... */\n      swap3\n      swap2\n      pop\n      pop\n      jump\t// out\n        /* \"ChaiToken_flattened.sol\":26588:26779  function addToWhitelist(address account) external onlyOwner... */\n    tag_121:\n        /* \"ChaiToken_flattened.sol\":23543:23556  _checkOwner() */\n      tag_194\n        /* \"ChaiToken_flattened.sol\":23543:23554  _checkOwner */\n      tag_154\n        /* \"ChaiToken_flattened.sol\":23543:23556  _checkOwner() */\n      jump\t// in\n    tag_194:\n        /* \"ChaiToken_flattened.sol\":26671:26681  _blacklist */\n      0x09\n        /* \"ChaiToken_flattened.sol\":26671:26690  _blacklist[account] */\n      0x00\n        /* \"ChaiToken_flattened.sol\":26682:26689  account */\n      dup3\n        /* \"ChaiToken_flattened.sol\":26671:26690  _blacklist[account] */\n      0xffffffffffffffffffffffffffffffffffffffff\n      and\n      0xffffffffffffffffffffffffffffffffffffffff\n      and\n      dup2\n      mstore\n      0x20\n      add\n      swap1\n      dup2\n      mstore\n      0x20\n      add\n      0x00\n      keccak256\n      0x00\n      swap1\n      sload\n      swap1\n      0x0100\n      exp\n      swap1\n      div\n      0xff\n      and\n        /* \"ChaiToken_flattened.sol\":26670:26690  !_blacklist[account] */\n      iszero\n        /* \"ChaiToken_flattened.sol\":26662:26736  require(!_blacklist[account], \"Blacklisted address cannot be whitelisted\") */\n      tag_196\n      jumpi\n      mload(0x40)\n      0x08c379a000000000000000000000000000000000000000000000000000000000\n      dup2\n      mstore\n      0x04\n      add\n      tag_197\n      swap1\n      tag_198\n      jump\t// in\n    tag_197:\n      mload(0x40)\n      dup1\n      swap2\n      sub\n      swap1\n      revert\n    tag_196:\n        /* \"ChaiToken_flattened.sol\":26768:26772  true */\n      0x01\n        /* \"ChaiToken_flattened.sol\":26746:26756  _whitelist */\n      0x0a\n        /* \"ChaiToken_flattened.sol\":26746:26765  _whitelist[account] */\n      0x00\n        /* \"ChaiToken_flattened.sol\":26757:26764  account */\n      dup4\n        /* \"ChaiToken_flattened.sol\":26746:26765  _whitelist[account] */\n      0xffffffffffffffffffffffffffffffffffffffff\n      and\n      0xffffffffffffffffffffffffffffffffffffffff\n      and\n      dup2\n      mstore\n      0x20\n      add\n      swap1\n      dup2\n      mstore\n      0x20\n      add\n      0x00\n      keccak256\n      0x00\n        /* \"ChaiToken_flattened.sol\":26746:26772  _whitelist[account] = true */\n      0x0100\n      exp\n      dup2\n      sload\n      dup2\n      0xff\n      mul\n      not\n      and\n      swap1\n      dup4\n      iszero\n      iszero\n      mul\n      or\n      swap1\n      sstore\n      pop\n        /* \"ChaiToken_flattened.sol\":26588:26779  function addToWhitelist(address account) external onlyOwner... */\n      pop\n      jump\t// out\n        /* \"ChaiToken_flattened.sol\":27140:27257  function setMaxTxAmount(uint256 newMaxTxAmount) external onlyOwner... */\n    tag_124:\n        /* \"ChaiToken_flattened.sol\":23543:23556  _checkOwner() */\n      tag_200\n        /* \"ChaiToken_flattened.sol\":23543:23554  _checkOwner */\n      tag_154\n        /* \"ChaiToken_flattened.sol\":23543:23556  _checkOwner() */\n      jump\t// in\n    tag_200:\n        /* \"ChaiToken_flattened.sol\":27235:27249  newMaxTxAmount */\n      dup1\n        /* \"ChaiToken_flattened.sol\":27221:27232  maxTxAmount */\n      0x07\n        /* \"ChaiToken_flattened.sol\":27221:27249  maxTxAmount = newMaxTxAmount */\n      dup2\n      swap1\n      sstore\n      pop\n        /* \"ChaiToken_flattened.sol\":27140:27257  function setMaxTxAmount(uint256 newMaxTxAmount) external onlyOwner... */\n      pop\n      jump\t// out\n        /* \"ChaiToken_flattened.sol\":24555:24770  function transferOwnership(address newOwner) public virtual onlyOwner {... */\n    tag_127:\n        /* \"ChaiToken_flattened.sol\":23543:23556  _checkOwner() */\n      tag_203\n        /* \"ChaiToken_flattened.sol\":23543:23554  _checkOwner */\n      tag_154\n        /* \"ChaiToken_flattened.sol\":23543:23556  _checkOwner() */\n      jump\t// in\n    tag_203:\n        /* \"ChaiToken_flattened.sol\":24659:24660  0 */\n      0x00\n        /* \"ChaiToken_flattened.sol\":24639:24661  newOwner == address(0) */\n      0xffffffffffffffffffffffffffffffffffffffff\n      and\n        /* \"ChaiToken_flattened.sol\":24639:24647  newOwner */\n      dup2\n        /* \"ChaiToken_flattened.sol\":24639:24661  newOwner == address(0) */\n      0xffffffffffffffffffffffffffffffffffffffff\n      and\n      sub\n        /* \"ChaiToken_flattened.sol\":24635:24726  if (newOwner == address(0)) {... */\n      tag_205\n      jumpi\n        /* \"ChaiToken_flattened.sol\":24712:24713  0 */\n      0x00\n        /* \"ChaiToken_flattened.sol\":24684:24715  OwnableInvalidOwner(address(0)) */\n      mload(0x40)\n      0x1e4fbdf700000000000000000000000000000000000000000000000000000000\n      dup2\n      mstore\n      0x04\n      add\n      tag_206\n      swap2\n      swap1\n      tag_99\n      jump\t// in\n    tag_206:\n      mload(0x40)\n      dup1\n      swap2\n      sub\n      swap1\n      revert\n        /* \"ChaiToken_flattened.sol\":24635:24726  if (newOwner == address(0)) {... */\n    tag_205:\n        /* \"ChaiToken_flattened.sol\":24735:24763  _transferOwnership(newOwner) */\n      tag_207\n        /* \"ChaiToken_flattened.sol\":24754:24762  newOwner */\n      dup2\n        /* \"ChaiToken_flattened.sol\":24735:24753  _transferOwnership */\n      tag_208\n        /* \"ChaiToken_flattened.sol\":24735:24763  _transferOwnership(newOwner) */\n      jump\t// in\n    tag_207:\n        /* \"ChaiToken_flattened.sol\":24555:24770  function transferOwnership(address newOwner) public virtual onlyOwner {... */\n      pop\n      jump\t// out\n        /* \"ChaiToken_flattened.sol\":26257:26374  function isBlacklisted(address account) external view returns(bool)  ... */\n    tag_130:\n        /* \"ChaiToken_flattened.sol\":26319:26323  bool */\n      0x00\n        /* \"ChaiToken_flattened.sol\":26348:26358  _blacklist */\n      0x09\n        /* \"ChaiToken_flattened.sol\":26348:26367  _blacklist[account] */\n      0x00\n        /* \"ChaiToken_flattened.sol\":26359:26366  account */\n      dup4\n        /* \"ChaiToken_flattened.sol\":26348:26367  _blacklist[account] */\n      0xffffffffffffffffffffffffffffffffffffffff\n      and\n      0xffffffffffffffffffffffffffffffffffffffff\n      and\n      dup2\n      mstore\n      0x20\n      add\n      swap1\n      dup2\n      mstore\n      0x20\n      add\n      0x00\n      keccak256\n      0x00\n      swap1\n      sload\n      swap1\n      0x0100\n      exp\n      swap1\n      div\n      0xff\n      and\n        /* \"ChaiToken_flattened.sol\":26341:26367  return _blacklist[account] */\n      swap1\n      pop\n        /* \"ChaiToken_flattened.sol\":26257:26374  function isBlacklisted(address account) external view returns(bool)  ... */\n      swap2\n      swap1\n      pop\n      jump\t// out\n        /* \"ChaiToken_flattened.sol\":4206:4302  function _msgSender() internal view virtual returns (address) {... */\n    tag_141:\n        /* \"ChaiToken_flattened.sol\":4259:4266  address */\n      0x00\n        /* \"ChaiToken_flattened.sol\":4285:4295  msg.sender */\n      caller\n        /* \"ChaiToken_flattened.sol\":4278:4295  return msg.sender */\n      swap1\n      pop\n        /* \"ChaiToken_flattened.sol\":4206:4302  function _msgSender() internal view virtual returns (address) {... */\n      swap1\n      jump\t// out\n        /* \"ChaiToken_flattened.sol\":19881:20009  function _approve(address owner, address spender, uint256 value) internal {... */\n    tag_143:\n        /* \"ChaiToken_flattened.sol\":19965:20002  _approve(owner, spender, value, true) */\n      tag_212\n        /* \"ChaiToken_flattened.sol\":19974:19979  owner */\n      dup4\n        /* \"ChaiToken_flattened.sol\":19981:19988  spender */\n      dup4\n        /* \"ChaiToken_flattened.sol\":19990:19995  value */\n      dup4\n        /* \"ChaiToken_flattened.sol\":19997:20001  true */\n      0x01\n        /* \"ChaiToken_flattened.sol\":19965:19973  _approve */\n      tag_213\n        /* \"ChaiToken_flattened.sol\":19965:20002  _approve(owner, spender, value, true) */\n      jump\t// in\n    tag_212:\n        /* \"ChaiToken_flattened.sol\":19881:20009  function _approve(address owner, address spender, uint256 value) internal {... */\n      pop\n      pop\n      pop\n      jump\t// out\n        /* \"ChaiToken_flattened.sol\":21555:22032  function _spendAllowance(address owner, address spender, uint256 value) internal virtual {... */\n    tag_149:\n        /* \"ChaiToken_flattened.sol\":21654:21678  uint256 currentAllowance */\n      0x00\n        /* \"ChaiToken_flattened.sol\":21681:21706  allowance(owner, spender) */\n      tag_215\n        /* \"ChaiToken_flattened.sol\":21691:21696  owner */\n      dup5\n        /* \"ChaiToken_flattened.sol\":21698:21705  spender */\n      dup5\n        /* \"ChaiToken_flattened.sol\":21681:21690  allowance */\n      tag_117\n        /* \"ChaiToken_flattened.sol\":21681:21706  allowance(owner, spender) */\n      jump\t// in\n    tag_215:\n        /* \"ChaiToken_flattened.sol\":21654:21706  uint256 currentAllowance = allowance(owner, spender) */\n      swap1\n      pop\n        /* \"ChaiToken_flattened.sol\":21740:21757  type(uint256).max */\n      0xffffffffffffffffffffffffffffffffffffffffffffffffffffffffffffffff\n        /* \"ChaiToken_flattened.sol\":21720:21736  currentAllowance */\n      dup2\n        /* \"ChaiToken_flattened.sol\":21720:21757  currentAllowance != type(uint256).max */\n      eq\n        /* \"ChaiToken_flattened.sol\":21716:22026  if (currentAllowance != type(uint256).max) {... */\n      tag_216\n      jumpi\n        /* \"ChaiToken_flattened.sol\":21796:21801  value */\n      dup2\n        /* \"ChaiToken_flattened.sol\":21777:21793  currentAllowance */\n      dup2\n        /* \"ChaiToken_flattened.sol\":21777:21801  currentAllowance < value */\n      lt\n        /* \"ChaiToken_flattened.sol\":21773:21903  if (currentAllowance < value) {... */\n      iszero\n      tag_217\n      jumpi\n        /* \"ChaiToken_flattened.sol\":21855:21862  spender */\n      dup3\n        /* \"ChaiToken_flattened.sol\":21864:21880  currentAllowance */\n      dup2\n        /* \"ChaiToken_flattened.sol\":21882:21887  value */\n      dup4\n        /* \"ChaiToken_flattened.sol\":21828:21888  ERC20InsufficientAllowance(spender, currentAllowance, value) */\n      mload(0x40)\n      0xfb8f41b200000000000000000000000000000000000000000000000000000000\n      dup2\n      mstore\n      0x04\n      add\n      tag_218\n      swap4\n      swap3\n      swap2\n      swap1\n      tag_219\n      jump\t// in\n    tag_218:\n      mload(0x40)\n      dup1\n      swap2\n      sub\n      swap1\n      revert\n        /* \"ChaiToken_flattened.sol\":21773:21903  if (currentAllowance < value) {... */\n    tag_217:\n        /* \"ChaiToken_flattened.sol\":21944:22001  _approve(owner, spender, currentAllowance - value, false) */\n      tag_220\n        /* \"ChaiToken_flattened.sol\":21953:21958  owner */\n      dup5\n        /* \"ChaiToken_flattened.sol\":21960:21967  spender */\n      dup5\n        /* \"ChaiToken_flattened.sol\":21988:21993  value */\n      dup5\n        /* \"ChaiToken_flattened.sol\":21969:21985  currentAllowance */\n      dup5\n        /* \"ChaiToken_flattened.sol\":21969:21993  currentAllowance - value */\n      sub\n        /* \"ChaiToken_flattened.sol\":21995:22000  false */\n      0x00\n        /* \"ChaiToken_flattened.sol\":21944:21952  _approve */\n      tag_213\n        /* \"ChaiToken_flattened.sol\":21944:22001  _approve(owner, spender, currentAllowance - value, false) */\n      jump\t// in\n    tag_220:\n        /* \"ChaiToken_flattened.sol\":21716:22026  if (currentAllowance != type(uint256).max) {... */\n    tag_216:\n        /* \"ChaiToken_flattened.sol\":21644:22032  {... */\n      pop\n        /* \"ChaiToken_flattened.sol\":21555:22032  function _spendAllowance(address owner, address spender, uint256 value) internal virtual {... */\n      pop\n      pop\n      pop\n      jump\t// out\n        /* \"ChaiToken_flattened.sol\":16548:16848  function _transfer(address from, address to, uint256 value) internal {... */\n    tag_151:\n        /* \"ChaiToken_flattened.sol\":16647:16648  0 */\n      0x00\n        /* \"ChaiToken_flattened.sol\":16631:16649  from == address(0) */\n      0xffffffffffffffffffffffffffffffffffffffff\n      and\n        /* \"ChaiToken_flattened.sol\":16631:16635  from */\n      dup4\n        /* \"ChaiToken_flattened.sol\":16631:16649  from == address(0) */\n      0xffffffffffffffffffffffffffffffffffffffff\n      and\n      sub\n        /* \"ChaiToken_flattened.sol\":16627:16713  if (from == address(0)) {... */\n      tag_222\n      jumpi\n        /* \"ChaiToken_flattened.sol\":16699:16700  0 */\n      0x00\n        /* \"ChaiToken_flattened.sol\":16672:16702  ERC20InvalidSender(address(0)) */\n      mload(0x40)\n      0x96c6fd1e00000000000000000000000000000000000000000000000000000000\n      dup2\n      mstore\n      0x04\n      add\n      tag_223\n      swap2\n      swap1\n      tag_99\n      jump\t// in\n    tag_223:\n      mload(0x40)\n      dup1\n      swap2\n      sub\n      swap1\n      revert\n        /* \"ChaiToken_flattened.sol\":16627:16713  if (from == address(0)) {... */\n    tag_222:\n        /* \"ChaiToken_flattened.sol\":16740:16741  0 */\n      0x00\n        /* \"ChaiToken_flattened.sol\":16726:16742  to == address(0) */\n      0xffffffffffffffffffffffffffffffffffffffff\n      and\n        /* \"ChaiToken_flattened.sol\":16726:16728  to */\n      dup3\n        /* \"ChaiToken_flattened.sol\":16726:16742  to == address(0) */\n      0xffffffffffffffffffffffffffffffffffffffff\n      and\n      sub\n        /* \"ChaiToken_flattened.sol\":16722:16808  if (to == address(0)) {... */\n      tag_224\n      jumpi\n        /* \"ChaiToken_flattened.sol\":16794:16795  0 */\n      0x00\n        /* \"ChaiToken_flattened.sol\":16765:16797  ERC20InvalidReceiver(address(0)) */\n      mload(0x40)\n      0xec442f0500000000000000000000000000000000000000000000000000000000\n      dup2\n      mstore\n      0x04\n      add\n      tag_225\n      swap2\n      swap1\n      tag_99\n      jump\t// in\n    tag_225:\n      mload(0x40)\n      dup1\n      swap2\n      sub\n      swap1\n      revert\n        /* \"ChaiToken_flattened.sol\":16722:16808  if (to == address(0)) {... */\n    tag_224:\n        /* \"ChaiToken_flattened.sol\":16817:16841  _update(from, to, value) */\n      tag_226\n        /* \"ChaiToken_flattened.sol\":16825:16829  from */\n      dup4\n        /* \"ChaiToken_flattened.sol\":16831:16833  to */\n      dup4\n        /* \"ChaiToken_flattened.sol\":16835:16840  value */\n      dup4\n        /* \"ChaiToken_flattened.sol\":16817:16824  _update */\n      tag_227\n        /* \"ChaiToken_flattened.sol\":16817:16841  _update(from, to, value) */\n      jump\t// in\n    tag_226:\n        /* \"ChaiToken_flattened.sol\":16548:16848  function _transfer(address from, address to, uint256 value) internal {... */\n      pop\n      pop\n      pop\n      jump\t// out\n        /* \"ChaiToken_flattened.sol\":23808:23970  function _checkOwner() internal view virtual {... */\n    tag_154:\n        /* \"ChaiToken_flattened.sol\":23878:23890  _msgSender() */\n      tag_229\n        /* \"ChaiToken_flattened.sol\":23878:23888  _msgSender */\n      tag_141\n        /* \"ChaiToken_flattened.sol\":23878:23890  _msgSender() */\n      jump\t// in\n    tag_229:\n        /* \"ChaiToken_flattened.sol\":23867:23890  owner() != _msgSender() */\n      0xffffffffffffffffffffffffffffffffffffffff\n      and\n        /* \"ChaiToken_flattened.sol\":23867:23874  owner() */\n      tag_230\n        /* \"ChaiToken_flattened.sol\":23867:23872  owner */\n      tag_97\n        /* \"ChaiToken_flattened.sol\":23867:23874  owner() */\n      jump\t// in\n    tag_230:\n        /* \"ChaiToken_flattened.sol\":23867:23890  owner() != _msgSender() */\n      0xffffffffffffffffffffffffffffffffffffffff\n      and\n      eq\n        /* \"ChaiToken_flattened.sol\":23863:23964  if (owner() != _msgSender()) {... */\n      tag_231\n      jumpi\n        /* \"ChaiToken_flattened.sol\":23940:23952  _msgSender() */\n      tag_232\n        /* \"ChaiToken_flattened.sol\":23940:23950  _msgSender */\n      tag_141\n        /* \"ChaiToken_flattened.sol\":23940:23952  _msgSender() */\n      jump\t// in\n    tag_232:\n        /* \"ChaiToken_flattened.sol\":23913:23953  OwnableUnauthorizedAccount(_msgSender()) */\n      mload(0x40)\n      0x118cdaa700000000000000000000000000000000000000000000000000000000\n      dup2\n      mstore\n      0x04\n      add\n      tag_233\n      swap2\n      swap1\n      tag_99\n      jump\t// in\n    tag_233:\n      mload(0x40)\n      dup1\n      swap2\n      sub\n      swap1\n      revert\n        /* \"ChaiToken_flattened.sol\":23863:23964  if (owner() != _msgSender()) {... */\n    tag_231:\n        /* \"ChaiToken_flattened.sol\":23808:23970  function _checkOwner() internal view virtual {... */\n      jump\t// out\n        /* \"ChaiToken_flattened.sol\":24305:24406  function renounceOwnership() public virtual onlyOwner {... */\n    tag_176:\n        /* \"ChaiToken_flattened.sol\":23543:23556  _checkOwner() */\n      tag_235\n        /* \"ChaiToken_flattened.sol\":23543:23554  _checkOwner */\n      tag_154\n        /* \"ChaiToken_flattened.sol\":23543:23556  _checkOwner() */\n      jump\t// in\n    tag_235:\n        /* \"ChaiToken_flattened.sol\":24369:24399  _transferOwnership(address(0)) */\n      tag_237\n        /* \"ChaiToken_flattened.sol\":24396:24397  0 */\n      0x00\n        /* \"ChaiToken_flattened.sol\":24369:24387  _transferOwnership */\n      tag_208\n        /* \"ChaiToken_flattened.sol\":24369:24399  _transferOwnership(address(0)) */\n      jump\t// in\n    tag_237:\n        /* \"ChaiToken_flattened.sol\":24305:24406  function renounceOwnership() public virtual onlyOwner {... */\n      jump\t// out\n        /* \"ChaiToken_flattened.sol\":24924:25111  function _transferOwnership(address newOwner) internal virtual {... */\n    tag_208:\n        /* \"ChaiToken_flattened.sol\":24997:25013  address oldOwner */\n      0x00\n        /* \"ChaiToken_flattened.sol\":25016:25022  _owner */\n      0x05\n      0x00\n      swap1\n      sload\n      swap1\n      0x0100\n      exp\n      swap1\n      div\n      0xffffffffffffffffffffffffffffffffffffffff\n      and\n        /* \"ChaiToken_flattened.sol\":24997:25022  address oldOwner = _owner */\n      swap1\n      pop\n        /* \"ChaiToken_flattened.sol\":25041:25049  newOwner */\n      dup2\n        /* \"ChaiToken_flattened.sol\":25032:25038  _owner */\n      0x05\n      0x00\n        /* \"ChaiToken_flattened.sol\":25032:25049  _owner = newOwner */\n      0x0100\n      exp\n      dup2\n      sload\n      dup2\n      0xffffffffffffffffffffffffffffffffffffffff\n      mul\n      not\n      and\n      swap1\n      dup4\n      0xffffffffffffffffffffffffffffffffffffffff\n      and\n      mul\n      or\n      swap1\n      sstore\n      pop\n        /* \"ChaiToken_flattened.sol\":25095:25103  newOwner */\n      dup2\n        /* \"ChaiToken_flattened.sol\":25064:25104  OwnershipTransferred(oldOwner, newOwner) */\n      0xffffffffffffffffffffffffffffffffffffffff\n      and\n        /* \"ChaiToken_flattened.sol\":25085:25093  oldOwner */\n      dup2\n        /* \"ChaiToken_flattened.sol\":25064:25104  OwnershipTransferred(oldOwner, newOwner) */\n      0xffffffffffffffffffffffffffffffffffffffff\n      and\n      0x8be0079c531659141344cd1fd0a4f28419497f9722a3daafe3b4186f6b6457e0\n      mload(0x40)\n      mload(0x40)\n      dup1\n      swap2\n      sub\n      swap1\n      log3\n        /* \"ChaiToken_flattened.sol\":24987:25111  {... */\n      pop\n        /* \"ChaiToken_flattened.sol\":24924:25111  function _transferOwnership(address newOwner) internal virtual {... */\n      pop\n      jump\t// out\n        /* \"ChaiToken_flattened.sol\":20841:21273  function _approve(address owner, address spender, uint256 value, bool emitEvent) internal virtual {... */\n    tag_213:\n        /* \"ChaiToken_flattened.sol\":20970:20971  0 */\n      0x00\n        /* \"ChaiToken_flattened.sol\":20953:20972  owner == address(0) */\n      0xffffffffffffffffffffffffffffffffffffffff\n      and\n        /* \"ChaiToken_flattened.sol\":20953:20958  owner */\n      dup5\n        /* \"ChaiToken_flattened.sol\":20953:20972  owner == address(0) */\n      0xffffffffffffffffffffffffffffffffffffffff\n      and\n      sub\n        /* \"ChaiToken_flattened.sol\":20949:21038  if (owner == address(0)) {... */\n      tag_240\n      jumpi\n        /* \"ChaiToken_flattened.sol\":21024:21025  0 */\n      0x00\n        /* \"ChaiToken_flattened.sol\":20995:21027  ERC20InvalidApprover(address(0)) */\n      mload(0x40)\n      0xe602df0500000000000000000000000000000000000000000000000000000000\n      dup2\n      mstore\n      0x04\n      add\n      tag_241\n      swap2\n      swap1\n      tag_99\n      jump\t// in\n    tag_241:\n      mload(0x40)\n      dup1\n      swap2\n      sub\n      swap1\n      revert\n        /* \"ChaiToken_flattened.sol\":20949:21038  if (owner == address(0)) {... */\n    tag_240:\n        /* \"ChaiToken_flattened.sol\":21070:21071  0 */\n      0x00\n        /* \"ChaiToken_flattened.sol\":21051:21072  spender == address(0) */\n      0xffffffffffffffffffffffffffffffffffffffff\n      and\n        /* \"ChaiToken_flattened.sol\":21051:21058  spender */\n      dup4\n        /* \"ChaiToken_flattened.sol\":21051:21072  spender == address(0) */\n      0xffffffffffffffffffffffffffffffffffffffff\n      and\n      sub\n        /* \"ChaiToken_flattened.sol\":21047:21137  if (spender == address(0)) {... */\n      tag_242\n      jumpi\n        /* \"ChaiToken_flattened.sol\":21123:21124  0 */\n      0x00\n        /* \"ChaiToken_flattened.sol\":21095:21126  ERC20InvalidSpender(address(0)) */\n      mload(0x40)\n      0x94280d6200000000000000000000000000000000000000000000000000000000\n      dup2\n      mstore\n      0x04\n      add\n      tag_243\n      swap2\n      swap1\n      tag_99\n      jump\t// in\n    tag_243:\n      mload(0x40)\n      dup1\n      swap2\n      sub\n      swap1\n      revert\n        /* \"ChaiToken_flattened.sol\":21047:21137  if (spender == address(0)) {... */\n    tag_242:\n        /* \"ChaiToken_flattened.sol\":21176:21181  value */\n      dup2\n        /* \"ChaiToken_flattened.sol\":21146:21157  _allowances */\n      0x01\n        /* \"ChaiToken_flattened.sol\":21146:21164  _allowances[owner] */\n      0x00\n        /* \"ChaiToken_flattened.sol\":21158:21163  owner */\n      dup7\n        /* \"ChaiToken_flattened.sol\":21146:21164  _allowances[owner] */\n      0xffffffffffffffffffffffffffffffffffffffff\n      and\n      0xffffffffffffffffffffffffffffffffffffffff\n      and\n      dup2\n      mstore\n      0x20\n      add\n      swap1\n      dup2\n      mstore\n      0x20\n      add\n      0x00\n      keccak256\n        /* \"ChaiToken_flattened.sol\":21146:21173  _allowances[owner][spender] */\n      0x00\n        /* \"ChaiToken_flattened.sol\":21165:21172  spender */\n      dup6\n        /* \"ChaiToken_flattened.sol\":21146:21173  _allowances[owner][spender] */\n      0xffffffffffffffffffffffffffffffffffffffff\n      and\n      0xffffffffffffffffffffffffffffffffffffffff\n      and\n      dup2\n      mstore\n      0x20\n      add\n      swap1\n      dup2\n      mstore\n      0x20\n      add\n      0x00\n      keccak256\n        /* \"ChaiToken_flattened.sol\":21146:21181  _allowances[owner][spender] = value */\n      dup2\n      swap1\n      sstore\n      pop\n        /* \"ChaiToken_flattened.sol\":21195:21204  emitEvent */\n      dup1\n        /* \"ChaiToken_flattened.sol\":21191:21267  if (emitEvent) {... */\n      iszero\n      tag_244\n      jumpi\n        /* \"ChaiToken_flattened.sol\":21241:21248  spender */\n      dup3\n        /* \"ChaiToken_flattened.sol\":21225:21256  Approval(owner, spender, value) */\n      0xffffffffffffffffffffffffffffffffffffffff\n      and\n        /* \"ChaiToken_flattened.sol\":21234:21239  owner */\n      dup5\n        /* \"ChaiToken_flattened.sol\":21225:21256  Approval(owner, spender, value) */\n      0xffffffffffffffffffffffffffffffffffffffff\n      and\n      0x8c5be1e5ebec7d5bd14f71427d1e84f3dd0314c0f7b2291e5b200ac8c7c3b925\n        /* \"ChaiToken_flattened.sol\":21250:21255  value */\n      dup5\n        /* \"ChaiToken_flattened.sol\":21225:21256  Approval(owner, spender, value) */\n      mload(0x40)\n      tag_245\n      swap2\n      swap1\n      tag_49\n      jump\t// in\n    tag_245:\n      mload(0x40)\n      dup1\n      swap2\n      sub\n      swap1\n      log3\n        /* \"ChaiToken_flattened.sol\":21191:21267  if (emitEvent) {... */\n    tag_244:\n        /* \"ChaiToken_flattened.sol\":20841:21273  function _approve(address owner, address spender, uint256 value, bool emitEvent) internal virtual {... */\n      pop\n      pop\n      pop\n      pop\n      jump\t// out\n        /* \"ChaiToken_flattened.sol\":27665:28278  function _update(address from, address to, uint256 value) internal override ... */\n    tag_227:\n        /* \"ChaiToken_flattened.sol\":27765:27775  _blacklist */\n      0x09\n        /* \"ChaiToken_flattened.sol\":27765:27781  _blacklist[from] */\n      0x00\n        /* \"ChaiToken_flattened.sol\":27776:27780  from */\n      dup5\n        /* \"ChaiToken_flattened.sol\":27765:27781  _blacklist[from] */\n      0xffffffffffffffffffffffffffffffffffffffff\n      and\n      0xffffffffffffffffffffffffffffffffffffffff\n      and\n      dup2\n      mstore\n      0x20\n      add\n      swap1\n      dup2\n      mstore\n      0x20\n      add\n      0x00\n      keccak256\n      0x00\n      swap1\n      sload\n      swap1\n      0x0100\n      exp\n      swap1\n      div\n      0xff\n      and\n        /* \"ChaiToken_flattened.sol\":27764:27781  !_blacklist[from] */\n      iszero\n        /* \"ChaiToken_flattened.sol\":27764:27800  !_blacklist[from] && !_blacklist[to] */\n      dup1\n      iszero\n      tag_247\n      jumpi\n      pop\n        /* \"ChaiToken_flattened.sol\":27786:27796  _blacklist */\n      0x09\n        /* \"ChaiToken_flattened.sol\":27786:27800  _blacklist[to] */\n      0x00\n        /* \"ChaiToken_flattened.sol\":27797:27799  to */\n      dup4\n        /* \"ChaiToken_flattened.sol\":27786:27800  _blacklist[to] */\n      0xffffffffffffffffffffffffffffffffffffffff\n      and\n      0xffffffffffffffffffffffffffffffffffffffff\n      and\n      dup2\n      mstore\n      0x20\n      add\n      swap1\n      dup2\n      mstore\n      0x20\n      add\n      0x00\n      keccak256\n      0x00\n      swap1\n      sload\n      swap1\n      0x0100\n      exp\n      swap1\n      div\n      0xff\n      and\n        /* \"ChaiToken_flattened.sol\":27785:27800  !_blacklist[to] */\n      iszero\n        /* \"ChaiToken_flattened.sol\":27764:27800  !_blacklist[from] && !_blacklist[to] */\n    tag_247:\n        /* \"ChaiToken_flattened.sol\":27756:27827  require(!_blacklist[from] && !_blacklist[to] , \"Blacklisted Addresses\") */\n      tag_248\n      jumpi\n      mload(0x40)\n      0x08c379a000000000000000000000000000000000000000000000000000000000\n      dup2\n      mstore\n      0x04\n      add\n      tag_249\n      swap1\n      tag_250\n      jump\t// in\n    tag_249:\n      mload(0x40)\n      dup1\n      swap2\n      sub\n      swap1\n      revert\n    tag_248:\n        /* \"ChaiToken_flattened.sol\":27840:27860  _whiteListingEnabled */\n      0x0c\n      0x00\n      swap1\n      sload\n      swap1\n      0x0100\n      exp\n      swap1\n      div\n      0xff\n      and\n        /* \"ChaiToken_flattened.sol\":27837:27977  if(_whiteListingEnabled)... */\n      iszero\n      tag_251\n      jumpi\n        /* \"ChaiToken_flattened.sol\":27892:27902  _whitelist */\n      0x0a\n        /* \"ChaiToken_flattened.sol\":27892:27908  _whitelist[from] */\n      0x00\n        /* \"ChaiToken_flattened.sol\":27903:27907  from */\n      dup5\n        /* \"ChaiToken_flattened.sol\":27892:27908  _whitelist[from] */\n      0xffffffffffffffffffffffffffffffffffffffff\n      and\n      0xffffffffffffffffffffffffffffffffffffffff\n      and\n      dup2\n      mstore\n      0x20\n      add\n      swap1\n      dup2\n      mstore\n      0x20\n      add\n      0x00\n      keccak256\n      0x00\n      swap1\n      sload\n      swap1\n      0x0100\n      exp\n      swap1\n      div\n      0xff\n      and\n        /* \"ChaiToken_flattened.sol\":27892:27926  _whitelist[from] && _whitelist[to] */\n      dup1\n      iszero\n      tag_252\n      jumpi\n      pop\n        /* \"ChaiToken_flattened.sol\":27912:27922  _whitelist */\n      0x0a\n        /* \"ChaiToken_flattened.sol\":27912:27926  _whitelist[to] */\n      0x00\n        /* \"ChaiToken_flattened.sol\":27923:27925  to */\n      dup4\n        /* \"ChaiToken_flattened.sol\":27912:27926  _whitelist[to] */\n      0xffffffffffffffffffffffffffffffffffffffff\n      and\n      0xffffffffffffffffffffffffffffffffffffffff\n      and\n      dup2\n      mstore\n      0x20\n      add\n      swap1\n      dup2\n      mstore\n      0x20\n      add\n      0x00\n      keccak256\n      0x00\n      swap1\n      sload\n      swap1\n      0x0100\n      exp\n      swap1\n      div\n      0xff\n      and\n        /* \"ChaiToken_flattened.sol\":27892:27926  _whitelist[from] && _whitelist[to] */\n    tag_252:\n        /* \"ChaiToken_flattened.sol\":27884:27966  require(_whitelist[from] && _whitelist[to] , \"Both addresses must be whitelisted\") */\n      tag_253\n      jumpi\n      mload(0x40)\n      0x08c379a000000000000000000000000000000000000000000000000000000000\n      dup2\n      mstore\n      0x04\n      add\n      tag_254\n      swap1\n      tag_255\n      jump\t// in\n    tag_254:\n      mload(0x40)\n      dup1\n      swap2\n      sub\n      swap1\n      revert\n    tag_253:\n        /* \"ChaiToken_flattened.sol\":27837:27977  if(_whiteListingEnabled)... */\n    tag_251:\n        /* \"ChaiToken_flattened.sol\":28003:28014  maxTxAmount */\n      sload(0x07)\n        /* \"ChaiToken_flattened.sol\":27994:27999  value */\n      dup2\n        /* \"ChaiToken_flattened.sol\":27994:28014  value <= maxTxAmount */\n      gt\n      iszero\n        /* \"ChaiToken_flattened.sol\":27986:28049  require(value <= maxTxAmount , \"Token Transfer Limit Exceeded\") */\n      tag_256\n      jumpi\n      mload(0x40)\n      0x08c379a000000000000000000000000000000000000000000000000000000000\n      dup2\n      mstore\n      0x04\n      add\n      tag_257\n      swap1\n      tag_258\n      jump\t// in\n    tag_257:\n      mload(0x40)\n      dup1\n      swap2\n      sub\n      swap1\n      revert\n    tag_256:\n        /* \"ChaiToken_flattened.sol\":28104:28116  cooldownTime */\n      sload(0x08)\n        /* \"ChaiToken_flattened.sol\":28086:28097  _lastTxTime */\n      0x0b\n        /* \"ChaiToken_flattened.sol\":28086:28103  _lastTxTime[from] */\n      0x00\n        /* \"ChaiToken_flattened.sol\":28098:28102  from */\n      dup6\n        /* \"ChaiToken_flattened.sol\":28086:28103  _lastTxTime[from] */\n      0xffffffffffffffffffffffffffffffffffffffff\n      and\n      0xffffffffffffffffffffffffffffffffffffffff\n      and\n      dup2\n      mstore\n      0x20\n      add\n      swap1\n      dup2\n      mstore\n      0x20\n      add\n      0x00\n      keccak256\n      sload\n        /* \"ChaiToken_flattened.sol\":28086:28116  _lastTxTime[from]+cooldownTime */\n      tag_259\n      swap2\n      swap1\n      tag_260\n      jump\t// in\n    tag_259:\n        /* \"ChaiToken_flattened.sol\":28067:28082  block.timestamp */\n      timestamp\n        /* \"ChaiToken_flattened.sol\":28067:28116  block.timestamp >= _lastTxTime[from]+cooldownTime */\n      lt\n      iszero\n        /* \"ChaiToken_flattened.sol\":28059:28148  require(block.timestamp >= _lastTxTime[from]+cooldownTime , \"Token Transfer in cooldown\") */\n      tag_261\n      jumpi\n      mload(0x40)\n      0x08c379a000000000000000000000000000000000000000000000000000000000\n      dup2\n      mstore\n      0x04\n      add\n      tag_262\n      swap1\n      tag_263\n      jump\t// in\n    tag_262:\n      mload(0x40)\n      dup1\n      swap2\n      sub\n      swap1\n      revert\n    tag_261:\n        /* \"ChaiToken_flattened.sol\":28178:28193  block.timestamp */\n      timestamp\n        /* \"ChaiToken_flattened.sol\":28158:28169  _lastTxTime */\n      0x0b\n        /* \"ChaiToken_flattened.sol\":28158:28175  _lastTxTime[from] */\n      0x00\n        /* \"ChaiToken_flattened.sol\":28170:28174  from */\n      dup6\n        /* \"ChaiToken_flattened.sol\":28158:28175  _lastTxTime[from] */\n      0xffffffffffffffffffffffffffffffffffffffff\n      and\n      0xffffffffffffffffffffffffffffffffffffffff\n      and\n      dup2\n      mstore\n      0x20\n      add\n      swap1\n      dup2\n      mstore\n      0x20\n      add\n      0x00\n      keccak256\n        /* \"ChaiToken_flattened.sol\":28158:28193  _lastTxTime[from] = block.timestamp */\n      dup2\n      swap1\n      sstore\n      pop\n        /* \"ChaiToken_flattened.sol\":28203:28233  super._update(from, to, value) */\n      tag_264\n        /* \"ChaiToken_flattened.sol\":28217:28221  from */\n      dup4\n        /* \"ChaiToken_flattened.sol\":28223:28225  to */\n      dup4\n        /* \"ChaiToken_flattened.sol\":28227:28232  value */\n      dup4\n        /* \"ChaiToken_flattened.sol\":28203:28216  super._update */\n      tag_265\n        /* \"ChaiToken_flattened.sol\":28203:28233  super._update(from, to, value) */\n      jump\t// in\n    tag_264:\n        /* \"ChaiToken_flattened.sol\":27665:28278  function _update(address from, address to, uint256 value) internal override ... */\n      pop\n      pop\n      pop\n      jump\t// out\n        /* \"ChaiToken_flattened.sol\":17163:18270  function _update(address from, address to, uint256 value) internal virtual {... */\n    tag_265:\n        /* \"ChaiToken_flattened.sol\":17268:17269  0 */\n      0x00\n        /* \"ChaiToken_flattened.sol\":17252:17270  from == address(0) */\n      0xffffffffffffffffffffffffffffffffffffffff\n      and\n        /* \"ChaiToken_flattened.sol\":17252:17256  from */\n      dup4\n        /* \"ChaiToken_flattened.sol\":17252:17270  from == address(0) */\n      0xffffffffffffffffffffffffffffffffffffffff\n      and\n      sub\n        /* \"ChaiToken_flattened.sol\":17248:17788  if (from == address(0)) {... */\n      tag_267\n      jumpi\n        /* \"ChaiToken_flattened.sol\":17404:17409  value */\n      dup1\n        /* \"ChaiToken_flattened.sol\":17388:17400  _totalSupply */\n      0x02\n      0x00\n        /* \"ChaiToken_flattened.sol\":17388:17409  _totalSupply += value */\n      dup3\n      dup3\n      sload\n      tag_268\n      swap2\n      swap1\n      tag_260\n      jump\t// in\n    tag_268:\n      swap3\n      pop\n      pop\n      dup2\n      swap1\n      sstore\n      pop\n        /* \"ChaiToken_flattened.sol\":17248:17788  if (from == address(0)) {... */\n      jump(tag_269)\n    tag_267:\n        /* \"ChaiToken_flattened.sol\":17440:17459  uint256 fromBalance */\n      0x00\n        /* \"ChaiToken_flattened.sol\":17462:17471  _balances */\n      dup1\n        /* \"ChaiToken_flattened.sol\":17462:17477  _balances[from] */\n      0x00\n        /* \"ChaiToken_flattened.sol\":17472:17476  from */\n      dup6\n        /* \"ChaiToken_flattened.sol\":17462:17477  _balances[from] */\n      0xffffffffffffffffffffffffffffffffffffffff\n      and\n      0xffffffffffffffffffffffffffffffffffffffff\n      and\n      dup2\n      mstore\n      0x20\n      add\n      swap1\n      dup2\n      mstore\n      0x20\n      add\n      0x00\n      keccak256\n      sload\n        /* \"ChaiToken_flattened.sol\":17440:17477  uint256 fromBalance = _balances[from] */\n      swap1\n      pop\n        /* \"ChaiToken_flattened.sol\":17509:17514  value */\n      dup2\n        /* \"ChaiToken_flattened.sol\":17495:17506  fromBalance */\n      dup2\n        /* \"ChaiToken_flattened.sol\":17495:17514  fromBalance < value */\n      lt\n        /* \"ChaiToken_flattened.sol\":17491:17606  if (fromBalance < value) {... */\n      iszero\n      tag_270\n      jumpi\n        /* \"ChaiToken_flattened.sol\":17566:17570  from */\n      dup4\n        /* \"ChaiToken_flattened.sol\":17572:17583  fromBalance */\n      dup2\n        /* \"ChaiToken_flattened.sol\":17585:17590  value */\n      dup4\n        /* \"ChaiToken_flattened.sol\":17541:17591  ERC20InsufficientBalance(from, fromBalance, value) */\n      mload(0x40)\n      0xe450d38c00000000000000000000000000000000000000000000000000000000\n      dup2\n      mstore\n      0x04\n      add\n      tag_271\n      swap4\n      swap3\n      swap2\n      swap1\n      tag_219\n      jump\t// in\n    tag_271:\n      mload(0x40)\n      dup1\n      swap2\n      sub\n      swap1\n      revert\n        /* \"ChaiToken_flattened.sol\":17491:17606  if (fromBalance < value) {... */\n    tag_270:\n        /* \"ChaiToken_flattened.sol\":17758:17763  value */\n      dup2\n        /* \"ChaiToken_flattened.sol\":17744:17755  fromBalance */\n      dup2\n        /* \"ChaiToken_flattened.sol\":17744:17763  fromBalance - value */\n      sub\n        /* \"ChaiToken_flattened.sol\":17726:17735  _balances */\n      0x00\n        /* \"ChaiToken_flattened.sol\":17726:17741  _balances[from] */\n      dup1\n        /* \"ChaiToken_flattened.sol\":17736:17740  from */\n      dup7\n        /* \"ChaiToken_flattened.sol\":17726:17741  _balances[from] */\n      0xffffffffffffffffffffffffffffffffffffffff\n      and\n      0xffffffffffffffffffffffffffffffffffffffff\n      and\n      dup2\n      mstore\n      0x20\n      add\n      swap1\n      dup2\n      mstore\n      0x20\n      add\n      0x00\n      keccak256\n        /* \"ChaiToken_flattened.sol\":17726:17763  _balances[from] = fromBalance - value */\n      dup2\n      swap1\n      sstore\n      pop\n        /* \"ChaiToken_flattened.sol\":17426:17788  {... */\n      pop\n        /* \"ChaiToken_flattened.sol\":17248:17788  if (from == address(0)) {... */\n    tag_269:\n        /* \"ChaiToken_flattened.sol\":17816:17817  0 */\n      0x00\n        /* \"ChaiToken_flattened.sol\":17802:17818  to == address(0) */\n      0xffffffffffffffffffffffffffffffffffffffff\n      and\n        /* \"ChaiToken_flattened.sol\":17802:17804  to */\n      dup3\n        /* \"ChaiToken_flattened.sol\":17802:17818  to == address(0) */\n      0xffffffffffffffffffffffffffffffffffffffff\n      and\n      sub\n        /* \"ChaiToken_flattened.sol\":17798:18223  if (to == address(0)) {... */\n      tag_272\n      jumpi\n        /* \"ChaiToken_flattened.sol\":17981:17986  value */\n      dup1\n        /* \"ChaiToken_flattened.sol\":17965:17977  _totalSupply */\n      0x02\n      0x00\n        /* \"ChaiToken_flattened.sol\":17965:17986  _totalSupply -= value */\n      dup3\n      dup3\n      sload\n      sub\n      swap3\n      pop\n      pop\n      dup2\n      swap1\n      sstore\n      pop\n        /* \"ChaiToken_flattened.sol\":17798:18223  if (to == address(0)) {... */\n      jump(tag_273)\n    tag_272:\n        /* \"ChaiToken_flattened.sol\":18193:18198  value */\n      dup1\n        /* \"ChaiToken_flattened.sol\":18176:18185  _balances */\n      0x00\n        /* \"ChaiToken_flattened.sol\":18176:18189  _balances[to] */\n      dup1\n        /* \"ChaiToken_flattened.sol\":18186:18188  to */\n      dup5\n        /* \"ChaiToken_flattened.sol\":18176:18189  _balances[to] */\n      0xffffffffffffffffffffffffffffffffffffffff\n      and\n      0xffffffffffffffffffffffffffffffffffffffff\n      and\n      dup2\n      mstore\n      0x20\n      add\n      swap1\n      dup2\n      mstore\n      0x20\n      add\n      0x00\n      keccak256\n      0x00\n        /* \"ChaiToken_flattened.sol\":18176:18198  _balances[to] += value */\n      dup3\n      dup3\n      sload\n      add\n      swap3\n      pop\n      pop\n      dup2\n      swap1\n      sstore\n      pop\n        /* \"ChaiToken_flattened.sol\":17798:18223  if (to == address(0)) {... */\n    tag_273:\n        /* \"ChaiToken_flattened.sol\":18253:18255  to */\n      dup2\n        /* \"ChaiToken_flattened.sol\":18238:18263  Transfer(from, to, value) */\n      0xffffffffffffffffffffffffffffffffffffffff\n      and\n        /* \"ChaiToken_flattened.sol\":18247:18251  from */\n      dup4\n        /* \"ChaiToken_flattened.sol\":18238:18263  Transfer(from, to, value) */\n      0xffffffffffffffffffffffffffffffffffffffff\n      and\n      0xddf252ad1be2c89b69c2b068fc378daa952ba7f163c4a11628f55a4df523b3ef\n        /* \"ChaiToken_flattened.sol\":18257:18262  value */\n      dup4\n        /* \"ChaiToken_flattened.sol\":18238:18263  Transfer(from, to, value) */\n      mload(0x40)\n      tag_274\n      swap2\n      swap1\n      tag_49\n      jump\t// in\n    tag_274:\n      mload(0x40)\n      dup1\n      swap2\n      sub\n      swap1\n      log3\n        /* \"ChaiToken_flattened.sol\":17163:18270  function _update(address from, address to, uint256 value) internal virtual {... */\n      pop\n      pop\n      pop\n      jump\t// out\n        /* \"#utility.yul\":7:106   */\n    tag_275:\n        /* \"#utility.yul\":59:65   */\n      0x00\n        /* \"#utility.yul\":93:98   */\n      dup2\n        /* \"#utility.yul\":87:99   */\n      mload\n        /* \"#utility.yul\":77:99   */\n      swap1\n      pop\n        /* \"#utility.yul\":7:106   */\n      swap2\n      swap1\n      pop\n      jump\t// out\n        /* \"#utility.yul\":112:281   */\n    tag_276:\n        /* \"#utility.yul\":196:207   */\n      0x00\n        /* \"#utility.yul\":230:236   */\n      dup3\n        /* \"#utility.yul\":225:228   */\n      dup3\n        /* \"#utility.yul\":218:237   */\n      mstore\n        /* \"#utility.yul\":270:274   */\n      0x20\n        /* \"#utility.yul\":265:268   */\n      dup3\n        /* \"#utility.yul\":261:275   */\n      add\n        /* \"#utility.yul\":246:275   */\n      swap1\n      pop\n        /* \"#utility.yul\":112:281   */\n      swap3\n      swap2\n      pop\n      pop\n      jump\t// out\n        /* \"#utility.yul\":287:426   */\n    tag_277:\n        /* \"#utility.yul\":376:382   */\n      dup3\n        /* \"#utility.yul\":371:374   */\n      dup2\n        /* \"#utility.yul\":366:369   */\n      dup4\n        /* \"#utility.yul\":360:383   */\n      mcopy\n        /* \"#utility.yul\":417:418   */\n      0x00\n        /* \"#utility.yul\":408:414   */\n      dup4\n        /* \"#utility.yul\":403:406   */\n      dup4\n        /* \"#utility.yul\":399:415   */\n      add\n        /* \"#utility.yul\":392:419   */\n      mstore\n        /* \"#utility.yul\":287:426   */\n      pop\n      pop\n      pop\n      jump\t// out\n        /* \"#utility.yul\":432:534   */\n    tag_278:\n        /* \"#utility.yul\":473:479   */\n      0x00\n        /* \"#utility.yul\":524:526   */\n      0x1f\n        /* \"#utility.yul\":520:527   */\n      not\n        /* \"#utility.yul\":515:517   */\n      0x1f\n        /* \"#utility.yul\":508:513   */\n      dup4\n        /* \"#utility.yul\":504:518   */\n      add\n        /* \"#utility.yul\":500:528   */\n      and\n        /* \"#utility.yul\":490:528   */\n      swap1\n      pop\n        /* \"#utility.yul\":432:534   */\n      swap2\n      swap1\n      pop\n      jump\t// out\n        /* \"#utility.yul\":540:917   */\n    tag_279:\n        /* \"#utility.yul\":628:631   */\n      0x00\n        /* \"#utility.yul\":656:695   */\n      tag_314\n        /* \"#utility.yul\":689:694   */\n      dup3\n        /* \"#utility.yul\":656:695   */\n      tag_275\n      jump\t// in\n    tag_314:\n        /* \"#utility.yul\":711:782   */\n      tag_315\n        /* \"#utility.yul\":775:781   */\n      dup2\n        /* \"#utility.yul\":770:773   */\n      dup6\n        /* \"#utility.yul\":711:782   */\n      tag_276\n      jump\t// in\n    tag_315:\n        /* \"#utility.yul\":704:782   */\n      swap4\n      pop\n        /* \"#utility.yul\":791:856   */\n      tag_316\n        /* \"#utility.yul\":849:855   */\n      dup2\n        /* \"#utility.yul\":844:847   */\n      dup6\n        /* \"#utility.yul\":837:841   */\n      0x20\n        /* \"#utility.yul\":830:835   */\n      dup7\n        /* \"#utility.yul\":826:842   */\n      add\n        /* \"#utility.yul\":791:856   */\n      tag_277\n      jump\t// in\n    tag_316:\n        /* \"#utility.yul\":881:910   */\n      tag_317\n        /* \"#utility.yul\":903:909   */\n      dup2\n        /* \"#utility.yul\":881:910   */\n      tag_278\n      jump\t// in\n    tag_317:\n        /* \"#utility.yul\":876:879   */\n      dup5\n        /* \"#utility.yul\":872:911   */\n      add\n        /* \"#utility.yul\":865:911   */\n      swap2\n      pop\n        /* \"#utility.yul\":632:917   */\n      pop\n        /* \"#utility.yul\":540:917   */\n      swap3\n      swap2\n      pop\n      pop\n      jump\t// out\n        /* \"#utility.yul\":923:1236   */\n    tag_39:\n        /* \"#utility.yul\":1036:1040   */\n      0x00\n        /* \"#utility.yul\":1074:1076   */\n      0x20\n        /* \"#utility.yul\":1063:1072   */\n      dup3\n        /* \"#utility.yul\":1059:1077   */\n      add\n        /* \"#utility.yul\":1051:1077   */\n      swap1\n      pop\n        /* \"#utility.yul\":1123:1132   */\n      dup2\n        /* \"#utility.yul\":1117:1121   */\n      dup2\n        /* \"#utility.yul\":1113:1133   */\n      sub\n        /* \"#utility.yul\":1109:1110   */\n      0x00\n        /* \"#utility.yul\":1098:1107   */\n      dup4\n        /* \"#utility.yul\":1094:1111   */\n      add\n        /* \"#utility.yul\":1087:1134   */\n      mstore\n        /* \"#utility.yul\":1151:1229   */\n      tag_319\n        /* \"#utility.yul\":1224:1228   */\n      dup2\n        /* \"#utility.yul\":1215:1221   */\n      dup5\n        /* \"#utility.yul\":1151:1229   */\n      tag_279\n      jump\t// in\n    tag_319:\n        /* \"#utility.yul\":1143:1229   */\n      swap1\n      pop\n        /* \"#utility.yul\":923:1236   */\n      swap3\n      swap2\n      pop\n      pop\n      jump\t// out\n        /* \"#utility.yul\":1323:1440   */\n    tag_281:\n        /* \"#utility.yul\":1432:1433   */\n      0x00\n        /* \"#utility.yul\":1429:1430   */\n      dup1\n        /* \"#utility.yul\":1422:1434   */\n      revert\n        /* \"#utility.yul\":1569:1695   */\n    tag_283:\n        /* \"#utility.yul\":1606:1613   */\n      0x00\n        /* \"#utility.yul\":1646:1688   */\n      0xffffffffffffffffffffffffffffffffffffffff\n        /* \"#utility.yul\":1639:1644   */\n      dup3\n        /* \"#utility.yul\":1635:1689   */\n      and\n        /* \"#utility.yul\":1624:1689   */\n      swap1\n      pop\n        /* \"#utility.yul\":1569:1695   */\n      swap2\n      swap1\n      pop\n      jump\t// out\n        /* \"#utility.yul\":1701:1797   */\n    tag_284:\n        /* \"#utility.yul\":1738:1745   */\n      0x00\n        /* \"#utility.yul\":1767:1791   */\n      tag_325\n        /* \"#utility.yul\":1785:1790   */\n      dup3\n        /* \"#utility.yul\":1767:1791   */\n      tag_283\n      jump\t// in\n    tag_325:\n        /* \"#utility.yul\":1756:1791   */\n      swap1\n      pop\n        /* \"#utility.yul\":1701:1797   */\n      swap2\n      swap1\n      pop\n      jump\t// out\n        /* \"#utility.yul\":1803:1925   */\n    tag_285:\n        /* \"#utility.yul\":1876:1900   */\n      tag_327\n        /* \"#utility.yul\":1894:1899   */\n      dup2\n        /* \"#utility.yul\":1876:1900   */\n      tag_284\n      jump\t// in\n    tag_327:\n        /* \"#utility.yul\":1869:1874   */\n      dup2\n        /* \"#utility.yul\":1866:1901   */\n      eq\n        /* \"#utility.yul\":1856:1919   */\n      tag_328\n      jumpi\n        /* \"#utility.yul\":1915:1916   */\n      0x00\n        /* \"#utility.yul\":1912:1913   */\n      dup1\n        /* \"#utility.yul\":1905:1917   */\n      revert\n        /* \"#utility.yul\":1856:1919   */\n    tag_328:\n        /* \"#utility.yul\":1803:1925   */\n      pop\n      jump\t// out\n        /* \"#utility.yul\":1931:2070   */\n    tag_286:\n        /* \"#utility.yul\":1977:1982   */\n      0x00\n        /* \"#utility.yul\":2015:2021   */\n      dup2\n        /* \"#utility.yul\":2002:2022   */\n      calldataload\n        /* \"#utility.yul\":1993:2022   */\n      swap1\n      pop\n        /* \"#utility.yul\":2031:2064   */\n      tag_330\n        /* \"#utility.yul\":2058:2063   */\n      dup2\n        /* \"#utility.yul\":2031:2064   */\n      tag_285\n      jump\t// in\n    tag_330:\n        /* \"#utility.yul\":1931:2070   */\n      swap3\n      swap2\n      pop\n      pop\n      jump\t// out\n        /* \"#utility.yul\":2076:2153   */\n    tag_287:\n        /* \"#utility.yul\":2113:2120   */\n      0x00\n        /* \"#utility.yul\":2142:2147   */\n      dup2\n        /* \"#utility.yul\":2131:2147   */\n      swap1\n      pop\n        /* \"#utility.yul\":2076:2153   */\n      swap2\n      swap1\n      pop\n      jump\t// out\n        /* \"#utility.yul\":2159:2281   */\n    tag_288:\n        /* \"#utility.yul\":2232:2256   */\n      tag_333\n        /* \"#utility.yul\":2250:2255   */\n      dup2\n        /* \"#utility.yul\":2232:2256   */\n      tag_287\n      jump\t// in\n    tag_333:\n        /* \"#utility.yul\":2225:2230   */\n      dup2\n        /* \"#utility.yul\":2222:2257   */\n      eq\n        /* \"#utility.yul\":2212:2275   */\n      tag_334\n      jumpi\n        /* \"#utility.yul\":2271:2272   */\n      0x00\n        /* \"#utility.yul\":2268:2269   */\n      dup1\n        /* \"#utility.yul\":2261:2273   */\n      revert\n        /* \"#utility.yul\":2212:2275   */\n    tag_334:\n        /* \"#utility.yul\":2159:2281   */\n      pop\n      jump\t// out\n        /* \"#utility.yul\":2287:2426   */\n    tag_289:\n        /* \"#utility.yul\":2333:2338   */\n      0x00\n        /* \"#utility.yul\":2371:2377   */\n      dup2\n        /* \"#utility.yul\":2358:2378   */\n      calldataload\n        /* \"#utility.yul\":2349:2378   */\n      swap1\n      pop\n        /* \"#utility.yul\":2387:2420   */\n      tag_336\n        /* \"#utility.yul\":2414:2419   */\n      dup2\n        /* \"#utility.yul\":2387:2420   */\n      tag_288\n      jump\t// in\n    tag_336:\n        /* \"#utility.yul\":2287:2426   */\n      swap3\n      swap2\n      pop\n      pop\n      jump\t// out\n        /* \"#utility.yul\":2432:2906   */\n    tag_42:\n        /* \"#utility.yul\":2500:2506   */\n      0x00\n        /* \"#utility.yul\":2508:2514   */\n      dup1\n        /* \"#utility.yul\":2557:2559   */\n      0x40\n        /* \"#utility.yul\":2545:2554   */\n      dup4\n        /* \"#utility.yul\":2536:2543   */\n      dup6\n        /* \"#utility.yul\":2532:2555   */\n      sub\n        /* \"#utility.yul\":2528:2560   */\n      slt\n        /* \"#utility.yul\":2525:2644   */\n      iszero\n      tag_338\n      jumpi\n        /* \"#utility.yul\":2563:2642   */\n      tag_339\n      tag_281\n      jump\t// in\n    tag_339:\n        /* \"#utility.yul\":2525:2644   */\n    tag_338:\n        /* \"#utility.yul\":2683:2684   */\n      0x00\n        /* \"#utility.yul\":2708:2761   */\n      tag_340\n        /* \"#utility.yul\":2753:2760   */\n      dup6\n        /* \"#utility.yul\":2744:2750   */\n      dup3\n        /* \"#utility.yul\":2733:2742   */\n      dup7\n        /* \"#utility.yul\":2729:2751   */\n      add\n        /* \"#utility.yul\":2708:2761   */\n      tag_286\n      jump\t// in\n    tag_340:\n        /* \"#utility.yul\":2698:2761   */\n      swap3\n      pop\n        /* \"#utility.yul\":2654:2771   */\n      pop\n        /* \"#utility.yul\":2810:2812   */\n      0x20\n        /* \"#utility.yul\":2836:2889   */\n      tag_341\n        /* \"#utility.yul\":2881:2888   */\n      dup6\n        /* \"#utility.yul\":2872:2878   */\n      dup3\n        /* \"#utility.yul\":2861:2870   */\n      dup7\n        /* \"#utility.yul\":2857:2879   */\n      add\n        /* \"#utility.yul\":2836:2889   */\n      tag_289\n      jump\t// in\n    tag_341:\n        /* \"#utility.yul\":2826:2889   */\n      swap2\n      pop\n        /* \"#utility.yul\":2781:2899   */\n      pop\n        /* \"#utility.yul\":2432:2906   */\n      swap3\n      pop\n      swap3\n      swap1\n      pop\n      jump\t// out\n        /* \"#utility.yul\":2912:3002   */\n    tag_290:\n        /* \"#utility.yul\":2946:2953   */\n      0x00\n        /* \"#utility.yul\":2989:2994   */\n      dup2\n        /* \"#utility.yul\":2982:2995   */\n      iszero\n        /* \"#utility.yul\":2975:2996   */\n      iszero\n        /* \"#utility.yul\":2964:2996   */\n      swap1\n      pop\n        /* \"#utility.yul\":2912:3002   */\n      swap2\n      swap1\n      pop\n      jump\t// out\n        /* \"#utility.yul\":3008:3117   */\n    tag_291:\n        /* \"#utility.yul\":3089:3110   */\n      tag_344\n        /* \"#utility.yul\":3104:3109   */\n      dup2\n        /* \"#utility.yul\":3089:3110   */\n      tag_290\n      jump\t// in\n    tag_344:\n        /* \"#utility.yul\":3084:3087   */\n      dup3\n        /* \"#utility.yul\":3077:3111   */\n      mstore\n        /* \"#utility.yul\":3008:3117   */\n      pop\n      pop\n      jump\t// out\n        /* \"#utility.yul\":3123:3333   */\n    tag_45:\n        /* \"#utility.yul\":3210:3214   */\n      0x00\n        /* \"#utility.yul\":3248:3250   */\n      0x20\n        /* \"#utility.yul\":3237:3246   */\n      dup3\n        /* \"#utility.yul\":3233:3251   */\n      add\n        /* \"#utility.yul\":3225:3251   */\n      swap1\n      pop\n        /* \"#utility.yul\":3261:3326   */\n      tag_346\n        /* \"#utility.yul\":3323:3324   */\n      0x00\n        /* \"#utility.yul\":3312:3321   */\n      dup4\n        /* \"#utility.yul\":3308:3325   */\n      add\n        /* \"#utility.yul\":3299:3305   */\n      dup5\n        /* \"#utility.yul\":3261:3326   */\n      tag_291\n      jump\t// in\n    tag_346:\n        /* \"#utility.yul\":3123:3333   */\n      swap3\n      swap2\n      pop\n      pop\n      jump\t// out\n        /* \"#utility.yul\":3339:3457   */\n    tag_292:\n        /* \"#utility.yul\":3426:3450   */\n      tag_348\n        /* \"#utility.yul\":3444:3449   */\n      dup2\n        /* \"#utility.yul\":3426:3450   */\n      tag_287\n      jump\t// in\n    tag_348:\n        /* \"#utility.yul\":3421:3424   */\n      dup3\n        /* \"#utility.yul\":3414:3451   */\n      mstore\n        /* \"#utility.yul\":3339:3457   */\n      pop\n      pop\n      jump\t// out\n        /* \"#utility.yul\":3463:3685   */\n    tag_49:\n        /* \"#utility.yul\":3556:3560   */\n      0x00\n        /* \"#utility.yul\":3594:3596   */\n      0x20\n        /* \"#utility.yul\":3583:3592   */\n      dup3\n        /* \"#utility.yul\":3579:3597   */\n      add\n        /* \"#utility.yul\":3571:3597   */\n      swap1\n      pop\n        /* \"#utility.yul\":3607:3678   */\n      tag_350\n        /* \"#utility.yul\":3675:3676   */\n      0x00\n        /* \"#utility.yul\":3664:3673   */\n      dup4\n        /* \"#utility.yul\":3660:3677   */\n      add\n        /* \"#utility.yul\":3651:3657   */\n      dup5\n        /* \"#utility.yul\":3607:3678   */\n      tag_292\n      jump\t// in\n    tag_350:\n        /* \"#utility.yul\":3463:3685   */\n      swap3\n      swap2\n      pop\n      pop\n      jump\t// out\n        /* \"#utility.yul\":3691:4310   */\n    tag_55:\n        /* \"#utility.yul\":3768:3774   */\n      0x00\n        /* \"#utility.yul\":3776:3782   */\n      dup1\n        /* \"#utility.yul\":3784:3790   */\n      0x00\n        /* \"#utility.yul\":3833:3835   */\n      0x60\n        /* \"#utility.yul\":3821:3830   */\n      dup5\n        /* \"#utility.yul\":3812:3819   */\n      dup7\n        /* \"#utility.yul\":3808:3831   */\n      sub\n        /* \"#utility.yul\":3804:3836   */\n      slt\n        /* \"#utility.yul\":3801:3920   */\n      iszero\n      tag_352\n      jumpi\n        /* \"#utility.yul\":3839:3918   */\n      tag_353\n      tag_281\n      jump\t// in\n    tag_353:\n        /* \"#utility.yul\":3801:3920   */\n    tag_352:\n        /* \"#utility.yul\":3959:3960   */\n      0x00\n        /* \"#utility.yul\":3984:4037   */\n      tag_354\n        /* \"#utility.yul\":4029:4036   */\n      dup7\n        /* \"#utility.yul\":4020:4026   */\n      dup3\n        /* \"#utility.yul\":4009:4018   */\n      dup8\n        /* \"#utility.yul\":4005:4027   */\n      add\n        /* \"#utility.yul\":3984:4037   */\n      tag_286\n      jump\t// in\n    tag_354:\n        /* \"#utility.yul\":3974:4037   */\n      swap4\n      pop\n        /* \"#utility.yul\":3930:4047   */\n      pop\n        /* \"#utility.yul\":4086:4088   */\n      0x20\n        /* \"#utility.yul\":4112:4165   */\n      tag_355\n        /* \"#utility.yul\":4157:4164   */\n      dup7\n        /* \"#utility.yul\":4148:4154   */\n      dup3\n        /* \"#utility.yul\":4137:4146   */\n      dup8\n        /* \"#utility.yul\":4133:4155   */\n      add\n        /* \"#utility.yul\":4112:4165   */\n      tag_286\n      jump\t// in\n    tag_355:\n        /* \"#utility.yul\":4102:4165   */\n      swap3\n      pop\n        /* \"#utility.yul\":4057:4175   */\n      pop\n        /* \"#utility.yul\":4214:4216   */\n      0x40\n        /* \"#utility.yul\":4240:4293   */\n      tag_356\n        /* \"#utility.yul\":4285:4292   */\n      dup7\n        /* \"#utility.yul\":4276:4282   */\n      dup3\n        /* \"#utility.yul\":4265:4274   */\n      dup8\n        /* \"#utility.yul\":4261:4283   */\n      add\n        /* \"#utility.yul\":4240:4293   */\n      tag_289\n      jump\t// in\n    tag_356:\n        /* \"#utility.yul\":4230:4293   */\n      swap2\n      pop\n        /* \"#utility.yul\":4185:4303   */\n      pop\n        /* \"#utility.yul\":3691:4310   */\n      swap3\n      pop\n      swap3\n      pop\n      swap3\n      jump\t// out\n        /* \"#utility.yul\":4316:4402   */\n    tag_293:\n        /* \"#utility.yul\":4351:4358   */\n      0x00\n        /* \"#utility.yul\":4391:4395   */\n      0xff\n        /* \"#utility.yul\":4384:4389   */\n      dup3\n        /* \"#utility.yul\":4380:4396   */\n      and\n        /* \"#utility.yul\":4369:4396   */\n      swap1\n      pop\n        /* \"#utility.yul\":4316:4402   */\n      swap2\n      swap1\n      pop\n      jump\t// out\n        /* \"#utility.yul\":4408:4520   */\n    tag_294:\n        /* \"#utility.yul\":4491:4513   */\n      tag_359\n        /* \"#utility.yul\":4507:4512   */\n      dup2\n        /* \"#utility.yul\":4491:4513   */\n      tag_293\n      jump\t// in\n    tag_359:\n        /* \"#utility.yul\":4486:4489   */\n      dup3\n        /* \"#utility.yul\":4479:4514   */\n      mstore\n        /* \"#utility.yul\":4408:4520   */\n      pop\n      pop\n      jump\t// out\n        /* \"#utility.yul\":4526:4740   */\n    tag_63:\n        /* \"#utility.yul\":4615:4619   */\n      0x00\n        /* \"#utility.yul\":4653:4655   */\n      0x20\n        /* \"#utility.yul\":4642:4651   */\n      dup3\n        /* \"#utility.yul\":4638:4656   */\n      add\n        /* \"#utility.yul\":4630:4656   */\n      swap1\n      pop\n        /* \"#utility.yul\":4666:4733   */\n      tag_361\n        /* \"#utility.yul\":4730:4731   */\n      0x00\n        /* \"#utility.yul\":4719:4728   */\n      dup4\n        /* \"#utility.yul\":4715:4732   */\n      add\n        /* \"#utility.yul\":4706:4712   */\n      dup5\n        /* \"#utility.yul\":4666:4733   */\n      tag_294\n      jump\t// in\n    tag_361:\n        /* \"#utility.yul\":4526:4740   */\n      swap3\n      swap2\n      pop\n      pop\n      jump\t// out\n        /* \"#utility.yul\":4746:5075   */\n    tag_66:\n        /* \"#utility.yul\":4805:4811   */\n      0x00\n        /* \"#utility.yul\":4854:4856   */\n      0x20\n        /* \"#utility.yul\":4842:4851   */\n      dup3\n        /* \"#utility.yul\":4833:4840   */\n      dup5\n        /* \"#utility.yul\":4829:4852   */\n      sub\n        /* \"#utility.yul\":4825:4857   */\n      slt\n        /* \"#utility.yul\":4822:4941   */\n      iszero\n      tag_363\n      jumpi\n        /* \"#utility.yul\":4860:4939   */\n      tag_364\n      tag_281\n      jump\t// in\n    tag_364:\n        /* \"#utility.yul\":4822:4941   */\n    tag_363:\n        /* \"#utility.yul\":4980:4981   */\n      0x00\n        /* \"#utility.yul\":5005:5058   */\n      tag_365\n        /* \"#utility.yul\":5050:5057   */\n      dup5\n        /* \"#utility.yul\":5041:5047   */\n      dup3\n        /* \"#utility.yul\":5030:5039   */\n      dup6\n        /* \"#utility.yul\":5026:5048   */\n      add\n        /* \"#utility.yul\":5005:5058   */\n      tag_286\n      jump\t// in\n    tag_365:\n        /* \"#utility.yul\":4995:5058   */\n      swap2\n      pop\n        /* \"#utility.yul\":4951:5068   */\n      pop\n        /* \"#utility.yul\":4746:5075   */\n      swap3\n      swap2\n      pop\n      pop\n      jump\t// out\n        /* \"#utility.yul\":5081:5410   */\n    tag_82:\n        /* \"#utility.yul\":5140:5146   */\n      0x00\n        /* \"#utility.yul\":5189:5191   */\n      0x20\n        /* \"#utility.yul\":5177:5186   */\n      dup3\n        /* \"#utility.yul\":5168:5175   */\n      dup5\n        /* \"#utility.yul\":5164:5187   */\n      sub\n        /* \"#utility.yul\":5160:5192   */\n      slt\n        /* \"#utility.yul\":5157:5276   */\n      iszero\n      tag_367\n      jumpi\n        /* \"#utility.yul\":5195:5274   */\n      tag_368\n      tag_281\n      jump\t// in\n    tag_368:\n        /* \"#utility.yul\":5157:5276   */\n    tag_367:\n        /* \"#utility.yul\":5315:5316   */\n      0x00\n        /* \"#utility.yul\":5340:5393   */\n      tag_369\n        /* \"#utility.yul\":5385:5392   */\n      dup5\n        /* \"#utility.yul\":5376:5382   */\n      dup3\n        /* \"#utility.yul\":5365:5374   */\n      dup6\n        /* \"#utility.yul\":5361:5383   */\n      add\n        /* \"#utility.yul\":5340:5393   */\n      tag_289\n      jump\t// in\n    tag_369:\n        /* \"#utility.yul\":5330:5393   */\n      swap2\n      pop\n        /* \"#utility.yul\":5286:5403   */\n      pop\n        /* \"#utility.yul\":5081:5410   */\n      swap3\n      swap2\n      pop\n      pop\n      jump\t// out\n        /* \"#utility.yul\":5416:5534   */\n    tag_295:\n        /* \"#utility.yul\":5503:5527   */\n      tag_371\n        /* \"#utility.yul\":5521:5526   */\n      dup2\n        /* \"#utility.yul\":5503:5527   */\n      tag_284\n      jump\t// in\n    tag_371:\n        /* \"#utility.yul\":5498:5501   */\n      dup3\n        /* \"#utility.yul\":5491:5528   */\n      mstore\n        /* \"#utility.yul\":5416:5534   */\n      pop\n      pop\n      jump\t// out\n        /* \"#utility.yul\":5540:5762   */\n    tag_99:\n        /* \"#utility.yul\":5633:5637   */\n      0x00\n        /* \"#utility.yul\":5671:5673   */\n      0x20\n        /* \"#utility.yul\":5660:5669   */\n      dup3\n        /* \"#utility.yul\":5656:5674   */\n      add\n        /* \"#utility.yul\":5648:5674   */\n      swap1\n      pop\n        /* \"#utility.yul\":5684:5755   */\n      tag_373\n        /* \"#utility.yul\":5752:5753   */\n      0x00\n        /* \"#utility.yul\":5741:5750   */\n      dup4\n        /* \"#utility.yul\":5737:5754   */\n      add\n        /* \"#utility.yul\":5728:5734   */\n      dup5\n        /* \"#utility.yul\":5684:5755   */\n      tag_295\n      jump\t// in\n    tag_373:\n        /* \"#utility.yul\":5540:5762   */\n      swap3\n      swap2\n      pop\n      pop\n      jump\t// out\n        /* \"#utility.yul\":5768:6321   */\n    tag_106:\n        /* \"#utility.yul\":5945:5949   */\n      0x00\n        /* \"#utility.yul\":5983:5986   */\n      0x80\n        /* \"#utility.yul\":5972:5981   */\n      dup3\n        /* \"#utility.yul\":5968:5987   */\n      add\n        /* \"#utility.yul\":5960:5987   */\n      swap1\n      pop\n        /* \"#utility.yul\":5997:6068   */\n      tag_375\n        /* \"#utility.yul\":6065:6066   */\n      0x00\n        /* \"#utility.yul\":6054:6063   */\n      dup4\n        /* \"#utility.yul\":6050:6067   */\n      add\n        /* \"#utility.yul\":6041:6047   */\n      dup8\n        /* \"#utility.yul\":5997:6068   */\n      tag_295\n      jump\t// in\n    tag_375:\n        /* \"#utility.yul\":6078:6150   */\n      tag_376\n        /* \"#utility.yul\":6146:6148   */\n      0x20\n        /* \"#utility.yul\":6135:6144   */\n      dup4\n        /* \"#utility.yul\":6131:6149   */\n      add\n        /* \"#utility.yul\":6122:6128   */\n      dup7\n        /* \"#utility.yul\":6078:6150   */\n      tag_292\n      jump\t// in\n    tag_376:\n        /* \"#utility.yul\":6160:6232   */\n      tag_377\n        /* \"#utility.yul\":6228:6230   */\n      0x40\n        /* \"#utility.yul\":6217:6226   */\n      dup4\n        /* \"#utility.yul\":6213:6231   */\n      add\n        /* \"#utility.yul\":6204:6210   */\n      dup6\n        /* \"#utility.yul\":6160:6232   */\n      tag_292\n      jump\t// in\n    tag_377:\n        /* \"#utility.yul\":6242:6314   */\n      tag_378\n        /* \"#utility.yul\":6310:6312   */\n      0x60\n        /* \"#utility.yul\":6299:6308   */\n      dup4\n        /* \"#utility.yul\":6295:6313   */\n      add\n        /* \"#utility.yul\":6286:6292   */\n      dup5\n        /* \"#utility.yul\":6242:6314   */\n      tag_292\n      jump\t// in\n    tag_378:\n        /* \"#utility.yul\":5768:6321   */\n      swap6\n      swap5\n      pop\n      pop\n      pop\n      pop\n      pop\n      jump\t// out\n        /* \"#utility.yul\":6327:6801   */\n    tag_116:\n        /* \"#utility.yul\":6395:6401   */\n      0x00\n        /* \"#utility.yul\":6403:6409   */\n      dup1\n        /* \"#utility.yul\":6452:6454   */\n      0x40\n        /* \"#utility.yul\":6440:6449   */\n      dup4\n        /* \"#utility.yul\":6431:6438   */\n      dup6\n        /* \"#utility.yul\":6427:6450   */\n      sub\n        /* \"#utility.yul\":6423:6455   */\n      slt\n        /* \"#utility.yul\":6420:6539   */\n      iszero\n      tag_380\n      jumpi\n        /* \"#utility.yul\":6458:6537   */\n      tag_381\n      tag_281\n      jump\t// in\n    tag_381:\n        /* \"#utility.yul\":6420:6539   */\n    tag_380:\n        /* \"#utility.yul\":6578:6579   */\n      0x00\n        /* \"#utility.yul\":6603:6656   */\n      tag_382\n        /* \"#utility.yul\":6648:6655   */\n      dup6\n        /* \"#utility.yul\":6639:6645   */\n      dup3\n        /* \"#utility.yul\":6628:6637   */\n      dup7\n        /* \"#utility.yul\":6624:6646   */\n      add\n        /* \"#utility.yul\":6603:6656   */\n      tag_286\n      jump\t// in\n    tag_382:\n        /* \"#utility.yul\":6593:6656   */\n      swap3\n      pop\n        /* \"#utility.yul\":6549:6666   */\n      pop\n        /* \"#utility.yul\":6705:6707   */\n      0x20\n        /* \"#utility.yul\":6731:6784   */\n      tag_383\n        /* \"#utility.yul\":6776:6783   */\n      dup6\n        /* \"#utility.yul\":6767:6773   */\n      dup3\n        /* \"#utility.yul\":6756:6765   */\n      dup7\n        /* \"#utility.yul\":6752:6774   */\n      add\n        /* \"#utility.yul\":6731:6784   */\n      tag_286\n      jump\t// in\n    tag_383:\n        /* \"#utility.yul\":6721:6784   */\n      swap2\n      pop\n        /* \"#utility.yul\":6676:6794   */\n      pop\n        /* \"#utility.yul\":6327:6801   */\n      swap3\n      pop\n      swap3\n      swap1\n      pop\n      jump\t// out\n        /* \"#utility.yul\":6807:6987   */\n    tag_296:\n        /* \"#utility.yul\":6855:6932   */\n      0x4e487b7100000000000000000000000000000000000000000000000000000000\n        /* \"#utility.yul\":6852:6853   */\n      0x00\n        /* \"#utility.yul\":6845:6933   */\n      mstore\n        /* \"#utility.yul\":6952:6956   */\n      0x22\n        /* \"#utility.yul\":6949:6950   */\n      0x04\n        /* \"#utility.yul\":6942:6957   */\n      mstore\n        /* \"#utility.yul\":6976:6980   */\n      0x24\n        /* \"#utility.yul\":6973:6974   */\n      0x00\n        /* \"#utility.yul\":6966:6981   */\n      revert\n        /* \"#utility.yul\":6993:7313   */\n    tag_134:\n        /* \"#utility.yul\":7037:7043   */\n      0x00\n        /* \"#utility.yul\":7074:7075   */\n      0x02\n        /* \"#utility.yul\":7068:7072   */\n      dup3\n        /* \"#utility.yul\":7064:7076   */\n      div\n        /* \"#utility.yul\":7054:7076   */\n      swap1\n      pop\n        /* \"#utility.yul\":7121:7122   */\n      0x01\n        /* \"#utility.yul\":7115:7119   */\n      dup3\n        /* \"#utility.yul\":7111:7123   */\n      and\n        /* \"#utility.yul\":7142:7160   */\n      dup1\n        /* \"#utility.yul\":7132:7213   */\n      tag_386\n      jumpi\n        /* \"#utility.yul\":7198:7202   */\n      0x7f\n        /* \"#utility.yul\":7190:7196   */\n      dup3\n        /* \"#utility.yul\":7186:7203   */\n      and\n        /* \"#utility.yul\":7176:7203   */\n      swap2\n      pop\n        /* \"#utility.yul\":7132:7213   */\n    tag_386:\n        /* \"#utility.yul\":7260:7262   */\n      0x20\n        /* \"#utility.yul\":7252:7258   */\n      dup3\n        /* \"#utility.yul\":7249:7263   */\n      lt\n        /* \"#utility.yul\":7229:7247   */\n      dup2\n        /* \"#utility.yul\":7226:7264   */\n      sub\n        /* \"#utility.yul\":7223:7307   */\n      tag_387\n      jumpi\n        /* \"#utility.yul\":7279:7297   */\n      tag_388\n      tag_296\n      jump\t// in\n    tag_388:\n        /* \"#utility.yul\":7223:7307   */\n    tag_387:\n        /* \"#utility.yul\":7044:7313   */\n      pop\n        /* \"#utility.yul\":6993:7313   */\n      swap2\n      swap1\n      pop\n      jump\t// out\n        /* \"#utility.yul\":7319:7547   */\n    tag_297:\n        /* \"#utility.yul\":7459:7493   */\n      0x426c61636b6c697374656420616464726573732063616e6e6f74206265207768\n        /* \"#utility.yul\":7455:7456   */\n      0x00\n        /* \"#utility.yul\":7447:7453   */\n      dup3\n        /* \"#utility.yul\":7443:7457   */\n      add\n        /* \"#utility.yul\":7436:7494   */\n      mstore\n        /* \"#utility.yul\":7528:7539   */\n      0x6974656c69737465640000000000000000000000000000000000000000000000\n        /* \"#utility.yul\":7523:7525   */\n      0x20\n        /* \"#utility.yul\":7515:7521   */\n      dup3\n        /* \"#utility.yul\":7511:7526   */\n      add\n        /* \"#utility.yul\":7504:7540   */\n      mstore\n        /* \"#utility.yul\":7319:7547   */\n      pop\n      jump\t// out\n        /* \"#utility.yul\":7553:7919   */\n    tag_298:\n        /* \"#utility.yul\":7695:7698   */\n      0x00\n        /* \"#utility.yul\":7716:7783   */\n      tag_391\n        /* \"#utility.yul\":7780:7782   */\n      0x29\n        /* \"#utility.yul\":7775:7778   */\n      dup4\n        /* \"#utility.yul\":7716:7783   */\n      tag_276\n      jump\t// in\n    tag_391:\n        /* \"#utility.yul\":7709:7783   */\n      swap2\n      pop\n        /* \"#utility.yul\":7792:7885   */\n      tag_392\n        /* \"#utility.yul\":7881:7884   */\n      dup3\n        /* \"#utility.yul\":7792:7885   */\n      tag_297\n      jump\t// in\n    tag_392:\n        /* \"#utility.yul\":7910:7912   */\n      0x40\n        /* \"#utility.yul\":7905:7908   */\n      dup3\n        /* \"#utility.yul\":7901:7913   */\n      add\n        /* \"#utility.yul\":7894:7913   */\n      swap1\n      pop\n        /* \"#utility.yul\":7553:7919   */\n      swap2\n      swap1\n      pop\n      jump\t// out\n        /* \"#utility.yul\":7925:8344   */\n    tag_198:\n        /* \"#utility.yul\":8091:8095   */\n      0x00\n        /* \"#utility.yul\":8129:8131   */\n      0x20\n        /* \"#utility.yul\":8118:8127   */\n      dup3\n        /* \"#utility.yul\":8114:8132   */\n      add\n        /* \"#utility.yul\":8106:8132   */\n      swap1\n      pop\n        /* \"#utility.yul\":8178:8187   */\n      dup2\n        /* \"#utility.yul\":8172:8176   */\n      dup2\n        /* \"#utility.yul\":8168:8188   */\n      sub\n        /* \"#utility.yul\":8164:8165   */\n      0x00\n        /* \"#utility.yul\":8153:8162   */\n      dup4\n        /* \"#utility.yul\":8149:8166   */\n      add\n        /* \"#utility.yul\":8142:8189   */\n      mstore\n        /* \"#utility.yul\":8206:8337   */\n      tag_394\n        /* \"#utility.yul\":8332:8336   */\n      dup2\n        /* \"#utility.yul\":8206:8337   */\n      tag_298\n      jump\t// in\n    tag_394:\n        /* \"#utility.yul\":8198:8337   */\n      swap1\n      pop\n        /* \"#utility.yul\":7925:8344   */\n      swap2\n      swap1\n      pop\n      jump\t// out\n        /* \"#utility.yul\":8350:8792   */\n    tag_219:\n        /* \"#utility.yul\":8499:8503   */\n      0x00\n        /* \"#utility.yul\":8537:8539   */\n      0x60\n        /* \"#utility.yul\":8526:8535   */\n      dup3\n        /* \"#utility.yul\":8522:8540   */\n      add\n        /* \"#utility.yul\":8514:8540   */\n      swap1\n      pop\n        /* \"#utility.yul\":8550:8621   */\n      tag_396\n        /* \"#utility.yul\":8618:8619   */\n      0x00\n        /* \"#utility.yul\":8607:8616   */\n      dup4\n        /* \"#utility.yul\":8603:8620   */\n      add\n        /* \"#utility.yul\":8594:8600   */\n      dup7\n        /* \"#utility.yul\":8550:8621   */\n      tag_295\n      jump\t// in\n    tag_396:\n        /* \"#utility.yul\":8631:8703   */\n      tag_397\n        /* \"#utility.yul\":8699:8701   */\n      0x20\n        /* \"#utility.yul\":8688:8697   */\n      dup4\n        /* \"#utility.yul\":8684:8702   */\n      add\n        /* \"#utility.yul\":8675:8681   */\n      dup6\n        /* \"#utility.yul\":8631:8703   */\n      tag_292\n      jump\t// in\n    tag_397:\n        /* \"#utility.yul\":8713:8785   */\n      tag_398\n        /* \"#utility.yul\":8781:8783   */\n      0x40\n        /* \"#utility.yul\":8770:8779   */\n      dup4\n        /* \"#utility.yul\":8766:8784   */\n      add\n        /* \"#utility.yul\":8757:8763   */\n      dup5\n        /* \"#utility.yul\":8713:8785   */\n      tag_292\n      jump\t// in\n    tag_398:\n        /* \"#utility.yul\":8350:8792   */\n      swap5\n      swap4\n      pop\n      pop\n      pop\n      pop\n      jump\t// out\n        /* \"#utility.yul\":8798:8969   */\n    tag_299:\n        /* \"#utility.yul\":8938:8961   */\n      0x426c61636b6c6973746564204164647265737365730000000000000000000000\n        /* \"#utility.yul\":8934:8935   */\n      0x00\n        /* \"#utility.yul\":8926:8932   */\n      dup3\n        /* \"#utility.yul\":8922:8936   */\n      add\n        /* \"#utility.yul\":8915:8962   */\n      mstore\n        /* \"#utility.yul\":8798:8969   */\n      pop\n      jump\t// out\n        /* \"#utility.yul\":8975:9341   */\n    tag_300:\n        /* \"#utility.yul\":9117:9120   */\n      0x00\n        /* \"#utility.yul\":9138:9205   */\n      tag_401\n        /* \"#utility.yul\":9202:9204   */\n      0x15\n        /* \"#utility.yul\":9197:9200   */\n      dup4\n        /* \"#utility.yul\":9138:9205   */\n      tag_276\n      jump\t// in\n    tag_401:\n        /* \"#utility.yul\":9131:9205   */\n      swap2\n      pop\n        /* \"#utility.yul\":9214:9307   */\n      tag_402\n        /* \"#utility.yul\":9303:9306   */\n      dup3\n        /* \"#utility.yul\":9214:9307   */\n      tag_299\n      jump\t// in\n    tag_402:\n        /* \"#utility.yul\":9332:9334   */\n      0x20\n        /* \"#utility.yul\":9327:9330   */\n      dup3\n        /* \"#utility.yul\":9323:9335   */\n      add\n        /* \"#utility.yul\":9316:9335   */\n      swap1\n      pop\n        /* \"#utility.yul\":8975:9341   */\n      swap2\n      swap1\n      pop\n      jump\t// out\n        /* \"#utility.yul\":9347:9766   */\n    tag_250:\n        /* \"#utility.yul\":9513:9517   */\n      0x00\n        /* \"#utility.yul\":9551:9553   */\n      0x20\n        /* \"#utility.yul\":9540:9549   */\n      dup3\n        /* \"#utility.yul\":9536:9554   */\n      add\n        /* \"#utility.yul\":9528:9554   */\n      swap1\n      pop\n        /* \"#utility.yul\":9600:9609   */\n      dup2\n        /* \"#utility.yul\":9594:9598   */\n      dup2\n        /* \"#utility.yul\":9590:9610   */\n      sub\n        /* \"#utility.yul\":9586:9587   */\n      0x00\n        /* \"#utility.yul\":9575:9584   */\n      dup4\n        /* \"#utility.yul\":9571:9588   */\n      add\n        /* \"#utility.yul\":9564:9611   */\n      mstore\n        /* \"#utility.yul\":9628:9759   */\n      tag_404\n        /* \"#utility.yul\":9754:9758   */\n      dup2\n        /* \"#utility.yul\":9628:9759   */\n      tag_300\n      jump\t// in\n    tag_404:\n        /* \"#utility.yul\":9620:9759   */\n      swap1\n      pop\n        /* \"#utility.yul\":9347:9766   */\n      swap2\n      swap1\n      pop\n      jump\t// out\n        /* \"#utility.yul\":9772:9993   */\n    tag_301:\n        /* \"#utility.yul\":9912:9946   */\n      0x426f746820616464726573736573206d7573742062652077686974656c697374\n        /* \"#utility.yul\":9908:9909   */\n      0x00\n        /* \"#utility.yul\":9900:9906   */\n      dup3\n        /* \"#utility.yul\":9896:9910   */\n      add\n        /* \"#utility.yul\":9889:9947   */\n      mstore\n        /* \"#utility.yul\":9981:9985   */\n      0x6564000000000000000000000000000000000000000000000000000000000000\n        /* \"#utility.yul\":9976:9978   */\n      0x20\n        /* \"#utility.yul\":9968:9974   */\n      dup3\n        /* \"#utility.yul\":9964:9979   */\n      add\n        /* \"#utility.yul\":9957:9986   */\n      mstore\n        /* \"#utility.yul\":9772:9993   */\n      pop\n      jump\t// out\n        /* \"#utility.yul\":9999:10365   */\n    tag_302:\n        /* \"#utility.yul\":10141:10144   */\n      0x00\n        /* \"#utility.yul\":10162:10229   */\n      tag_407\n        /* \"#utility.yul\":10226:10228   */\n      0x22\n        /* \"#utility.yul\":10221:10224   */\n      dup4\n        /* \"#utility.yul\":10162:10229   */\n      tag_276\n      jump\t// in\n    tag_407:\n        /* \"#utility.yul\":10155:10229   */\n      swap2\n      pop\n        /* \"#utility.yul\":10238:10331   */\n      tag_408\n        /* \"#utility.yul\":10327:10330   */\n      dup3\n        /* \"#utility.yul\":10238:10331   */\n      tag_301\n      jump\t// in\n    tag_408:\n        /* \"#utility.yul\":10356:10358   */\n      0x40\n        /* \"#utility.yul\":10351:10354   */\n      dup3\n        /* \"#utility.yul\":10347:10359   */\n      add\n        /* \"#utility.yul\":10340:10359   */\n      swap1\n      pop\n        /* \"#utility.yul\":9999:10365   */\n      swap2\n      swap1\n      pop\n      jump\t// out\n        /* \"#utility.yul\":10371:10790   */\n    tag_255:\n        /* \"#utility.yul\":10537:10541   */\n      0x00\n        /* \"#utility.yul\":10575:10577   */\n      0x20\n        /* \"#utility.yul\":10564:10573   */\n      dup3\n        /* \"#utility.yul\":10560:10578   */\n      add\n        /* \"#utility.yul\":10552:10578   */\n      swap1\n      pop\n        /* \"#utility.yul\":10624:10633   */\n      dup2\n        /* \"#utility.yul\":10618:10622   */\n      dup2\n        /* \"#utility.yul\":10614:10634   */\n      sub\n        /* \"#utility.yul\":10610:10611   */\n      0x00\n        /* \"#utility.yul\":10599:10608   */\n      dup4\n        /* \"#utility.yul\":10595:10612   */\n      add\n        /* \"#utility.yul\":10588:10635   */\n      mstore\n        /* \"#utility.yul\":10652:10783   */\n      tag_410\n        /* \"#utility.yul\":10778:10782   */\n      dup2\n        /* \"#utility.yul\":10652:10783   */\n      tag_302\n      jump\t// in\n    tag_410:\n        /* \"#utility.yul\":10644:10783   */\n      swap1\n      pop\n        /* \"#utility.yul\":10371:10790   */\n      swap2\n      swap1\n      pop\n      jump\t// out\n        /* \"#utility.yul\":10796:10975   */\n    tag_303:\n        /* \"#utility.yul\":10936:10967   */\n      0x546f6b656e205472616e73666572204c696d6974204578636565646564000000\n        /* \"#utility.yul\":10932:10933   */\n      0x00\n        /* \"#utility.yul\":10924:10930   */\n      dup3\n        /* \"#utility.yul\":10920:10934   */\n      add\n        /* \"#utility.yul\":10913:10968   */\n      mstore\n        /* \"#utility.yul\":10796:10975   */\n      pop\n      jump\t// out\n        /* \"#utility.yul\":10981:11347   */\n    tag_304:\n        /* \"#utility.yul\":11123:11126   */\n      0x00\n        /* \"#utility.yul\":11144:11211   */\n      tag_413\n        /* \"#utility.yul\":11208:11210   */\n      0x1d\n        /* \"#utility.yul\":11203:11206   */\n      dup4\n        /* \"#utility.yul\":11144:11211   */\n      tag_276\n      jump\t// in\n    tag_413:\n        /* \"#utility.yul\":11137:11211   */\n      swap2\n      pop\n        /* \"#utility.yul\":11220:11313   */\n      tag_414\n        /* \"#utility.yul\":11309:11312   */\n      dup3\n        /* \"#utility.yul\":11220:11313   */\n      tag_303\n      jump\t// in\n    tag_414:\n        /* \"#utility.yul\":11338:11340   */\n      0x20\n        /* \"#utility.yul\":11333:11336   */\n      dup3\n        /* \"#utility.yul\":11329:11341   */\n      add\n        /* \"#utility.yul\":11322:11341   */\n      swap1\n      pop\n        /* \"#utility.yul\":10981:11347   */\n      swap2\n      swap1\n      pop\n      jump\t// out\n        /* \"#utility.yul\":11353:11772   */\n    tag_258:\n        /* \"#utility.yul\":11519:11523   */\n      0x00\n        /* \"#utility.yul\":11557:11559   */\n      0x20\n        /* \"#utility.yul\":11546:11555   */\n      dup3\n        /* \"#utility.yul\":11542:11560   */\n      add\n        /* \"#utility.yul\":11534:11560   */\n      swap1\n      pop\n        /* \"#utility.yul\":11606:11615   */\n      dup2\n        /* \"#utility.yul\":11600:11604   */\n      dup2\n        /* \"#utility.yul\":11596:11616   */\n      sub\n        /* \"#utility.yul\":11592:11593   */\n      0x00\n        /* \"#utility.yul\":11581:11590   */\n      dup4\n        /* \"#utility.yul\":11577:11594   */\n      add\n        /* \"#utility.yul\":11570:11617   */\n      mstore\n        /* \"#utility.yul\":11634:11765   */\n      tag_416\n        /* \"#utility.yul\":11760:11764   */\n      dup2\n        /* \"#utility.yul\":11634:11765   */\n      tag_304\n      jump\t// in\n    tag_416:\n        /* \"#utility.yul\":11626:11765   */\n      swap1\n      pop\n        /* \"#utility.yul\":11353:11772   */\n      swap2\n      swap1\n      pop\n      jump\t// out\n        /* \"#utility.yul\":11778:11958   */\n    tag_305:\n        /* \"#utility.yul\":11826:11903   */\n      0x4e487b7100000000000000000000000000000000000000000000000000000000\n        /* \"#utility.yul\":11823:11824   */\n      0x00\n        /* \"#utility.yul\":11816:11904   */\n      mstore\n        /* \"#utility.yul\":11923:11927   */\n      0x11\n        /* \"#utility.yul\":11920:11921   */\n      0x04\n        /* \"#utility.yul\":11913:11928   */\n      mstore\n        /* \"#utility.yul\":11947:11951   */\n      0x24\n        /* \"#utility.yul\":11944:11945   */\n      0x00\n        /* \"#utility.yul\":11937:11952   */\n      revert\n        /* \"#utility.yul\":11964:12155   */\n    tag_260:\n        /* \"#utility.yul\":12004:12007   */\n      0x00\n        /* \"#utility.yul\":12023:12043   */\n      tag_419\n        /* \"#utility.yul\":12041:12042   */\n      dup3\n        /* \"#utility.yul\":12023:12043   */\n      tag_287\n      jump\t// in\n    tag_419:\n        /* \"#utility.yul\":12018:12043   */\n      swap2\n      pop\n        /* \"#utility.yul\":12057:12077   */\n      tag_420\n        /* \"#utility.yul\":12075:12076   */\n      dup4\n        /* \"#utility.yul\":12057:12077   */\n      tag_287\n      jump\t// in\n    tag_420:\n        /* \"#utility.yul\":12052:12077   */\n      swap3\n      pop\n        /* \"#utility.yul\":12100:12101   */\n      dup3\n        /* \"#utility.yul\":12097:12098   */\n      dup3\n        /* \"#utility.yul\":12093:12102   */\n      add\n        /* \"#utility.yul\":12086:12102   */\n      swap1\n      pop\n        /* \"#utility.yul\":12121:12124   */\n      dup1\n        /* \"#utility.yul\":12118:12119   */\n      dup3\n        /* \"#utility.yul\":12115:12125   */\n      gt\n        /* \"#utility.yul\":12112:12148   */\n      iszero\n      tag_421\n      jumpi\n        /* \"#utility.yul\":12128:12146   */\n      tag_422\n      tag_305\n      jump\t// in\n    tag_422:\n        /* \"#utility.yul\":12112:12148   */\n    tag_421:\n        /* \"#utility.yul\":11964:12155   */\n      swap3\n      swap2\n      pop\n      pop\n      jump\t// out\n        /* \"#utility.yul\":12161:12337   */\n    tag_306:\n        /* \"#utility.yul\":12301:12329   */\n      0x546f6b656e205472616e7366657220696e20636f6f6c646f776e000000000000\n        /* \"#utility.yul\":12297:12298   */\n      0x00\n        /* \"#utility.yul\":12289:12295   */\n      dup3\n        /* \"#utility.yul\":12285:12299   */\n      add\n        /* \"#utility.yul\":12278:12330   */\n      mstore\n        /* \"#utility.yul\":12161:12337   */\n      pop\n      jump\t// out\n        /* \"#utility.yul\":12343:12709   */\n    tag_307:\n        /* \"#utility.yul\":12485:12488   */\n      0x00\n        /* \"#utility.yul\":12506:12573   */\n      tag_425\n        /* \"#utility.yul\":12570:12572   */\n      0x1a\n        /* \"#utility.yul\":12565:12568   */\n      dup4\n        /* \"#utility.yul\":12506:12573   */\n      tag_276\n      jump\t// in\n    tag_425:\n        /* \"#utility.yul\":12499:12573   */\n      swap2\n      pop\n        /* \"#utility.yul\":12582:12675   */\n      tag_426\n        /* \"#utility.yul\":12671:12674   */\n      dup3\n        /* \"#utility.yul\":12582:12675   */\n      tag_306\n      jump\t// in\n    tag_426:\n        /* \"#utility.yul\":12700:12702   */\n      0x20\n        /* \"#utility.yul\":12695:12698   */\n      dup3\n        /* \"#utility.yul\":12691:12703   */\n      add\n        /* \"#utility.yul\":12684:12703   */\n      swap1\n      pop\n        /* \"#utility.yul\":12343:12709   */\n      swap2\n      swap1\n      pop\n      jump\t// out\n        /* \"#utility.yul\":12715:13134   */\n    tag_263:\n        /* \"#utility.yul\":12881:12885   */\n      0x00\n        /* \"#utility.yul\":12919:12921   */\n      0x20\n        /* \"#utility.yul\":12908:12917   */\n      dup3\n        /* \"#utility.yul\":12904:12922   */\n      add\n        /* \"#utility.yul\":12896:12922   */\n      swap1\n      pop\n        /* \"#utility.yul\":12968:12977   */\n      dup2\n        /* \"#utility.yul\":12962:12966   */\n      dup2\n        /* \"#utility.yul\":12958:12978   */\n      sub\n        /* \"#utility.yul\":12954:12955   */\n      0x00\n        /* \"#utility.yul\":12943:12952   */\n      dup4\n        /* \"#utility.yul\":12939:12956   */\n      add\n        /* \"#utility.yul\":12932:12979   */\n      mstore\n        /* \"#utility.yul\":12996:13127   */\n      tag_428\n        /* \"#utility.yul\":13122:13126   */\n      dup2\n        /* \"#utility.yul\":12996:13127   */\n      tag_307\n      jump\t// in\n    tag_428:\n        /* \"#utility.yul\":12988:13127   */\n      swap1\n      pop\n        /* \"#utility.yul\":12715:13134   */\n      swap2\n      swap1\n      pop\n      jump\t// out\n\n    auxdata: 0xa2646970667358221220669294553df0badb9fc0896e1ada902b328b5a98f82c2f1d224a5cb2de44a25c64736f6c634300081a0033\n}\n",
				"bytecode": {
					"linkReferences": {},
					"object": "60806040526100126101fd60201b60201c565b600a61001e91906109ce565b6305f5e10061002d9190610a18565b600655600654600755603c6008555f600c5f6101000a81548160ff02191690831515021790555034801561005f575f80fd5b50604051612cf3380380612cf383398181016040528101906100819190610ab7565b806040518060400160405280600981526020017f43686169546f6b656e00000000000000000000000000000000000000000000008152506040518060400160405280600481526020017f436861690000000000000000000000000000000000000000000000000000000081525081600390816100fd9190610d13565b50806004908161010d9190610d13565b5050505f73ffffffffffffffffffffffffffffffffffffffff168173ffffffffffffffffffffffffffffffffffffffff1603610180575f6040517f1e4fbdf70000000000000000000000000000000000000000000000000000000081526004016101779190610df1565b60405180910390fd5b61018f8161020560201b60201c565b506101a2816006546102c860201b60201c565b6001600a5f8373ffffffffffffffffffffffffffffffffffffffff1673ffffffffffffffffffffffffffffffffffffffff1681526020019081526020015f205f6101000a81548160ff02191690831515021790555050611070565b5f6012905090565b5f60055f9054906101000a900473ffffffffffffffffffffffffffffffffffffffff1690508160055f6101000a81548173ffffffffffffffffffffffffffffffffffffffff021916908373ffffffffffffffffffffffffffffffffffffffff1602179055508173ffffffffffffffffffffffffffffffffffffffff168173ffffffffffffffffffffffffffffffffffffffff167f8be0079c531659141344cd1fd0a4f28419497f9722a3daafe3b4186f6b6457e060405160405180910390a35050565b5f73ffffffffffffffffffffffffffffffffffffffff168273ffffffffffffffffffffffffffffffffffffffff1603610338575f6040517fec442f0500000000000000000000000000000000000000000000000000000000815260040161032f9190610df1565b60405180910390fd5b6103495f838361034d60201b60201c565b5050565b60095f8473ffffffffffffffffffffffffffffffffffffffff1673ffffffffffffffffffffffffffffffffffffffff1681526020019081526020015f205f9054906101000a900460ff161580156103eb575060095f8373ffffffffffffffffffffffffffffffffffffffff1673ffffffffffffffffffffffffffffffffffffffff1681526020019081526020015f205f9054906101000a900460ff16155b61042a576040517f08c379a000000000000000000000000000000000000000000000000000000000815260040161042190610e64565b60405180910390fd5b600c5f9054906101000a900460ff161561051a57600a5f8473ffffffffffffffffffffffffffffffffffffffff1673ffffffffffffffffffffffffffffffffffffffff1681526020019081526020015f205f9054906101000a900460ff1680156104da5750600a5f8373ffffffffffffffffffffffffffffffffffffffff1673ffffffffffffffffffffffffffffffffffffffff1681526020019081526020015f205f9054906101000a900460ff165b610519576040517f08c379a000000000000000000000000000000000000000000000000000000000815260040161051090610ef2565b60405180910390fd5b5b60075481111561055f576040517f08c379a000000000000000000000000000000000000000000000000000000000815260040161055690610f5a565b60405180910390fd5b600854600b5f8573ffffffffffffffffffffffffffffffffffffffff1673ffffffffffffffffffffffffffffffffffffffff1681526020019081526020015f20546105aa9190610f78565b4210156105ec576040517f08c379a00000000000000000000000000000000000000000000000000000000081526004016105e390610ff5565b60405180910390fd5b42600b5f8573ffffffffffffffffffffffffffffffffffffffff1673ffffffffffffffffffffffffffffffffffffffff1681526020019081526020015f208190555061063f83838361064460201b60201c565b505050565b5f73ffffffffffffffffffffffffffffffffffffffff168373ffffffffffffffffffffffffffffffffffffffff1603610694578060025f8282546106889190610f78565b92505081905550610762565b5f805f8573ffffffffffffffffffffffffffffffffffffffff1673ffffffffffffffffffffffffffffffffffffffff1681526020019081526020015f205490508181101561071d578381836040517fe450d38c00000000000000000000000000000000000000000000000000000000815260040161071493929190611022565b60405180910390fd5b8181035f808673ffffffffffffffffffffffffffffffffffffffff1673ffffffffffffffffffffffffffffffffffffffff1681526020019081526020015f2081905550505b5f73ffffffffffffffffffffffffffffffffffffffff168273ffffffffffffffffffffffffffffffffffffffff16036107a9578060025f82825403925050819055506107f3565b805f808473ffffffffffffffffffffffffffffffffffffffff1673ffffffffffffffffffffffffffffffffffffffff1681526020019081526020015f205f82825401925050819055505b8173ffffffffffffffffffffffffffffffffffffffff168373ffffffffffffffffffffffffffffffffffffffff167fddf252ad1be2c89b69c2b068fc378daa952ba7f163c4a11628f55a4df523b3ef836040516108509190611057565b60405180910390a3505050565b7f4e487b71000000000000000000000000000000000000000000000000000000005f52601160045260245ffd5b5f8160011c9050919050565b5f808291508390505b60018511156108df578086048111156108bb576108ba61085d565b5b60018516156108ca5780820291505b80810290506108d88561088a565b945061089f565b94509492505050565b5f826108f757600190506109b2565b81610904575f90506109b2565b816001811461091a576002811461092457610953565b60019150506109b2565b60ff8411156109365761093561085d565b5b8360020a91508482111561094d5761094c61085d565b5b506109b2565b5060208310610133831016604e8410600b84101617156109885782820a9050838111156109835761098261085d565b5b6109b2565b6109958484846001610896565b925090508184048111156109ac576109ab61085d565b5b81810290505b9392505050565b5f819050919050565b5f60ff82169050919050565b5f6109d8826109b9565b91506109e3836109c2565b9250610a107fffffffffffffffffffffffffffffffffffffffffffffffffffffffffffffffff84846108e8565b905092915050565b5f610a22826109b9565b9150610a2d836109b9565b9250828202610a3b816109b9565b91508282048414831517610a5257610a5161085d565b5b5092915050565b5f80fd5b5f73ffffffffffffffffffffffffffffffffffffffff82169050919050565b5f610a8682610a5d565b9050919050565b610a9681610a7c565b8114610aa0575f80fd5b50565b5f81519050610ab181610a8d565b92915050565b5f60208284031215610acc57610acb610a59565b5b5f610ad984828501610aa3565b91505092915050565b5f81519050919050565b7f4e487b71000000000000000000000000000000000000000000000000000000005f52604160045260245ffd5b7f4e487b71000000000000000000000000000000000000000000000000000000005f52602260045260245ffd5b5f6002820490506001821680610b5d57607f821691505b602082108103610b7057610b6f610b19565b5b50919050565b5f819050815f5260205f209050919050565b5f6020601f8301049050919050565b5f82821b905092915050565b5f60088302610bd27fffffffffffffffffffffffffffffffffffffffffffffffffffffffffffffffff82610b97565b610bdc8683610b97565b95508019841693508086168417925050509392505050565b5f819050919050565b5f610c17610c12610c0d846109b9565b610bf4565b6109b9565b9050919050565b5f819050919050565b610c3083610bfd565b610c44610c3c82610c1e565b848454610ba3565b825550505050565b5f90565b610c58610c4c565b610c63818484610c27565b505050565b5b81811015610c8657610c7b5f82610c50565b600181019050610c69565b5050565b601f821115610ccb57610c9c81610b76565b610ca584610b88565b81016020851015610cb4578190505b610cc8610cc085610b88565b830182610c68565b50505b505050565b5f82821c905092915050565b5f610ceb5f1984600802610cd0565b1980831691505092915050565b5f610d038383610cdc565b9150826002028217905092915050565b610d1c82610ae2565b67ffffffffffffffff811115610d3557610d34610aec565b5b610d3f8254610b46565b610d4a828285610c8a565b5f60209050601f831160018114610d7b575f8415610d69578287015190505b610d738582610cf8565b865550610dda565b601f198416610d8986610b76565b5f5b82811015610db057848901518255600182019150602085019450602081019050610d8b565b86831015610dcd5784890151610dc9601f891682610cdc565b8355505b6001600288020188555050505b505050505050565b610deb81610a7c565b82525050565b5f602082019050610e045f830184610de2565b92915050565b5f82825260208201905092915050565b7f426c61636b6c69737465642041646472657373657300000000000000000000005f82015250565b5f610e4e601583610e0a565b9150610e5982610e1a565b602082019050919050565b5f6020820190508181035f830152610e7b81610e42565b9050919050565b7f426f746820616464726573736573206d7573742062652077686974656c6973745f8201527f6564000000000000000000000000000000000000000000000000000000000000602082015250565b5f610edc602283610e0a565b9150610ee782610e82565b604082019050919050565b5f6020820190508181035f830152610f0981610ed0565b9050919050565b7f546f6b656e205472616e73666572204c696d69742045786365656465640000005f82015250565b5f610f44601d83610e0a565b9150610f4f82610f10565b602082019050919050565b5f6020820190508181035f830152610f7181610f38565b9050919050565b5f610f82826109b9565b9150610f8d836109b9565b9250828201905080821115610fa557610fa461085d565b5b92915050565b7f546f6b656e205472616e7366657220696e20636f6f6c646f776e0000000000005f82015250565b5f610fdf601a83610e0a565b9150610fea82610fab565b602082019050919050565b5f6020820190508181035f83015261100c81610fd3565b9050919050565b61101c816109b9565b82525050565b5f6060820190506110355f830186610de2565b6110426020830185611013565b61104f6040830184611013565b949350505050565b5f60208201905061106a5f830184611013565b92915050565b611c768061107d5f395ff3fe608060405234801561000f575f80fd5b50600436106101a7575f3560e01c806370a08231116100f7578063a9059cbb11610095578063e43252d71161006f578063e43252d714610488578063ec28438a146104a4578063f2fde38b146104c0578063fe575a87146104dc576101a7565b8063a9059cbb1461040a578063b319c6b71461043a578063dd62ed3e14610458576101a7565b80638c0b5e22116100d15780638c0b5e221461038f5780638da5cb5b146103ad57806395d89b41146103cb5780639dfc9117146103e9576101a7565b806370a0823114610339578063715018a6146103695780638ab1d68114610373576101a7565b8063313ce56711610164578063537df3b61161013e578063537df3b6146102d9578063688188e8146102f55780636d8b0527146102ff5780636e16de111461031d576101a7565b8063313ce5671461026f5780633af32abf1461028d57806344337ea1146102bd576101a7565b806306fdde03146101ab578063095ea7b3146101c957806318160ddd146101f95780631c0aecfa1461021757806323b872dd146102355780632958ad7f14610265575b5f80fd5b6101b361050c565b6040516101c0919061162d565b60405180910390f35b6101e360048036038101906101de91906116de565b61059c565b6040516101f09190611736565b60405180910390f35b6102016105be565b60405161020e919061175e565b60405180910390f35b61021f6105c7565b60405161022c9190611736565b60405180910390f35b61024f600480360381019061024a9190611777565b6105dc565b60405161025c9190611736565b60405180910390f35b61026d61060a565b005b61027761062e565b60405161028491906117e2565b60405180910390f35b6102a760048036038101906102a291906117fb565b610636565b6040516102b49190611736565b60405180910390f35b6102d760048036038101906102d291906117fb565b610688565b005b6102f360048036038101906102ee91906117fb565b61073c565b005b6102fd61079b565b005b6103076107be565b604051610314919061175e565b60405180910390f35b61033760048036038101906103329190611826565b6107c7565b005b610353600480360381019061034e91906117fb565b6107d9565b604051610360919061175e565b60405180910390f35b61037161081e565b005b61038d600480360381019061038891906117fb565b610830565b005b61039761088f565b6040516103a4919061175e565b60405180910390f35b6103b5610895565b6040516103c29190611860565b60405180910390f35b6103d36108bd565b6040516103e0919061162d565b60405180910390f35b6103f161094d565b6040516104019493929190611879565b60405180910390f35b610424600480360381019061041f91906116de565b610970565b6040516104319190611736565b60405180910390f35b610442610992565b60405161044f919061175e565b60405180910390f35b610472600480360381019061046d91906118bc565b610998565b60405161047f919061175e565b60405180910390f35b6104a2600480360381019061049d91906117fb565b610a1a565b005b6104be60048036038101906104b99190611826565b610b04565b005b6104da60048036038101906104d591906117fb565b610b16565b005b6104f660048036038101906104f191906117fb565b610b9a565b6040516105039190611736565b60405180910390f35b60606003805461051b90611927565b80601f016020809104026020016040519081016040528092919081815260200182805461054790611927565b80156105925780601f1061056957610100808354040283529160200191610592565b820191905f5260205f20905b81548152906001019060200180831161057557829003601f168201915b5050505050905090565b5f806105a6610bec565b90506105b3818585610bf3565b600191505092915050565b5f600254905090565b5f600c5f9054906101000a900460ff16905090565b5f806105e6610bec565b90506105f3858285610c05565b6105fe858585610c97565b60019150509392505050565b610612610d87565b6001600c5f6101000a81548160ff021916908315150217905550565b5f6012905090565b5f600a5f8373ffffffffffffffffffffffffffffffffffffffff1673ffffffffffffffffffffffffffffffffffffffff1681526020019081526020015f205f9054906101000a900460ff169050919050565b610690610d87565b600160095f8373ffffffffffffffffffffffffffffffffffffffff1673ffffffffffffffffffffffffffffffffffffffff1681526020019081526020015f205f6101000a81548160ff0219169083151502179055505f600a5f8373ffffffffffffffffffffffffffffffffffffffff1673ffffffffffffffffffffffffffffffffffffffff1681526020019081526020015f205f6101000a81548160ff02191690831515021790555050565b610744610d87565b5f60095f8373ffffffffffffffffffffffffffffffffffffffff1673ffffffffffffffffffffffffffffffffffffffff1681526020019081526020015f205f6101000a81548160ff02191690831515021790555050565b6107a3610d87565b5f600c5f6101000a81548160ff021916908315150217905550565b5f600754905090565b6107cf610d87565b8060088190555050565b5f805f8373ffffffffffffffffffffffffffffffffffffffff1673ffffffffffffffffffffffffffffffffffffffff1681526020019081526020015f20549050919050565b610826610d87565b61082e610e0e565b565b610838610d87565b5f600a5f8373ffffffffffffffffffffffffffffffffffffffff1673ffffffffffffffffffffffffffffffffffffffff1681526020019081526020015f205f6101000a81548160ff02191690831515021790555050565b60075481565b5f60055f9054906101000a900473ffffffffffffffffffffffffffffffffffffffff16905090565b6060600480546108cc90611927565b80601f01602080910402602001604051908101604052809291908181526020018280546108f890611927565b80156109435780601f1061091a57610100808354040283529160200191610943565b820191905f5260205f20905b81548152906001019060200180831161092657829003601f168201915b5050505050905090565b5f805f80610959610895565b600754600854600654935093509350935090919293565b5f8061097a610bec565b9050610987818585610c97565b600191505092915050565b60085481565b5f60015f8473ffffffffffffffffffffffffffffffffffffffff1673ffffffffffffffffffffffffffffffffffffffff1681526020019081526020015f205f8373ffffffffffffffffffffffffffffffffffffffff1673ffffffffffffffffffffffffffffffffffffffff1681526020019081526020015f2054905092915050565b610a22610d87565b60095f8273ffffffffffffffffffffffffffffffffffffffff1673ffffffffffffffffffffffffffffffffffffffff1681526020019081526020015f205f9054906101000a900460ff1615610aac576040517f08c379a0000000000000000000000000000000000000000000000000000000008152600401610aa3906119c7565b60405180910390fd5b6001600a5f8373ffffffffffffffffffffffffffffffffffffffff1673ffffffffffffffffffffffffffffffffffffffff1681526020019081526020015f205f6101000a81548160ff02191690831515021790555050565b610b0c610d87565b8060078190555050565b610b1e610d87565b5f73ffffffffffffffffffffffffffffffffffffffff168173ffffffffffffffffffffffffffffffffffffffff1603610b8e575f6040517f1e4fbdf7000000000000000000000000000000000000000000000000000000008152600401610b859190611860565b60405180910390fd5b610b9781610e21565b50565b5f60095f8373ffffffffffffffffffffffffffffffffffffffff1673ffffffffffffffffffffffffffffffffffffffff1681526020019081526020015f205f9054906101000a900460ff169050919050565b5f33905090565b610c008383836001610ee4565b505050565b5f610c108484610998565b90507fffffffffffffffffffffffffffffffffffffffffffffffffffffffffffffffff8114610c915781811015610c82578281836040517ffb8f41b2000000000000000000000000000000000000000000000000000000008152600401610c79939291906119e5565b60405180910390fd5b610c9084848484035f610ee4565b5b50505050565b5f73ffffffffffffffffffffffffffffffffffffffff168373ffffffffffffffffffffffffffffffffffffffff1603610d07575f6040517f96c6fd1e000000000000000000000000000000000000000000000000000000008152600401610cfe9190611860565b60405180910390fd5b5f73ffffffffffffffffffffffffffffffffffffffff168273ffffffffffffffffffffffffffffffffffffffff1603610d77575f6040517fec442f05000000000000000000000000000000000000000000000000000000008152600401610d6e9190611860565b60405180910390fd5b610d828383836110b3565b505050565b610d8f610bec565b73ffffffffffffffffffffffffffffffffffffffff16610dad610895565b73ffffffffffffffffffffffffffffffffffffffff1614610e0c57610dd0610bec565b6040517f118cdaa7000000000000000000000000000000000000000000000000000000008152600401610e039190611860565b60405180910390fd5b565b610e16610d87565b610e1f5f610e21565b565b5f60055f9054906101000a900473ffffffffffffffffffffffffffffffffffffffff1690508160055f6101000a81548173ffffffffffffffffffffffffffffffffffffffff021916908373ffffffffffffffffffffffffffffffffffffffff1602179055508173ffffffffffffffffffffffffffffffffffffffff168173ffffffffffffffffffffffffffffffffffffffff167f8be0079c531659141344cd1fd0a4f28419497f9722a3daafe3b4186f6b6457e060405160405180910390a35050565b5f73ffffffffffffffffffffffffffffffffffffffff168473ffffffffffffffffffffffffffffffffffffffff1603610f54575f6040517fe602df05000000000000000000000000000000000000000000000000000000008152600401610f4b9190611860565b60405180910390fd5b5f73ffffffffffffffffffffffffffffffffffffffff168373ffffffffffffffffffffffffffffffffffffffff1603610fc4575f6040517f94280d62000000000000000000000000000000000000000000000000000000008152600401610fbb9190611860565b60405180910390fd5b8160015f8673ffffffffffffffffffffffffffffffffffffffff1673ffffffffffffffffffffffffffffffffffffffff1681526020019081526020015f205f8573ffffffffffffffffffffffffffffffffffffffff1673ffffffffffffffffffffffffffffffffffffffff1681526020019081526020015f208190555080156110ad578273ffffffffffffffffffffffffffffffffffffffff168473ffffffffffffffffffffffffffffffffffffffff167f8c5be1e5ebec7d5bd14f71427d1e84f3dd0314c0f7b2291e5b200ac8c7c3b925846040516110a4919061175e565b60405180910390a35b50505050565b60095f8473ffffffffffffffffffffffffffffffffffffffff1673ffffffffffffffffffffffffffffffffffffffff1681526020019081526020015f205f9054906101000a900460ff16158015611151575060095f8373ffffffffffffffffffffffffffffffffffffffff1673ffffffffffffffffffffffffffffffffffffffff1681526020019081526020015f205f9054906101000a900460ff16155b611190576040517f08c379a000000000000000000000000000000000000000000000000000000000815260040161118790611a64565b60405180910390fd5b600c5f9054906101000a900460ff161561128057600a5f8473ffffffffffffffffffffffffffffffffffffffff1673ffffffffffffffffffffffffffffffffffffffff1681526020019081526020015f205f9054906101000a900460ff1680156112405750600a5f8373ffffffffffffffffffffffffffffffffffffffff1673ffffffffffffffffffffffffffffffffffffffff1681526020019081526020015f205f9054906101000a900460ff165b61127f576040517f08c379a000000000000000000000000000000000000000000000000000000000815260040161127690611af2565b60405180910390fd5b5b6007548111156112c5576040517f08c379a00000000000000000000000000000000000000000000000000000000081526004016112bc90611b5a565b60405180910390fd5b600854600b5f8573ffffffffffffffffffffffffffffffffffffffff1673ffffffffffffffffffffffffffffffffffffffff1681526020019081526020015f20546113109190611ba5565b421015611352576040517f08c379a000000000000000000000000000000000000000000000000000000000815260040161134990611c22565b60405180910390fd5b42600b5f8573ffffffffffffffffffffffffffffffffffffffff1673ffffffffffffffffffffffffffffffffffffffff1681526020019081526020015f208190555061139f8383836113a4565b505050565b5f73ffffffffffffffffffffffffffffffffffffffff168373ffffffffffffffffffffffffffffffffffffffff16036113f4578060025f8282546113e89190611ba5565b925050819055506114c2565b5f805f8573ffffffffffffffffffffffffffffffffffffffff1673ffffffffffffffffffffffffffffffffffffffff1681526020019081526020015f205490508181101561147d578381836040517fe450d38c000000000000000000000000000000000000000000000000000000008152600401611474939291906119e5565b60405180910390fd5b8181035f808673ffffffffffffffffffffffffffffffffffffffff1673ffffffffffffffffffffffffffffffffffffffff1681526020019081526020015f2081905550505b5f73ffffffffffffffffffffffffffffffffffffffff168273ffffffffffffffffffffffffffffffffffffffff1603611509578060025f8282540392505081905550611553565b805f808473ffffffffffffffffffffffffffffffffffffffff1673ffffffffffffffffffffffffffffffffffffffff1681526020019081526020015f205f82825401925050819055505b8173ffffffffffffffffffffffffffffffffffffffff168373ffffffffffffffffffffffffffffffffffffffff167fddf252ad1be2c89b69c2b068fc378daa952ba7f163c4a11628f55a4df523b3ef836040516115b0919061175e565b60405180910390a3505050565b5f81519050919050565b5f82825260208201905092915050565b8281835e5f83830152505050565b5f601f19601f8301169050919050565b5f6115ff826115bd565b61160981856115c7565b93506116198185602086016115d7565b611622816115e5565b840191505092915050565b5f6020820190508181035f83015261164581846115f5565b905092915050565b5f80fd5b5f73ffffffffffffffffffffffffffffffffffffffff82169050919050565b5f61167a82611651565b9050919050565b61168a81611670565b8114611694575f80fd5b50565b5f813590506116a581611681565b92915050565b5f819050919050565b6116bd816116ab565b81146116c7575f80fd5b50565b5f813590506116d8816116b4565b92915050565b5f80604083850312156116f4576116f361164d565b5b5f61170185828601611697565b9250506020611712858286016116ca565b9150509250929050565b5f8115159050919050565b6117308161171c565b82525050565b5f6020820190506117495f830184611727565b92915050565b611758816116ab565b82525050565b5f6020820190506117715f83018461174f565b92915050565b5f805f6060848603121561178e5761178d61164d565b5b5f61179b86828701611697565b93505060206117ac86828701611697565b92505060406117bd868287016116ca565b9150509250925092565b5f60ff82169050919050565b6117dc816117c7565b82525050565b5f6020820190506117f55f8301846117d3565b92915050565b5f602082840312156118105761180f61164d565b5b5f61181d84828501611697565b91505092915050565b5f6020828403121561183b5761183a61164d565b5b5f611848848285016116ca565b91505092915050565b61185a81611670565b82525050565b5f6020820190506118735f830184611851565b92915050565b5f60808201905061188c5f830187611851565b611899602083018661174f565b6118a6604083018561174f565b6118b3606083018461174f565b95945050505050565b5f80604083850312156118d2576118d161164d565b5b5f6118df85828601611697565b92505060206118f085828601611697565b9150509250929050565b7f4e487b71000000000000000000000000000000000000000000000000000000005f52602260045260245ffd5b5f600282049050600182168061193e57607f821691505b602082108103611951576119506118fa565b5b50919050565b7f426c61636b6c697374656420616464726573732063616e6e6f742062652077685f8201527f6974656c69737465640000000000000000000000000000000000000000000000602082015250565b5f6119b16029836115c7565b91506119bc82611957565b604082019050919050565b5f6020820190508181035f8301526119de816119a5565b9050919050565b5f6060820190506119f85f830186611851565b611a05602083018561174f565b611a12604083018461174f565b949350505050565b7f426c61636b6c69737465642041646472657373657300000000000000000000005f82015250565b5f611a4e6015836115c7565b9150611a5982611a1a565b602082019050919050565b5f6020820190508181035f830152611a7b81611a42565b9050919050565b7f426f746820616464726573736573206d7573742062652077686974656c6973745f8201527f6564000000000000000000000000000000000000000000000000000000000000602082015250565b5f611adc6022836115c7565b9150611ae782611a82565b604082019050919050565b5f6020820190508181035f830152611b0981611ad0565b9050919050565b7f546f6b656e205472616e73666572204c696d69742045786365656465640000005f82015250565b5f611b44601d836115c7565b9150611b4f82611b10565b602082019050919050565b5f6020820190508181035f830152611b7181611b38565b9050919050565b7f4e487b71000000000000000000000000000000000000000000000000000000005f52601160045260245ffd5b5f611baf826116ab565b9150611bba836116ab565b9250828201905080821115611bd257611bd1611b78565b5b92915050565b7f546f6b656e205472616e7366657220696e20636f6f6c646f776e0000000000005f82015250565b5f611c0c601a836115c7565b9150611c1782611bd8565b602082019050919050565b5f6020820190508181035f830152611c3981611c00565b905091905056fea2646970667358221220669294553df0badb9fc0896e1ada902b328b5a98f82c2f1d224a5cb2de44a25c64736f6c634300081a0033",
					"opcodes": "PUSH1 0x80 PUSH1 0x40 MSTORE PUSH2 0x12 PUSH2 0x1FD PUSH1 0x20 SHL PUSH1 0x20 SHR JUMP JUMPDEST PUSH1 0xA PUSH2 0x1E SWAP2 SWAP1 PUSH2 0x9CE JUMP JUMPDEST PUSH4 0x5F5E100 PUSH2 0x2D SWAP2 SWAP1 PUSH2 0xA18 JUMP JUMPDEST PUSH1 0x6 SSTORE PUSH1 0x6 SLOAD PUSH1 0x7 SSTORE PUSH1 0x3C PUSH1 0x8 SSTORE PUSH0 PUSH1 0xC PUSH0 PUSH2 0x100 EXP DUP2 SLOAD DUP2 PUSH1 0xFF MUL NOT AND SWAP1 DUP4 ISZERO ISZERO MUL OR SWAP1 SSTORE POP CALLVALUE DUP1 ISZERO PUSH2 0x5F JUMPI PUSH0 DUP1 REVERT JUMPDEST POP PUSH1 0x40 MLOAD PUSH2 0x2CF3 CODESIZE SUB DUP1 PUSH2 0x2CF3 DUP4 CODECOPY DUP2 DUP2 ADD PUSH1 0x40 MSTORE DUP2 ADD SWAP1 PUSH2 0x81 SWAP2 SWAP1 PUSH2 0xAB7 JUMP JUMPDEST DUP1 PUSH1 0x40 MLOAD DUP1 PUSH1 0x40 ADD PUSH1 0x40 MSTORE DUP1 PUSH1 0x9 DUP2 MSTORE PUSH1 0x20 ADD PUSH32 0x43686169546F6B656E0000000000000000000000000000000000000000000000 DUP2 MSTORE POP PUSH1 0x40 MLOAD DUP1 PUSH1 0x40 ADD PUSH1 0x40 MSTORE DUP1 PUSH1 0x4 DUP2 MSTORE PUSH1 0x20 ADD PUSH32 0x4368616900000000000000000000000000000000000000000000000000000000 DUP2 MSTORE POP DUP2 PUSH1 0x3 SWAP1 DUP2 PUSH2 0xFD SWAP2 SWAP1 PUSH2 0xD13 JUMP JUMPDEST POP DUP1 PUSH1 0x4 SWAP1 DUP2 PUSH2 0x10D SWAP2 SWAP1 PUSH2 0xD13 JUMP JUMPDEST POP POP POP PUSH0 PUSH20 0xFFFFFFFFFFFFFFFFFFFFFFFFFFFFFFFFFFFFFFFF AND DUP2 PUSH20 0xFFFFFFFFFFFFFFFFFFFFFFFFFFFFFFFFFFFFFFFF AND SUB PUSH2 0x180 JUMPI PUSH0 PUSH1 0x40 MLOAD PUSH32 0x1E4FBDF700000000000000000000000000000000000000000000000000000000 DUP2 MSTORE PUSH1 0x4 ADD PUSH2 0x177 SWAP2 SWAP1 PUSH2 0xDF1 JUMP JUMPDEST PUSH1 0x40 MLOAD DUP1 SWAP2 SUB SWAP1 REVERT JUMPDEST PUSH2 0x18F DUP2 PUSH2 0x205 PUSH1 0x20 SHL PUSH1 0x20 SHR JUMP JUMPDEST POP PUSH2 0x1A2 DUP2 PUSH1 0x6 SLOAD PUSH2 0x2C8 PUSH1 0x20 SHL PUSH1 0x20 SHR JUMP JUMPDEST PUSH1 0x1 PUSH1 0xA PUSH0 DUP4 PUSH20 0xFFFFFFFFFFFFFFFFFFFFFFFFFFFFFFFFFFFFFFFF AND PUSH20 0xFFFFFFFFFFFFFFFFFFFFFFFFFFFFFFFFFFFFFFFF AND DUP2 MSTORE PUSH1 0x20 ADD SWAP1 DUP2 MSTORE PUSH1 0x20 ADD PUSH0 KECCAK256 PUSH0 PUSH2 0x100 EXP DUP2 SLOAD DUP2 PUSH1 0xFF MUL NOT AND SWAP1 DUP4 ISZERO ISZERO MUL OR SWAP1 SSTORE POP POP PUSH2 0x1070 JUMP JUMPDEST PUSH0 PUSH1 0x12 SWAP1 POP SWAP1 JUMP JUMPDEST PUSH0 PUSH1 0x5 PUSH0 SWAP1 SLOAD SWAP1 PUSH2 0x100 EXP SWAP1 DIV PUSH20 0xFFFFFFFFFFFFFFFFFFFFFFFFFFFFFFFFFFFFFFFF AND SWAP1 POP DUP2 PUSH1 0x5 PUSH0 PUSH2 0x100 EXP DUP2 SLOAD DUP2 PUSH20 0xFFFFFFFFFFFFFFFFFFFFFFFFFFFFFFFFFFFFFFFF MUL NOT AND SWAP1 DUP4 PUSH20 0xFFFFFFFFFFFFFFFFFFFFFFFFFFFFFFFFFFFFFFFF AND MUL OR SWAP1 SSTORE POP DUP2 PUSH20 0xFFFFFFFFFFFFFFFFFFFFFFFFFFFFFFFFFFFFFFFF AND DUP2 PUSH20 0xFFFFFFFFFFFFFFFFFFFFFFFFFFFFFFFFFFFFFFFF AND PUSH32 0x8BE0079C531659141344CD1FD0A4F28419497F9722A3DAAFE3B4186F6B6457E0 PUSH1 0x40 MLOAD PUSH1 0x40 MLOAD DUP1 SWAP2 SUB SWAP1 LOG3 POP POP JUMP JUMPDEST PUSH0 PUSH20 0xFFFFFFFFFFFFFFFFFFFFFFFFFFFFFFFFFFFFFFFF AND DUP3 PUSH20 0xFFFFFFFFFFFFFFFFFFFFFFFFFFFFFFFFFFFFFFFF AND SUB PUSH2 0x338 JUMPI PUSH0 PUSH1 0x40 MLOAD PUSH32 0xEC442F0500000000000000000000000000000000000000000000000000000000 DUP2 MSTORE PUSH1 0x4 ADD PUSH2 0x32F SWAP2 SWAP1 PUSH2 0xDF1 JUMP JUMPDEST PUSH1 0x40 MLOAD DUP1 SWAP2 SUB SWAP1 REVERT JUMPDEST PUSH2 0x349 PUSH0 DUP4 DUP4 PUSH2 0x34D PUSH1 0x20 SHL PUSH1 0x20 SHR JUMP JUMPDEST POP POP JUMP JUMPDEST PUSH1 0x9 PUSH0 DUP5 PUSH20 0xFFFFFFFFFFFFFFFFFFFFFFFFFFFFFFFFFFFFFFFF AND PUSH20 0xFFFFFFFFFFFFFFFFFFFFFFFFFFFFFFFFFFFFFFFF AND DUP2 MSTORE PUSH1 0x20 ADD SWAP1 DUP2 MSTORE PUSH1 0x20 ADD PUSH0 KECCAK256 PUSH0 SWAP1 SLOAD SWAP1 PUSH2 0x100 EXP SWAP1 DIV PUSH1 0xFF AND ISZERO DUP1 ISZERO PUSH2 0x3EB JUMPI POP PUSH1 0x9 PUSH0 DUP4 PUSH20 0xFFFFFFFFFFFFFFFFFFFFFFFFFFFFFFFFFFFFFFFF AND PUSH20 0xFFFFFFFFFFFFFFFFFFFFFFFFFFFFFFFFFFFFFFFF AND DUP2 MSTORE PUSH1 0x20 ADD SWAP1 DUP2 MSTORE PUSH1 0x20 ADD PUSH0 KECCAK256 PUSH0 SWAP1 SLOAD SWAP1 PUSH2 0x100 EXP SWAP1 DIV PUSH1 0xFF AND ISZERO JUMPDEST PUSH2 0x42A JUMPI PUSH1 0x40 MLOAD PUSH32 0x8C379A000000000000000000000000000000000000000000000000000000000 DUP2 MSTORE PUSH1 0x4 ADD PUSH2 0x421 SWAP1 PUSH2 0xE64 JUMP JUMPDEST PUSH1 0x40 MLOAD DUP1 SWAP2 SUB SWAP1 REVERT JUMPDEST PUSH1 0xC PUSH0 SWAP1 SLOAD SWAP1 PUSH2 0x100 EXP SWAP1 DIV PUSH1 0xFF AND ISZERO PUSH2 0x51A JUMPI PUSH1 0xA PUSH0 DUP5 PUSH20 0xFFFFFFFFFFFFFFFFFFFFFFFFFFFFFFFFFFFFFFFF AND PUSH20 0xFFFFFFFFFFFFFFFFFFFFFFFFFFFFFFFFFFFFFFFF AND DUP2 MSTORE PUSH1 0x20 ADD SWAP1 DUP2 MSTORE PUSH1 0x20 ADD PUSH0 KECCAK256 PUSH0 SWAP1 SLOAD SWAP1 PUSH2 0x100 EXP SWAP1 DIV PUSH1 0xFF AND DUP1 ISZERO PUSH2 0x4DA JUMPI POP PUSH1 0xA PUSH0 DUP4 PUSH20 0xFFFFFFFFFFFFFFFFFFFFFFFFFFFFFFFFFFFFFFFF AND PUSH20 0xFFFFFFFFFFFFFFFFFFFFFFFFFFFFFFFFFFFFFFFF AND DUP2 MSTORE PUSH1 0x20 ADD SWAP1 DUP2 MSTORE PUSH1 0x20 ADD PUSH0 KECCAK256 PUSH0 SWAP1 SLOAD SWAP1 PUSH2 0x100 EXP SWAP1 DIV PUSH1 0xFF AND JUMPDEST PUSH2 0x519 JUMPI PUSH1 0x40 MLOAD PUSH32 0x8C379A000000000000000000000000000000000000000000000000000000000 DUP2 MSTORE PUSH1 0x4 ADD PUSH2 0x510 SWAP1 PUSH2 0xEF2 JUMP JUMPDEST PUSH1 0x40 MLOAD DUP1 SWAP2 SUB SWAP1 REVERT JUMPDEST JUMPDEST PUSH1 0x7 SLOAD DUP2 GT ISZERO PUSH2 0x55F JUMPI PUSH1 0x40 MLOAD PUSH32 0x8C379A000000000000000000000000000000000000000000000000000000000 DUP2 MSTORE PUSH1 0x4 ADD PUSH2 0x556 SWAP1 PUSH2 0xF5A JUMP JUMPDEST PUSH1 0x40 MLOAD DUP1 SWAP2 SUB SWAP1 REVERT JUMPDEST PUSH1 0x8 SLOAD PUSH1 0xB PUSH0 DUP6 PUSH20 0xFFFFFFFFFFFFFFFFFFFFFFFFFFFFFFFFFFFFFFFF AND PUSH20 0xFFFFFFFFFFFFFFFFFFFFFFFFFFFFFFFFFFFFFFFF AND DUP2 MSTORE PUSH1 0x20 ADD SWAP1 DUP2 MSTORE PUSH1 0x20 ADD PUSH0 KECCAK256 SLOAD PUSH2 0x5AA SWAP2 SWAP1 PUSH2 0xF78 JUMP JUMPDEST TIMESTAMP LT ISZERO PUSH2 0x5EC JUMPI PUSH1 0x40 MLOAD PUSH32 0x8C379A000000000000000000000000000000000000000000000000000000000 DUP2 MSTORE PUSH1 0x4 ADD PUSH2 0x5E3 SWAP1 PUSH2 0xFF5 JUMP JUMPDEST PUSH1 0x40 MLOAD DUP1 SWAP2 SUB SWAP1 REVERT JUMPDEST TIMESTAMP PUSH1 0xB PUSH0 DUP6 PUSH20 0xFFFFFFFFFFFFFFFFFFFFFFFFFFFFFFFFFFFFFFFF AND PUSH20 0xFFFFFFFFFFFFFFFFFFFFFFFFFFFFFFFFFFFFFFFF AND DUP2 MSTORE PUSH1 0x20 ADD SWAP1 DUP2 MSTORE PUSH1 0x20 ADD PUSH0 KECCAK256 DUP2 SWAP1 SSTORE POP PUSH2 0x63F DUP4 DUP4 DUP4 PUSH2 0x644 PUSH1 0x20 SHL PUSH1 0x20 SHR JUMP JUMPDEST POP POP POP JUMP JUMPDEST PUSH0 PUSH20 0xFFFFFFFFFFFFFFFFFFFFFFFFFFFFFFFFFFFFFFFF AND DUP4 PUSH20 0xFFFFFFFFFFFFFFFFFFFFFFFFFFFFFFFFFFFFFFFF AND SUB PUSH2 0x694 JUMPI DUP1 PUSH1 0x2 PUSH0 DUP3 DUP3 SLOAD PUSH2 0x688 SWAP2 SWAP1 PUSH2 0xF78 JUMP JUMPDEST SWAP3 POP POP DUP2 SWAP1 SSTORE POP PUSH2 0x762 JUMP JUMPDEST PUSH0 DUP1 PUSH0 DUP6 PUSH20 0xFFFFFFFFFFFFFFFFFFFFFFFFFFFFFFFFFFFFFFFF AND PUSH20 0xFFFFFFFFFFFFFFFFFFFFFFFFFFFFFFFFFFFFFFFF AND DUP2 MSTORE PUSH1 0x20 ADD SWAP1 DUP2 MSTORE PUSH1 0x20 ADD PUSH0 KECCAK256 SLOAD SWAP1 POP DUP2 DUP2 LT ISZERO PUSH2 0x71D JUMPI DUP4 DUP2 DUP4 PUSH1 0x40 MLOAD PUSH32 0xE450D38C00000000000000000000000000000000000000000000000000000000 DUP2 MSTORE PUSH1 0x4 ADD PUSH2 0x714 SWAP4 SWAP3 SWAP2 SWAP1 PUSH2 0x1022 JUMP JUMPDEST PUSH1 0x40 MLOAD DUP1 SWAP2 SUB SWAP1 REVERT JUMPDEST DUP2 DUP2 SUB PUSH0 DUP1 DUP7 PUSH20 0xFFFFFFFFFFFFFFFFFFFFFFFFFFFFFFFFFFFFFFFF AND PUSH20 0xFFFFFFFFFFFFFFFFFFFFFFFFFFFFFFFFFFFFFFFF AND DUP2 MSTORE PUSH1 0x20 ADD SWAP1 DUP2 MSTORE PUSH1 0x20 ADD PUSH0 KECCAK256 DUP2 SWAP1 SSTORE POP POP JUMPDEST PUSH0 PUSH20 0xFFFFFFFFFFFFFFFFFFFFFFFFFFFFFFFFFFFFFFFF AND DUP3 PUSH20 0xFFFFFFFFFFFFFFFFFFFFFFFFFFFFFFFFFFFFFFFF AND SUB PUSH2 0x7A9 JUMPI DUP1 PUSH1 0x2 PUSH0 DUP3 DUP3 SLOAD SUB SWAP3 POP POP DUP2 SWAP1 SSTORE POP PUSH2 0x7F3 JUMP JUMPDEST DUP1 PUSH0 DUP1 DUP5 PUSH20 0xFFFFFFFFFFFFFFFFFFFFFFFFFFFFFFFFFFFFFFFF AND PUSH20 0xFFFFFFFFFFFFFFFFFFFFFFFFFFFFFFFFFFFFFFFF AND DUP2 MSTORE PUSH1 0x20 ADD SWAP1 DUP2 MSTORE PUSH1 0x20 ADD PUSH0 KECCAK256 PUSH0 DUP3 DUP3 SLOAD ADD SWAP3 POP POP DUP2 SWAP1 SSTORE POP JUMPDEST DUP2 PUSH20 0xFFFFFFFFFFFFFFFFFFFFFFFFFFFFFFFFFFFFFFFF AND DUP4 PUSH20 0xFFFFFFFFFFFFFFFFFFFFFFFFFFFFFFFFFFFFFFFF AND PUSH32 0xDDF252AD1BE2C89B69C2B068FC378DAA952BA7F163C4A11628F55A4DF523B3EF DUP4 PUSH1 0x40 MLOAD PUSH2 0x850 SWAP2 SWAP1 PUSH2 0x1057 JUMP JUMPDEST PUSH1 0x40 MLOAD DUP1 SWAP2 SUB SWAP1 LOG3 POP POP POP JUMP JUMPDEST PUSH32 0x4E487B7100000000000000000000000000000000000000000000000000000000 PUSH0 MSTORE PUSH1 0x11 PUSH1 0x4 MSTORE PUSH1 0x24 PUSH0 REVERT JUMPDEST PUSH0 DUP2 PUSH1 0x1 SHR SWAP1 POP SWAP2 SWAP1 POP JUMP JUMPDEST PUSH0 DUP1 DUP3 SWAP2 POP DUP4 SWAP1 POP JUMPDEST PUSH1 0x1 DUP6 GT ISZERO PUSH2 0x8DF JUMPI DUP1 DUP7 DIV DUP2 GT ISZERO PUSH2 0x8BB JUMPI PUSH2 0x8BA PUSH2 0x85D JUMP JUMPDEST JUMPDEST PUSH1 0x1 DUP6 AND ISZERO PUSH2 0x8CA JUMPI DUP1 DUP3 MUL SWAP2 POP JUMPDEST DUP1 DUP2 MUL SWAP1 POP PUSH2 0x8D8 DUP6 PUSH2 0x88A JUMP JUMPDEST SWAP5 POP PUSH2 0x89F JUMP JUMPDEST SWAP5 POP SWAP5 SWAP3 POP POP POP JUMP JUMPDEST PUSH0 DUP3 PUSH2 0x8F7 JUMPI PUSH1 0x1 SWAP1 POP PUSH2 0x9B2 JUMP JUMPDEST DUP2 PUSH2 0x904 JUMPI PUSH0 SWAP1 POP PUSH2 0x9B2 JUMP JUMPDEST DUP2 PUSH1 0x1 DUP2 EQ PUSH2 0x91A JUMPI PUSH1 0x2 DUP2 EQ PUSH2 0x924 JUMPI PUSH2 0x953 JUMP JUMPDEST PUSH1 0x1 SWAP2 POP POP PUSH2 0x9B2 JUMP JUMPDEST PUSH1 0xFF DUP5 GT ISZERO PUSH2 0x936 JUMPI PUSH2 0x935 PUSH2 0x85D JUMP JUMPDEST JUMPDEST DUP4 PUSH1 0x2 EXP SWAP2 POP DUP5 DUP3 GT ISZERO PUSH2 0x94D JUMPI PUSH2 0x94C PUSH2 0x85D JUMP JUMPDEST JUMPDEST POP PUSH2 0x9B2 JUMP JUMPDEST POP PUSH1 0x20 DUP4 LT PUSH2 0x133 DUP4 LT AND PUSH1 0x4E DUP5 LT PUSH1 0xB DUP5 LT AND OR ISZERO PUSH2 0x988 JUMPI DUP3 DUP3 EXP SWAP1 POP DUP4 DUP2 GT ISZERO PUSH2 0x983 JUMPI PUSH2 0x982 PUSH2 0x85D JUMP JUMPDEST JUMPDEST PUSH2 0x9B2 JUMP JUMPDEST PUSH2 0x995 DUP5 DUP5 DUP5 PUSH1 0x1 PUSH2 0x896 JUMP JUMPDEST SWAP3 POP SWAP1 POP DUP2 DUP5 DIV DUP2 GT ISZERO PUSH2 0x9AC JUMPI PUSH2 0x9AB PUSH2 0x85D JUMP JUMPDEST JUMPDEST DUP2 DUP2 MUL SWAP1 POP JUMPDEST SWAP4 SWAP3 POP POP POP JUMP JUMPDEST PUSH0 DUP2 SWAP1 POP SWAP2 SWAP1 POP JUMP JUMPDEST PUSH0 PUSH1 0xFF DUP3 AND SWAP1 POP SWAP2 SWAP1 POP JUMP JUMPDEST PUSH0 PUSH2 0x9D8 DUP3 PUSH2 0x9B9 JUMP JUMPDEST SWAP2 POP PUSH2 0x9E3 DUP4 PUSH2 0x9C2 JUMP JUMPDEST SWAP3 POP PUSH2 0xA10 PUSH32 0xFFFFFFFFFFFFFFFFFFFFFFFFFFFFFFFFFFFFFFFFFFFFFFFFFFFFFFFFFFFFFFFF DUP5 DUP5 PUSH2 0x8E8 JUMP JUMPDEST SWAP1 POP SWAP3 SWAP2 POP POP JUMP JUMPDEST PUSH0 PUSH2 0xA22 DUP3 PUSH2 0x9B9 JUMP JUMPDEST SWAP2 POP PUSH2 0xA2D DUP4 PUSH2 0x9B9 JUMP JUMPDEST SWAP3 POP DUP3 DUP3 MUL PUSH2 0xA3B DUP2 PUSH2 0x9B9 JUMP JUMPDEST SWAP2 POP DUP3 DUP3 DIV DUP5 EQ DUP4 ISZERO OR PUSH2 0xA52 JUMPI PUSH2 0xA51 PUSH2 0x85D JUMP JUMPDEST JUMPDEST POP SWAP3 SWAP2 POP POP JUMP JUMPDEST PUSH0 DUP1 REVERT JUMPDEST PUSH0 PUSH20 0xFFFFFFFFFFFFFFFFFFFFFFFFFFFFFFFFFFFFFFFF DUP3 AND SWAP1 POP SWAP2 SWAP1 POP JUMP JUMPDEST PUSH0 PUSH2 0xA86 DUP3 PUSH2 0xA5D JUMP JUMPDEST SWAP1 POP SWAP2 SWAP1 POP JUMP JUMPDEST PUSH2 0xA96 DUP2 PUSH2 0xA7C JUMP JUMPDEST DUP2 EQ PUSH2 0xAA0 JUMPI PUSH0 DUP1 REVERT JUMPDEST POP JUMP JUMPDEST PUSH0 DUP2 MLOAD SWAP1 POP PUSH2 0xAB1 DUP2 PUSH2 0xA8D JUMP JUMPDEST SWAP3 SWAP2 POP POP JUMP JUMPDEST PUSH0 PUSH1 0x20 DUP3 DUP5 SUB SLT ISZERO PUSH2 0xACC JUMPI PUSH2 0xACB PUSH2 0xA59 JUMP JUMPDEST JUMPDEST PUSH0 PUSH2 0xAD9 DUP5 DUP3 DUP6 ADD PUSH2 0xAA3 JUMP JUMPDEST SWAP2 POP POP SWAP3 SWAP2 POP POP JUMP JUMPDEST PUSH0 DUP2 MLOAD SWAP1 POP SWAP2 SWAP1 POP JUMP JUMPDEST PUSH32 0x4E487B7100000000000000000000000000000000000000000000000000000000 PUSH0 MSTORE PUSH1 0x41 PUSH1 0x4 MSTORE PUSH1 0x24 PUSH0 REVERT JUMPDEST PUSH32 0x4E487B7100000000000000000000000000000000000000000000000000000000 PUSH0 MSTORE PUSH1 0x22 PUSH1 0x4 MSTORE PUSH1 0x24 PUSH0 REVERT JUMPDEST PUSH0 PUSH1 0x2 DUP3 DIV SWAP1 POP PUSH1 0x1 DUP3 AND DUP1 PUSH2 0xB5D JUMPI PUSH1 0x7F DUP3 AND SWAP2 POP JUMPDEST PUSH1 0x20 DUP3 LT DUP2 SUB PUSH2 0xB70 JUMPI PUSH2 0xB6F PUSH2 0xB19 JUMP JUMPDEST JUMPDEST POP SWAP2 SWAP1 POP JUMP JUMPDEST PUSH0 DUP2 SWAP1 POP DUP2 PUSH0 MSTORE PUSH1 0x20 PUSH0 KECCAK256 SWAP1 POP SWAP2 SWAP1 POP JUMP JUMPDEST PUSH0 PUSH1 0x20 PUSH1 0x1F DUP4 ADD DIV SWAP1 POP SWAP2 SWAP1 POP JUMP JUMPDEST PUSH0 DUP3 DUP3 SHL SWAP1 POP SWAP3 SWAP2 POP POP JUMP JUMPDEST PUSH0 PUSH1 0x8 DUP4 MUL PUSH2 0xBD2 PUSH32 0xFFFFFFFFFFFFFFFFFFFFFFFFFFFFFFFFFFFFFFFFFFFFFFFFFFFFFFFFFFFFFFFF DUP3 PUSH2 0xB97 JUMP JUMPDEST PUSH2 0xBDC DUP7 DUP4 PUSH2 0xB97 JUMP JUMPDEST SWAP6 POP DUP1 NOT DUP5 AND SWAP4 POP DUP1 DUP7 AND DUP5 OR SWAP3 POP POP POP SWAP4 SWAP3 POP POP POP JUMP JUMPDEST PUSH0 DUP2 SWAP1 POP SWAP2 SWAP1 POP JUMP JUMPDEST PUSH0 PUSH2 0xC17 PUSH2 0xC12 PUSH2 0xC0D DUP5 PUSH2 0x9B9 JUMP JUMPDEST PUSH2 0xBF4 JUMP JUMPDEST PUSH2 0x9B9 JUMP JUMPDEST SWAP1 POP SWAP2 SWAP1 POP JUMP JUMPDEST PUSH0 DUP2 SWAP1 POP SWAP2 SWAP1 POP JUMP JUMPDEST PUSH2 0xC30 DUP4 PUSH2 0xBFD JUMP JUMPDEST PUSH2 0xC44 PUSH2 0xC3C DUP3 PUSH2 0xC1E JUMP JUMPDEST DUP5 DUP5 SLOAD PUSH2 0xBA3 JUMP JUMPDEST DUP3 SSTORE POP POP POP POP JUMP JUMPDEST PUSH0 SWAP1 JUMP JUMPDEST PUSH2 0xC58 PUSH2 0xC4C JUMP JUMPDEST PUSH2 0xC63 DUP2 DUP5 DUP5 PUSH2 0xC27 JUMP JUMPDEST POP POP POP JUMP JUMPDEST JUMPDEST DUP2 DUP2 LT ISZERO PUSH2 0xC86 JUMPI PUSH2 0xC7B PUSH0 DUP3 PUSH2 0xC50 JUMP JUMPDEST PUSH1 0x1 DUP2 ADD SWAP1 POP PUSH2 0xC69 JUMP JUMPDEST POP POP JUMP JUMPDEST PUSH1 0x1F DUP3 GT ISZERO PUSH2 0xCCB JUMPI PUSH2 0xC9C DUP2 PUSH2 0xB76 JUMP JUMPDEST PUSH2 0xCA5 DUP5 PUSH2 0xB88 JUMP JUMPDEST DUP2 ADD PUSH1 0x20 DUP6 LT ISZERO PUSH2 0xCB4 JUMPI DUP2 SWAP1 POP JUMPDEST PUSH2 0xCC8 PUSH2 0xCC0 DUP6 PUSH2 0xB88 JUMP JUMPDEST DUP4 ADD DUP3 PUSH2 0xC68 JUMP JUMPDEST POP POP JUMPDEST POP POP POP JUMP JUMPDEST PUSH0 DUP3 DUP3 SHR SWAP1 POP SWAP3 SWAP2 POP POP JUMP JUMPDEST PUSH0 PUSH2 0xCEB PUSH0 NOT DUP5 PUSH1 0x8 MUL PUSH2 0xCD0 JUMP JUMPDEST NOT DUP1 DUP4 AND SWAP2 POP POP SWAP3 SWAP2 POP POP JUMP JUMPDEST PUSH0 PUSH2 0xD03 DUP4 DUP4 PUSH2 0xCDC JUMP JUMPDEST SWAP2 POP DUP3 PUSH1 0x2 MUL DUP3 OR SWAP1 POP SWAP3 SWAP2 POP POP JUMP JUMPDEST PUSH2 0xD1C DUP3 PUSH2 0xAE2 JUMP JUMPDEST PUSH8 0xFFFFFFFFFFFFFFFF DUP2 GT ISZERO PUSH2 0xD35 JUMPI PUSH2 0xD34 PUSH2 0xAEC JUMP JUMPDEST JUMPDEST PUSH2 0xD3F DUP3 SLOAD PUSH2 0xB46 JUMP JUMPDEST PUSH2 0xD4A DUP3 DUP3 DUP6 PUSH2 0xC8A JUMP JUMPDEST PUSH0 PUSH1 0x20 SWAP1 POP PUSH1 0x1F DUP4 GT PUSH1 0x1 DUP2 EQ PUSH2 0xD7B JUMPI PUSH0 DUP5 ISZERO PUSH2 0xD69 JUMPI DUP3 DUP8 ADD MLOAD SWAP1 POP JUMPDEST PUSH2 0xD73 DUP6 DUP3 PUSH2 0xCF8 JUMP JUMPDEST DUP7 SSTORE POP PUSH2 0xDDA JUMP JUMPDEST PUSH1 0x1F NOT DUP5 AND PUSH2 0xD89 DUP7 PUSH2 0xB76 JUMP JUMPDEST PUSH0 JUMPDEST DUP3 DUP2 LT ISZERO PUSH2 0xDB0 JUMPI DUP5 DUP10 ADD MLOAD DUP3 SSTORE PUSH1 0x1 DUP3 ADD SWAP2 POP PUSH1 0x20 DUP6 ADD SWAP5 POP PUSH1 0x20 DUP2 ADD SWAP1 POP PUSH2 0xD8B JUMP JUMPDEST DUP7 DUP4 LT ISZERO PUSH2 0xDCD JUMPI DUP5 DUP10 ADD MLOAD PUSH2 0xDC9 PUSH1 0x1F DUP10 AND DUP3 PUSH2 0xCDC JUMP JUMPDEST DUP4 SSTORE POP JUMPDEST PUSH1 0x1 PUSH1 0x2 DUP9 MUL ADD DUP9 SSTORE POP POP POP JUMPDEST POP POP POP POP POP POP JUMP JUMPDEST PUSH2 0xDEB DUP2 PUSH2 0xA7C JUMP JUMPDEST DUP3 MSTORE POP POP JUMP JUMPDEST PUSH0 PUSH1 0x20 DUP3 ADD SWAP1 POP PUSH2 0xE04 PUSH0 DUP4 ADD DUP5 PUSH2 0xDE2 JUMP JUMPDEST SWAP3 SWAP2 POP POP JUMP JUMPDEST PUSH0 DUP3 DUP3 MSTORE PUSH1 0x20 DUP3 ADD SWAP1 POP SWAP3 SWAP2 POP POP JUMP JUMPDEST PUSH32 0x426C61636B6C6973746564204164647265737365730000000000000000000000 PUSH0 DUP3 ADD MSTORE POP JUMP JUMPDEST PUSH0 PUSH2 0xE4E PUSH1 0x15 DUP4 PUSH2 0xE0A JUMP JUMPDEST SWAP2 POP PUSH2 0xE59 DUP3 PUSH2 0xE1A JUMP JUMPDEST PUSH1 0x20 DUP3 ADD SWAP1 POP SWAP2 SWAP1 POP JUMP JUMPDEST PUSH0 PUSH1 0x20 DUP3 ADD SWAP1 POP DUP2 DUP2 SUB PUSH0 DUP4 ADD MSTORE PUSH2 0xE7B DUP2 PUSH2 0xE42 JUMP JUMPDEST SWAP1 POP SWAP2 SWAP1 POP JUMP JUMPDEST PUSH32 0x426F746820616464726573736573206D7573742062652077686974656C697374 PUSH0 DUP3 ADD MSTORE PUSH32 0x6564000000000000000000000000000000000000000000000000000000000000 PUSH1 0x20 DUP3 ADD MSTORE POP JUMP JUMPDEST PUSH0 PUSH2 0xEDC PUSH1 0x22 DUP4 PUSH2 0xE0A JUMP JUMPDEST SWAP2 POP PUSH2 0xEE7 DUP3 PUSH2 0xE82 JUMP JUMPDEST PUSH1 0x40 DUP3 ADD SWAP1 POP SWAP2 SWAP1 POP JUMP JUMPDEST PUSH0 PUSH1 0x20 DUP3 ADD SWAP1 POP DUP2 DUP2 SUB PUSH0 DUP4 ADD MSTORE PUSH2 0xF09 DUP2 PUSH2 0xED0 JUMP JUMPDEST SWAP1 POP SWAP2 SWAP1 POP JUMP JUMPDEST PUSH32 0x546F6B656E205472616E73666572204C696D6974204578636565646564000000 PUSH0 DUP3 ADD MSTORE POP JUMP JUMPDEST PUSH0 PUSH2 0xF44 PUSH1 0x1D DUP4 PUSH2 0xE0A JUMP JUMPDEST SWAP2 POP PUSH2 0xF4F DUP3 PUSH2 0xF10 JUMP JUMPDEST PUSH1 0x20 DUP3 ADD SWAP1 POP SWAP2 SWAP1 POP JUMP JUMPDEST PUSH0 PUSH1 0x20 DUP3 ADD SWAP1 POP DUP2 DUP2 SUB PUSH0 DUP4 ADD MSTORE PUSH2 0xF71 DUP2 PUSH2 0xF38 JUMP JUMPDEST SWAP1 POP SWAP2 SWAP1 POP JUMP JUMPDEST PUSH0 PUSH2 0xF82 DUP3 PUSH2 0x9B9 JUMP JUMPDEST SWAP2 POP PUSH2 0xF8D DUP4 PUSH2 0x9B9 JUMP JUMPDEST SWAP3 POP DUP3 DUP3 ADD SWAP1 POP DUP1 DUP3 GT ISZERO PUSH2 0xFA5 JUMPI PUSH2 0xFA4 PUSH2 0x85D JUMP JUMPDEST JUMPDEST SWAP3 SWAP2 POP POP JUMP JUMPDEST PUSH32 0x546F6B656E205472616E7366657220696E20636F6F6C646F776E000000000000 PUSH0 DUP3 ADD MSTORE POP JUMP JUMPDEST PUSH0 PUSH2 0xFDF PUSH1 0x1A DUP4 PUSH2 0xE0A JUMP JUMPDEST SWAP2 POP PUSH2 0xFEA DUP3 PUSH2 0xFAB JUMP JUMPDEST PUSH1 0x20 DUP3 ADD SWAP1 POP SWAP2 SWAP1 POP JUMP JUMPDEST PUSH0 PUSH1 0x20 DUP3 ADD SWAP1 POP DUP2 DUP2 SUB PUSH0 DUP4 ADD MSTORE PUSH2 0x100C DUP2 PUSH2 0xFD3 JUMP JUMPDEST SWAP1 POP SWAP2 SWAP1 POP JUMP JUMPDEST PUSH2 0x101C DUP2 PUSH2 0x9B9 JUMP JUMPDEST DUP3 MSTORE POP POP JUMP JUMPDEST PUSH0 PUSH1 0x60 DUP3 ADD SWAP1 POP PUSH2 0x1035 PUSH0 DUP4 ADD DUP7 PUSH2 0xDE2 JUMP JUMPDEST PUSH2 0x1042 PUSH1 0x20 DUP4 ADD DUP6 PUSH2 0x1013 JUMP JUMPDEST PUSH2 0x104F PUSH1 0x40 DUP4 ADD DUP5 PUSH2 0x1013 JUMP JUMPDEST SWAP5 SWAP4 POP POP POP POP JUMP JUMPDEST PUSH0 PUSH1 0x20 DUP3 ADD SWAP1 POP PUSH2 0x106A PUSH0 DUP4 ADD DUP5 PUSH2 0x1013 JUMP JUMPDEST SWAP3 SWAP2 POP POP JUMP JUMPDEST PUSH2 0x1C76 DUP1 PUSH2 0x107D PUSH0 CODECOPY PUSH0 RETURN INVALID PUSH1 0x80 PUSH1 0x40 MSTORE CALLVALUE DUP1 ISZERO PUSH2 0xF JUMPI PUSH0 DUP1 REVERT JUMPDEST POP PUSH1 0x4 CALLDATASIZE LT PUSH2 0x1A7 JUMPI PUSH0 CALLDATALOAD PUSH1 0xE0 SHR DUP1 PUSH4 0x70A08231 GT PUSH2 0xF7 JUMPI DUP1 PUSH4 0xA9059CBB GT PUSH2 0x95 JUMPI DUP1 PUSH4 0xE43252D7 GT PUSH2 0x6F JUMPI DUP1 PUSH4 0xE43252D7 EQ PUSH2 0x488 JUMPI DUP1 PUSH4 0xEC28438A EQ PUSH2 0x4A4 JUMPI DUP1 PUSH4 0xF2FDE38B EQ PUSH2 0x4C0 JUMPI DUP1 PUSH4 0xFE575A87 EQ PUSH2 0x4DC JUMPI PUSH2 0x1A7 JUMP JUMPDEST DUP1 PUSH4 0xA9059CBB EQ PUSH2 0x40A JUMPI DUP1 PUSH4 0xB319C6B7 EQ PUSH2 0x43A JUMPI DUP1 PUSH4 0xDD62ED3E EQ PUSH2 0x458 JUMPI PUSH2 0x1A7 JUMP JUMPDEST DUP1 PUSH4 0x8C0B5E22 GT PUSH2 0xD1 JUMPI DUP1 PUSH4 0x8C0B5E22 EQ PUSH2 0x38F JUMPI DUP1 PUSH4 0x8DA5CB5B EQ PUSH2 0x3AD JUMPI DUP1 PUSH4 0x95D89B41 EQ PUSH2 0x3CB JUMPI DUP1 PUSH4 0x9DFC9117 EQ PUSH2 0x3E9 JUMPI PUSH2 0x1A7 JUMP JUMPDEST DUP1 PUSH4 0x70A08231 EQ PUSH2 0x339 JUMPI DUP1 PUSH4 0x715018A6 EQ PUSH2 0x369 JUMPI DUP1 PUSH4 0x8AB1D681 EQ PUSH2 0x373 JUMPI PUSH2 0x1A7 JUMP JUMPDEST DUP1 PUSH4 0x313CE567 GT PUSH2 0x164 JUMPI DUP1 PUSH4 0x537DF3B6 GT PUSH2 0x13E JUMPI DUP1 PUSH4 0x537DF3B6 EQ PUSH2 0x2D9 JUMPI DUP1 PUSH4 0x688188E8 EQ PUSH2 0x2F5 JUMPI DUP1 PUSH4 0x6D8B0527 EQ PUSH2 0x2FF JUMPI DUP1 PUSH4 0x6E16DE11 EQ PUSH2 0x31D JUMPI PUSH2 0x1A7 JUMP JUMPDEST DUP1 PUSH4 0x313CE567 EQ PUSH2 0x26F JUMPI DUP1 PUSH4 0x3AF32ABF EQ PUSH2 0x28D JUMPI DUP1 PUSH4 0x44337EA1 EQ PUSH2 0x2BD JUMPI PUSH2 0x1A7 JUMP JUMPDEST DUP1 PUSH4 0x6FDDE03 EQ PUSH2 0x1AB JUMPI DUP1 PUSH4 0x95EA7B3 EQ PUSH2 0x1C9 JUMPI DUP1 PUSH4 0x18160DDD EQ PUSH2 0x1F9 JUMPI DUP1 PUSH4 0x1C0AECFA EQ PUSH2 0x217 JUMPI DUP1 PUSH4 0x23B872DD EQ PUSH2 0x235 JUMPI DUP1 PUSH4 0x2958AD7F EQ PUSH2 0x265 JUMPI JUMPDEST PUSH0 DUP1 REVERT JUMPDEST PUSH2 0x1B3 PUSH2 0x50C JUMP JUMPDEST PUSH1 0x40 MLOAD PUSH2 0x1C0 SWAP2 SWAP1 PUSH2 0x162D JUMP JUMPDEST PUSH1 0x40 MLOAD DUP1 SWAP2 SUB SWAP1 RETURN JUMPDEST PUSH2 0x1E3 PUSH1 0x4 DUP1 CALLDATASIZE SUB DUP2 ADD SWAP1 PUSH2 0x1DE SWAP2 SWAP1 PUSH2 0x16DE JUMP JUMPDEST PUSH2 0x59C JUMP JUMPDEST PUSH1 0x40 MLOAD PUSH2 0x1F0 SWAP2 SWAP1 PUSH2 0x1736 JUMP JUMPDEST PUSH1 0x40 MLOAD DUP1 SWAP2 SUB SWAP1 RETURN JUMPDEST PUSH2 0x201 PUSH2 0x5BE JUMP JUMPDEST PUSH1 0x40 MLOAD PUSH2 0x20E SWAP2 SWAP1 PUSH2 0x175E JUMP JUMPDEST PUSH1 0x40 MLOAD DUP1 SWAP2 SUB SWAP1 RETURN JUMPDEST PUSH2 0x21F PUSH2 0x5C7 JUMP JUMPDEST PUSH1 0x40 MLOAD PUSH2 0x22C SWAP2 SWAP1 PUSH2 0x1736 JUMP JUMPDEST PUSH1 0x40 MLOAD DUP1 SWAP2 SUB SWAP1 RETURN JUMPDEST PUSH2 0x24F PUSH1 0x4 DUP1 CALLDATASIZE SUB DUP2 ADD SWAP1 PUSH2 0x24A SWAP2 SWAP1 PUSH2 0x1777 JUMP JUMPDEST PUSH2 0x5DC JUMP JUMPDEST PUSH1 0x40 MLOAD PUSH2 0x25C SWAP2 SWAP1 PUSH2 0x1736 JUMP JUMPDEST PUSH1 0x40 MLOAD DUP1 SWAP2 SUB SWAP1 RETURN JUMPDEST PUSH2 0x26D PUSH2 0x60A JUMP JUMPDEST STOP JUMPDEST PUSH2 0x277 PUSH2 0x62E JUMP JUMPDEST PUSH1 0x40 MLOAD PUSH2 0x284 SWAP2 SWAP1 PUSH2 0x17E2 JUMP JUMPDEST PUSH1 0x40 MLOAD DUP1 SWAP2 SUB SWAP1 RETURN JUMPDEST PUSH2 0x2A7 PUSH1 0x4 DUP1 CALLDATASIZE SUB DUP2 ADD SWAP1 PUSH2 0x2A2 SWAP2 SWAP1 PUSH2 0x17FB JUMP JUMPDEST PUSH2 0x636 JUMP JUMPDEST PUSH1 0x40 MLOAD PUSH2 0x2B4 SWAP2 SWAP1 PUSH2 0x1736 JUMP JUMPDEST PUSH1 0x40 MLOAD DUP1 SWAP2 SUB SWAP1 RETURN JUMPDEST PUSH2 0x2D7 PUSH1 0x4 DUP1 CALLDATASIZE SUB DUP2 ADD SWAP1 PUSH2 0x2D2 SWAP2 SWAP1 PUSH2 0x17FB JUMP JUMPDEST PUSH2 0x688 JUMP JUMPDEST STOP JUMPDEST PUSH2 0x2F3 PUSH1 0x4 DUP1 CALLDATASIZE SUB DUP2 ADD SWAP1 PUSH2 0x2EE SWAP2 SWAP1 PUSH2 0x17FB JUMP JUMPDEST PUSH2 0x73C JUMP JUMPDEST STOP JUMPDEST PUSH2 0x2FD PUSH2 0x79B JUMP JUMPDEST STOP JUMPDEST PUSH2 0x307 PUSH2 0x7BE JUMP JUMPDEST PUSH1 0x40 MLOAD PUSH2 0x314 SWAP2 SWAP1 PUSH2 0x175E JUMP JUMPDEST PUSH1 0x40 MLOAD DUP1 SWAP2 SUB SWAP1 RETURN JUMPDEST PUSH2 0x337 PUSH1 0x4 DUP1 CALLDATASIZE SUB DUP2 ADD SWAP1 PUSH2 0x332 SWAP2 SWAP1 PUSH2 0x1826 JUMP JUMPDEST PUSH2 0x7C7 JUMP JUMPDEST STOP JUMPDEST PUSH2 0x353 PUSH1 0x4 DUP1 CALLDATASIZE SUB DUP2 ADD SWAP1 PUSH2 0x34E SWAP2 SWAP1 PUSH2 0x17FB JUMP JUMPDEST PUSH2 0x7D9 JUMP JUMPDEST PUSH1 0x40 MLOAD PUSH2 0x360 SWAP2 SWAP1 PUSH2 0x175E JUMP JUMPDEST PUSH1 0x40 MLOAD DUP1 SWAP2 SUB SWAP1 RETURN JUMPDEST PUSH2 0x371 PUSH2 0x81E JUMP JUMPDEST STOP JUMPDEST PUSH2 0x38D PUSH1 0x4 DUP1 CALLDATASIZE SUB DUP2 ADD SWAP1 PUSH2 0x388 SWAP2 SWAP1 PUSH2 0x17FB JUMP JUMPDEST PUSH2 0x830 JUMP JUMPDEST STOP JUMPDEST PUSH2 0x397 PUSH2 0x88F JUMP JUMPDEST PUSH1 0x40 MLOAD PUSH2 0x3A4 SWAP2 SWAP1 PUSH2 0x175E JUMP JUMPDEST PUSH1 0x40 MLOAD DUP1 SWAP2 SUB SWAP1 RETURN JUMPDEST PUSH2 0x3B5 PUSH2 0x895 JUMP JUMPDEST PUSH1 0x40 MLOAD PUSH2 0x3C2 SWAP2 SWAP1 PUSH2 0x1860 JUMP JUMPDEST PUSH1 0x40 MLOAD DUP1 SWAP2 SUB SWAP1 RETURN JUMPDEST PUSH2 0x3D3 PUSH2 0x8BD JUMP JUMPDEST PUSH1 0x40 MLOAD PUSH2 0x3E0 SWAP2 SWAP1 PUSH2 0x162D JUMP JUMPDEST PUSH1 0x40 MLOAD DUP1 SWAP2 SUB SWAP1 RETURN JUMPDEST PUSH2 0x3F1 PUSH2 0x94D JUMP JUMPDEST PUSH1 0x40 MLOAD PUSH2 0x401 SWAP5 SWAP4 SWAP3 SWAP2 SWAP1 PUSH2 0x1879 JUMP JUMPDEST PUSH1 0x40 MLOAD DUP1 SWAP2 SUB SWAP1 RETURN JUMPDEST PUSH2 0x424 PUSH1 0x4 DUP1 CALLDATASIZE SUB DUP2 ADD SWAP1 PUSH2 0x41F SWAP2 SWAP1 PUSH2 0x16DE JUMP JUMPDEST PUSH2 0x970 JUMP JUMPDEST PUSH1 0x40 MLOAD PUSH2 0x431 SWAP2 SWAP1 PUSH2 0x1736 JUMP JUMPDEST PUSH1 0x40 MLOAD DUP1 SWAP2 SUB SWAP1 RETURN JUMPDEST PUSH2 0x442 PUSH2 0x992 JUMP JUMPDEST PUSH1 0x40 MLOAD PUSH2 0x44F SWAP2 SWAP1 PUSH2 0x175E JUMP JUMPDEST PUSH1 0x40 MLOAD DUP1 SWAP2 SUB SWAP1 RETURN JUMPDEST PUSH2 0x472 PUSH1 0x4 DUP1 CALLDATASIZE SUB DUP2 ADD SWAP1 PUSH2 0x46D SWAP2 SWAP1 PUSH2 0x18BC JUMP JUMPDEST PUSH2 0x998 JUMP JUMPDEST PUSH1 0x40 MLOAD PUSH2 0x47F SWAP2 SWAP1 PUSH2 0x175E JUMP JUMPDEST PUSH1 0x40 MLOAD DUP1 SWAP2 SUB SWAP1 RETURN JUMPDEST PUSH2 0x4A2 PUSH1 0x4 DUP1 CALLDATASIZE SUB DUP2 ADD SWAP1 PUSH2 0x49D SWAP2 SWAP1 PUSH2 0x17FB JUMP JUMPDEST PUSH2 0xA1A JUMP JUMPDEST STOP JUMPDEST PUSH2 0x4BE PUSH1 0x4 DUP1 CALLDATASIZE SUB DUP2 ADD SWAP1 PUSH2 0x4B9 SWAP2 SWAP1 PUSH2 0x1826 JUMP JUMPDEST PUSH2 0xB04 JUMP JUMPDEST STOP JUMPDEST PUSH2 0x4DA PUSH1 0x4 DUP1 CALLDATASIZE SUB DUP2 ADD SWAP1 PUSH2 0x4D5 SWAP2 SWAP1 PUSH2 0x17FB JUMP JUMPDEST PUSH2 0xB16 JUMP JUMPDEST STOP JUMPDEST PUSH2 0x4F6 PUSH1 0x4 DUP1 CALLDATASIZE SUB DUP2 ADD SWAP1 PUSH2 0x4F1 SWAP2 SWAP1 PUSH2 0x17FB JUMP JUMPDEST PUSH2 0xB9A JUMP JUMPDEST PUSH1 0x40 MLOAD PUSH2 0x503 SWAP2 SWAP1 PUSH2 0x1736 JUMP JUMPDEST PUSH1 0x40 MLOAD DUP1 SWAP2 SUB SWAP1 RETURN JUMPDEST PUSH1 0x60 PUSH1 0x3 DUP1 SLOAD PUSH2 0x51B SWAP1 PUSH2 0x1927 JUMP JUMPDEST DUP1 PUSH1 0x1F ADD PUSH1 0x20 DUP1 SWAP2 DIV MUL PUSH1 0x20 ADD PUSH1 0x40 MLOAD SWAP1 DUP2 ADD PUSH1 0x40 MSTORE DUP1 SWAP3 SWAP2 SWAP1 DUP2 DUP2 MSTORE PUSH1 0x20 ADD DUP3 DUP1 SLOAD PUSH2 0x547 SWAP1 PUSH2 0x1927 JUMP JUMPDEST DUP1 ISZERO PUSH2 0x592 JUMPI DUP1 PUSH1 0x1F LT PUSH2 0x569 JUMPI PUSH2 0x100 DUP1 DUP4 SLOAD DIV MUL DUP4 MSTORE SWAP2 PUSH1 0x20 ADD SWAP2 PUSH2 0x592 JUMP JUMPDEST DUP3 ADD SWAP2 SWAP1 PUSH0 MSTORE PUSH1 0x20 PUSH0 KECCAK256 SWAP1 JUMPDEST DUP2 SLOAD DUP2 MSTORE SWAP1 PUSH1 0x1 ADD SWAP1 PUSH1 0x20 ADD DUP1 DUP4 GT PUSH2 0x575 JUMPI DUP3 SWAP1 SUB PUSH1 0x1F AND DUP3 ADD SWAP2 JUMPDEST POP POP POP POP POP SWAP1 POP SWAP1 JUMP JUMPDEST PUSH0 DUP1 PUSH2 0x5A6 PUSH2 0xBEC JUMP JUMPDEST SWAP1 POP PUSH2 0x5B3 DUP2 DUP6 DUP6 PUSH2 0xBF3 JUMP JUMPDEST PUSH1 0x1 SWAP2 POP POP SWAP3 SWAP2 POP POP JUMP JUMPDEST PUSH0 PUSH1 0x2 SLOAD SWAP1 POP SWAP1 JUMP JUMPDEST PUSH0 PUSH1 0xC PUSH0 SWAP1 SLOAD SWAP1 PUSH2 0x100 EXP SWAP1 DIV PUSH1 0xFF AND SWAP1 POP SWAP1 JUMP JUMPDEST PUSH0 DUP1 PUSH2 0x5E6 PUSH2 0xBEC JUMP JUMPDEST SWAP1 POP PUSH2 0x5F3 DUP6 DUP3 DUP6 PUSH2 0xC05 JUMP JUMPDEST PUSH2 0x5FE DUP6 DUP6 DUP6 PUSH2 0xC97 JUMP JUMPDEST PUSH1 0x1 SWAP2 POP POP SWAP4 SWAP3 POP POP POP JUMP JUMPDEST PUSH2 0x612 PUSH2 0xD87 JUMP JUMPDEST PUSH1 0x1 PUSH1 0xC PUSH0 PUSH2 0x100 EXP DUP2 SLOAD DUP2 PUSH1 0xFF MUL NOT AND SWAP1 DUP4 ISZERO ISZERO MUL OR SWAP1 SSTORE POP JUMP JUMPDEST PUSH0 PUSH1 0x12 SWAP1 POP SWAP1 JUMP JUMPDEST PUSH0 PUSH1 0xA PUSH0 DUP4 PUSH20 0xFFFFFFFFFFFFFFFFFFFFFFFFFFFFFFFFFFFFFFFF AND PUSH20 0xFFFFFFFFFFFFFFFFFFFFFFFFFFFFFFFFFFFFFFFF AND DUP2 MSTORE PUSH1 0x20 ADD SWAP1 DUP2 MSTORE PUSH1 0x20 ADD PUSH0 KECCAK256 PUSH0 SWAP1 SLOAD SWAP1 PUSH2 0x100 EXP SWAP1 DIV PUSH1 0xFF AND SWAP1 POP SWAP2 SWAP1 POP JUMP JUMPDEST PUSH2 0x690 PUSH2 0xD87 JUMP JUMPDEST PUSH1 0x1 PUSH1 0x9 PUSH0 DUP4 PUSH20 0xFFFFFFFFFFFFFFFFFFFFFFFFFFFFFFFFFFFFFFFF AND PUSH20 0xFFFFFFFFFFFFFFFFFFFFFFFFFFFFFFFFFFFFFFFF AND DUP2 MSTORE PUSH1 0x20 ADD SWAP1 DUP2 MSTORE PUSH1 0x20 ADD PUSH0 KECCAK256 PUSH0 PUSH2 0x100 EXP DUP2 SLOAD DUP2 PUSH1 0xFF MUL NOT AND SWAP1 DUP4 ISZERO ISZERO MUL OR SWAP1 SSTORE POP PUSH0 PUSH1 0xA PUSH0 DUP4 PUSH20 0xFFFFFFFFFFFFFFFFFFFFFFFFFFFFFFFFFFFFFFFF AND PUSH20 0xFFFFFFFFFFFFFFFFFFFFFFFFFFFFFFFFFFFFFFFF AND DUP2 MSTORE PUSH1 0x20 ADD SWAP1 DUP2 MSTORE PUSH1 0x20 ADD PUSH0 KECCAK256 PUSH0 PUSH2 0x100 EXP DUP2 SLOAD DUP2 PUSH1 0xFF MUL NOT AND SWAP1 DUP4 ISZERO ISZERO MUL OR SWAP1 SSTORE POP POP JUMP JUMPDEST PUSH2 0x744 PUSH2 0xD87 JUMP JUMPDEST PUSH0 PUSH1 0x9 PUSH0 DUP4 PUSH20 0xFFFFFFFFFFFFFFFFFFFFFFFFFFFFFFFFFFFFFFFF AND PUSH20 0xFFFFFFFFFFFFFFFFFFFFFFFFFFFFFFFFFFFFFFFF AND DUP2 MSTORE PUSH1 0x20 ADD SWAP1 DUP2 MSTORE PUSH1 0x20 ADD PUSH0 KECCAK256 PUSH0 PUSH2 0x100 EXP DUP2 SLOAD DUP2 PUSH1 0xFF MUL NOT AND SWAP1 DUP4 ISZERO ISZERO MUL OR SWAP1 SSTORE POP POP JUMP JUMPDEST PUSH2 0x7A3 PUSH2 0xD87 JUMP JUMPDEST PUSH0 PUSH1 0xC PUSH0 PUSH2 0x100 EXP DUP2 SLOAD DUP2 PUSH1 0xFF MUL NOT AND SWAP1 DUP4 ISZERO ISZERO MUL OR SWAP1 SSTORE POP JUMP JUMPDEST PUSH0 PUSH1 0x7 SLOAD SWAP1 POP SWAP1 JUMP JUMPDEST PUSH2 0x7CF PUSH2 0xD87 JUMP JUMPDEST DUP1 PUSH1 0x8 DUP2 SWAP1 SSTORE POP POP JUMP JUMPDEST PUSH0 DUP1 PUSH0 DUP4 PUSH20 0xFFFFFFFFFFFFFFFFFFFFFFFFFFFFFFFFFFFFFFFF AND PUSH20 0xFFFFFFFFFFFFFFFFFFFFFFFFFFFFFFFFFFFFFFFF AND DUP2 MSTORE PUSH1 0x20 ADD SWAP1 DUP2 MSTORE PUSH1 0x20 ADD PUSH0 KECCAK256 SLOAD SWAP1 POP SWAP2 SWAP1 POP JUMP JUMPDEST PUSH2 0x826 PUSH2 0xD87 JUMP JUMPDEST PUSH2 0x82E PUSH2 0xE0E JUMP JUMPDEST JUMP JUMPDEST PUSH2 0x838 PUSH2 0xD87 JUMP JUMPDEST PUSH0 PUSH1 0xA PUSH0 DUP4 PUSH20 0xFFFFFFFFFFFFFFFFFFFFFFFFFFFFFFFFFFFFFFFF AND PUSH20 0xFFFFFFFFFFFFFFFFFFFFFFFFFFFFFFFFFFFFFFFF AND DUP2 MSTORE PUSH1 0x20 ADD SWAP1 DUP2 MSTORE PUSH1 0x20 ADD PUSH0 KECCAK256 PUSH0 PUSH2 0x100 EXP DUP2 SLOAD DUP2 PUSH1 0xFF MUL NOT AND SWAP1 DUP4 ISZERO ISZERO MUL OR SWAP1 SSTORE POP POP JUMP JUMPDEST PUSH1 0x7 SLOAD DUP2 JUMP JUMPDEST PUSH0 PUSH1 0x5 PUSH0 SWAP1 SLOAD SWAP1 PUSH2 0x100 EXP SWAP1 DIV PUSH20 0xFFFFFFFFFFFFFFFFFFFFFFFFFFFFFFFFFFFFFFFF AND SWAP1 POP SWAP1 JUMP JUMPDEST PUSH1 0x60 PUSH1 0x4 DUP1 SLOAD PUSH2 0x8CC SWAP1 PUSH2 0x1927 JUMP JUMPDEST DUP1 PUSH1 0x1F ADD PUSH1 0x20 DUP1 SWAP2 DIV MUL PUSH1 0x20 ADD PUSH1 0x40 MLOAD SWAP1 DUP2 ADD PUSH1 0x40 MSTORE DUP1 SWAP3 SWAP2 SWAP1 DUP2 DUP2 MSTORE PUSH1 0x20 ADD DUP3 DUP1 SLOAD PUSH2 0x8F8 SWAP1 PUSH2 0x1927 JUMP JUMPDEST DUP1 ISZERO PUSH2 0x943 JUMPI DUP1 PUSH1 0x1F LT PUSH2 0x91A JUMPI PUSH2 0x100 DUP1 DUP4 SLOAD DIV MUL DUP4 MSTORE SWAP2 PUSH1 0x20 ADD SWAP2 PUSH2 0x943 JUMP JUMPDEST DUP3 ADD SWAP2 SWAP1 PUSH0 MSTORE PUSH1 0x20 PUSH0 KECCAK256 SWAP1 JUMPDEST DUP2 SLOAD DUP2 MSTORE SWAP1 PUSH1 0x1 ADD SWAP1 PUSH1 0x20 ADD DUP1 DUP4 GT PUSH2 0x926 JUMPI DUP3 SWAP1 SUB PUSH1 0x1F AND DUP3 ADD SWAP2 JUMPDEST POP POP POP POP POP SWAP1 POP SWAP1 JUMP JUMPDEST PUSH0 DUP1 PUSH0 DUP1 PUSH2 0x959 PUSH2 0x895 JUMP JUMPDEST PUSH1 0x7 SLOAD PUSH1 0x8 SLOAD PUSH1 0x6 SLOAD SWAP4 POP SWAP4 POP SWAP4 POP SWAP4 POP SWAP1 SWAP2 SWAP3 SWAP4 JUMP JUMPDEST PUSH0 DUP1 PUSH2 0x97A PUSH2 0xBEC JUMP JUMPDEST SWAP1 POP PUSH2 0x987 DUP2 DUP6 DUP6 PUSH2 0xC97 JUMP JUMPDEST PUSH1 0x1 SWAP2 POP POP SWAP3 SWAP2 POP POP JUMP JUMPDEST PUSH1 0x8 SLOAD DUP2 JUMP JUMPDEST PUSH0 PUSH1 0x1 PUSH0 DUP5 PUSH20 0xFFFFFFFFFFFFFFFFFFFFFFFFFFFFFFFFFFFFFFFF AND PUSH20 0xFFFFFFFFFFFFFFFFFFFFFFFFFFFFFFFFFFFFFFFF AND DUP2 MSTORE PUSH1 0x20 ADD SWAP1 DUP2 MSTORE PUSH1 0x20 ADD PUSH0 KECCAK256 PUSH0 DUP4 PUSH20 0xFFFFFFFFFFFFFFFFFFFFFFFFFFFFFFFFFFFFFFFF AND PUSH20 0xFFFFFFFFFFFFFFFFFFFFFFFFFFFFFFFFFFFFFFFF AND DUP2 MSTORE PUSH1 0x20 ADD SWAP1 DUP2 MSTORE PUSH1 0x20 ADD PUSH0 KECCAK256 SLOAD SWAP1 POP SWAP3 SWAP2 POP POP JUMP JUMPDEST PUSH2 0xA22 PUSH2 0xD87 JUMP JUMPDEST PUSH1 0x9 PUSH0 DUP3 PUSH20 0xFFFFFFFFFFFFFFFFFFFFFFFFFFFFFFFFFFFFFFFF AND PUSH20 0xFFFFFFFFFFFFFFFFFFFFFFFFFFFFFFFFFFFFFFFF AND DUP2 MSTORE PUSH1 0x20 ADD SWAP1 DUP2 MSTORE PUSH1 0x20 ADD PUSH0 KECCAK256 PUSH0 SWAP1 SLOAD SWAP1 PUSH2 0x100 EXP SWAP1 DIV PUSH1 0xFF AND ISZERO PUSH2 0xAAC JUMPI PUSH1 0x40 MLOAD PUSH32 0x8C379A000000000000000000000000000000000000000000000000000000000 DUP2 MSTORE PUSH1 0x4 ADD PUSH2 0xAA3 SWAP1 PUSH2 0x19C7 JUMP JUMPDEST PUSH1 0x40 MLOAD DUP1 SWAP2 SUB SWAP1 REVERT JUMPDEST PUSH1 0x1 PUSH1 0xA PUSH0 DUP4 PUSH20 0xFFFFFFFFFFFFFFFFFFFFFFFFFFFFFFFFFFFFFFFF AND PUSH20 0xFFFFFFFFFFFFFFFFFFFFFFFFFFFFFFFFFFFFFFFF AND DUP2 MSTORE PUSH1 0x20 ADD SWAP1 DUP2 MSTORE PUSH1 0x20 ADD PUSH0 KECCAK256 PUSH0 PUSH2 0x100 EXP DUP2 SLOAD DUP2 PUSH1 0xFF MUL NOT AND SWAP1 DUP4 ISZERO ISZERO MUL OR SWAP1 SSTORE POP POP JUMP JUMPDEST PUSH2 0xB0C PUSH2 0xD87 JUMP JUMPDEST DUP1 PUSH1 0x7 DUP2 SWAP1 SSTORE POP POP JUMP JUMPDEST PUSH2 0xB1E PUSH2 0xD87 JUMP JUMPDEST PUSH0 PUSH20 0xFFFFFFFFFFFFFFFFFFFFFFFFFFFFFFFFFFFFFFFF AND DUP2 PUSH20 0xFFFFFFFFFFFFFFFFFFFFFFFFFFFFFFFFFFFFFFFF AND SUB PUSH2 0xB8E JUMPI PUSH0 PUSH1 0x40 MLOAD PUSH32 0x1E4FBDF700000000000000000000000000000000000000000000000000000000 DUP2 MSTORE PUSH1 0x4 ADD PUSH2 0xB85 SWAP2 SWAP1 PUSH2 0x1860 JUMP JUMPDEST PUSH1 0x40 MLOAD DUP1 SWAP2 SUB SWAP1 REVERT JUMPDEST PUSH2 0xB97 DUP2 PUSH2 0xE21 JUMP JUMPDEST POP JUMP JUMPDEST PUSH0 PUSH1 0x9 PUSH0 DUP4 PUSH20 0xFFFFFFFFFFFFFFFFFFFFFFFFFFFFFFFFFFFFFFFF AND PUSH20 0xFFFFFFFFFFFFFFFFFFFFFFFFFFFFFFFFFFFFFFFF AND DUP2 MSTORE PUSH1 0x20 ADD SWAP1 DUP2 MSTORE PUSH1 0x20 ADD PUSH0 KECCAK256 PUSH0 SWAP1 SLOAD SWAP1 PUSH2 0x100 EXP SWAP1 DIV PUSH1 0xFF AND SWAP1 POP SWAP2 SWAP1 POP JUMP JUMPDEST PUSH0 CALLER SWAP1 POP SWAP1 JUMP JUMPDEST PUSH2 0xC00 DUP4 DUP4 DUP4 PUSH1 0x1 PUSH2 0xEE4 JUMP JUMPDEST POP POP POP JUMP JUMPDEST PUSH0 PUSH2 0xC10 DUP5 DUP5 PUSH2 0x998 JUMP JUMPDEST SWAP1 POP PUSH32 0xFFFFFFFFFFFFFFFFFFFFFFFFFFFFFFFFFFFFFFFFFFFFFFFFFFFFFFFFFFFFFFFF DUP2 EQ PUSH2 0xC91 JUMPI DUP2 DUP2 LT ISZERO PUSH2 0xC82 JUMPI DUP3 DUP2 DUP4 PUSH1 0x40 MLOAD PUSH32 0xFB8F41B200000000000000000000000000000000000000000000000000000000 DUP2 MSTORE PUSH1 0x4 ADD PUSH2 0xC79 SWAP4 SWAP3 SWAP2 SWAP1 PUSH2 0x19E5 JUMP JUMPDEST PUSH1 0x40 MLOAD DUP1 SWAP2 SUB SWAP1 REVERT JUMPDEST PUSH2 0xC90 DUP5 DUP5 DUP5 DUP5 SUB PUSH0 PUSH2 0xEE4 JUMP JUMPDEST JUMPDEST POP POP POP POP JUMP JUMPDEST PUSH0 PUSH20 0xFFFFFFFFFFFFFFFFFFFFFFFFFFFFFFFFFFFFFFFF AND DUP4 PUSH20 0xFFFFFFFFFFFFFFFFFFFFFFFFFFFFFFFFFFFFFFFF AND SUB PUSH2 0xD07 JUMPI PUSH0 PUSH1 0x40 MLOAD PUSH32 0x96C6FD1E00000000000000000000000000000000000000000000000000000000 DUP2 MSTORE PUSH1 0x4 ADD PUSH2 0xCFE SWAP2 SWAP1 PUSH2 0x1860 JUMP JUMPDEST PUSH1 0x40 MLOAD DUP1 SWAP2 SUB SWAP1 REVERT JUMPDEST PUSH0 PUSH20 0xFFFFFFFFFFFFFFFFFFFFFFFFFFFFFFFFFFFFFFFF AND DUP3 PUSH20 0xFFFFFFFFFFFFFFFFFFFFFFFFFFFFFFFFFFFFFFFF AND SUB PUSH2 0xD77 JUMPI PUSH0 PUSH1 0x40 MLOAD PUSH32 0xEC442F0500000000000000000000000000000000000000000000000000000000 DUP2 MSTORE PUSH1 0x4 ADD PUSH2 0xD6E SWAP2 SWAP1 PUSH2 0x1860 JUMP JUMPDEST PUSH1 0x40 MLOAD DUP1 SWAP2 SUB SWAP1 REVERT JUMPDEST PUSH2 0xD82 DUP4 DUP4 DUP4 PUSH2 0x10B3 JUMP JUMPDEST POP POP POP JUMP JUMPDEST PUSH2 0xD8F PUSH2 0xBEC JUMP JUMPDEST PUSH20 0xFFFFFFFFFFFFFFFFFFFFFFFFFFFFFFFFFFFFFFFF AND PUSH2 0xDAD PUSH2 0x895 JUMP JUMPDEST PUSH20 0xFFFFFFFFFFFFFFFFFFFFFFFFFFFFFFFFFFFFFFFF AND EQ PUSH2 0xE0C JUMPI PUSH2 0xDD0 PUSH2 0xBEC JUMP JUMPDEST PUSH1 0x40 MLOAD PUSH32 0x118CDAA700000000000000000000000000000000000000000000000000000000 DUP2 MSTORE PUSH1 0x4 ADD PUSH2 0xE03 SWAP2 SWAP1 PUSH2 0x1860 JUMP JUMPDEST PUSH1 0x40 MLOAD DUP1 SWAP2 SUB SWAP1 REVERT JUMPDEST JUMP JUMPDEST PUSH2 0xE16 PUSH2 0xD87 JUMP JUMPDEST PUSH2 0xE1F PUSH0 PUSH2 0xE21 JUMP JUMPDEST JUMP JUMPDEST PUSH0 PUSH1 0x5 PUSH0 SWAP1 SLOAD SWAP1 PUSH2 0x100 EXP SWAP1 DIV PUSH20 0xFFFFFFFFFFFFFFFFFFFFFFFFFFFFFFFFFFFFFFFF AND SWAP1 POP DUP2 PUSH1 0x5 PUSH0 PUSH2 0x100 EXP DUP2 SLOAD DUP2 PUSH20 0xFFFFFFFFFFFFFFFFFFFFFFFFFFFFFFFFFFFFFFFF MUL NOT AND SWAP1 DUP4 PUSH20 0xFFFFFFFFFFFFFFFFFFFFFFFFFFFFFFFFFFFFFFFF AND MUL OR SWAP1 SSTORE POP DUP2 PUSH20 0xFFFFFFFFFFFFFFFFFFFFFFFFFFFFFFFFFFFFFFFF AND DUP2 PUSH20 0xFFFFFFFFFFFFFFFFFFFFFFFFFFFFFFFFFFFFFFFF AND PUSH32 0x8BE0079C531659141344CD1FD0A4F28419497F9722A3DAAFE3B4186F6B6457E0 PUSH1 0x40 MLOAD PUSH1 0x40 MLOAD DUP1 SWAP2 SUB SWAP1 LOG3 POP POP JUMP JUMPDEST PUSH0 PUSH20 0xFFFFFFFFFFFFFFFFFFFFFFFFFFFFFFFFFFFFFFFF AND DUP5 PUSH20 0xFFFFFFFFFFFFFFFFFFFFFFFFFFFFFFFFFFFFFFFF AND SUB PUSH2 0xF54 JUMPI PUSH0 PUSH1 0x40 MLOAD PUSH32 0xE602DF0500000000000000000000000000000000000000000000000000000000 DUP2 MSTORE PUSH1 0x4 ADD PUSH2 0xF4B SWAP2 SWAP1 PUSH2 0x1860 JUMP JUMPDEST PUSH1 0x40 MLOAD DUP1 SWAP2 SUB SWAP1 REVERT JUMPDEST PUSH0 PUSH20 0xFFFFFFFFFFFFFFFFFFFFFFFFFFFFFFFFFFFFFFFF AND DUP4 PUSH20 0xFFFFFFFFFFFFFFFFFFFFFFFFFFFFFFFFFFFFFFFF AND SUB PUSH2 0xFC4 JUMPI PUSH0 PUSH1 0x40 MLOAD PUSH32 0x94280D6200000000000000000000000000000000000000000000000000000000 DUP2 MSTORE PUSH1 0x4 ADD PUSH2 0xFBB SWAP2 SWAP1 PUSH2 0x1860 JUMP JUMPDEST PUSH1 0x40 MLOAD DUP1 SWAP2 SUB SWAP1 REVERT JUMPDEST DUP2 PUSH1 0x1 PUSH0 DUP7 PUSH20 0xFFFFFFFFFFFFFFFFFFFFFFFFFFFFFFFFFFFFFFFF AND PUSH20 0xFFFFFFFFFFFFFFFFFFFFFFFFFFFFFFFFFFFFFFFF AND DUP2 MSTORE PUSH1 0x20 ADD SWAP1 DUP2 MSTORE PUSH1 0x20 ADD PUSH0 KECCAK256 PUSH0 DUP6 PUSH20 0xFFFFFFFFFFFFFFFFFFFFFFFFFFFFFFFFFFFFFFFF AND PUSH20 0xFFFFFFFFFFFFFFFFFFFFFFFFFFFFFFFFFFFFFFFF AND DUP2 MSTORE PUSH1 0x20 ADD SWAP1 DUP2 MSTORE PUSH1 0x20 ADD PUSH0 KECCAK256 DUP2 SWAP1 SSTORE POP DUP1 ISZERO PUSH2 0x10AD JUMPI DUP3 PUSH20 0xFFFFFFFFFFFFFFFFFFFFFFFFFFFFFFFFFFFFFFFF AND DUP5 PUSH20 0xFFFFFFFFFFFFFFFFFFFFFFFFFFFFFFFFFFFFFFFF AND PUSH32 0x8C5BE1E5EBEC7D5BD14F71427D1E84F3DD0314C0F7B2291E5B200AC8C7C3B925 DUP5 PUSH1 0x40 MLOAD PUSH2 0x10A4 SWAP2 SWAP1 PUSH2 0x175E JUMP JUMPDEST PUSH1 0x40 MLOAD DUP1 SWAP2 SUB SWAP1 LOG3 JUMPDEST POP POP POP POP JUMP JUMPDEST PUSH1 0x9 PUSH0 DUP5 PUSH20 0xFFFFFFFFFFFFFFFFFFFFFFFFFFFFFFFFFFFFFFFF AND PUSH20 0xFFFFFFFFFFFFFFFFFFFFFFFFFFFFFFFFFFFFFFFF AND DUP2 MSTORE PUSH1 0x20 ADD SWAP1 DUP2 MSTORE PUSH1 0x20 ADD PUSH0 KECCAK256 PUSH0 SWAP1 SLOAD SWAP1 PUSH2 0x100 EXP SWAP1 DIV PUSH1 0xFF AND ISZERO DUP1 ISZERO PUSH2 0x1151 JUMPI POP PUSH1 0x9 PUSH0 DUP4 PUSH20 0xFFFFFFFFFFFFFFFFFFFFFFFFFFFFFFFFFFFFFFFF AND PUSH20 0xFFFFFFFFFFFFFFFFFFFFFFFFFFFFFFFFFFFFFFFF AND DUP2 MSTORE PUSH1 0x20 ADD SWAP1 DUP2 MSTORE PUSH1 0x20 ADD PUSH0 KECCAK256 PUSH0 SWAP1 SLOAD SWAP1 PUSH2 0x100 EXP SWAP1 DIV PUSH1 0xFF AND ISZERO JUMPDEST PUSH2 0x1190 JUMPI PUSH1 0x40 MLOAD PUSH32 0x8C379A000000000000000000000000000000000000000000000000000000000 DUP2 MSTORE PUSH1 0x4 ADD PUSH2 0x1187 SWAP1 PUSH2 0x1A64 JUMP JUMPDEST PUSH1 0x40 MLOAD DUP1 SWAP2 SUB SWAP1 REVERT JUMPDEST PUSH1 0xC PUSH0 SWAP1 SLOAD SWAP1 PUSH2 0x100 EXP SWAP1 DIV PUSH1 0xFF AND ISZERO PUSH2 0x1280 JUMPI PUSH1 0xA PUSH0 DUP5 PUSH20 0xFFFFFFFFFFFFFFFFFFFFFFFFFFFFFFFFFFFFFFFF AND PUSH20 0xFFFFFFFFFFFFFFFFFFFFFFFFFFFFFFFFFFFFFFFF AND DUP2 MSTORE PUSH1 0x20 ADD SWAP1 DUP2 MSTORE PUSH1 0x20 ADD PUSH0 KECCAK256 PUSH0 SWAP1 SLOAD SWAP1 PUSH2 0x100 EXP SWAP1 DIV PUSH1 0xFF AND DUP1 ISZERO PUSH2 0x1240 JUMPI POP PUSH1 0xA PUSH0 DUP4 PUSH20 0xFFFFFFFFFFFFFFFFFFFFFFFFFFFFFFFFFFFFFFFF AND PUSH20 0xFFFFFFFFFFFFFFFFFFFFFFFFFFFFFFFFFFFFFFFF AND DUP2 MSTORE PUSH1 0x20 ADD SWAP1 DUP2 MSTORE PUSH1 0x20 ADD PUSH0 KECCAK256 PUSH0 SWAP1 SLOAD SWAP1 PUSH2 0x100 EXP SWAP1 DIV PUSH1 0xFF AND JUMPDEST PUSH2 0x127F JUMPI PUSH1 0x40 MLOAD PUSH32 0x8C379A000000000000000000000000000000000000000000000000000000000 DUP2 MSTORE PUSH1 0x4 ADD PUSH2 0x1276 SWAP1 PUSH2 0x1AF2 JUMP JUMPDEST PUSH1 0x40 MLOAD DUP1 SWAP2 SUB SWAP1 REVERT JUMPDEST JUMPDEST PUSH1 0x7 SLOAD DUP2 GT ISZERO PUSH2 0x12C5 JUMPI PUSH1 0x40 MLOAD PUSH32 0x8C379A000000000000000000000000000000000000000000000000000000000 DUP2 MSTORE PUSH1 0x4 ADD PUSH2 0x12BC SWAP1 PUSH2 0x1B5A JUMP JUMPDEST PUSH1 0x40 MLOAD DUP1 SWAP2 SUB SWAP1 REVERT JUMPDEST PUSH1 0x8 SLOAD PUSH1 0xB PUSH0 DUP6 PUSH20 0xFFFFFFFFFFFFFFFFFFFFFFFFFFFFFFFFFFFFFFFF AND PUSH20 0xFFFFFFFFFFFFFFFFFFFFFFFFFFFFFFFFFFFFFFFF AND DUP2 MSTORE PUSH1 0x20 ADD SWAP1 DUP2 MSTORE PUSH1 0x20 ADD PUSH0 KECCAK256 SLOAD PUSH2 0x1310 SWAP2 SWAP1 PUSH2 0x1BA5 JUMP JUMPDEST TIMESTAMP LT ISZERO PUSH2 0x1352 JUMPI PUSH1 0x40 MLOAD PUSH32 0x8C379A000000000000000000000000000000000000000000000000000000000 DUP2 MSTORE PUSH1 0x4 ADD PUSH2 0x1349 SWAP1 PUSH2 0x1C22 JUMP JUMPDEST PUSH1 0x40 MLOAD DUP1 SWAP2 SUB SWAP1 REVERT JUMPDEST TIMESTAMP PUSH1 0xB PUSH0 DUP6 PUSH20 0xFFFFFFFFFFFFFFFFFFFFFFFFFFFFFFFFFFFFFFFF AND PUSH20 0xFFFFFFFFFFFFFFFFFFFFFFFFFFFFFFFFFFFFFFFF AND DUP2 MSTORE PUSH1 0x20 ADD SWAP1 DUP2 MSTORE PUSH1 0x20 ADD PUSH0 KECCAK256 DUP2 SWAP1 SSTORE POP PUSH2 0x139F DUP4 DUP4 DUP4 PUSH2 0x13A4 JUMP JUMPDEST POP POP POP JUMP JUMPDEST PUSH0 PUSH20 0xFFFFFFFFFFFFFFFFFFFFFFFFFFFFFFFFFFFFFFFF AND DUP4 PUSH20 0xFFFFFFFFFFFFFFFFFFFFFFFFFFFFFFFFFFFFFFFF AND SUB PUSH2 0x13F4 JUMPI DUP1 PUSH1 0x2 PUSH0 DUP3 DUP3 SLOAD PUSH2 0x13E8 SWAP2 SWAP1 PUSH2 0x1BA5 JUMP JUMPDEST SWAP3 POP POP DUP2 SWAP1 SSTORE POP PUSH2 0x14C2 JUMP JUMPDEST PUSH0 DUP1 PUSH0 DUP6 PUSH20 0xFFFFFFFFFFFFFFFFFFFFFFFFFFFFFFFFFFFFFFFF AND PUSH20 0xFFFFFFFFFFFFFFFFFFFFFFFFFFFFFFFFFFFFFFFF AND DUP2 MSTORE PUSH1 0x20 ADD SWAP1 DUP2 MSTORE PUSH1 0x20 ADD PUSH0 KECCAK256 SLOAD SWAP1 POP DUP2 DUP2 LT ISZERO PUSH2 0x147D JUMPI DUP4 DUP2 DUP4 PUSH1 0x40 MLOAD PUSH32 0xE450D38C00000000000000000000000000000000000000000000000000000000 DUP2 MSTORE PUSH1 0x4 ADD PUSH2 0x1474 SWAP4 SWAP3 SWAP2 SWAP1 PUSH2 0x19E5 JUMP JUMPDEST PUSH1 0x40 MLOAD DUP1 SWAP2 SUB SWAP1 REVERT JUMPDEST DUP2 DUP2 SUB PUSH0 DUP1 DUP7 PUSH20 0xFFFFFFFFFFFFFFFFFFFFFFFFFFFFFFFFFFFFFFFF AND PUSH20 0xFFFFFFFFFFFFFFFFFFFFFFFFFFFFFFFFFFFFFFFF AND DUP2 MSTORE PUSH1 0x20 ADD SWAP1 DUP2 MSTORE PUSH1 0x20 ADD PUSH0 KECCAK256 DUP2 SWAP1 SSTORE POP POP JUMPDEST PUSH0 PUSH20 0xFFFFFFFFFFFFFFFFFFFFFFFFFFFFFFFFFFFFFFFF AND DUP3 PUSH20 0xFFFFFFFFFFFFFFFFFFFFFFFFFFFFFFFFFFFFFFFF AND SUB PUSH2 0x1509 JUMPI DUP1 PUSH1 0x2 PUSH0 DUP3 DUP3 SLOAD SUB SWAP3 POP POP DUP2 SWAP1 SSTORE POP PUSH2 0x1553 JUMP JUMPDEST DUP1 PUSH0 DUP1 DUP5 PUSH20 0xFFFFFFFFFFFFFFFFFFFFFFFFFFFFFFFFFFFFFFFF AND PUSH20 0xFFFFFFFFFFFFFFFFFFFFFFFFFFFFFFFFFFFFFFFF AND DUP2 MSTORE PUSH1 0x20 ADD SWAP1 DUP2 MSTORE PUSH1 0x20 ADD PUSH0 KECCAK256 PUSH0 DUP3 DUP3 SLOAD ADD SWAP3 POP POP DUP2 SWAP1 SSTORE POP JUMPDEST DUP2 PUSH20 0xFFFFFFFFFFFFFFFFFFFFFFFFFFFFFFFFFFFFFFFF AND DUP4 PUSH20 0xFFFFFFFFFFFFFFFFFFFFFFFFFFFFFFFFFFFFFFFF AND PUSH32 0xDDF252AD1BE2C89B69C2B068FC378DAA952BA7F163C4A11628F55A4DF523B3EF DUP4 PUSH1 0x40 MLOAD PUSH2 0x15B0 SWAP2 SWAP1 PUSH2 0x175E JUMP JUMPDEST PUSH1 0x40 MLOAD DUP1 SWAP2 SUB SWAP1 LOG3 POP POP POP JUMP JUMPDEST PUSH0 DUP2 MLOAD SWAP1 POP SWAP2 SWAP1 POP JUMP JUMPDEST PUSH0 DUP3 DUP3 MSTORE PUSH1 0x20 DUP3 ADD SWAP1 POP SWAP3 SWAP2 POP POP JUMP JUMPDEST DUP3 DUP2 DUP4 MCOPY PUSH0 DUP4 DUP4 ADD MSTORE POP POP POP JUMP JUMPDEST PUSH0 PUSH1 0x1F NOT PUSH1 0x1F DUP4 ADD AND SWAP1 POP SWAP2 SWAP1 POP JUMP JUMPDEST PUSH0 PUSH2 0x15FF DUP3 PUSH2 0x15BD JUMP JUMPDEST PUSH2 0x1609 DUP2 DUP6 PUSH2 0x15C7 JUMP JUMPDEST SWAP4 POP PUSH2 0x1619 DUP2 DUP6 PUSH1 0x20 DUP7 ADD PUSH2 0x15D7 JUMP JUMPDEST PUSH2 0x1622 DUP2 PUSH2 0x15E5 JUMP JUMPDEST DUP5 ADD SWAP2 POP POP SWAP3 SWAP2 POP POP JUMP JUMPDEST PUSH0 PUSH1 0x20 DUP3 ADD SWAP1 POP DUP2 DUP2 SUB PUSH0 DUP4 ADD MSTORE PUSH2 0x1645 DUP2 DUP5 PUSH2 0x15F5 JUMP JUMPDEST SWAP1 POP SWAP3 SWAP2 POP POP JUMP JUMPDEST PUSH0 DUP1 REVERT JUMPDEST PUSH0 PUSH20 0xFFFFFFFFFFFFFFFFFFFFFFFFFFFFFFFFFFFFFFFF DUP3 AND SWAP1 POP SWAP2 SWAP1 POP JUMP JUMPDEST PUSH0 PUSH2 0x167A DUP3 PUSH2 0x1651 JUMP JUMPDEST SWAP1 POP SWAP2 SWAP1 POP JUMP JUMPDEST PUSH2 0x168A DUP2 PUSH2 0x1670 JUMP JUMPDEST DUP2 EQ PUSH2 0x1694 JUMPI PUSH0 DUP1 REVERT JUMPDEST POP JUMP JUMPDEST PUSH0 DUP2 CALLDATALOAD SWAP1 POP PUSH2 0x16A5 DUP2 PUSH2 0x1681 JUMP JUMPDEST SWAP3 SWAP2 POP POP JUMP JUMPDEST PUSH0 DUP2 SWAP1 POP SWAP2 SWAP1 POP JUMP JUMPDEST PUSH2 0x16BD DUP2 PUSH2 0x16AB JUMP JUMPDEST DUP2 EQ PUSH2 0x16C7 JUMPI PUSH0 DUP1 REVERT JUMPDEST POP JUMP JUMPDEST PUSH0 DUP2 CALLDATALOAD SWAP1 POP PUSH2 0x16D8 DUP2 PUSH2 0x16B4 JUMP JUMPDEST SWAP3 SWAP2 POP POP JUMP JUMPDEST PUSH0 DUP1 PUSH1 0x40 DUP4 DUP6 SUB SLT ISZERO PUSH2 0x16F4 JUMPI PUSH2 0x16F3 PUSH2 0x164D JUMP JUMPDEST JUMPDEST PUSH0 PUSH2 0x1701 DUP6 DUP3 DUP7 ADD PUSH2 0x1697 JUMP JUMPDEST SWAP3 POP POP PUSH1 0x20 PUSH2 0x1712 DUP6 DUP3 DUP7 ADD PUSH2 0x16CA JUMP JUMPDEST SWAP2 POP POP SWAP3 POP SWAP3 SWAP1 POP JUMP JUMPDEST PUSH0 DUP2 ISZERO ISZERO SWAP1 POP SWAP2 SWAP1 POP JUMP JUMPDEST PUSH2 0x1730 DUP2 PUSH2 0x171C JUMP JUMPDEST DUP3 MSTORE POP POP JUMP JUMPDEST PUSH0 PUSH1 0x20 DUP3 ADD SWAP1 POP PUSH2 0x1749 PUSH0 DUP4 ADD DUP5 PUSH2 0x1727 JUMP JUMPDEST SWAP3 SWAP2 POP POP JUMP JUMPDEST PUSH2 0x1758 DUP2 PUSH2 0x16AB JUMP JUMPDEST DUP3 MSTORE POP POP JUMP JUMPDEST PUSH0 PUSH1 0x20 DUP3 ADD SWAP1 POP PUSH2 0x1771 PUSH0 DUP4 ADD DUP5 PUSH2 0x174F JUMP JUMPDEST SWAP3 SWAP2 POP POP JUMP JUMPDEST PUSH0 DUP1 PUSH0 PUSH1 0x60 DUP5 DUP7 SUB SLT ISZERO PUSH2 0x178E JUMPI PUSH2 0x178D PUSH2 0x164D JUMP JUMPDEST JUMPDEST PUSH0 PUSH2 0x179B DUP7 DUP3 DUP8 ADD PUSH2 0x1697 JUMP JUMPDEST SWAP4 POP POP PUSH1 0x20 PUSH2 0x17AC DUP7 DUP3 DUP8 ADD PUSH2 0x1697 JUMP JUMPDEST SWAP3 POP POP PUSH1 0x40 PUSH2 0x17BD DUP7 DUP3 DUP8 ADD PUSH2 0x16CA JUMP JUMPDEST SWAP2 POP POP SWAP3 POP SWAP3 POP SWAP3 JUMP JUMPDEST PUSH0 PUSH1 0xFF DUP3 AND SWAP1 POP SWAP2 SWAP1 POP JUMP JUMPDEST PUSH2 0x17DC DUP2 PUSH2 0x17C7 JUMP JUMPDEST DUP3 MSTORE POP POP JUMP JUMPDEST PUSH0 PUSH1 0x20 DUP3 ADD SWAP1 POP PUSH2 0x17F5 PUSH0 DUP4 ADD DUP5 PUSH2 0x17D3 JUMP JUMPDEST SWAP3 SWAP2 POP POP JUMP JUMPDEST PUSH0 PUSH1 0x20 DUP3 DUP5 SUB SLT ISZERO PUSH2 0x1810 JUMPI PUSH2 0x180F PUSH2 0x164D JUMP JUMPDEST JUMPDEST PUSH0 PUSH2 0x181D DUP5 DUP3 DUP6 ADD PUSH2 0x1697 JUMP JUMPDEST SWAP2 POP POP SWAP3 SWAP2 POP POP JUMP JUMPDEST PUSH0 PUSH1 0x20 DUP3 DUP5 SUB SLT ISZERO PUSH2 0x183B JUMPI PUSH2 0x183A PUSH2 0x164D JUMP JUMPDEST JUMPDEST PUSH0 PUSH2 0x1848 DUP5 DUP3 DUP6 ADD PUSH2 0x16CA JUMP JUMPDEST SWAP2 POP POP SWAP3 SWAP2 POP POP JUMP JUMPDEST PUSH2 0x185A DUP2 PUSH2 0x1670 JUMP JUMPDEST DUP3 MSTORE POP POP JUMP JUMPDEST PUSH0 PUSH1 0x20 DUP3 ADD SWAP1 POP PUSH2 0x1873 PUSH0 DUP4 ADD DUP5 PUSH2 0x1851 JUMP JUMPDEST SWAP3 SWAP2 POP POP JUMP JUMPDEST PUSH0 PUSH1 0x80 DUP3 ADD SWAP1 POP PUSH2 0x188C PUSH0 DUP4 ADD DUP8 PUSH2 0x1851 JUMP JUMPDEST PUSH2 0x1899 PUSH1 0x20 DUP4 ADD DUP7 PUSH2 0x174F JUMP JUMPDEST PUSH2 0x18A6 PUSH1 0x40 DUP4 ADD DUP6 PUSH2 0x174F JUMP JUMPDEST PUSH2 0x18B3 PUSH1 0x60 DUP4 ADD DUP5 PUSH2 0x174F JUMP JUMPDEST SWAP6 SWAP5 POP POP POP POP POP JUMP JUMPDEST PUSH0 DUP1 PUSH1 0x40 DUP4 DUP6 SUB SLT ISZERO PUSH2 0x18D2 JUMPI PUSH2 0x18D1 PUSH2 0x164D JUMP JUMPDEST JUMPDEST PUSH0 PUSH2 0x18DF DUP6 DUP3 DUP7 ADD PUSH2 0x1697 JUMP JUMPDEST SWAP3 POP POP PUSH1 0x20 PUSH2 0x18F0 DUP6 DUP3 DUP7 ADD PUSH2 0x1697 JUMP JUMPDEST SWAP2 POP POP SWAP3 POP SWAP3 SWAP1 POP JUMP JUMPDEST PUSH32 0x4E487B7100000000000000000000000000000000000000000000000000000000 PUSH0 MSTORE PUSH1 0x22 PUSH1 0x4 MSTORE PUSH1 0x24 PUSH0 REVERT JUMPDEST PUSH0 PUSH1 0x2 DUP3 DIV SWAP1 POP PUSH1 0x1 DUP3 AND DUP1 PUSH2 0x193E JUMPI PUSH1 0x7F DUP3 AND SWAP2 POP JUMPDEST PUSH1 0x20 DUP3 LT DUP2 SUB PUSH2 0x1951 JUMPI PUSH2 0x1950 PUSH2 0x18FA JUMP JUMPDEST JUMPDEST POP SWAP2 SWAP1 POP JUMP JUMPDEST PUSH32 0x426C61636B6C697374656420616464726573732063616E6E6F74206265207768 PUSH0 DUP3 ADD MSTORE PUSH32 0x6974656C69737465640000000000000000000000000000000000000000000000 PUSH1 0x20 DUP3 ADD MSTORE POP JUMP JUMPDEST PUSH0 PUSH2 0x19B1 PUSH1 0x29 DUP4 PUSH2 0x15C7 JUMP JUMPDEST SWAP2 POP PUSH2 0x19BC DUP3 PUSH2 0x1957 JUMP JUMPDEST PUSH1 0x40 DUP3 ADD SWAP1 POP SWAP2 SWAP1 POP JUMP JUMPDEST PUSH0 PUSH1 0x20 DUP3 ADD SWAP1 POP DUP2 DUP2 SUB PUSH0 DUP4 ADD MSTORE PUSH2 0x19DE DUP2 PUSH2 0x19A5 JUMP JUMPDEST SWAP1 POP SWAP2 SWAP1 POP JUMP JUMPDEST PUSH0 PUSH1 0x60 DUP3 ADD SWAP1 POP PUSH2 0x19F8 PUSH0 DUP4 ADD DUP7 PUSH2 0x1851 JUMP JUMPDEST PUSH2 0x1A05 PUSH1 0x20 DUP4 ADD DUP6 PUSH2 0x174F JUMP JUMPDEST PUSH2 0x1A12 PUSH1 0x40 DUP4 ADD DUP5 PUSH2 0x174F JUMP JUMPDEST SWAP5 SWAP4 POP POP POP POP JUMP JUMPDEST PUSH32 0x426C61636B6C6973746564204164647265737365730000000000000000000000 PUSH0 DUP3 ADD MSTORE POP JUMP JUMPDEST PUSH0 PUSH2 0x1A4E PUSH1 0x15 DUP4 PUSH2 0x15C7 JUMP JUMPDEST SWAP2 POP PUSH2 0x1A59 DUP3 PUSH2 0x1A1A JUMP JUMPDEST PUSH1 0x20 DUP3 ADD SWAP1 POP SWAP2 SWAP1 POP JUMP JUMPDEST PUSH0 PUSH1 0x20 DUP3 ADD SWAP1 POP DUP2 DUP2 SUB PUSH0 DUP4 ADD MSTORE PUSH2 0x1A7B DUP2 PUSH2 0x1A42 JUMP JUMPDEST SWAP1 POP SWAP2 SWAP1 POP JUMP JUMPDEST PUSH32 0x426F746820616464726573736573206D7573742062652077686974656C697374 PUSH0 DUP3 ADD MSTORE PUSH32 0x6564000000000000000000000000000000000000000000000000000000000000 PUSH1 0x20 DUP3 ADD MSTORE POP JUMP JUMPDEST PUSH0 PUSH2 0x1ADC PUSH1 0x22 DUP4 PUSH2 0x15C7 JUMP JUMPDEST SWAP2 POP PUSH2 0x1AE7 DUP3 PUSH2 0x1A82 JUMP JUMPDEST PUSH1 0x40 DUP3 ADD SWAP1 POP SWAP2 SWAP1 POP JUMP JUMPDEST PUSH0 PUSH1 0x20 DUP3 ADD SWAP1 POP DUP2 DUP2 SUB PUSH0 DUP4 ADD MSTORE PUSH2 0x1B09 DUP2 PUSH2 0x1AD0 JUMP JUMPDEST SWAP1 POP SWAP2 SWAP1 POP JUMP JUMPDEST PUSH32 0x546F6B656E205472616E73666572204C696D6974204578636565646564000000 PUSH0 DUP3 ADD MSTORE POP JUMP JUMPDEST PUSH0 PUSH2 0x1B44 PUSH1 0x1D DUP4 PUSH2 0x15C7 JUMP JUMPDEST SWAP2 POP PUSH2 0x1B4F DUP3 PUSH2 0x1B10 JUMP JUMPDEST PUSH1 0x20 DUP3 ADD SWAP1 POP SWAP2 SWAP1 POP JUMP JUMPDEST PUSH0 PUSH1 0x20 DUP3 ADD SWAP1 POP DUP2 DUP2 SUB PUSH0 DUP4 ADD MSTORE PUSH2 0x1B71 DUP2 PUSH2 0x1B38 JUMP JUMPDEST SWAP1 POP SWAP2 SWAP1 POP JUMP JUMPDEST PUSH32 0x4E487B7100000000000000000000000000000000000000000000000000000000 PUSH0 MSTORE PUSH1 0x11 PUSH1 0x4 MSTORE PUSH1 0x24 PUSH0 REVERT JUMPDEST PUSH0 PUSH2 0x1BAF DUP3 PUSH2 0x16AB JUMP JUMPDEST SWAP2 POP PUSH2 0x1BBA DUP4 PUSH2 0x16AB JUMP JUMPDEST SWAP3 POP DUP3 DUP3 ADD SWAP1 POP DUP1 DUP3 GT ISZERO PUSH2 0x1BD2 JUMPI PUSH2 0x1BD1 PUSH2 0x1B78 JUMP JUMPDEST JUMPDEST SWAP3 SWAP2 POP POP JUMP JUMPDEST PUSH32 0x546F6B656E205472616E7366657220696E20636F6F6C646F776E000000000000 PUSH0 DUP3 ADD MSTORE POP JUMP JUMPDEST PUSH0 PUSH2 0x1C0C PUSH1 0x1A DUP4 PUSH2 0x15C7 JUMP JUMPDEST SWAP2 POP PUSH2 0x1C17 DUP3 PUSH2 0x1BD8 JUMP JUMPDEST PUSH1 0x20 DUP3 ADD SWAP1 POP SWAP2 SWAP1 POP JUMP JUMPDEST PUSH0 PUSH1 0x20 DUP3 ADD SWAP1 POP DUP2 DUP2 SUB PUSH0 DUP4 ADD MSTORE PUSH2 0x1C39 DUP2 PUSH2 0x1C00 JUMP JUMPDEST SWAP1 POP SWAP2 SWAP1 POP JUMP INVALID LOG2 PUSH5 0x6970667358 0x22 SLT KECCAK256 PUSH7 0x9294553DF0BADB SWAP16 0xC0 DUP10 PUSH15 0x1ADA902B328B5A98F82C2F1D224A5C 0xB2 0xDE PREVRANDAO LOG2 TLOAD PUSH5 0x736F6C6343 STOP ADDMOD BYTE STOP CALLER "
				},
				"gasEstimates": {
					"creation": {
						"codeDepositCost": "1457200",
						"executionCost": "infinite",
						"totalCost": "infinite"
					},
					"external": {
						"addToBlacklist(address)": "infinite",
						"addToWhitelist(address)": "infinite",
						"allowance(address,address)": "infinite",
						"approve(address,uint256)": "infinite",
						"balanceOf(address)": "2875",
						"cooldownTime()": "2492",
						"decimals()": "384",
						"disableWhiteListing()": "infinite",
						"enableWhiteListing()": "infinite",
						"getContractDetails()": "infinite",
						"getMaxTxAmount()": "2521",
						"isBlacklisted(address)": "2980",
						"isWhiteListingEnabled()": "2563",
						"isWhitelisted(address)": "2938",
						"maxTxAmount()": "2470",
						"name()": "infinite",
						"owner()": "2582",
						"removeFromBlacklist(address)": "infinite",
						"removeFromWhitelist(address)": "infinite",
						"renounceOwnership()": "infinite",
						"setCoolDownTime(uint256)": "infinite",
						"setMaxTxAmount(uint256)": "infinite",
						"symbol()": "infinite",
						"totalSupply()": "2500",
						"transfer(address,uint256)": "infinite",
						"transferFrom(address,address,uint256)": "infinite",
						"transferOwnership(address)": "infinite"
					},
					"internal": {
						"_update(address,address,uint256)": "infinite"
					}
				},
				"methodIdentifiers": {
					"addToBlacklist(address)": "44337ea1",
					"addToWhitelist(address)": "e43252d7",
					"allowance(address,address)": "dd62ed3e",
					"approve(address,uint256)": "095ea7b3",
					"balanceOf(address)": "70a08231",
					"cooldownTime()": "b319c6b7",
					"decimals()": "313ce567",
					"disableWhiteListing()": "688188e8",
					"enableWhiteListing()": "2958ad7f",
					"getContractDetails()": "9dfc9117",
					"getMaxTxAmount()": "6d8b0527",
					"isBlacklisted(address)": "fe575a87",
					"isWhiteListingEnabled()": "1c0aecfa",
					"isWhitelisted(address)": "3af32abf",
					"maxTxAmount()": "8c0b5e22",
					"name()": "06fdde03",
					"owner()": "8da5cb5b",
					"removeFromBlacklist(address)": "537df3b6",
					"removeFromWhitelist(address)": "8ab1d681",
					"renounceOwnership()": "715018a6",
					"setCoolDownTime(uint256)": "6e16de11",
					"setMaxTxAmount(uint256)": "ec28438a",
					"symbol()": "95d89b41",
					"totalSupply()": "18160ddd",
					"transfer(address,uint256)": "a9059cbb",
					"transferFrom(address,address,uint256)": "23b872dd",
					"transferOwnership(address)": "f2fde38b"
				}
			},
			"storageLayout": {
				"storage": [
					{
						"astId": 279,
						"contract": "ChaiToken_flattened.sol:ChaiToken",
						"label": "_balances",
						"offset": 0,
						"slot": "0",
						"type": "t_mapping(t_address,t_uint256)"
					},
					{
						"astId": 285,
						"contract": "ChaiToken_flattened.sol:ChaiToken",
						"label": "_allowances",
						"offset": 0,
						"slot": "1",
						"type": "t_mapping(t_address,t_mapping(t_address,t_uint256))"
					},
					{
						"astId": 287,
						"contract": "ChaiToken_flattened.sol:ChaiToken",
						"label": "_totalSupply",
						"offset": 0,
						"slot": "2",
						"type": "t_uint256"
					},
					{
						"astId": 289,
						"contract": "ChaiToken_flattened.sol:ChaiToken",
						"label": "_name",
						"offset": 0,
						"slot": "3",
						"type": "t_string_storage"
					},
					{
						"astId": 291,
						"contract": "ChaiToken_flattened.sol:ChaiToken",
						"label": "_symbol",
						"offset": 0,
						"slot": "4",
						"type": "t_string_storage"
					},
					{
						"astId": 777,
						"contract": "ChaiToken_flattened.sol:ChaiToken",
						"label": "_owner",
						"offset": 0,
						"slot": "5",
						"type": "t_address"
					},
					{
						"astId": 929,
						"contract": "ChaiToken_flattened.sol:ChaiToken",
						"label": "_initialSupply",
						"offset": 0,
						"slot": "6",
						"type": "t_uint256"
					},
					{
						"astId": 932,
						"contract": "ChaiToken_flattened.sol:ChaiToken",
						"label": "maxTxAmount",
						"offset": 0,
						"slot": "7",
						"type": "t_uint256"
					},
					{
						"astId": 935,
						"contract": "ChaiToken_flattened.sol:ChaiToken",
						"label": "cooldownTime",
						"offset": 0,
						"slot": "8",
						"type": "t_uint256"
					},
					{
						"astId": 939,
						"contract": "ChaiToken_flattened.sol:ChaiToken",
						"label": "_blacklist",
						"offset": 0,
						"slot": "9",
						"type": "t_mapping(t_address,t_bool)"
					},
					{
						"astId": 943,
						"contract": "ChaiToken_flattened.sol:ChaiToken",
						"label": "_whitelist",
						"offset": 0,
						"slot": "10",
						"type": "t_mapping(t_address,t_bool)"
					},
					{
						"astId": 947,
						"contract": "ChaiToken_flattened.sol:ChaiToken",
						"label": "_lastTxTime",
						"offset": 0,
						"slot": "11",
						"type": "t_mapping(t_address,t_uint256)"
					},
					{
						"astId": 950,
						"contract": "ChaiToken_flattened.sol:ChaiToken",
						"label": "_whiteListingEnabled",
						"offset": 0,
						"slot": "12",
						"type": "t_bool"
					}
				],
				"types": {
					"t_address": {
						"encoding": "inplace",
						"label": "address",
						"numberOfBytes": "20"
					},
					"t_bool": {
						"encoding": "inplace",
						"label": "bool",
						"numberOfBytes": "1"
					},
					"t_mapping(t_address,t_bool)": {
						"encoding": "mapping",
						"key": "t_address",
						"label": "mapping(address => bool)",
						"numberOfBytes": "32",
						"value": "t_bool"
					},
					"t_mapping(t_address,t_mapping(t_address,t_uint256))": {
						"encoding": "mapping",
						"key": "t_address",
						"label": "mapping(address => mapping(address => uint256))",
						"numberOfBytes": "32",
						"value": "t_mapping(t_address,t_uint256)"
					},
					"t_mapping(t_address,t_uint256)": {
						"encoding": "mapping",
						"key": "t_address",
						"label": "mapping(address => uint256)",
						"numberOfBytes": "32",
						"value": "t_uint256"
					},
					"t_string_storage": {
						"encoding": "bytes",
						"label": "string",
						"numberOfBytes": "32"
					},
					"t_uint256": {
						"encoding": "inplace",
						"label": "uint256",
						"numberOfBytes": "32"
					}
				}
			},
			"userdoc": {
				"kind": "user",
				"methods": {},
				"version": 1
			}
		}
	}
}